{
	"contracts/auction2.sol": {
		"SimpleAuctions": {
			"abi": [
				{
					"constant": true,
					"inputs": [],
					"name": "topBidder",
					"outputs": [
						{
							"name": "",
							"type": "address"
						}
					],
					"payable": false,
					"stateMutability": "view",
					"type": "function"
				},
				{
					"constant": false,
					"inputs": [],
					"name": "bid",
					"outputs": [],
					"payable": true,
					"stateMutability": "payable",
					"type": "function"
				},
				{
					"constant": false,
					"inputs": [],
					"name": "auctionClose",
					"outputs": [],
					"payable": false,
					"stateMutability": "nonpayable",
					"type": "function"
				},
				{
					"constant": false,
					"inputs": [],
					"name": "withdraw",
					"outputs": [
						{
							"name": "",
							"type": "bool"
						}
					],
					"payable": false,
					"stateMutability": "nonpayable",
					"type": "function"
				},
				{
					"constant": true,
					"inputs": [],
					"name": "topBid",
					"outputs": [
						{
							"name": "",
							"type": "uint256"
						}
					],
					"payable": false,
					"stateMutability": "view",
					"type": "function"
				},
				{
					"constant": true,
					"inputs": [],
					"name": "beneficiaryAddress",
					"outputs": [
						{
							"name": "",
							"type": "address"
						}
					],
					"payable": false,
					"stateMutability": "view",
					"type": "function"
				},
				{
					"constant": false,
					"inputs": [
						{
							"name": "_biddingTime",
							"type": "uint256"
						},
						{
							"name": "_beneficiary",
							"type": "address"
						}
					],
					"name": "SimpleAuction",
					"outputs": [],
					"payable": false,
					"stateMutability": "nonpayable",
					"type": "function"
				},
				{
					"anonymous": false,
					"inputs": [
						{
							"indexed": false,
							"name": "bidder",
							"type": "address"
						},
						{
							"indexed": false,
							"name": "bidAmount",
							"type": "uint256"
						}
					],
					"name": "topBidIncreased",
					"type": "event"
				},
				{
					"anonymous": false,
					"inputs": [
						{
							"indexed": false,
							"name": "winner",
							"type": "address"
						},
						{
							"indexed": false,
							"name": "bidAmount",
							"type": "uint256"
						}
					],
					"name": "auctionResult",
					"type": "event"
				}
			],
			"devdoc": {
				"methods": {}
			},
			"evm": {
				"assembly": "    /* \"contracts/auction2.sol\":28:4292  contract SimpleAuctions {\r... */\n  mstore(0x40, 0x80)\n  callvalue\n    /* \"--CODEGEN--\":8:17   */\n  dup1\n    /* \"--CODEGEN--\":5:7   */\n  iszero\n  tag_1\n  jumpi\n    /* \"--CODEGEN--\":30:31   */\n  0x0\n    /* \"--CODEGEN--\":27:28   */\n  dup1\n    /* \"--CODEGEN--\":20:32   */\n  revert\n    /* \"--CODEGEN--\":5:7   */\ntag_1:\n    /* \"contracts/auction2.sol\":28:4292  contract SimpleAuctions {\r... */\n  pop\n  dataSize(sub_0)\n  dup1\n  dataOffset(sub_0)\n  0x0\n  codecopy\n  0x0\n  return\nstop\n\nsub_0: assembly {\n        /* \"contracts/auction2.sol\":28:4292  contract SimpleAuctions {\r... */\n      mstore(0x40, 0x80)\n      jumpi(tag_1, lt(calldatasize, 0x4))\n      calldataload(0x0)\n      0x100000000000000000000000000000000000000000000000000000000\n      swap1\n      div\n      0xffffffff\n      and\n      dup1\n      0x1333f06\n      eq\n      tag_2\n      jumpi\n      dup1\n      0x1998aeef\n      eq\n      tag_3\n      jumpi\n      dup1\n      0x19c2a5b5\n      eq\n      tag_4\n      jumpi\n      dup1\n      0x3ccfd60b\n      eq\n      tag_5\n      jumpi\n      dup1\n      0x636bf730\n      eq\n      tag_6\n      jumpi\n      dup1\n      0xd9c4870e\n      eq\n      tag_7\n      jumpi\n      dup1\n      0xffb3401d\n      eq\n      tag_8\n      jumpi\n    tag_1:\n      0x0\n      dup1\n      revert\n        /* \"contracts/auction2.sol\":337:361  address public topBidder */\n    tag_2:\n      callvalue\n        /* \"--CODEGEN--\":8:17   */\n      dup1\n        /* \"--CODEGEN--\":5:7   */\n      iszero\n      tag_9\n      jumpi\n        /* \"--CODEGEN--\":30:31   */\n      0x0\n        /* \"--CODEGEN--\":27:28   */\n      dup1\n        /* \"--CODEGEN--\":20:32   */\n      revert\n        /* \"--CODEGEN--\":5:7   */\n    tag_9:\n        /* \"contracts/auction2.sol\":337:361  address public topBidder */\n      pop\n      tag_10\n      jump(tag_11)\n    tag_10:\n      mload(0x40)\n      dup1\n      dup3\n      0xffffffffffffffffffffffffffffffffffffffff\n      and\n      0xffffffffffffffffffffffffffffffffffffffff\n      and\n      dup2\n      mstore\n      0x20\n      add\n      swap2\n      pop\n      pop\n      mload(0x40)\n      dup1\n      swap2\n      sub\n      swap1\n      return\n        /* \"contracts/auction2.sol\":1456:2436  function bid() public payable {\r... */\n    tag_3:\n      tag_12\n      jump(tag_13)\n    tag_12:\n      stop\n        /* \"contracts/auction2.sol\":3201:4289  function auctionClose() {\r... */\n    tag_4:\n      callvalue\n        /* \"--CODEGEN--\":8:17   */\n      dup1\n        /* \"--CODEGEN--\":5:7   */\n      iszero\n      tag_14\n      jumpi\n        /* \"--CODEGEN--\":30:31   */\n      0x0\n        /* \"--CODEGEN--\":27:28   */\n      dup1\n        /* \"--CODEGEN--\":20:32   */\n      revert\n        /* \"--CODEGEN--\":5:7   */\n    tag_14:\n        /* \"contracts/auction2.sol\":3201:4289  function auctionClose() {\r... */\n      pop\n      tag_15\n      jump(tag_16)\n    tag_15:\n      stop\n        /* \"contracts/auction2.sol\":2486:3118  function withdraw() returns (bool) {\r... */\n    tag_5:\n      callvalue\n        /* \"--CODEGEN--\":8:17   */\n      dup1\n        /* \"--CODEGEN--\":5:7   */\n      iszero\n      tag_17\n      jumpi\n        /* \"--CODEGEN--\":30:31   */\n      0x0\n        /* \"--CODEGEN--\":27:28   */\n      dup1\n        /* \"--CODEGEN--\":20:32   */\n      revert\n        /* \"--CODEGEN--\":5:7   */\n    tag_17:\n        /* \"contracts/auction2.sol\":2486:3118  function withdraw() returns (bool) {\r... */\n      pop\n      tag_18\n      jump(tag_19)\n    tag_18:\n      mload(0x40)\n      dup1\n      dup3\n      iszero\n      iszero\n      iszero\n      iszero\n      dup2\n      mstore\n      0x20\n      add\n      swap2\n      pop\n      pop\n      mload(0x40)\n      dup1\n      swap2\n      sub\n      swap1\n      return\n        /* \"contracts/auction2.sol\":368:386  uint public topBid */\n    tag_6:\n      callvalue\n        /* \"--CODEGEN--\":8:17   */\n      dup1\n        /* \"--CODEGEN--\":5:7   */\n      iszero\n      tag_20\n      jumpi\n        /* \"--CODEGEN--\":30:31   */\n      0x0\n        /* \"--CODEGEN--\":27:28   */\n      dup1\n        /* \"--CODEGEN--\":20:32   */\n      revert\n        /* \"--CODEGEN--\":5:7   */\n    tag_20:\n        /* \"contracts/auction2.sol\":368:386  uint public topBid */\n      pop\n      tag_21\n      jump(tag_22)\n    tag_21:\n      mload(0x40)\n      dup1\n      dup3\n      dup2\n      mstore\n      0x20\n      add\n      swap2\n      pop\n      pop\n      mload(0x40)\n      dup1\n      swap2\n      sub\n      swap1\n      return\n        /* \"contracts/auction2.sol\":226:259  address public beneficiaryAddress */\n    tag_7:\n      callvalue\n        /* \"--CODEGEN--\":8:17   */\n      dup1\n        /* \"--CODEGEN--\":5:7   */\n      iszero\n      tag_23\n      jumpi\n        /* \"--CODEGEN--\":30:31   */\n      0x0\n        /* \"--CODEGEN--\":27:28   */\n      dup1\n        /* \"--CODEGEN--\":20:32   */\n      revert\n        /* \"--CODEGEN--\":5:7   */\n    tag_23:\n        /* \"contracts/auction2.sol\":226:259  address public beneficiaryAddress */\n      pop\n      tag_24\n      jump(tag_25)\n    tag_24:\n      mload(0x40)\n      dup1\n      dup3\n      0xffffffffffffffffffffffffffffffffffffffff\n      and\n      0xffffffffffffffffffffffffffffffffffffffff\n      and\n      dup2\n      mstore\n      0x20\n      add\n      swap2\n      pop\n      pop\n      mload(0x40)\n      dup1\n      swap2\n      sub\n      swap1\n      return\n        /* \"contracts/auction2.sol\":1085:1277  function SimpleAuction(\r... */\n    tag_8:\n      callvalue\n        /* \"--CODEGEN--\":8:17   */\n      dup1\n        /* \"--CODEGEN--\":5:7   */\n      iszero\n      tag_26\n      jumpi\n        /* \"--CODEGEN--\":30:31   */\n      0x0\n        /* \"--CODEGEN--\":27:28   */\n      dup1\n        /* \"--CODEGEN--\":20:32   */\n      revert\n        /* \"--CODEGEN--\":5:7   */\n    tag_26:\n        /* \"contracts/auction2.sol\":1085:1277  function SimpleAuction(\r... */\n      pop\n      tag_27\n      0x4\n      dup1\n      calldatasize\n      sub\n      dup2\n      add\n      swap1\n      dup1\n      dup1\n      calldataload\n      swap1\n      0x20\n      add\n      swap1\n      swap3\n      swap2\n      swap1\n      dup1\n      calldataload\n      0xffffffffffffffffffffffffffffffffffffffff\n      and\n      swap1\n      0x20\n      add\n      swap1\n      swap3\n      swap2\n      swap1\n      pop\n      pop\n      pop\n      jump(tag_28)\n    tag_27:\n      stop\n        /* \"contracts/auction2.sol\":337:361  address public topBidder */\n    tag_11:\n      0x2\n      0x0\n      swap1\n      sload\n      swap1\n      0x100\n      exp\n      swap1\n      div\n      0xffffffffffffffffffffffffffffffffffffffff\n      and\n      dup2\n      jump\t// out\n        /* \"contracts/auction2.sol\":1456:2436  function bid() public payable {\r... */\n    tag_13:\n        /* \"contracts/auction2.sol\":1793:1805  auctionClose */\n      sload(0x1)\n        /* \"contracts/auction2.sol\":1786:1789  now */\n      timestamp\n        /* \"contracts/auction2.sol\":1786:1805  now <= auctionClose */\n      gt\n      iszero\n        /* \"contracts/auction2.sol\":1778:1806  require(now <= auctionClose) */\n      iszero\n      iszero\n      tag_30\n      jumpi\n      0x0\n      dup1\n      revert\n    tag_30:\n        /* \"contracts/auction2.sol\":1914:1920  topBid */\n      sload(0x3)\n        /* \"contracts/auction2.sol\":1902:1911  msg.value */\n      callvalue\n        /* \"contracts/auction2.sol\":1902:1920  msg.value > topBid */\n      gt\n        /* \"contracts/auction2.sol\":1894:1921  require(msg.value > topBid) */\n      iszero\n      iszero\n      tag_31\n      jumpi\n      0x0\n      dup1\n      revert\n    tag_31:\n        /* \"contracts/auction2.sol\":1951:1952  0 */\n      0x0\n        /* \"contracts/auction2.sol\":1938:1947  topBidder */\n      0x2\n      0x0\n      swap1\n      sload\n      swap1\n      0x100\n      exp\n      swap1\n      div\n      0xffffffffffffffffffffffffffffffffffffffff\n      and\n        /* \"contracts/auction2.sol\":1938:1952  topBidder != 0 */\n      0xffffffffffffffffffffffffffffffffffffffff\n      and\n      eq\n      iszero\n        /* \"contracts/auction2.sol\":1934:2318  if (topBidder != 0) {\r... */\n      iszero\n      tag_32\n      jumpi\n        /* \"contracts/auction2.sol\":2300:2306  topBid */\n      sload(0x3)\n        /* \"contracts/auction2.sol\":2271:2285  returnsPending */\n      0x4\n        /* \"contracts/auction2.sol\":2271:2296  returnsPending[topBidder] */\n      0x0\n        /* \"contracts/auction2.sol\":2286:2295  topBidder */\n      0x2\n      0x0\n      swap1\n      sload\n      swap1\n      0x100\n      exp\n      swap1\n      div\n      0xffffffffffffffffffffffffffffffffffffffff\n      and\n        /* \"contracts/auction2.sol\":2271:2296  returnsPending[topBidder] */\n      0xffffffffffffffffffffffffffffffffffffffff\n      and\n      0xffffffffffffffffffffffffffffffffffffffff\n      and\n      dup2\n      mstore\n      0x20\n      add\n      swap1\n      dup2\n      mstore\n      0x20\n      add\n      0x0\n      keccak256\n      0x0\n        /* \"contracts/auction2.sol\":2271:2306  returnsPending[topBidder] += topBid */\n      dup3\n      dup3\n      sload\n      add\n      swap3\n      pop\n      pop\n      dup2\n      swap1\n      sstore\n      pop\n        /* \"contracts/auction2.sol\":1934:2318  if (topBidder != 0) {\r... */\n    tag_32:\n        /* \"contracts/auction2.sol\":2340:2350  msg.sender */\n      caller\n        /* \"contracts/auction2.sol\":2328:2337  topBidder */\n      0x2\n      0x0\n        /* \"contracts/auction2.sol\":2328:2350  topBidder = msg.sender */\n      0x100\n      exp\n      dup2\n      sload\n      dup2\n      0xffffffffffffffffffffffffffffffffffffffff\n      mul\n      not\n      and\n      swap1\n      dup4\n      0xffffffffffffffffffffffffffffffffffffffff\n      and\n      mul\n      or\n      swap1\n      sstore\n      pop\n        /* \"contracts/auction2.sol\":2370:2379  msg.value */\n      callvalue\n        /* \"contracts/auction2.sol\":2361:2367  topBid */\n      0x3\n        /* \"contracts/auction2.sol\":2361:2379  topBid = msg.value */\n      dup2\n      swap1\n      sstore\n      pop\n        /* \"contracts/auction2.sol\":2390:2428  topBidIncreased(msg.sender, msg.value) */\n      0x7635e37094566fa4ea4b08dd77117e7ace1e3e5a6ee614bcd37eb6ad8eccc1d9\n        /* \"contracts/auction2.sol\":2406:2416  msg.sender */\n      caller\n        /* \"contracts/auction2.sol\":2418:2427  msg.value */\n      callvalue\n        /* \"contracts/auction2.sol\":2390:2428  topBidIncreased(msg.sender, msg.value) */\n      mload(0x40)\n      dup1\n      dup4\n      0xffffffffffffffffffffffffffffffffffffffff\n      and\n      0xffffffffffffffffffffffffffffffffffffffff\n      and\n      dup2\n      mstore\n      0x20\n      add\n      dup3\n      dup2\n      mstore\n      0x20\n      add\n      swap3\n      pop\n      pop\n      pop\n      mload(0x40)\n      dup1\n      swap2\n      sub\n      swap1\n      log1\n        /* \"contracts/auction2.sol\":1456:2436  function bid() public payable {\r... */\n      jump\t// out\n        /* \"contracts/auction2.sol\":3201:4289  function auctionClose() {\r... */\n    tag_16:\n        /* \"contracts/auction2.sol\":3988:4000  auctionClose */\n      sload(0x1)\n        /* \"contracts/auction2.sol\":3981:3984  now */\n      timestamp\n        /* \"contracts/auction2.sol\":3981:4000  now >= auctionClose */\n      lt\n      iszero\n        /* \"contracts/auction2.sol\":3973:4001  require(now >= auctionClose) */\n      iszero\n      iszero\n      tag_34\n      jumpi\n      0x0\n      dup1\n      revert\n    tag_34:\n        /* \"contracts/auction2.sol\":4048:4063  auctionComplete */\n      0x5\n      0x0\n      swap1\n      sload\n      swap1\n      0x100\n      exp\n      swap1\n      div\n      0xff\n      and\n        /* \"contracts/auction2.sol\":4047:4063  !auctionComplete */\n      iszero\n        /* \"contracts/auction2.sol\":4039:4064  require(!auctionComplete) */\n      iszero\n      iszero\n      tag_35\n      jumpi\n      0x0\n      dup1\n      revert\n    tag_35:\n        /* \"contracts/auction2.sol\":4159:4163  true */\n      0x1\n        /* \"contracts/auction2.sol\":4141:4156  auctionComplete */\n      0x5\n      0x0\n        /* \"contracts/auction2.sol\":4141:4163  auctionComplete = true */\n      0x100\n      exp\n      dup2\n      sload\n      dup2\n      0xff\n      mul\n      not\n      and\n      swap1\n      dup4\n      iszero\n      iszero\n      mul\n      or\n      swap1\n      sstore\n      pop\n        /* \"contracts/auction2.sol\":4174:4206  auctionResult(topBidder, topBid) */\n      0xc9b64caa2aa57493e3a2b3087a613ad4168386aa000be494a8a41cd06bd3844a\n        /* \"contracts/auction2.sol\":4188:4197  topBidder */\n      0x2\n      0x0\n      swap1\n      sload\n      swap1\n      0x100\n      exp\n      swap1\n      div\n      0xffffffffffffffffffffffffffffffffffffffff\n      and\n        /* \"contracts/auction2.sol\":4199:4205  topBid */\n      sload(0x3)\n        /* \"contracts/auction2.sol\":4174:4206  auctionResult(topBidder, topBid) */\n      mload(0x40)\n      dup1\n      dup4\n      0xffffffffffffffffffffffffffffffffffffffff\n      and\n      0xffffffffffffffffffffffffffffffffffffffff\n      and\n      dup2\n      mstore\n      0x20\n      add\n      dup3\n      dup2\n      mstore\n      0x20\n      add\n      swap3\n      pop\n      pop\n      pop\n      mload(0x40)\n      dup1\n      swap2\n      sub\n      swap1\n      log1\n        /* \"contracts/auction2.sol\":4246:4264  beneficiaryAddress */\n      0x0\n      dup1\n      swap1\n      sload\n      swap1\n      0x100\n      exp\n      swap1\n      div\n      0xffffffffffffffffffffffffffffffffffffffff\n      and\n        /* \"contracts/auction2.sol\":4246:4273  beneficiaryAddress.transfer */\n      0xffffffffffffffffffffffffffffffffffffffff\n      and\n        /* \"contracts/auction2.sol\":4246:4281  beneficiaryAddress.transfer(topBid) */\n      0x8fc\n        /* \"contracts/auction2.sol\":4274:4280  topBid */\n      sload(0x3)\n        /* \"contracts/auction2.sol\":4246:4281  beneficiaryAddress.transfer(topBid) */\n      swap1\n      dup2\n      iszero\n      mul\n      swap1\n      mload(0x40)\n      0x0\n      mload(0x40)\n      dup1\n      dup4\n      sub\n      dup2\n      dup6\n      dup9\n      dup9\n      call\n      swap4\n      pop\n      pop\n      pop\n      pop\n      iszero\n        /* \"--CODEGEN--\":8:17   */\n      dup1\n        /* \"--CODEGEN--\":5:7   */\n      iszero\n      tag_36\n      jumpi\n        /* \"--CODEGEN--\":45:61   */\n      returndatasize\n        /* \"--CODEGEN--\":42:43   */\n      0x0\n        /* \"--CODEGEN--\":39:40   */\n      dup1\n        /* \"--CODEGEN--\":24:62   */\n      returndatacopy\n        /* \"--CODEGEN--\":77:93   */\n      returndatasize\n        /* \"--CODEGEN--\":74:75   */\n      0x0\n        /* \"--CODEGEN--\":67:94   */\n      revert\n        /* \"--CODEGEN--\":5:7   */\n    tag_36:\n        /* \"contracts/auction2.sol\":4246:4281  beneficiaryAddress.transfer(topBid) */\n      pop\n        /* \"contracts/auction2.sol\":3201:4289  function auctionClose() {\r... */\n      jump\t// out\n        /* \"contracts/auction2.sol\":2486:3118  function withdraw() returns (bool) {\r... */\n    tag_19:\n        /* \"contracts/auction2.sol\":2515:2519  bool */\n      0x0\n        /* \"contracts/auction2.sol\":2532:2546  uint bidAmount */\n      dup1\n        /* \"contracts/auction2.sol\":2549:2563  returnsPending */\n      0x4\n        /* \"contracts/auction2.sol\":2549:2575  returnsPending[msg.sender] */\n      0x0\n        /* \"contracts/auction2.sol\":2564:2574  msg.sender */\n      caller\n        /* \"contracts/auction2.sol\":2549:2575  returnsPending[msg.sender] */\n      0xffffffffffffffffffffffffffffffffffffffff\n      and\n      0xffffffffffffffffffffffffffffffffffffffff\n      and\n      dup2\n      mstore\n      0x20\n      add\n      swap1\n      dup2\n      mstore\n      0x20\n      add\n      0x0\n      keccak256\n      sload\n        /* \"contracts/auction2.sol\":2532:2575  uint bidAmount = returnsPending[msg.sender] */\n      swap1\n      pop\n        /* \"contracts/auction2.sol\":2602:2603  0 */\n      0x0\n        /* \"contracts/auction2.sol\":2590:2599  bidAmount */\n      dup2\n        /* \"contracts/auction2.sol\":2590:2603  bidAmount > 0 */\n      gt\n        /* \"contracts/auction2.sol\":2586:3089  if (bidAmount > 0) {\r... */\n      iszero\n      tag_38\n      jumpi\n        /* \"contracts/auction2.sol\":2837:2838  0 */\n      0x0\n        /* \"contracts/auction2.sol\":2808:2822  returnsPending */\n      0x4\n        /* \"contracts/auction2.sol\":2808:2834  returnsPending[msg.sender] */\n      0x0\n        /* \"contracts/auction2.sol\":2823:2833  msg.sender */\n      caller\n        /* \"contracts/auction2.sol\":2808:2834  returnsPending[msg.sender] */\n      0xffffffffffffffffffffffffffffffffffffffff\n      and\n      0xffffffffffffffffffffffffffffffffffffffff\n      and\n      dup2\n      mstore\n      0x20\n      add\n      swap1\n      dup2\n      mstore\n      0x20\n      add\n      0x0\n      keccak256\n        /* \"contracts/auction2.sol\":2808:2838  returnsPending[msg.sender] = 0 */\n      dup2\n      swap1\n      sstore\n      pop\n        /* \"contracts/auction2.sol\":2860:2870  msg.sender */\n      caller\n        /* \"contracts/auction2.sol\":2860:2875  msg.sender.send */\n      0xffffffffffffffffffffffffffffffffffffffff\n      and\n        /* \"contracts/auction2.sol\":2860:2886  msg.sender.send(bidAmount) */\n      0x8fc\n        /* \"contracts/auction2.sol\":2876:2885  bidAmount */\n      dup3\n        /* \"contracts/auction2.sol\":2860:2886  msg.sender.send(bidAmount) */\n      swap1\n      dup2\n      iszero\n      mul\n      swap1\n      mload(0x40)\n      0x0\n      mload(0x40)\n      dup1\n      dup4\n      sub\n      dup2\n      dup6\n      dup9\n      dup9\n      call\n      swap4\n      pop\n      pop\n      pop\n      pop\n        /* \"contracts/auction2.sol\":2859:2886  !msg.sender.send(bidAmount) */\n      iszero\n        /* \"contracts/auction2.sol\":2855:3078  if (!msg.sender.send(bidAmount)) {\r... */\n      iszero\n      tag_39\n      jumpi\n        /* \"contracts/auction2.sol\":3022:3031  bidAmount */\n      dup1\n        /* \"contracts/auction2.sol\":2993:3007  returnsPending */\n      0x4\n        /* \"contracts/auction2.sol\":2993:3019  returnsPending[msg.sender] */\n      0x0\n        /* \"contracts/auction2.sol\":3008:3018  msg.sender */\n      caller\n        /* \"contracts/auction2.sol\":2993:3019  returnsPending[msg.sender] */\n      0xffffffffffffffffffffffffffffffffffffffff\n      and\n      0xffffffffffffffffffffffffffffffffffffffff\n      and\n      dup2\n      mstore\n      0x20\n      add\n      swap1\n      dup2\n      mstore\n      0x20\n      add\n      0x0\n      keccak256\n        /* \"contracts/auction2.sol\":2993:3031  returnsPending[msg.sender] = bidAmount */\n      dup2\n      swap1\n      sstore\n      pop\n        /* \"contracts/auction2.sol\":3057:3062  false */\n      0x0\n        /* \"contracts/auction2.sol\":3050:3062  return false */\n      swap2\n      pop\n      jump(tag_37)\n        /* \"contracts/auction2.sol\":2855:3078  if (!msg.sender.send(bidAmount)) {\r... */\n    tag_39:\n        /* \"contracts/auction2.sol\":2586:3089  if (bidAmount > 0) {\r... */\n    tag_38:\n        /* \"contracts/auction2.sol\":3106:3110  true */\n      0x1\n        /* \"contracts/auction2.sol\":3099:3110  return true */\n      swap2\n      pop\n        /* \"contracts/auction2.sol\":2486:3118  function withdraw() returns (bool) {\r... */\n    tag_37:\n      pop\n      swap1\n      jump\t// out\n        /* \"contracts/auction2.sol\":368:386  uint public topBid */\n    tag_22:\n      sload(0x3)\n      dup2\n      jump\t// out\n        /* \"contracts/auction2.sol\":226:259  address public beneficiaryAddress */\n    tag_25:\n      0x0\n      dup1\n      swap1\n      sload\n      swap1\n      0x100\n      exp\n      swap1\n      div\n      0xffffffffffffffffffffffffffffffffffffffff\n      and\n      dup2\n      jump\t// out\n        /* \"contracts/auction2.sol\":1085:1277  function SimpleAuction(\r... */\n    tag_28:\n        /* \"contracts/auction2.sol\":1213:1225  _beneficiary */\n      dup1\n        /* \"contracts/auction2.sol\":1192:1210  beneficiaryAddress */\n      0x0\n      dup1\n        /* \"contracts/auction2.sol\":1192:1225  beneficiaryAddress = _beneficiary */\n      0x100\n      exp\n      dup2\n      sload\n      dup2\n      0xffffffffffffffffffffffffffffffffffffffff\n      mul\n      not\n      and\n      swap1\n      dup4\n      0xffffffffffffffffffffffffffffffffffffffff\n      and\n      mul\n      or\n      swap1\n      sstore\n      pop\n        /* \"contracts/auction2.sol\":1257:1269  _biddingTime */\n      dup2\n        /* \"contracts/auction2.sol\":1251:1254  now */\n      timestamp\n        /* \"contracts/auction2.sol\":1251:1269  now + _biddingTime */\n      add\n        /* \"contracts/auction2.sol\":1236:1248  auctionClose */\n      0x1\n        /* \"contracts/auction2.sol\":1236:1269  auctionClose = now + _biddingTime */\n      dup2\n      swap1\n      sstore\n      pop\n        /* \"contracts/auction2.sol\":1085:1277  function SimpleAuction(\r... */\n      pop\n      pop\n      jump\t// out\n\n    auxdata: 0xa165627a7a72305820b789577bed1e9649d714025f6af0b3b34e4cbf992360a7da93605ed71d64c69d0029\n}\n",
				"bytecode": {
					"linkReferences": {},
					"object": "608060405234801561001057600080fd5b506106ba806100206000396000f300608060405260043610610083576000357c0100000000000000000000000000000000000000000000000000000000900463ffffffff16806301333f06146100885780631998aeef146100df57806319c2a5b5146100e95780633ccfd60b14610100578063636bf7301461012f578063d9c4870e1461015a578063ffb3401d146101b1575b600080fd5b34801561009457600080fd5b5061009d6101fe565b604051808273ffffffffffffffffffffffffffffffffffffffff1673ffffffffffffffffffffffffffffffffffffffff16815260200191505060405180910390f35b6100e7610224565b005b3480156100f557600080fd5b506100fe6103ae565b005b34801561010c57600080fd5b506101156104f1565b604051808215151515815260200191505060405180910390f35b34801561013b57600080fd5b50610144610616565b6040518082815260200191505060405180910390f35b34801561016657600080fd5b5061016f61061c565b604051808273ffffffffffffffffffffffffffffffffffffffff1673ffffffffffffffffffffffffffffffffffffffff16815260200191505060405180910390f35b3480156101bd57600080fd5b506101fc60048036038101908080359060200190929190803573ffffffffffffffffffffffffffffffffffffffff169060200190929190505050610641565b005b600260009054906101000a900473ffffffffffffffffffffffffffffffffffffffff1681565b600154421115151561023557600080fd5b6003543411151561024557600080fd5b6000600260009054906101000a900473ffffffffffffffffffffffffffffffffffffffff1673ffffffffffffffffffffffffffffffffffffffff161415156102f95760035460046000600260009054906101000a900473ffffffffffffffffffffffffffffffffffffffff1673ffffffffffffffffffffffffffffffffffffffff1673ffffffffffffffffffffffffffffffffffffffff168152602001908152602001600020600082825401925050819055505b33600260006101000a81548173ffffffffffffffffffffffffffffffffffffffff021916908373ffffffffffffffffffffffffffffffffffffffff160217905550346003819055507f7635e37094566fa4ea4b08dd77117e7ace1e3e5a6ee614bcd37eb6ad8eccc1d93334604051808373ffffffffffffffffffffffffffffffffffffffff1673ffffffffffffffffffffffffffffffffffffffff1681526020018281526020019250505060405180910390a1565b60015442101515156103bf57600080fd5b600560009054906101000a900460ff161515156103db57600080fd5b6001600560006101000a81548160ff0219169083151502179055507fc9b64caa2aa57493e3a2b3087a613ad4168386aa000be494a8a41cd06bd3844a600260009054906101000a900473ffffffffffffffffffffffffffffffffffffffff16600354604051808373ffffffffffffffffffffffffffffffffffffffff1673ffffffffffffffffffffffffffffffffffffffff1681526020018281526020019250505060405180910390a16000809054906101000a900473ffffffffffffffffffffffffffffffffffffffff1673ffffffffffffffffffffffffffffffffffffffff166108fc6003549081150290604051600060405180830381858888f193505050501580156104ee573d6000803e3d6000fd5b50565b600080600460003373ffffffffffffffffffffffffffffffffffffffff1673ffffffffffffffffffffffffffffffffffffffff168152602001908152602001600020549050600081111561060d576000600460003373ffffffffffffffffffffffffffffffffffffffff1673ffffffffffffffffffffffffffffffffffffffff168152602001908152602001600020819055503373ffffffffffffffffffffffffffffffffffffffff166108fc829081150290604051600060405180830381858888f19350505050151561060c5780600460003373ffffffffffffffffffffffffffffffffffffffff1673ffffffffffffffffffffffffffffffffffffffff1681526020019081526020016000208190555060009150610612565b5b600191505b5090565b60035481565b6000809054906101000a900473ffffffffffffffffffffffffffffffffffffffff1681565b806000806101000a81548173ffffffffffffffffffffffffffffffffffffffff021916908373ffffffffffffffffffffffffffffffffffffffff16021790555081420160018190555050505600a165627a7a72305820b789577bed1e9649d714025f6af0b3b34e4cbf992360a7da93605ed71d64c69d0029",
					"opcodes": "PUSH1 0x80 PUSH1 0x40 MSTORE CALLVALUE DUP1 ISZERO PUSH2 0x10 JUMPI PUSH1 0x0 DUP1 REVERT JUMPDEST POP PUSH2 0x6BA DUP1 PUSH2 0x20 PUSH1 0x0 CODECOPY PUSH1 0x0 RETURN STOP PUSH1 0x80 PUSH1 0x40 MSTORE PUSH1 0x4 CALLDATASIZE LT PUSH2 0x83 JUMPI PUSH1 0x0 CALLDATALOAD PUSH29 0x100000000000000000000000000000000000000000000000000000000 SWAP1 DIV PUSH4 0xFFFFFFFF AND DUP1 PUSH4 0x1333F06 EQ PUSH2 0x88 JUMPI DUP1 PUSH4 0x1998AEEF EQ PUSH2 0xDF JUMPI DUP1 PUSH4 0x19C2A5B5 EQ PUSH2 0xE9 JUMPI DUP1 PUSH4 0x3CCFD60B EQ PUSH2 0x100 JUMPI DUP1 PUSH4 0x636BF730 EQ PUSH2 0x12F JUMPI DUP1 PUSH4 0xD9C4870E EQ PUSH2 0x15A JUMPI DUP1 PUSH4 0xFFB3401D EQ PUSH2 0x1B1 JUMPI JUMPDEST PUSH1 0x0 DUP1 REVERT JUMPDEST CALLVALUE DUP1 ISZERO PUSH2 0x94 JUMPI PUSH1 0x0 DUP1 REVERT JUMPDEST POP PUSH2 0x9D PUSH2 0x1FE JUMP JUMPDEST PUSH1 0x40 MLOAD DUP1 DUP3 PUSH20 0xFFFFFFFFFFFFFFFFFFFFFFFFFFFFFFFFFFFFFFFF AND PUSH20 0xFFFFFFFFFFFFFFFFFFFFFFFFFFFFFFFFFFFFFFFF AND DUP2 MSTORE PUSH1 0x20 ADD SWAP2 POP POP PUSH1 0x40 MLOAD DUP1 SWAP2 SUB SWAP1 RETURN JUMPDEST PUSH2 0xE7 PUSH2 0x224 JUMP JUMPDEST STOP JUMPDEST CALLVALUE DUP1 ISZERO PUSH2 0xF5 JUMPI PUSH1 0x0 DUP1 REVERT JUMPDEST POP PUSH2 0xFE PUSH2 0x3AE JUMP JUMPDEST STOP JUMPDEST CALLVALUE DUP1 ISZERO PUSH2 0x10C JUMPI PUSH1 0x0 DUP1 REVERT JUMPDEST POP PUSH2 0x115 PUSH2 0x4F1 JUMP JUMPDEST PUSH1 0x40 MLOAD DUP1 DUP3 ISZERO ISZERO ISZERO ISZERO DUP2 MSTORE PUSH1 0x20 ADD SWAP2 POP POP PUSH1 0x40 MLOAD DUP1 SWAP2 SUB SWAP1 RETURN JUMPDEST CALLVALUE DUP1 ISZERO PUSH2 0x13B JUMPI PUSH1 0x0 DUP1 REVERT JUMPDEST POP PUSH2 0x144 PUSH2 0x616 JUMP JUMPDEST PUSH1 0x40 MLOAD DUP1 DUP3 DUP2 MSTORE PUSH1 0x20 ADD SWAP2 POP POP PUSH1 0x40 MLOAD DUP1 SWAP2 SUB SWAP1 RETURN JUMPDEST CALLVALUE DUP1 ISZERO PUSH2 0x166 JUMPI PUSH1 0x0 DUP1 REVERT JUMPDEST POP PUSH2 0x16F PUSH2 0x61C JUMP JUMPDEST PUSH1 0x40 MLOAD DUP1 DUP3 PUSH20 0xFFFFFFFFFFFFFFFFFFFFFFFFFFFFFFFFFFFFFFFF AND PUSH20 0xFFFFFFFFFFFFFFFFFFFFFFFFFFFFFFFFFFFFFFFF AND DUP2 MSTORE PUSH1 0x20 ADD SWAP2 POP POP PUSH1 0x40 MLOAD DUP1 SWAP2 SUB SWAP1 RETURN JUMPDEST CALLVALUE DUP1 ISZERO PUSH2 0x1BD JUMPI PUSH1 0x0 DUP1 REVERT JUMPDEST POP PUSH2 0x1FC PUSH1 0x4 DUP1 CALLDATASIZE SUB DUP2 ADD SWAP1 DUP1 DUP1 CALLDATALOAD SWAP1 PUSH1 0x20 ADD SWAP1 SWAP3 SWAP2 SWAP1 DUP1 CALLDATALOAD PUSH20 0xFFFFFFFFFFFFFFFFFFFFFFFFFFFFFFFFFFFFFFFF AND SWAP1 PUSH1 0x20 ADD SWAP1 SWAP3 SWAP2 SWAP1 POP POP POP PUSH2 0x641 JUMP JUMPDEST STOP JUMPDEST PUSH1 0x2 PUSH1 0x0 SWAP1 SLOAD SWAP1 PUSH2 0x100 EXP SWAP1 DIV PUSH20 0xFFFFFFFFFFFFFFFFFFFFFFFFFFFFFFFFFFFFFFFF AND DUP2 JUMP JUMPDEST PUSH1 0x1 SLOAD TIMESTAMP GT ISZERO ISZERO ISZERO PUSH2 0x235 JUMPI PUSH1 0x0 DUP1 REVERT JUMPDEST PUSH1 0x3 SLOAD CALLVALUE GT ISZERO ISZERO PUSH2 0x245 JUMPI PUSH1 0x0 DUP1 REVERT JUMPDEST PUSH1 0x0 PUSH1 0x2 PUSH1 0x0 SWAP1 SLOAD SWAP1 PUSH2 0x100 EXP SWAP1 DIV PUSH20 0xFFFFFFFFFFFFFFFFFFFFFFFFFFFFFFFFFFFFFFFF AND PUSH20 0xFFFFFFFFFFFFFFFFFFFFFFFFFFFFFFFFFFFFFFFF AND EQ ISZERO ISZERO PUSH2 0x2F9 JUMPI PUSH1 0x3 SLOAD PUSH1 0x4 PUSH1 0x0 PUSH1 0x2 PUSH1 0x0 SWAP1 SLOAD SWAP1 PUSH2 0x100 EXP SWAP1 DIV PUSH20 0xFFFFFFFFFFFFFFFFFFFFFFFFFFFFFFFFFFFFFFFF AND PUSH20 0xFFFFFFFFFFFFFFFFFFFFFFFFFFFFFFFFFFFFFFFF AND PUSH20 0xFFFFFFFFFFFFFFFFFFFFFFFFFFFFFFFFFFFFFFFF AND DUP2 MSTORE PUSH1 0x20 ADD SWAP1 DUP2 MSTORE PUSH1 0x20 ADD PUSH1 0x0 KECCAK256 PUSH1 0x0 DUP3 DUP3 SLOAD ADD SWAP3 POP POP DUP2 SWAP1 SSTORE POP JUMPDEST CALLER PUSH1 0x2 PUSH1 0x0 PUSH2 0x100 EXP DUP2 SLOAD DUP2 PUSH20 0xFFFFFFFFFFFFFFFFFFFFFFFFFFFFFFFFFFFFFFFF MUL NOT AND SWAP1 DUP4 PUSH20 0xFFFFFFFFFFFFFFFFFFFFFFFFFFFFFFFFFFFFFFFF AND MUL OR SWAP1 SSTORE POP CALLVALUE PUSH1 0x3 DUP2 SWAP1 SSTORE POP PUSH32 0x7635E37094566FA4EA4B08DD77117E7ACE1E3E5A6EE614BCD37EB6AD8ECCC1D9 CALLER CALLVALUE PUSH1 0x40 MLOAD DUP1 DUP4 PUSH20 0xFFFFFFFFFFFFFFFFFFFFFFFFFFFFFFFFFFFFFFFF AND PUSH20 0xFFFFFFFFFFFFFFFFFFFFFFFFFFFFFFFFFFFFFFFF AND DUP2 MSTORE PUSH1 0x20 ADD DUP3 DUP2 MSTORE PUSH1 0x20 ADD SWAP3 POP POP POP PUSH1 0x40 MLOAD DUP1 SWAP2 SUB SWAP1 LOG1 JUMP JUMPDEST PUSH1 0x1 SLOAD TIMESTAMP LT ISZERO ISZERO ISZERO PUSH2 0x3BF JUMPI PUSH1 0x0 DUP1 REVERT JUMPDEST PUSH1 0x5 PUSH1 0x0 SWAP1 SLOAD SWAP1 PUSH2 0x100 EXP SWAP1 DIV PUSH1 0xFF AND ISZERO ISZERO ISZERO PUSH2 0x3DB JUMPI PUSH1 0x0 DUP1 REVERT JUMPDEST PUSH1 0x1 PUSH1 0x5 PUSH1 0x0 PUSH2 0x100 EXP DUP2 SLOAD DUP2 PUSH1 0xFF MUL NOT AND SWAP1 DUP4 ISZERO ISZERO MUL OR SWAP1 SSTORE POP PUSH32 0xC9B64CAA2AA57493E3A2B3087A613AD4168386AA000BE494A8A41CD06BD3844A PUSH1 0x2 PUSH1 0x0 SWAP1 SLOAD SWAP1 PUSH2 0x100 EXP SWAP1 DIV PUSH20 0xFFFFFFFFFFFFFFFFFFFFFFFFFFFFFFFFFFFFFFFF AND PUSH1 0x3 SLOAD PUSH1 0x40 MLOAD DUP1 DUP4 PUSH20 0xFFFFFFFFFFFFFFFFFFFFFFFFFFFFFFFFFFFFFFFF AND PUSH20 0xFFFFFFFFFFFFFFFFFFFFFFFFFFFFFFFFFFFFFFFF AND DUP2 MSTORE PUSH1 0x20 ADD DUP3 DUP2 MSTORE PUSH1 0x20 ADD SWAP3 POP POP POP PUSH1 0x40 MLOAD DUP1 SWAP2 SUB SWAP1 LOG1 PUSH1 0x0 DUP1 SWAP1 SLOAD SWAP1 PUSH2 0x100 EXP SWAP1 DIV PUSH20 0xFFFFFFFFFFFFFFFFFFFFFFFFFFFFFFFFFFFFFFFF AND PUSH20 0xFFFFFFFFFFFFFFFFFFFFFFFFFFFFFFFFFFFFFFFF AND PUSH2 0x8FC PUSH1 0x3 SLOAD SWAP1 DUP2 ISZERO MUL SWAP1 PUSH1 0x40 MLOAD PUSH1 0x0 PUSH1 0x40 MLOAD DUP1 DUP4 SUB DUP2 DUP6 DUP9 DUP9 CALL SWAP4 POP POP POP POP ISZERO DUP1 ISZERO PUSH2 0x4EE JUMPI RETURNDATASIZE PUSH1 0x0 DUP1 RETURNDATACOPY RETURNDATASIZE PUSH1 0x0 REVERT JUMPDEST POP JUMP JUMPDEST PUSH1 0x0 DUP1 PUSH1 0x4 PUSH1 0x0 CALLER PUSH20 0xFFFFFFFFFFFFFFFFFFFFFFFFFFFFFFFFFFFFFFFF AND PUSH20 0xFFFFFFFFFFFFFFFFFFFFFFFFFFFFFFFFFFFFFFFF AND DUP2 MSTORE PUSH1 0x20 ADD SWAP1 DUP2 MSTORE PUSH1 0x20 ADD PUSH1 0x0 KECCAK256 SLOAD SWAP1 POP PUSH1 0x0 DUP2 GT ISZERO PUSH2 0x60D JUMPI PUSH1 0x0 PUSH1 0x4 PUSH1 0x0 CALLER PUSH20 0xFFFFFFFFFFFFFFFFFFFFFFFFFFFFFFFFFFFFFFFF AND PUSH20 0xFFFFFFFFFFFFFFFFFFFFFFFFFFFFFFFFFFFFFFFF AND DUP2 MSTORE PUSH1 0x20 ADD SWAP1 DUP2 MSTORE PUSH1 0x20 ADD PUSH1 0x0 KECCAK256 DUP2 SWAP1 SSTORE POP CALLER PUSH20 0xFFFFFFFFFFFFFFFFFFFFFFFFFFFFFFFFFFFFFFFF AND PUSH2 0x8FC DUP3 SWAP1 DUP2 ISZERO MUL SWAP1 PUSH1 0x40 MLOAD PUSH1 0x0 PUSH1 0x40 MLOAD DUP1 DUP4 SUB DUP2 DUP6 DUP9 DUP9 CALL SWAP4 POP POP POP POP ISZERO ISZERO PUSH2 0x60C JUMPI DUP1 PUSH1 0x4 PUSH1 0x0 CALLER PUSH20 0xFFFFFFFFFFFFFFFFFFFFFFFFFFFFFFFFFFFFFFFF AND PUSH20 0xFFFFFFFFFFFFFFFFFFFFFFFFFFFFFFFFFFFFFFFF AND DUP2 MSTORE PUSH1 0x20 ADD SWAP1 DUP2 MSTORE PUSH1 0x20 ADD PUSH1 0x0 KECCAK256 DUP2 SWAP1 SSTORE POP PUSH1 0x0 SWAP2 POP PUSH2 0x612 JUMP JUMPDEST JUMPDEST PUSH1 0x1 SWAP2 POP JUMPDEST POP SWAP1 JUMP JUMPDEST PUSH1 0x3 SLOAD DUP2 JUMP JUMPDEST PUSH1 0x0 DUP1 SWAP1 SLOAD SWAP1 PUSH2 0x100 EXP SWAP1 DIV PUSH20 0xFFFFFFFFFFFFFFFFFFFFFFFFFFFFFFFFFFFFFFFF AND DUP2 JUMP JUMPDEST DUP1 PUSH1 0x0 DUP1 PUSH2 0x100 EXP DUP2 SLOAD DUP2 PUSH20 0xFFFFFFFFFFFFFFFFFFFFFFFFFFFFFFFFFFFFFFFF MUL NOT AND SWAP1 DUP4 PUSH20 0xFFFFFFFFFFFFFFFFFFFFFFFFFFFFFFFFFFFFFFFF AND MUL OR SWAP1 SSTORE POP DUP2 TIMESTAMP ADD PUSH1 0x1 DUP2 SWAP1 SSTORE POP POP POP JUMP STOP LOG1 PUSH6 0x627A7A723058 KECCAK256 0xb7 DUP10 JUMPI PUSH28 0xED1E9649D714025F6AF0B3B34E4CBF992360A7DA93605ED71D64C69D STOP 0x29 "
				},
				"gasEstimates": {
					"creation": {
						"codeDepositCost": "344400",
						"executionCost": "380",
						"totalCost": "344780"
					},
					"external": {
						"SimpleAuction(uint256,address)": "40644",
						"auctionClose()": "infinite",
						"beneficiaryAddress()": "552",
						"bid()": "63255",
						"topBid()": "482",
						"topBidder()": "442",
						"withdraw()": "infinite"
					}
				},
				"methodIdentifiers": {
					"SimpleAuction(uint256,address)": "ffb3401d",
					"auctionClose()": "19c2a5b5",
					"beneficiaryAddress()": "d9c4870e",
					"bid()": "1998aeef",
					"topBid()": "636bf730",
					"topBidder()": "01333f06",
					"withdraw()": "3ccfd60b"
				}
			},
			"userdoc": {
				"methods": {
					"SimpleAuction(uint256,address)": {
						"notice": "beneficiary address `_beneficiary`."
					},
					"auctionClose()": {
						"notice": "to the beneficiary."
					},
					"bid()": {
						"notice": "auction was not won."
					},
					"withdraw()": {
						"notice": "Withdraw a bid that was overbid."
					}
				}
			}
		}
	}
}