{
	"contracts/auction2.sol": {
		"SimpleAuction": {
			"abi": [
				{
					"inputs": [],
					"stateMutability": "nonpayable",
					"type": "constructor"
				},
				{
					"anonymous": false,
					"inputs": [
						{
							"indexed": false,
							"internalType": "address",
							"name": "winner",
							"type": "address"
						},
						{
							"indexed": false,
							"internalType": "uint256",
							"name": "bidAmount",
							"type": "uint256"
						}
					],
					"name": "auctionResult",
					"type": "event"
				},
				{
					"anonymous": false,
					"inputs": [
						{
							"indexed": false,
							"internalType": "address",
							"name": "bidder",
							"type": "address"
						},
						{
							"indexed": false,
							"internalType": "uint256",
							"name": "bidAmount",
							"type": "uint256"
						}
					],
					"name": "topBidIncreased",
					"type": "event"
				},
				{
					"inputs": [
						{
							"internalType": "uint256",
							"name": "_biddingTime",
							"type": "uint256"
						},
						{
							"internalType": "address",
							"name": "_beneficiary",
							"type": "address"
						}
					],
					"name": "SimpleAuctions",
					"outputs": [],
					"stateMutability": "nonpayable",
					"type": "function"
				},
				{
					"inputs": [],
					"name": "auctionClose",
					"outputs": [
						{
							"internalType": "uint256",
							"name": "",
							"type": "uint256"
						}
					],
					"stateMutability": "view",
					"type": "function"
				},
				{
					"inputs": [],
					"name": "auctionClosed",
					"outputs": [],
					"stateMutability": "nonpayable",
					"type": "function"
				},
				{
					"inputs": [],
					"name": "beneficiaryAddress",
					"outputs": [
						{
							"internalType": "address",
							"name": "",
							"type": "address"
						}
					],
					"stateMutability": "view",
					"type": "function"
				},
				{
					"inputs": [],
					"name": "bid",
					"outputs": [],
					"stateMutability": "payable",
					"type": "function"
				},
				{
					"inputs": [],
					"name": "owner",
					"outputs": [
						{
							"internalType": "address",
							"name": "",
							"type": "address"
						}
					],
					"stateMutability": "view",
					"type": "function"
				},
				{
					"inputs": [],
					"name": "topBid",
					"outputs": [
						{
							"internalType": "uint256",
							"name": "",
							"type": "uint256"
						}
					],
					"stateMutability": "view",
					"type": "function"
				},
				{
					"inputs": [],
					"name": "topBidder",
					"outputs": [
						{
							"internalType": "address",
							"name": "",
							"type": "address"
						}
					],
					"stateMutability": "view",
					"type": "function"
				},
				{
					"inputs": [],
					"name": "withdraw",
					"outputs": [
						{
							"internalType": "bool",
							"name": "",
							"type": "bool"
						}
					],
					"stateMutability": "nonpayable",
					"type": "function"
				}
			],
			"devdoc": {
				"kind": "dev",
				"methods": {},
				"version": 1
			},
			"evm": {
				"assembly": "    /* \"contracts/auction2.sol\":59:4939  contract SimpleAuction {\r... */\n  mstore(0x40, 0x80)\n    /* \"contracts/auction2.sol\":821:871  constructor(){\r... */\n  callvalue\n  dup1\n  iszero\n  tag_1\n  jumpi\n  0x00\n  dup1\n  revert\ntag_1:\n  pop\n    /* \"contracts/auction2.sol\":853:863  msg.sender */\n  caller\n    /* \"contracts/auction2.sol\":845:850  owner */\n  0x02\n  0x00\n    /* \"contracts/auction2.sol\":845:863  owner = msg.sender */\n  0x0100\n  exp\n  dup2\n  sload\n  dup2\n  0xffffffffffffffffffffffffffffffffffffffff\n  mul\n  not\n  and\n  swap1\n  dup4\n  0xffffffffffffffffffffffffffffffffffffffff\n  and\n  mul\n  or\n  swap1\n  sstore\n  pop\n    /* \"contracts/auction2.sol\":59:4939  contract SimpleAuction {\r... */\n  dataSize(sub_0)\n  dup1\n  dataOffset(sub_0)\n  0x00\n  codecopy\n  0x00\n  return\nstop\n\nsub_0: assembly {\n        /* \"contracts/auction2.sol\":59:4939  contract SimpleAuction {\r... */\n      mstore(0x40, 0x80)\n      jumpi(tag_1, lt(calldatasize, 0x04))\n      shr(0xe0, calldataload(0x00))\n      dup1\n      0x636bf730\n      gt\n      tag_11\n      jumpi\n      dup1\n      0x636bf730\n      eq\n      tag_6\n      jumpi\n      dup1\n      0x8da5cb5b\n      eq\n      tag_7\n      jumpi\n      dup1\n      0xaeaaa299\n      eq\n      tag_8\n      jumpi\n      dup1\n      0xb4b48cf1\n      eq\n      tag_9\n      jumpi\n      dup1\n      0xd9c4870e\n      eq\n      tag_10\n      jumpi\n      jump(tag_1)\n    tag_11:\n      dup1\n      0x01333f06\n      eq\n      tag_2\n      jumpi\n      dup1\n      0x1998aeef\n      eq\n      tag_3\n      jumpi\n      dup1\n      0x19c2a5b5\n      eq\n      tag_4\n      jumpi\n      dup1\n      0x3ccfd60b\n      eq\n      tag_5\n      jumpi\n    tag_1:\n      0x00\n      dup1\n      revert\n        /* \"contracts/auction2.sol\":394:418  address public topBidder */\n    tag_2:\n      callvalue\n      dup1\n      iszero\n      tag_12\n      jumpi\n      0x00\n      dup1\n      revert\n    tag_12:\n      pop\n      tag_13\n      tag_14\n      jump\t// in\n    tag_13:\n      mload(0x40)\n      tag_15\n      swap2\n      swap1\n      tag_16\n      jump\t// in\n    tag_15:\n      mload(0x40)\n      dup1\n      swap2\n      sub\n      swap1\n      return\n        /* \"contracts/auction2.sol\":1745:2782  function bid() payable public{\r... */\n    tag_3:\n      tag_17\n      tag_18\n      jump\t// in\n    tag_17:\n      stop\n        /* \"contracts/auction2.sol\":296:320  uint public auctionClose */\n    tag_4:\n      callvalue\n      dup1\n      iszero\n      tag_19\n      jumpi\n      0x00\n      dup1\n      revert\n    tag_19:\n      pop\n      tag_20\n      tag_21\n      jump\t// in\n    tag_20:\n      mload(0x40)\n      tag_22\n      swap2\n      swap1\n      tag_23\n      jump\t// in\n    tag_22:\n      mload(0x40)\n      dup1\n      swap2\n      sub\n      swap1\n      return\n        /* \"contracts/auction2.sol\":2832:3480  function withdraw() public returns (bool) {\r... */\n    tag_5:\n      callvalue\n      dup1\n      iszero\n      tag_24\n      jumpi\n      0x00\n      dup1\n      revert\n    tag_24:\n      pop\n      tag_25\n      tag_26\n      jump\t// in\n    tag_25:\n      mload(0x40)\n      tag_27\n      swap2\n      swap1\n      tag_28\n      jump\t// in\n    tag_27:\n      mload(0x40)\n      dup1\n      swap2\n      sub\n      swap1\n      return\n        /* \"contracts/auction2.sol\":425:443  uint public topBid */\n    tag_6:\n      callvalue\n      dup1\n      iszero\n      tag_29\n      jumpi\n      0x00\n      dup1\n      revert\n    tag_29:\n      pop\n      tag_30\n      tag_31\n      jump\t// in\n    tag_30:\n      mload(0x40)\n      tag_32\n      swap2\n      swap1\n      tag_23\n      jump\t// in\n    tag_32:\n      mload(0x40)\n      dup1\n      swap2\n      sub\n      swap1\n      return\n        /* \"contracts/auction2.sol\":327:347  address public owner */\n    tag_7:\n      callvalue\n      dup1\n      iszero\n      tag_33\n      jumpi\n      0x00\n      dup1\n      revert\n    tag_33:\n      pop\n      tag_34\n      tag_35\n      jump\t// in\n    tag_34:\n      mload(0x40)\n      tag_36\n      swap2\n      swap1\n      tag_16\n      jump\t// in\n    tag_36:\n      mload(0x40)\n      dup1\n      swap2\n      sub\n      swap1\n      return\n        /* \"contracts/auction2.sol\":3563:4678  function auctionClosed() public {\r... */\n    tag_8:\n      callvalue\n      dup1\n      iszero\n      tag_37\n      jumpi\n      0x00\n      dup1\n      revert\n    tag_37:\n      pop\n      tag_38\n      tag_39\n      jump\t// in\n    tag_38:\n      stop\n        /* \"contracts/auction2.sol\":1386:1566  function SimpleAuctions(uint _biddingTime, address _beneficiary) public {\r... */\n    tag_9:\n      callvalue\n      dup1\n      iszero\n      tag_40\n      jumpi\n      0x00\n      dup1\n      revert\n    tag_40:\n      pop\n      tag_41\n      0x04\n      dup1\n      calldatasize\n      sub\n      dup2\n      add\n      swap1\n      tag_42\n      swap2\n      swap1\n      tag_43\n      jump\t// in\n    tag_42:\n      tag_44\n      jump\t// in\n    tag_41:\n      stop\n        /* \"contracts/auction2.sol\":256:289  address public beneficiaryAddress */\n    tag_10:\n      callvalue\n      dup1\n      iszero\n      tag_45\n      jumpi\n      0x00\n      dup1\n      revert\n    tag_45:\n      pop\n      tag_46\n      tag_47\n      jump\t// in\n    tag_46:\n      mload(0x40)\n      tag_48\n      swap2\n      swap1\n      tag_16\n      jump\t// in\n    tag_48:\n      mload(0x40)\n      dup1\n      swap2\n      sub\n      swap1\n      return\n        /* \"contracts/auction2.sol\":394:418  address public topBidder */\n    tag_14:\n      0x03\n      0x00\n      swap1\n      sload\n      swap1\n      0x0100\n      exp\n      swap1\n      div\n      0xffffffffffffffffffffffffffffffffffffffff\n      and\n      dup2\n      jump\t// out\n        /* \"contracts/auction2.sol\":1745:2782  function bid() payable public{\r... */\n    tag_18:\n        /* \"contracts/auction2.sol\":2093:2105  auctionClose */\n      sload(0x01)\n        /* \"contracts/auction2.sol\":2074:2089  block.timestamp */\n      timestamp\n        /* \"contracts/auction2.sol\":2074:2105  block.timestamp <= auctionClose */\n      gt\n      iszero\n        /* \"contracts/auction2.sol\":2066:2106  require(block.timestamp <= auctionClose) */\n      tag_50\n      jumpi\n      0x00\n      dup1\n      revert\n    tag_50:\n        /* \"contracts/auction2.sol\":2214:2220  topBid */\n      sload(0x04)\n        /* \"contracts/auction2.sol\":2202:2211  msg.value */\n      callvalue\n        /* \"contracts/auction2.sol\":2202:2220  msg.value > topBid */\n      gt\n        /* \"contracts/auction2.sol\":2194:2221  require(msg.value > topBid) */\n      tag_51\n      jumpi\n      0x00\n      dup1\n      revert\n    tag_51:\n        /* \"contracts/auction2.sol\":2251:2293  0x0000000000000000000000000000000000000000 */\n      0x00\n        /* \"contracts/auction2.sol\":2238:2293  topBidder != 0x0000000000000000000000000000000000000000 */\n      0xffffffffffffffffffffffffffffffffffffffff\n      and\n        /* \"contracts/auction2.sol\":2238:2247  topBidder */\n      0x03\n      0x00\n      swap1\n      sload\n      swap1\n      0x0100\n      exp\n      swap1\n      div\n      0xffffffffffffffffffffffffffffffffffffffff\n      and\n        /* \"contracts/auction2.sol\":2238:2293  topBidder != 0x0000000000000000000000000000000000000000 */\n      0xffffffffffffffffffffffffffffffffffffffff\n      and\n      eq\n        /* \"contracts/auction2.sol\":2234:2659  if (topBidder != 0x0000000000000000000000000000000000000000) {\r... */\n      tag_52\n      jumpi\n        /* \"contracts/auction2.sol\":2641:2647  topBid */\n      sload(0x04)\n        /* \"contracts/auction2.sol\":2612:2626  returnsPending */\n      0x05\n        /* \"contracts/auction2.sol\":2612:2637  returnsPending[topBidder] */\n      0x00\n        /* \"contracts/auction2.sol\":2627:2636  topBidder */\n      0x03\n      0x00\n      swap1\n      sload\n      swap1\n      0x0100\n      exp\n      swap1\n      div\n      0xffffffffffffffffffffffffffffffffffffffff\n      and\n        /* \"contracts/auction2.sol\":2612:2637  returnsPending[topBidder] */\n      0xffffffffffffffffffffffffffffffffffffffff\n      and\n      0xffffffffffffffffffffffffffffffffffffffff\n      and\n      dup2\n      mstore\n      0x20\n      add\n      swap1\n      dup2\n      mstore\n      0x20\n      add\n      0x00\n      keccak256\n      0x00\n        /* \"contracts/auction2.sol\":2612:2647  returnsPending[topBidder] += topBid */\n      dup3\n      dup3\n      sload\n      tag_53\n      swap2\n      swap1\n      tag_54\n      jump\t// in\n    tag_53:\n      swap3\n      pop\n      pop\n      dup2\n      swap1\n      sstore\n      pop\n        /* \"contracts/auction2.sol\":2234:2659  if (topBidder != 0x0000000000000000000000000000000000000000) {\r... */\n    tag_52:\n        /* \"contracts/auction2.sol\":2681:2691  msg.sender */\n      caller\n        /* \"contracts/auction2.sol\":2669:2678  topBidder */\n      0x03\n      0x00\n        /* \"contracts/auction2.sol\":2669:2691  topBidder = msg.sender */\n      0x0100\n      exp\n      dup2\n      sload\n      dup2\n      0xffffffffffffffffffffffffffffffffffffffff\n      mul\n      not\n      and\n      swap1\n      dup4\n      0xffffffffffffffffffffffffffffffffffffffff\n      and\n      mul\n      or\n      swap1\n      sstore\n      pop\n        /* \"contracts/auction2.sol\":2711:2720  msg.value */\n      callvalue\n        /* \"contracts/auction2.sol\":2702:2708  topBid */\n      0x04\n        /* \"contracts/auction2.sol\":2702:2720  topBid = msg.value */\n      dup2\n      swap1\n      sstore\n      pop\n        /* \"contracts/auction2.sol\":2736:2774  topBidIncreased(msg.sender, msg.value) */\n      0x7635e37094566fa4ea4b08dd77117e7ace1e3e5a6ee614bcd37eb6ad8eccc1d9\n        /* \"contracts/auction2.sol\":2752:2762  msg.sender */\n      caller\n        /* \"contracts/auction2.sol\":2764:2773  msg.value */\n      callvalue\n        /* \"contracts/auction2.sol\":2736:2774  topBidIncreased(msg.sender, msg.value) */\n      mload(0x40)\n      tag_55\n      swap3\n      swap2\n      swap1\n      tag_56\n      jump\t// in\n    tag_55:\n      mload(0x40)\n      dup1\n      swap2\n      sub\n      swap1\n      log1\n        /* \"contracts/auction2.sol\":1745:2782  function bid() payable public{\r... */\n      jump\t// out\n        /* \"contracts/auction2.sol\":296:320  uint public auctionClose */\n    tag_21:\n      sload(0x01)\n      dup2\n      jump\t// out\n        /* \"contracts/auction2.sol\":2832:3480  function withdraw() public returns (bool) {\r... */\n    tag_26:\n        /* \"contracts/auction2.sol\":2868:2872  bool */\n      0x00\n        /* \"contracts/auction2.sol\":2885:2899  uint bidAmount */\n      dup1\n        /* \"contracts/auction2.sol\":2902:2916  returnsPending */\n      0x05\n        /* \"contracts/auction2.sol\":2902:2928  returnsPending[msg.sender] */\n      0x00\n        /* \"contracts/auction2.sol\":2917:2927  msg.sender */\n      caller\n        /* \"contracts/auction2.sol\":2902:2928  returnsPending[msg.sender] */\n      0xffffffffffffffffffffffffffffffffffffffff\n      and\n      0xffffffffffffffffffffffffffffffffffffffff\n      and\n      dup2\n      mstore\n      0x20\n      add\n      swap1\n      dup2\n      mstore\n      0x20\n      add\n      0x00\n      keccak256\n      sload\n        /* \"contracts/auction2.sol\":2885:2928  uint bidAmount = returnsPending[msg.sender] */\n      swap1\n      pop\n        /* \"contracts/auction2.sol\":2955:2956  0 */\n      0x00\n        /* \"contracts/auction2.sol\":2943:2952  bidAmount */\n      dup2\n        /* \"contracts/auction2.sol\":2943:2956  bidAmount > 0 */\n      gt\n        /* \"contracts/auction2.sol\":2939:3451  if (bidAmount > 0) {\r... */\n      iszero\n      tag_58\n      jumpi\n        /* \"contracts/auction2.sol\":3190:3191  0 */\n      0x00\n        /* \"contracts/auction2.sol\":3161:3175  returnsPending */\n      0x05\n        /* \"contracts/auction2.sol\":3161:3187  returnsPending[msg.sender] */\n      0x00\n        /* \"contracts/auction2.sol\":3176:3186  msg.sender */\n      caller\n        /* \"contracts/auction2.sol\":3161:3187  returnsPending[msg.sender] */\n      0xffffffffffffffffffffffffffffffffffffffff\n      and\n      0xffffffffffffffffffffffffffffffffffffffff\n      and\n      dup2\n      mstore\n      0x20\n      add\n      swap1\n      dup2\n      mstore\n      0x20\n      add\n      0x00\n      keccak256\n        /* \"contracts/auction2.sol\":3161:3191  returnsPending[msg.sender] = 0 */\n      dup2\n      swap1\n      sstore\n      pop\n        /* \"contracts/auction2.sol\":3221:3231  msg.sender */\n      caller\n        /* \"contracts/auction2.sol\":3213:3237  payable(msg.sender).send */\n      0xffffffffffffffffffffffffffffffffffffffff\n      and\n        /* \"contracts/auction2.sol\":3213:3248  payable(msg.sender).send(bidAmount) */\n      0x08fc\n        /* \"contracts/auction2.sol\":3238:3247  bidAmount */\n      dup3\n        /* \"contracts/auction2.sol\":3213:3248  payable(msg.sender).send(bidAmount) */\n      swap1\n      dup2\n      iszero\n      mul\n      swap1\n      mload(0x40)\n      0x00\n      mload(0x40)\n      dup1\n      dup4\n      sub\n      dup2\n      dup6\n      dup9\n      dup9\n      call\n      swap4\n      pop\n      pop\n      pop\n      pop\n        /* \"contracts/auction2.sol\":3208:3440  if (!payable(msg.sender).send(bidAmount)) {\r... */\n      tag_60\n      jumpi\n        /* \"contracts/auction2.sol\":3384:3393  bidAmount */\n      dup1\n        /* \"contracts/auction2.sol\":3355:3369  returnsPending */\n      0x05\n        /* \"contracts/auction2.sol\":3355:3381  returnsPending[msg.sender] */\n      0x00\n        /* \"contracts/auction2.sol\":3370:3380  msg.sender */\n      caller\n        /* \"contracts/auction2.sol\":3355:3381  returnsPending[msg.sender] */\n      0xffffffffffffffffffffffffffffffffffffffff\n      and\n      0xffffffffffffffffffffffffffffffffffffffff\n      and\n      dup2\n      mstore\n      0x20\n      add\n      swap1\n      dup2\n      mstore\n      0x20\n      add\n      0x00\n      keccak256\n        /* \"contracts/auction2.sol\":3355:3393  returnsPending[msg.sender] = bidAmount */\n      dup2\n      swap1\n      sstore\n      pop\n        /* \"contracts/auction2.sol\":3419:3424  false */\n      0x00\n        /* \"contracts/auction2.sol\":3412:3424  return false */\n      swap2\n      pop\n      pop\n      jump(tag_57)\n        /* \"contracts/auction2.sol\":3208:3440  if (!payable(msg.sender).send(bidAmount)) {\r... */\n    tag_60:\n        /* \"contracts/auction2.sol\":2939:3451  if (bidAmount > 0) {\r... */\n    tag_58:\n        /* \"contracts/auction2.sol\":3468:3472  true */\n      0x01\n        /* \"contracts/auction2.sol\":3461:3472  return true */\n      swap2\n      pop\n      pop\n        /* \"contracts/auction2.sol\":2832:3480  function withdraw() public returns (bool) {\r... */\n    tag_57:\n      swap1\n      jump\t// out\n        /* \"contracts/auction2.sol\":425:443  uint public topBid */\n    tag_31:\n      sload(0x04)\n      dup2\n      jump\t// out\n        /* \"contracts/auction2.sol\":327:347  address public owner */\n    tag_35:\n      0x02\n      0x00\n      swap1\n      sload\n      swap1\n      0x0100\n      exp\n      swap1\n      div\n      0xffffffffffffffffffffffffffffffffffffffff\n      and\n      dup2\n      jump\t// out\n        /* \"contracts/auction2.sol\":3563:4678  function auctionClosed() public {\r... */\n    tag_39:\n        /* \"contracts/auction2.sol\":4370:4382  auctionClose */\n      sload(0x01)\n        /* \"contracts/auction2.sol\":4351:4366  block.timestamp */\n      timestamp\n        /* \"contracts/auction2.sol\":4351:4382  block.timestamp >= auctionClose */\n      lt\n      iszero\n        /* \"contracts/auction2.sol\":4343:4383  require(block.timestamp >= auctionClose) */\n      tag_62\n      jumpi\n      0x00\n      dup1\n      revert\n    tag_62:\n        /* \"contracts/auction2.sol\":4430:4445  auctionComplete */\n      0x06\n      0x00\n      swap1\n      sload\n      swap1\n      0x0100\n      exp\n      swap1\n      div\n      0xff\n      and\n        /* \"contracts/auction2.sol\":4429:4445  !auctionComplete */\n      iszero\n        /* \"contracts/auction2.sol\":4421:4446  require(!auctionComplete) */\n      tag_63\n      jumpi\n      0x00\n      dup1\n      revert\n    tag_63:\n        /* \"contracts/auction2.sol\":4541:4545  true */\n      0x01\n        /* \"contracts/auction2.sol\":4523:4538  auctionComplete */\n      0x06\n      0x00\n        /* \"contracts/auction2.sol\":4523:4545  auctionComplete = true */\n      0x0100\n      exp\n      dup2\n      sload\n      dup2\n      0xff\n      mul\n      not\n      and\n      swap1\n      dup4\n      iszero\n      iszero\n      mul\n      or\n      swap1\n      sstore\n      pop\n        /* \"contracts/auction2.sol\":4561:4593  auctionResult(topBidder, topBid) */\n      0xc9b64caa2aa57493e3a2b3087a613ad4168386aa000be494a8a41cd06bd3844a\n        /* \"contracts/auction2.sol\":4575:4584  topBidder */\n      0x03\n      0x00\n      swap1\n      sload\n      swap1\n      0x0100\n      exp\n      swap1\n      div\n      0xffffffffffffffffffffffffffffffffffffffff\n      and\n        /* \"contracts/auction2.sol\":4586:4592  topBid */\n      sload(0x04)\n        /* \"contracts/auction2.sol\":4561:4593  auctionResult(topBidder, topBid) */\n      mload(0x40)\n      tag_64\n      swap3\n      swap2\n      swap1\n      tag_56\n      jump\t// in\n    tag_64:\n      mload(0x40)\n      dup1\n      swap2\n      sub\n      swap1\n      log1\n        /* \"contracts/auction2.sol\":3563:4678  function auctionClosed() public {\r... */\n      jump\t// out\n        /* \"contracts/auction2.sol\":1386:1566  function SimpleAuctions(uint _biddingTime, address _beneficiary) public {\r... */\n    tag_44:\n        /* \"contracts/auction2.sol\":1490:1502  _beneficiary */\n      dup1\n        /* \"contracts/auction2.sol\":1469:1487  beneficiaryAddress */\n      0x00\n      dup1\n        /* \"contracts/auction2.sol\":1469:1502  beneficiaryAddress = _beneficiary */\n      0x0100\n      exp\n      dup2\n      sload\n      dup2\n      0xffffffffffffffffffffffffffffffffffffffff\n      mul\n      not\n      and\n      swap1\n      dup4\n      0xffffffffffffffffffffffffffffffffffffffff\n      and\n      mul\n      or\n      swap1\n      sstore\n      pop\n        /* \"contracts/auction2.sol\":1546:1558  _biddingTime */\n      dup2\n        /* \"contracts/auction2.sol\":1528:1543  block.timestamp */\n      timestamp\n        /* \"contracts/auction2.sol\":1528:1558  block.timestamp + _biddingTime */\n      tag_66\n      swap2\n      swap1\n      tag_54\n      jump\t// in\n    tag_66:\n        /* \"contracts/auction2.sol\":1513:1525  auctionClose */\n      0x01\n        /* \"contracts/auction2.sol\":1513:1558  auctionClose = block.timestamp + _biddingTime */\n      dup2\n      swap1\n      sstore\n      pop\n        /* \"contracts/auction2.sol\":1386:1566  function SimpleAuctions(uint _biddingTime, address _beneficiary) public {\r... */\n      pop\n      pop\n      jump\t// out\n        /* \"contracts/auction2.sol\":256:289  address public beneficiaryAddress */\n    tag_47:\n      0x00\n      dup1\n      sload\n      swap1\n      0x0100\n      exp\n      swap1\n      div\n      0xffffffffffffffffffffffffffffffffffffffff\n      and\n      dup2\n      jump\t// out\n        /* \"#utility.yul\":7:146   */\n    tag_68:\n        /* \"#utility.yul\":53:58   */\n      0x00\n        /* \"#utility.yul\":91:97   */\n      dup2\n        /* \"#utility.yul\":78:98   */\n      calldataload\n        /* \"#utility.yul\":69:98   */\n      swap1\n      pop\n        /* \"#utility.yul\":107:140   */\n      tag_70\n        /* \"#utility.yul\":134:139   */\n      dup2\n        /* \"#utility.yul\":107:140   */\n      tag_71\n      jump\t// in\n    tag_70:\n        /* \"#utility.yul\":59:146   */\n      swap3\n      swap2\n      pop\n      pop\n      jump\t// out\n        /* \"#utility.yul\":152:291   */\n    tag_72:\n        /* \"#utility.yul\":198:203   */\n      0x00\n        /* \"#utility.yul\":236:242   */\n      dup2\n        /* \"#utility.yul\":223:243   */\n      calldataload\n        /* \"#utility.yul\":214:243   */\n      swap1\n      pop\n        /* \"#utility.yul\":252:285   */\n      tag_74\n        /* \"#utility.yul\":279:284   */\n      dup2\n        /* \"#utility.yul\":252:285   */\n      tag_75\n      jump\t// in\n    tag_74:\n        /* \"#utility.yul\":204:291   */\n      swap3\n      swap2\n      pop\n      pop\n      jump\t// out\n        /* \"#utility.yul\":297:771   */\n    tag_43:\n        /* \"#utility.yul\":365:371   */\n      0x00\n        /* \"#utility.yul\":373:379   */\n      dup1\n        /* \"#utility.yul\":422:424   */\n      0x40\n        /* \"#utility.yul\":410:419   */\n      dup4\n        /* \"#utility.yul\":401:408   */\n      dup6\n        /* \"#utility.yul\":397:420   */\n      sub\n        /* \"#utility.yul\":393:425   */\n      slt\n        /* \"#utility.yul\":390:392   */\n      iszero\n      tag_77\n      jumpi\n        /* \"#utility.yul\":428:507   */\n      tag_78\n      tag_79\n      jump\t// in\n    tag_78:\n        /* \"#utility.yul\":390:392   */\n    tag_77:\n        /* \"#utility.yul\":548:549   */\n      0x00\n        /* \"#utility.yul\":573:626   */\n      tag_80\n        /* \"#utility.yul\":618:625   */\n      dup6\n        /* \"#utility.yul\":609:615   */\n      dup3\n        /* \"#utility.yul\":598:607   */\n      dup7\n        /* \"#utility.yul\":594:616   */\n      add\n        /* \"#utility.yul\":573:626   */\n      tag_72\n      jump\t// in\n    tag_80:\n        /* \"#utility.yul\":563:626   */\n      swap3\n      pop\n        /* \"#utility.yul\":519:636   */\n      pop\n        /* \"#utility.yul\":675:677   */\n      0x20\n        /* \"#utility.yul\":701:754   */\n      tag_81\n        /* \"#utility.yul\":746:753   */\n      dup6\n        /* \"#utility.yul\":737:743   */\n      dup3\n        /* \"#utility.yul\":726:735   */\n      dup7\n        /* \"#utility.yul\":722:744   */\n      add\n        /* \"#utility.yul\":701:754   */\n      tag_68\n      jump\t// in\n    tag_81:\n        /* \"#utility.yul\":691:754   */\n      swap2\n      pop\n        /* \"#utility.yul\":646:764   */\n      pop\n        /* \"#utility.yul\":380:771   */\n      swap3\n      pop\n      swap3\n      swap1\n      pop\n      jump\t// out\n        /* \"#utility.yul\":777:895   */\n    tag_82:\n        /* \"#utility.yul\":864:888   */\n      tag_84\n        /* \"#utility.yul\":882:887   */\n      dup2\n        /* \"#utility.yul\":864:888   */\n      tag_85\n      jump\t// in\n    tag_84:\n        /* \"#utility.yul\":859:862   */\n      dup3\n        /* \"#utility.yul\":852:889   */\n      mstore\n        /* \"#utility.yul\":842:895   */\n      pop\n      pop\n      jump\t// out\n        /* \"#utility.yul\":901:1010   */\n    tag_86:\n        /* \"#utility.yul\":982:1003   */\n      tag_88\n        /* \"#utility.yul\":997:1002   */\n      dup2\n        /* \"#utility.yul\":982:1003   */\n      tag_89\n      jump\t// in\n    tag_88:\n        /* \"#utility.yul\":977:980   */\n      dup3\n        /* \"#utility.yul\":970:1004   */\n      mstore\n        /* \"#utility.yul\":960:1010   */\n      pop\n      pop\n      jump\t// out\n        /* \"#utility.yul\":1016:1134   */\n    tag_90:\n        /* \"#utility.yul\":1103:1127   */\n      tag_92\n        /* \"#utility.yul\":1121:1126   */\n      dup2\n        /* \"#utility.yul\":1103:1127   */\n      tag_93\n      jump\t// in\n    tag_92:\n        /* \"#utility.yul\":1098:1101   */\n      dup3\n        /* \"#utility.yul\":1091:1128   */\n      mstore\n        /* \"#utility.yul\":1081:1134   */\n      pop\n      pop\n      jump\t// out\n        /* \"#utility.yul\":1140:1362   */\n    tag_16:\n        /* \"#utility.yul\":1233:1237   */\n      0x00\n        /* \"#utility.yul\":1271:1273   */\n      0x20\n        /* \"#utility.yul\":1260:1269   */\n      dup3\n        /* \"#utility.yul\":1256:1274   */\n      add\n        /* \"#utility.yul\":1248:1274   */\n      swap1\n      pop\n        /* \"#utility.yul\":1284:1355   */\n      tag_95\n        /* \"#utility.yul\":1352:1353   */\n      0x00\n        /* \"#utility.yul\":1341:1350   */\n      dup4\n        /* \"#utility.yul\":1337:1354   */\n      add\n        /* \"#utility.yul\":1328:1334   */\n      dup5\n        /* \"#utility.yul\":1284:1355   */\n      tag_82\n      jump\t// in\n    tag_95:\n        /* \"#utility.yul\":1238:1362   */\n      swap3\n      swap2\n      pop\n      pop\n      jump\t// out\n        /* \"#utility.yul\":1368:1700   */\n    tag_56:\n        /* \"#utility.yul\":1489:1493   */\n      0x00\n        /* \"#utility.yul\":1527:1529   */\n      0x40\n        /* \"#utility.yul\":1516:1525   */\n      dup3\n        /* \"#utility.yul\":1512:1530   */\n      add\n        /* \"#utility.yul\":1504:1530   */\n      swap1\n      pop\n        /* \"#utility.yul\":1540:1611   */\n      tag_97\n        /* \"#utility.yul\":1608:1609   */\n      0x00\n        /* \"#utility.yul\":1597:1606   */\n      dup4\n        /* \"#utility.yul\":1593:1610   */\n      add\n        /* \"#utility.yul\":1584:1590   */\n      dup6\n        /* \"#utility.yul\":1540:1611   */\n      tag_82\n      jump\t// in\n    tag_97:\n        /* \"#utility.yul\":1621:1693   */\n      tag_98\n        /* \"#utility.yul\":1689:1691   */\n      0x20\n        /* \"#utility.yul\":1678:1687   */\n      dup4\n        /* \"#utility.yul\":1674:1692   */\n      add\n        /* \"#utility.yul\":1665:1671   */\n      dup5\n        /* \"#utility.yul\":1621:1693   */\n      tag_90\n      jump\t// in\n    tag_98:\n        /* \"#utility.yul\":1494:1700   */\n      swap4\n      swap3\n      pop\n      pop\n      pop\n      jump\t// out\n        /* \"#utility.yul\":1706:1916   */\n    tag_28:\n        /* \"#utility.yul\":1793:1797   */\n      0x00\n        /* \"#utility.yul\":1831:1833   */\n      0x20\n        /* \"#utility.yul\":1820:1829   */\n      dup3\n        /* \"#utility.yul\":1816:1834   */\n      add\n        /* \"#utility.yul\":1808:1834   */\n      swap1\n      pop\n        /* \"#utility.yul\":1844:1909   */\n      tag_100\n        /* \"#utility.yul\":1906:1907   */\n      0x00\n        /* \"#utility.yul\":1895:1904   */\n      dup4\n        /* \"#utility.yul\":1891:1908   */\n      add\n        /* \"#utility.yul\":1882:1888   */\n      dup5\n        /* \"#utility.yul\":1844:1909   */\n      tag_86\n      jump\t// in\n    tag_100:\n        /* \"#utility.yul\":1798:1916   */\n      swap3\n      swap2\n      pop\n      pop\n      jump\t// out\n        /* \"#utility.yul\":1922:2144   */\n    tag_23:\n        /* \"#utility.yul\":2015:2019   */\n      0x00\n        /* \"#utility.yul\":2053:2055   */\n      0x20\n        /* \"#utility.yul\":2042:2051   */\n      dup3\n        /* \"#utility.yul\":2038:2056   */\n      add\n        /* \"#utility.yul\":2030:2056   */\n      swap1\n      pop\n        /* \"#utility.yul\":2066:2137   */\n      tag_102\n        /* \"#utility.yul\":2134:2135   */\n      0x00\n        /* \"#utility.yul\":2123:2132   */\n      dup4\n        /* \"#utility.yul\":2119:2136   */\n      add\n        /* \"#utility.yul\":2110:2116   */\n      dup5\n        /* \"#utility.yul\":2066:2137   */\n      tag_90\n      jump\t// in\n    tag_102:\n        /* \"#utility.yul\":2020:2144   */\n      swap3\n      swap2\n      pop\n      pop\n      jump\t// out\n        /* \"#utility.yul\":2231:2536   */\n    tag_54:\n        /* \"#utility.yul\":2271:2274   */\n      0x00\n        /* \"#utility.yul\":2290:2310   */\n      tag_106\n        /* \"#utility.yul\":2308:2309   */\n      dup3\n        /* \"#utility.yul\":2290:2310   */\n      tag_93\n      jump\t// in\n    tag_106:\n        /* \"#utility.yul\":2285:2310   */\n      swap2\n      pop\n        /* \"#utility.yul\":2324:2344   */\n      tag_107\n        /* \"#utility.yul\":2342:2343   */\n      dup4\n        /* \"#utility.yul\":2324:2344   */\n      tag_93\n      jump\t// in\n    tag_107:\n        /* \"#utility.yul\":2319:2344   */\n      swap3\n      pop\n        /* \"#utility.yul\":2478:2479   */\n      dup3\n        /* \"#utility.yul\":2410:2476   */\n      0xffffffffffffffffffffffffffffffffffffffffffffffffffffffffffffffff\n        /* \"#utility.yul\":2406:2480   */\n      sub\n        /* \"#utility.yul\":2403:2404   */\n      dup3\n        /* \"#utility.yul\":2400:2481   */\n      gt\n        /* \"#utility.yul\":2397:2399   */\n      iszero\n      tag_108\n      jumpi\n        /* \"#utility.yul\":2484:2502   */\n      tag_109\n      tag_110\n      jump\t// in\n    tag_109:\n        /* \"#utility.yul\":2397:2399   */\n    tag_108:\n        /* \"#utility.yul\":2528:2529   */\n      dup3\n        /* \"#utility.yul\":2525:2526   */\n      dup3\n        /* \"#utility.yul\":2521:2530   */\n      add\n        /* \"#utility.yul\":2514:2530   */\n      swap1\n      pop\n        /* \"#utility.yul\":2275:2536   */\n      swap3\n      swap2\n      pop\n      pop\n      jump\t// out\n        /* \"#utility.yul\":2542:2638   */\n    tag_85:\n        /* \"#utility.yul\":2579:2586   */\n      0x00\n        /* \"#utility.yul\":2608:2632   */\n      tag_112\n        /* \"#utility.yul\":2626:2631   */\n      dup3\n        /* \"#utility.yul\":2608:2632   */\n      tag_113\n      jump\t// in\n    tag_112:\n        /* \"#utility.yul\":2597:2632   */\n      swap1\n      pop\n        /* \"#utility.yul\":2587:2638   */\n      swap2\n      swap1\n      pop\n      jump\t// out\n        /* \"#utility.yul\":2644:2734   */\n    tag_89:\n        /* \"#utility.yul\":2678:2685   */\n      0x00\n        /* \"#utility.yul\":2721:2726   */\n      dup2\n        /* \"#utility.yul\":2714:2727   */\n      iszero\n        /* \"#utility.yul\":2707:2728   */\n      iszero\n        /* \"#utility.yul\":2696:2728   */\n      swap1\n      pop\n        /* \"#utility.yul\":2686:2734   */\n      swap2\n      swap1\n      pop\n      jump\t// out\n        /* \"#utility.yul\":2740:2866   */\n    tag_113:\n        /* \"#utility.yul\":2777:2784   */\n      0x00\n        /* \"#utility.yul\":2817:2859   */\n      0xffffffffffffffffffffffffffffffffffffffff\n        /* \"#utility.yul\":2810:2815   */\n      dup3\n        /* \"#utility.yul\":2806:2860   */\n      and\n        /* \"#utility.yul\":2795:2860   */\n      swap1\n      pop\n        /* \"#utility.yul\":2785:2866   */\n      swap2\n      swap1\n      pop\n      jump\t// out\n        /* \"#utility.yul\":2872:2949   */\n    tag_93:\n        /* \"#utility.yul\":2909:2916   */\n      0x00\n        /* \"#utility.yul\":2938:2943   */\n      dup2\n        /* \"#utility.yul\":2927:2943   */\n      swap1\n      pop\n        /* \"#utility.yul\":2917:2949   */\n      swap2\n      swap1\n      pop\n      jump\t// out\n        /* \"#utility.yul\":2955:3135   */\n    tag_110:\n        /* \"#utility.yul\":3003:3080   */\n      0x4e487b7100000000000000000000000000000000000000000000000000000000\n        /* \"#utility.yul\":3000:3001   */\n      0x00\n        /* \"#utility.yul\":2993:3081   */\n      mstore\n        /* \"#utility.yul\":3100:3104   */\n      0x11\n        /* \"#utility.yul\":3097:3098   */\n      0x04\n        /* \"#utility.yul\":3090:3105   */\n      mstore\n        /* \"#utility.yul\":3124:3128   */\n      0x24\n        /* \"#utility.yul\":3121:3122   */\n      0x00\n        /* \"#utility.yul\":3114:3129   */\n      revert\n        /* \"#utility.yul\":3264:3381   */\n    tag_79:\n        /* \"#utility.yul\":3373:3374   */\n      0x00\n        /* \"#utility.yul\":3370:3371   */\n      dup1\n        /* \"#utility.yul\":3363:3375   */\n      revert\n        /* \"#utility.yul\":3387:3509   */\n    tag_71:\n        /* \"#utility.yul\":3460:3484   */\n      tag_122\n        /* \"#utility.yul\":3478:3483   */\n      dup2\n        /* \"#utility.yul\":3460:3484   */\n      tag_85\n      jump\t// in\n    tag_122:\n        /* \"#utility.yul\":3453:3458   */\n      dup2\n        /* \"#utility.yul\":3450:3485   */\n      eq\n        /* \"#utility.yul\":3440:3442   */\n      tag_123\n      jumpi\n        /* \"#utility.yul\":3499:3500   */\n      0x00\n        /* \"#utility.yul\":3496:3497   */\n      dup1\n        /* \"#utility.yul\":3489:3501   */\n      revert\n        /* \"#utility.yul\":3440:3442   */\n    tag_123:\n        /* \"#utility.yul\":3430:3509   */\n      pop\n      jump\t// out\n        /* \"#utility.yul\":3515:3637   */\n    tag_75:\n        /* \"#utility.yul\":3588:3612   */\n      tag_125\n        /* \"#utility.yul\":3606:3611   */\n      dup2\n        /* \"#utility.yul\":3588:3612   */\n      tag_93\n      jump\t// in\n    tag_125:\n        /* \"#utility.yul\":3581:3586   */\n      dup2\n        /* \"#utility.yul\":3578:3613   */\n      eq\n        /* \"#utility.yul\":3568:3570   */\n      tag_126\n      jumpi\n        /* \"#utility.yul\":3627:3628   */\n      0x00\n        /* \"#utility.yul\":3624:3625   */\n      dup1\n        /* \"#utility.yul\":3617:3629   */\n      revert\n        /* \"#utility.yul\":3568:3570   */\n    tag_126:\n        /* \"#utility.yul\":3558:3637   */\n      pop\n      jump\t// out\n\n    auxdata: 0xa2646970667358221220c40e346c512caf2821ee4c06fb54e4a8582a61516200f415b10eae90262ecaa264736f6c63430008060033\n}\n",
				"bytecode": {
					"linkReferences": {},
					"object": "608060405234801561001057600080fd5b5033600260006101000a81548173ffffffffffffffffffffffffffffffffffffffff021916908373ffffffffffffffffffffffffffffffffffffffff160217905550610828806100616000396000f3fe6080604052600436106100865760003560e01c8063636bf73011610059578063636bf730146101165780638da5cb5b14610141578063aeaaa2991461016c578063b4b48cf114610183578063d9c4870e146101ac57610086565b806301333f061461008b5780631998aeef146100b657806319c2a5b5146100c05780633ccfd60b146100eb575b600080fd5b34801561009757600080fd5b506100a06101d7565b6040516100ad9190610678565b60405180910390f35b6100be6101fd565b005b3480156100cc57600080fd5b506100d561036e565b6040516100e291906106d7565b60405180910390f35b3480156100f757600080fd5b50610100610374565b60405161010d91906106bc565b60405180910390f35b34801561012257600080fd5b5061012b610498565b60405161013891906106d7565b60405180910390f35b34801561014d57600080fd5b5061015661049e565b6040516101639190610678565b60405180910390f35b34801561017857600080fd5b506101816104c4565b005b34801561018f57600080fd5b506101aa60048036038101906101a5919061060b565b610567565b005b3480156101b857600080fd5b506101c16105bd565b6040516101ce9190610678565b60405180910390f35b600360009054906101000a900473ffffffffffffffffffffffffffffffffffffffff1681565b60015442111561020c57600080fd5b600454341161021a57600080fd5b600073ffffffffffffffffffffffffffffffffffffffff16600360009054906101000a900473ffffffffffffffffffffffffffffffffffffffff1673ffffffffffffffffffffffffffffffffffffffff16146102eb5760045460056000600360009054906101000a900473ffffffffffffffffffffffffffffffffffffffff1673ffffffffffffffffffffffffffffffffffffffff1673ffffffffffffffffffffffffffffffffffffffff16815260200190815260200160002060008282546102e391906106f2565b925050819055505b33600360006101000a81548173ffffffffffffffffffffffffffffffffffffffff021916908373ffffffffffffffffffffffffffffffffffffffff160217905550346004819055507f7635e37094566fa4ea4b08dd77117e7ace1e3e5a6ee614bcd37eb6ad8eccc1d93334604051610364929190610693565b60405180910390a1565b60015481565b600080600560003373ffffffffffffffffffffffffffffffffffffffff1673ffffffffffffffffffffffffffffffffffffffff168152602001908152602001600020549050600081111561048f576000600560003373ffffffffffffffffffffffffffffffffffffffff1673ffffffffffffffffffffffffffffffffffffffff168152602001908152602001600020819055503373ffffffffffffffffffffffffffffffffffffffff166108fc829081150290604051600060405180830381858888f1935050505061048e5780600560003373ffffffffffffffffffffffffffffffffffffffff1673ffffffffffffffffffffffffffffffffffffffff168152602001908152602001600020819055506000915050610495565b5b60019150505b90565b60045481565b600260009054906101000a900473ffffffffffffffffffffffffffffffffffffffff1681565b6001544210156104d357600080fd5b600660009054906101000a900460ff16156104ed57600080fd5b6001600660006101000a81548160ff0219169083151502179055507fc9b64caa2aa57493e3a2b3087a613ad4168386aa000be494a8a41cd06bd3844a600360009054906101000a900473ffffffffffffffffffffffffffffffffffffffff1660045460405161055d929190610693565b60405180910390a1565b806000806101000a81548173ffffffffffffffffffffffffffffffffffffffff021916908373ffffffffffffffffffffffffffffffffffffffff16021790555081426105b391906106f2565b6001819055505050565b60008054906101000a900473ffffffffffffffffffffffffffffffffffffffff1681565b6000813590506105f0816107c4565b92915050565b600081359050610605816107db565b92915050565b60008060408385031215610622576106216107bf565b5b6000610630858286016105f6565b9250506020610641858286016105e1565b9150509250929050565b61065481610748565b82525050565b6106638161075a565b82525050565b61067281610786565b82525050565b600060208201905061068d600083018461064b565b92915050565b60006040820190506106a8600083018561064b565b6106b56020830184610669565b9392505050565b60006020820190506106d1600083018461065a565b92915050565b60006020820190506106ec6000830184610669565b92915050565b60006106fd82610786565b915061070883610786565b9250827fffffffffffffffffffffffffffffffffffffffffffffffffffffffffffffffff0382111561073d5761073c610790565b5b828201905092915050565b600061075382610766565b9050919050565b60008115159050919050565b600073ffffffffffffffffffffffffffffffffffffffff82169050919050565b6000819050919050565b7f4e487b7100000000000000000000000000000000000000000000000000000000600052601160045260246000fd5b600080fd5b6107cd81610748565b81146107d857600080fd5b50565b6107e481610786565b81146107ef57600080fd5b5056fea2646970667358221220c40e346c512caf2821ee4c06fb54e4a8582a61516200f415b10eae90262ecaa264736f6c63430008060033",
					"opcodes": "PUSH1 0x80 PUSH1 0x40 MSTORE CALLVALUE DUP1 ISZERO PUSH2 0x10 JUMPI PUSH1 0x0 DUP1 REVERT JUMPDEST POP CALLER PUSH1 0x2 PUSH1 0x0 PUSH2 0x100 EXP DUP2 SLOAD DUP2 PUSH20 0xFFFFFFFFFFFFFFFFFFFFFFFFFFFFFFFFFFFFFFFF MUL NOT AND SWAP1 DUP4 PUSH20 0xFFFFFFFFFFFFFFFFFFFFFFFFFFFFFFFFFFFFFFFF AND MUL OR SWAP1 SSTORE POP PUSH2 0x828 DUP1 PUSH2 0x61 PUSH1 0x0 CODECOPY PUSH1 0x0 RETURN INVALID PUSH1 0x80 PUSH1 0x40 MSTORE PUSH1 0x4 CALLDATASIZE LT PUSH2 0x86 JUMPI PUSH1 0x0 CALLDATALOAD PUSH1 0xE0 SHR DUP1 PUSH4 0x636BF730 GT PUSH2 0x59 JUMPI DUP1 PUSH4 0x636BF730 EQ PUSH2 0x116 JUMPI DUP1 PUSH4 0x8DA5CB5B EQ PUSH2 0x141 JUMPI DUP1 PUSH4 0xAEAAA299 EQ PUSH2 0x16C JUMPI DUP1 PUSH4 0xB4B48CF1 EQ PUSH2 0x183 JUMPI DUP1 PUSH4 0xD9C4870E EQ PUSH2 0x1AC JUMPI PUSH2 0x86 JUMP JUMPDEST DUP1 PUSH4 0x1333F06 EQ PUSH2 0x8B JUMPI DUP1 PUSH4 0x1998AEEF EQ PUSH2 0xB6 JUMPI DUP1 PUSH4 0x19C2A5B5 EQ PUSH2 0xC0 JUMPI DUP1 PUSH4 0x3CCFD60B EQ PUSH2 0xEB JUMPI JUMPDEST PUSH1 0x0 DUP1 REVERT JUMPDEST CALLVALUE DUP1 ISZERO PUSH2 0x97 JUMPI PUSH1 0x0 DUP1 REVERT JUMPDEST POP PUSH2 0xA0 PUSH2 0x1D7 JUMP JUMPDEST PUSH1 0x40 MLOAD PUSH2 0xAD SWAP2 SWAP1 PUSH2 0x678 JUMP JUMPDEST PUSH1 0x40 MLOAD DUP1 SWAP2 SUB SWAP1 RETURN JUMPDEST PUSH2 0xBE PUSH2 0x1FD JUMP JUMPDEST STOP JUMPDEST CALLVALUE DUP1 ISZERO PUSH2 0xCC JUMPI PUSH1 0x0 DUP1 REVERT JUMPDEST POP PUSH2 0xD5 PUSH2 0x36E JUMP JUMPDEST PUSH1 0x40 MLOAD PUSH2 0xE2 SWAP2 SWAP1 PUSH2 0x6D7 JUMP JUMPDEST PUSH1 0x40 MLOAD DUP1 SWAP2 SUB SWAP1 RETURN JUMPDEST CALLVALUE DUP1 ISZERO PUSH2 0xF7 JUMPI PUSH1 0x0 DUP1 REVERT JUMPDEST POP PUSH2 0x100 PUSH2 0x374 JUMP JUMPDEST PUSH1 0x40 MLOAD PUSH2 0x10D SWAP2 SWAP1 PUSH2 0x6BC JUMP JUMPDEST PUSH1 0x40 MLOAD DUP1 SWAP2 SUB SWAP1 RETURN JUMPDEST CALLVALUE DUP1 ISZERO PUSH2 0x122 JUMPI PUSH1 0x0 DUP1 REVERT JUMPDEST POP PUSH2 0x12B PUSH2 0x498 JUMP JUMPDEST PUSH1 0x40 MLOAD PUSH2 0x138 SWAP2 SWAP1 PUSH2 0x6D7 JUMP JUMPDEST PUSH1 0x40 MLOAD DUP1 SWAP2 SUB SWAP1 RETURN JUMPDEST CALLVALUE DUP1 ISZERO PUSH2 0x14D JUMPI PUSH1 0x0 DUP1 REVERT JUMPDEST POP PUSH2 0x156 PUSH2 0x49E JUMP JUMPDEST PUSH1 0x40 MLOAD PUSH2 0x163 SWAP2 SWAP1 PUSH2 0x678 JUMP JUMPDEST PUSH1 0x40 MLOAD DUP1 SWAP2 SUB SWAP1 RETURN JUMPDEST CALLVALUE DUP1 ISZERO PUSH2 0x178 JUMPI PUSH1 0x0 DUP1 REVERT JUMPDEST POP PUSH2 0x181 PUSH2 0x4C4 JUMP JUMPDEST STOP JUMPDEST CALLVALUE DUP1 ISZERO PUSH2 0x18F JUMPI PUSH1 0x0 DUP1 REVERT JUMPDEST POP PUSH2 0x1AA PUSH1 0x4 DUP1 CALLDATASIZE SUB DUP2 ADD SWAP1 PUSH2 0x1A5 SWAP2 SWAP1 PUSH2 0x60B JUMP JUMPDEST PUSH2 0x567 JUMP JUMPDEST STOP JUMPDEST CALLVALUE DUP1 ISZERO PUSH2 0x1B8 JUMPI PUSH1 0x0 DUP1 REVERT JUMPDEST POP PUSH2 0x1C1 PUSH2 0x5BD JUMP JUMPDEST PUSH1 0x40 MLOAD PUSH2 0x1CE SWAP2 SWAP1 PUSH2 0x678 JUMP JUMPDEST PUSH1 0x40 MLOAD DUP1 SWAP2 SUB SWAP1 RETURN JUMPDEST PUSH1 0x3 PUSH1 0x0 SWAP1 SLOAD SWAP1 PUSH2 0x100 EXP SWAP1 DIV PUSH20 0xFFFFFFFFFFFFFFFFFFFFFFFFFFFFFFFFFFFFFFFF AND DUP2 JUMP JUMPDEST PUSH1 0x1 SLOAD TIMESTAMP GT ISZERO PUSH2 0x20C JUMPI PUSH1 0x0 DUP1 REVERT JUMPDEST PUSH1 0x4 SLOAD CALLVALUE GT PUSH2 0x21A JUMPI PUSH1 0x0 DUP1 REVERT JUMPDEST PUSH1 0x0 PUSH20 0xFFFFFFFFFFFFFFFFFFFFFFFFFFFFFFFFFFFFFFFF AND PUSH1 0x3 PUSH1 0x0 SWAP1 SLOAD SWAP1 PUSH2 0x100 EXP SWAP1 DIV PUSH20 0xFFFFFFFFFFFFFFFFFFFFFFFFFFFFFFFFFFFFFFFF AND PUSH20 0xFFFFFFFFFFFFFFFFFFFFFFFFFFFFFFFFFFFFFFFF AND EQ PUSH2 0x2EB JUMPI PUSH1 0x4 SLOAD PUSH1 0x5 PUSH1 0x0 PUSH1 0x3 PUSH1 0x0 SWAP1 SLOAD SWAP1 PUSH2 0x100 EXP SWAP1 DIV PUSH20 0xFFFFFFFFFFFFFFFFFFFFFFFFFFFFFFFFFFFFFFFF AND PUSH20 0xFFFFFFFFFFFFFFFFFFFFFFFFFFFFFFFFFFFFFFFF AND PUSH20 0xFFFFFFFFFFFFFFFFFFFFFFFFFFFFFFFFFFFFFFFF AND DUP2 MSTORE PUSH1 0x20 ADD SWAP1 DUP2 MSTORE PUSH1 0x20 ADD PUSH1 0x0 KECCAK256 PUSH1 0x0 DUP3 DUP3 SLOAD PUSH2 0x2E3 SWAP2 SWAP1 PUSH2 0x6F2 JUMP JUMPDEST SWAP3 POP POP DUP2 SWAP1 SSTORE POP JUMPDEST CALLER PUSH1 0x3 PUSH1 0x0 PUSH2 0x100 EXP DUP2 SLOAD DUP2 PUSH20 0xFFFFFFFFFFFFFFFFFFFFFFFFFFFFFFFFFFFFFFFF MUL NOT AND SWAP1 DUP4 PUSH20 0xFFFFFFFFFFFFFFFFFFFFFFFFFFFFFFFFFFFFFFFF AND MUL OR SWAP1 SSTORE POP CALLVALUE PUSH1 0x4 DUP2 SWAP1 SSTORE POP PUSH32 0x7635E37094566FA4EA4B08DD77117E7ACE1E3E5A6EE614BCD37EB6AD8ECCC1D9 CALLER CALLVALUE PUSH1 0x40 MLOAD PUSH2 0x364 SWAP3 SWAP2 SWAP1 PUSH2 0x693 JUMP JUMPDEST PUSH1 0x40 MLOAD DUP1 SWAP2 SUB SWAP1 LOG1 JUMP JUMPDEST PUSH1 0x1 SLOAD DUP2 JUMP JUMPDEST PUSH1 0x0 DUP1 PUSH1 0x5 PUSH1 0x0 CALLER PUSH20 0xFFFFFFFFFFFFFFFFFFFFFFFFFFFFFFFFFFFFFFFF AND PUSH20 0xFFFFFFFFFFFFFFFFFFFFFFFFFFFFFFFFFFFFFFFF AND DUP2 MSTORE PUSH1 0x20 ADD SWAP1 DUP2 MSTORE PUSH1 0x20 ADD PUSH1 0x0 KECCAK256 SLOAD SWAP1 POP PUSH1 0x0 DUP2 GT ISZERO PUSH2 0x48F JUMPI PUSH1 0x0 PUSH1 0x5 PUSH1 0x0 CALLER PUSH20 0xFFFFFFFFFFFFFFFFFFFFFFFFFFFFFFFFFFFFFFFF AND PUSH20 0xFFFFFFFFFFFFFFFFFFFFFFFFFFFFFFFFFFFFFFFF AND DUP2 MSTORE PUSH1 0x20 ADD SWAP1 DUP2 MSTORE PUSH1 0x20 ADD PUSH1 0x0 KECCAK256 DUP2 SWAP1 SSTORE POP CALLER PUSH20 0xFFFFFFFFFFFFFFFFFFFFFFFFFFFFFFFFFFFFFFFF AND PUSH2 0x8FC DUP3 SWAP1 DUP2 ISZERO MUL SWAP1 PUSH1 0x40 MLOAD PUSH1 0x0 PUSH1 0x40 MLOAD DUP1 DUP4 SUB DUP2 DUP6 DUP9 DUP9 CALL SWAP4 POP POP POP POP PUSH2 0x48E JUMPI DUP1 PUSH1 0x5 PUSH1 0x0 CALLER PUSH20 0xFFFFFFFFFFFFFFFFFFFFFFFFFFFFFFFFFFFFFFFF AND PUSH20 0xFFFFFFFFFFFFFFFFFFFFFFFFFFFFFFFFFFFFFFFF AND DUP2 MSTORE PUSH1 0x20 ADD SWAP1 DUP2 MSTORE PUSH1 0x20 ADD PUSH1 0x0 KECCAK256 DUP2 SWAP1 SSTORE POP PUSH1 0x0 SWAP2 POP POP PUSH2 0x495 JUMP JUMPDEST JUMPDEST PUSH1 0x1 SWAP2 POP POP JUMPDEST SWAP1 JUMP JUMPDEST PUSH1 0x4 SLOAD DUP2 JUMP JUMPDEST PUSH1 0x2 PUSH1 0x0 SWAP1 SLOAD SWAP1 PUSH2 0x100 EXP SWAP1 DIV PUSH20 0xFFFFFFFFFFFFFFFFFFFFFFFFFFFFFFFFFFFFFFFF AND DUP2 JUMP JUMPDEST PUSH1 0x1 SLOAD TIMESTAMP LT ISZERO PUSH2 0x4D3 JUMPI PUSH1 0x0 DUP1 REVERT JUMPDEST PUSH1 0x6 PUSH1 0x0 SWAP1 SLOAD SWAP1 PUSH2 0x100 EXP SWAP1 DIV PUSH1 0xFF AND ISZERO PUSH2 0x4ED JUMPI PUSH1 0x0 DUP1 REVERT JUMPDEST PUSH1 0x1 PUSH1 0x6 PUSH1 0x0 PUSH2 0x100 EXP DUP2 SLOAD DUP2 PUSH1 0xFF MUL NOT AND SWAP1 DUP4 ISZERO ISZERO MUL OR SWAP1 SSTORE POP PUSH32 0xC9B64CAA2AA57493E3A2B3087A613AD4168386AA000BE494A8A41CD06BD3844A PUSH1 0x3 PUSH1 0x0 SWAP1 SLOAD SWAP1 PUSH2 0x100 EXP SWAP1 DIV PUSH20 0xFFFFFFFFFFFFFFFFFFFFFFFFFFFFFFFFFFFFFFFF AND PUSH1 0x4 SLOAD PUSH1 0x40 MLOAD PUSH2 0x55D SWAP3 SWAP2 SWAP1 PUSH2 0x693 JUMP JUMPDEST PUSH1 0x40 MLOAD DUP1 SWAP2 SUB SWAP1 LOG1 JUMP JUMPDEST DUP1 PUSH1 0x0 DUP1 PUSH2 0x100 EXP DUP2 SLOAD DUP2 PUSH20 0xFFFFFFFFFFFFFFFFFFFFFFFFFFFFFFFFFFFFFFFF MUL NOT AND SWAP1 DUP4 PUSH20 0xFFFFFFFFFFFFFFFFFFFFFFFFFFFFFFFFFFFFFFFF AND MUL OR SWAP1 SSTORE POP DUP2 TIMESTAMP PUSH2 0x5B3 SWAP2 SWAP1 PUSH2 0x6F2 JUMP JUMPDEST PUSH1 0x1 DUP2 SWAP1 SSTORE POP POP POP JUMP JUMPDEST PUSH1 0x0 DUP1 SLOAD SWAP1 PUSH2 0x100 EXP SWAP1 DIV PUSH20 0xFFFFFFFFFFFFFFFFFFFFFFFFFFFFFFFFFFFFFFFF AND DUP2 JUMP JUMPDEST PUSH1 0x0 DUP2 CALLDATALOAD SWAP1 POP PUSH2 0x5F0 DUP2 PUSH2 0x7C4 JUMP JUMPDEST SWAP3 SWAP2 POP POP JUMP JUMPDEST PUSH1 0x0 DUP2 CALLDATALOAD SWAP1 POP PUSH2 0x605 DUP2 PUSH2 0x7DB JUMP JUMPDEST SWAP3 SWAP2 POP POP JUMP JUMPDEST PUSH1 0x0 DUP1 PUSH1 0x40 DUP4 DUP6 SUB SLT ISZERO PUSH2 0x622 JUMPI PUSH2 0x621 PUSH2 0x7BF JUMP JUMPDEST JUMPDEST PUSH1 0x0 PUSH2 0x630 DUP6 DUP3 DUP7 ADD PUSH2 0x5F6 JUMP JUMPDEST SWAP3 POP POP PUSH1 0x20 PUSH2 0x641 DUP6 DUP3 DUP7 ADD PUSH2 0x5E1 JUMP JUMPDEST SWAP2 POP POP SWAP3 POP SWAP3 SWAP1 POP JUMP JUMPDEST PUSH2 0x654 DUP2 PUSH2 0x748 JUMP JUMPDEST DUP3 MSTORE POP POP JUMP JUMPDEST PUSH2 0x663 DUP2 PUSH2 0x75A JUMP JUMPDEST DUP3 MSTORE POP POP JUMP JUMPDEST PUSH2 0x672 DUP2 PUSH2 0x786 JUMP JUMPDEST DUP3 MSTORE POP POP JUMP JUMPDEST PUSH1 0x0 PUSH1 0x20 DUP3 ADD SWAP1 POP PUSH2 0x68D PUSH1 0x0 DUP4 ADD DUP5 PUSH2 0x64B JUMP JUMPDEST SWAP3 SWAP2 POP POP JUMP JUMPDEST PUSH1 0x0 PUSH1 0x40 DUP3 ADD SWAP1 POP PUSH2 0x6A8 PUSH1 0x0 DUP4 ADD DUP6 PUSH2 0x64B JUMP JUMPDEST PUSH2 0x6B5 PUSH1 0x20 DUP4 ADD DUP5 PUSH2 0x669 JUMP JUMPDEST SWAP4 SWAP3 POP POP POP JUMP JUMPDEST PUSH1 0x0 PUSH1 0x20 DUP3 ADD SWAP1 POP PUSH2 0x6D1 PUSH1 0x0 DUP4 ADD DUP5 PUSH2 0x65A JUMP JUMPDEST SWAP3 SWAP2 POP POP JUMP JUMPDEST PUSH1 0x0 PUSH1 0x20 DUP3 ADD SWAP1 POP PUSH2 0x6EC PUSH1 0x0 DUP4 ADD DUP5 PUSH2 0x669 JUMP JUMPDEST SWAP3 SWAP2 POP POP JUMP JUMPDEST PUSH1 0x0 PUSH2 0x6FD DUP3 PUSH2 0x786 JUMP JUMPDEST SWAP2 POP PUSH2 0x708 DUP4 PUSH2 0x786 JUMP JUMPDEST SWAP3 POP DUP3 PUSH32 0xFFFFFFFFFFFFFFFFFFFFFFFFFFFFFFFFFFFFFFFFFFFFFFFFFFFFFFFFFFFFFFFF SUB DUP3 GT ISZERO PUSH2 0x73D JUMPI PUSH2 0x73C PUSH2 0x790 JUMP JUMPDEST JUMPDEST DUP3 DUP3 ADD SWAP1 POP SWAP3 SWAP2 POP POP JUMP JUMPDEST PUSH1 0x0 PUSH2 0x753 DUP3 PUSH2 0x766 JUMP JUMPDEST SWAP1 POP SWAP2 SWAP1 POP JUMP JUMPDEST PUSH1 0x0 DUP2 ISZERO ISZERO SWAP1 POP SWAP2 SWAP1 POP JUMP JUMPDEST PUSH1 0x0 PUSH20 0xFFFFFFFFFFFFFFFFFFFFFFFFFFFFFFFFFFFFFFFF DUP3 AND SWAP1 POP SWAP2 SWAP1 POP JUMP JUMPDEST PUSH1 0x0 DUP2 SWAP1 POP SWAP2 SWAP1 POP JUMP JUMPDEST PUSH32 0x4E487B7100000000000000000000000000000000000000000000000000000000 PUSH1 0x0 MSTORE PUSH1 0x11 PUSH1 0x4 MSTORE PUSH1 0x24 PUSH1 0x0 REVERT JUMPDEST PUSH1 0x0 DUP1 REVERT JUMPDEST PUSH2 0x7CD DUP2 PUSH2 0x748 JUMP JUMPDEST DUP2 EQ PUSH2 0x7D8 JUMPI PUSH1 0x0 DUP1 REVERT JUMPDEST POP JUMP JUMPDEST PUSH2 0x7E4 DUP2 PUSH2 0x786 JUMP JUMPDEST DUP2 EQ PUSH2 0x7EF JUMPI PUSH1 0x0 DUP1 REVERT JUMPDEST POP JUMP INVALID LOG2 PUSH5 0x6970667358 0x22 SLT KECCAK256 0xC4 0xE CALLVALUE PUSH13 0x512CAF2821EE4C06FB54E4A858 0x2A PUSH2 0x5162 STOP DELEGATECALL ISZERO 0xB1 0xE 0xAE SWAP1 0x26 0x2E 0xCA LOG2 PUSH5 0x736F6C6343 STOP ADDMOD MOD STOP CALLER "
				},
				"gasEstimates": {
					"creation": {
						"codeDepositCost": "417600",
						"executionCost": "24721",
						"totalCost": "442321"
					},
					"external": {
						"SimpleAuctions(uint256,address)": "infinite",
						"auctionClose()": "2474",
						"auctionClosed()": "34571",
						"beneficiaryAddress()": "2599",
						"bid()": "infinite",
						"owner()": "2536",
						"topBid()": "2429",
						"topBidder()": "2515",
						"withdraw()": "infinite"
					},
					"internal": {
						"_transferBid()": "infinite",
						"transferBid(address,uint256)": "infinite"
					}
				},
				"methodIdentifiers": {
					"SimpleAuctions(uint256,address)": "b4b48cf1",
					"auctionClose()": "19c2a5b5",
					"auctionClosed()": "aeaaa299",
					"beneficiaryAddress()": "d9c4870e",
					"bid()": "1998aeef",
					"owner()": "8da5cb5b",
					"topBid()": "636bf730",
					"topBidder()": "01333f06",
					"withdraw()": "3ccfd60b"
				}
			},
			"userdoc": {
				"kind": "user",
				"methods": {
					"SimpleAuctions(uint256,address)": {
						"notice": "Create an auction with `_biddingTime` seconds for bidding on behalf of the beneficiary address `_beneficiary`."
					},
					"auctionClosed()": {
						"notice": "Auction ends and highest bid is sent to the beneficiary."
					},
					"bid()": {
						"notice": "You may bid on the auction with the value sent along with this transaction. The value may only be refunded if the auction was not won."
					},
					"withdraw()": {
						"notice": "Withdraw a bid that was overbid."
					}
				},
				"version": 1
			}
		}
	}
}