{
	"contracts/auction2.sol": {
		"SimpleAuction": {
			"abi": [
				{
					"constant": true,
					"inputs": [],
					"name": "topBidder",
					"outputs": [
						{
							"name": "",
							"type": "address"
						}
					],
					"payable": false,
					"type": "function",
					"stateMutability": "view"
				},
				{
					"constant": false,
					"inputs": [],
					"name": "bid",
					"outputs": [],
					"payable": true,
					"type": "function",
					"stateMutability": "payable"
				},
				{
					"constant": false,
					"inputs": [],
					"name": "auctionClose",
					"outputs": [],
					"payable": false,
					"type": "function",
					"stateMutability": "nonpayable"
				},
				{
					"constant": false,
					"inputs": [],
					"name": "withdraw",
					"outputs": [
						{
							"name": "",
							"type": "bool"
						}
					],
					"payable": false,
					"type": "function",
					"stateMutability": "nonpayable"
				},
				{
					"constant": true,
					"inputs": [],
					"name": "topBid",
					"outputs": [
						{
							"name": "",
							"type": "uint256"
						}
					],
					"payable": false,
					"type": "function",
					"stateMutability": "view"
				},
				{
					"constant": true,
					"inputs": [],
					"name": "beneficiaryAddress",
					"outputs": [
						{
							"name": "",
							"type": "address"
						}
					],
					"payable": false,
					"type": "function",
					"stateMutability": "view"
				},
				{
					"inputs": [
						{
							"name": "_biddingTime",
							"type": "uint256"
						},
						{
							"name": "_beneficiary",
							"type": "address"
						}
					],
					"payable": false,
					"type": "constructor",
					"stateMutability": "nonpayable"
				},
				{
					"anonymous": false,
					"inputs": [
						{
							"indexed": false,
							"name": "bidder",
							"type": "address"
						},
						{
							"indexed": false,
							"name": "bidAmount",
							"type": "uint256"
						}
					],
					"name": "topBidIncreased",
					"type": "event"
				},
				{
					"anonymous": false,
					"inputs": [
						{
							"indexed": false,
							"name": "winner",
							"type": "address"
						},
						{
							"indexed": false,
							"name": "bidAmount",
							"type": "uint256"
						}
					],
					"name": "auctionResult",
					"type": "event"
				}
			],
			"devdoc": {
				"methods": {}
			},
			"evm": {
				"assembly": "    /* \"contracts/auction2.sol\":28:4295  contract SimpleAuction {\r... */\n  mstore(0x40, 0x60)\n    /* \"contracts/auction2.sol\":1084:1269  function SimpleAuction(\r... */\n  jumpi(tag_1, iszero(callvalue))\n  invalid\ntag_1:\n  mload(0x40)\n  0x40\n  dup1\n  bytecodeSize\n  dup4\n  codecopy\n  dup2\n  add\n  0x40\n  mstore\n  dup1\n  dup1\n  mload\n  swap1\n  0x20\n  add\n  swap1\n  swap2\n  swap1\n  dup1\n  mload\n  swap1\n  0x20\n  add\n  swap1\n  swap2\n  swap1\n  pop\n  pop\ntag_2:\n    /* \"contracts/auction2.sol\":1205:1217  _beneficiary */\n  dup1\n    /* \"contracts/auction2.sol\":1184:1202  beneficiaryAddress */\n  0x0\n  0x0\n    /* \"contracts/auction2.sol\":1184:1217  beneficiaryAddress = _beneficiary */\n  0x100\n  exp\n  dup2\n  sload\n  dup2\n  0xffffffffffffffffffffffffffffffffffffffff\n  mul\n  not\n  and\n  swap1\n  dup4\n  0xffffffffffffffffffffffffffffffffffffffff\n  and\n  mul\n  or\n  swap1\n  sstore\n  pop\n    /* \"contracts/auction2.sol\":1249:1261  _biddingTime */\n  dup2\n    /* \"contracts/auction2.sol\":1243:1246  now */\n  timestamp\n    /* \"contracts/auction2.sol\":1243:1261  now + _biddingTime */\n  add\n    /* \"contracts/auction2.sol\":1228:1240  auctionClose */\n  0x1\n    /* \"contracts/auction2.sol\":1228:1261  auctionClose = now + _biddingTime */\n  dup2\n  swap1\n  sstore\n  pop\n    /* \"contracts/auction2.sol\":1084:1269  function SimpleAuction(\r... */\ntag_3:\n  pop\n  pop\n    /* \"contracts/auction2.sol\":28:4295  contract SimpleAuction {\r... */\ntag_4:\n  dataSize(sub_0)\n  dup1\n  dataOffset(sub_0)\n  0x0\n  codecopy\n  0x0\n  return\nstop\n\nsub_0: assembly {\n        /* \"contracts/auction2.sol\":28:4295  contract SimpleAuction {\r... */\n      mstore(0x40, 0x60)\n      jumpi(tag_1, iszero(calldatasize))\n      calldataload(0x0)\n      0x100000000000000000000000000000000000000000000000000000000\n      swap1\n      div\n      0xffffffff\n      and\n      dup1\n      0x1333f06\n      eq\n      tag_2\n      jumpi\n      dup1\n      0x1998aeef\n      eq\n      tag_3\n      jumpi\n      dup1\n      0x19c2a5b5\n      eq\n      tag_4\n      jumpi\n      dup1\n      0x3ccfd60b\n      eq\n      tag_5\n      jumpi\n      dup1\n      0x636bf730\n      eq\n      tag_6\n      jumpi\n      dup1\n      0xd9c4870e\n      eq\n      tag_7\n      jumpi\n    tag_1:\n      invalid\n        /* \"contracts/auction2.sol\":336:360  address public topBidder */\n    tag_2:\n      jumpi(tag_8, iszero(callvalue))\n      invalid\n    tag_8:\n      tag_9\n      jump(tag_10)\n    tag_9:\n      mload(0x40)\n      dup1\n      dup3\n      0xffffffffffffffffffffffffffffffffffffffff\n      and\n      0xffffffffffffffffffffffffffffffffffffffff\n      and\n      dup2\n      mstore\n      0x20\n      add\n      swap2\n      pop\n      pop\n      mload(0x40)\n      dup1\n      swap2\n      sub\n      swap1\n      return\n        /* \"contracts/auction2.sol\":1448:2421  function bid() payable {\r... */\n    tag_3:\n      tag_11\n      jump(tag_12)\n    tag_11:\n      stop\n        /* \"contracts/auction2.sol\":3186:4274  function auctionClose() {\r... */\n    tag_4:\n      jumpi(tag_13, iszero(callvalue))\n      invalid\n    tag_13:\n      tag_14\n      jump(tag_15)\n    tag_14:\n      stop\n        /* \"contracts/auction2.sol\":2471:3103  function withdraw() returns (bool) {\r... */\n    tag_5:\n      jumpi(tag_16, iszero(callvalue))\n      invalid\n    tag_16:\n      tag_17\n      jump(tag_18)\n    tag_17:\n      mload(0x40)\n      dup1\n      dup3\n      iszero\n      iszero\n      iszero\n      iszero\n      dup2\n      mstore\n      0x20\n      add\n      swap2\n      pop\n      pop\n      mload(0x40)\n      dup1\n      swap2\n      sub\n      swap1\n      return\n        /* \"contracts/auction2.sol\":367:385  uint public topBid */\n    tag_6:\n      jumpi(tag_19, iszero(callvalue))\n      invalid\n    tag_19:\n      tag_20\n      jump(tag_21)\n    tag_20:\n      mload(0x40)\n      dup1\n      dup3\n      dup2\n      mstore\n      0x20\n      add\n      swap2\n      pop\n      pop\n      mload(0x40)\n      dup1\n      swap2\n      sub\n      swap1\n      return\n        /* \"contracts/auction2.sol\":225:258  address public beneficiaryAddress */\n    tag_7:\n      jumpi(tag_22, iszero(callvalue))\n      invalid\n    tag_22:\n      tag_23\n      jump(tag_24)\n    tag_23:\n      mload(0x40)\n      dup1\n      dup3\n      0xffffffffffffffffffffffffffffffffffffffff\n      and\n      0xffffffffffffffffffffffffffffffffffffffff\n      and\n      dup2\n      mstore\n      0x20\n      add\n      swap2\n      pop\n      pop\n      mload(0x40)\n      dup1\n      swap2\n      sub\n      swap1\n      return\n        /* \"contracts/auction2.sol\":336:360  address public topBidder */\n    tag_10:\n      0x2\n      0x0\n      swap1\n      sload\n      swap1\n      0x100\n      exp\n      swap1\n      div\n      0xffffffffffffffffffffffffffffffffffffffff\n      and\n      dup2\n      jump\t// out\n        /* \"contracts/auction2.sol\":1448:2421  function bid() payable {\r... */\n    tag_12:\n        /* \"contracts/auction2.sol\":1778:1790  auctionClose */\n      sload(0x1)\n        /* \"contracts/auction2.sol\":1771:1774  now */\n      timestamp\n        /* \"contracts/auction2.sol\":1771:1790  now <= auctionClose */\n      gt\n      iszero\n        /* \"contracts/auction2.sol\":1763:1791  require(now <= auctionClose) */\n      iszero\n      iszero\n      tag_26\n      jumpi\n      revert(0x0, 0x0)\n    tag_26:\n        /* \"contracts/auction2.sol\":1899:1905  topBid */\n      sload(0x3)\n        /* \"contracts/auction2.sol\":1887:1896  msg.value */\n      callvalue\n        /* \"contracts/auction2.sol\":1887:1905  msg.value > topBid */\n      gt\n        /* \"contracts/auction2.sol\":1879:1906  require(msg.value > topBid) */\n      iszero\n      iszero\n      tag_27\n      jumpi\n      revert(0x0, 0x0)\n    tag_27:\n        /* \"contracts/auction2.sol\":1936:1937  0 */\n      0x0\n        /* \"contracts/auction2.sol\":1923:1932  topBidder */\n      0x2\n      0x0\n      swap1\n      sload\n      swap1\n      0x100\n      exp\n      swap1\n      div\n      0xffffffffffffffffffffffffffffffffffffffff\n      and\n        /* \"contracts/auction2.sol\":1923:1937  topBidder != 0 */\n      0xffffffffffffffffffffffffffffffffffffffff\n      and\n      eq\n      iszero\n        /* \"contracts/auction2.sol\":1919:2303  if (topBidder != 0) {\r... */\n      iszero\n      tag_28\n      jumpi\n        /* \"contracts/auction2.sol\":2285:2291  topBid */\n      sload(0x3)\n        /* \"contracts/auction2.sol\":2256:2270  returnsPending */\n      0x4\n        /* \"contracts/auction2.sol\":2256:2281  returnsPending[topBidder] */\n      0x0\n        /* \"contracts/auction2.sol\":2271:2280  topBidder */\n      0x2\n      0x0\n      swap1\n      sload\n      swap1\n      0x100\n      exp\n      swap1\n      div\n      0xffffffffffffffffffffffffffffffffffffffff\n      and\n        /* \"contracts/auction2.sol\":2256:2281  returnsPending[topBidder] */\n      0xffffffffffffffffffffffffffffffffffffffff\n      and\n      0xffffffffffffffffffffffffffffffffffffffff\n      and\n      dup2\n      mstore\n      0x20\n      add\n      swap1\n      dup2\n      mstore\n      0x20\n      add\n      0x0\n      sha3\n      0x0\n        /* \"contracts/auction2.sol\":2256:2291  returnsPending[topBidder] += topBid */\n      dup3\n      dup3\n      sload\n      add\n      swap3\n      pop\n      pop\n      dup2\n      swap1\n      sstore\n      pop\n        /* \"contracts/auction2.sol\":1919:2303  if (topBidder != 0) {\r... */\n    tag_28:\n        /* \"contracts/auction2.sol\":2325:2335  msg.sender */\n      caller\n        /* \"contracts/auction2.sol\":2313:2322  topBidder */\n      0x2\n      0x0\n        /* \"contracts/auction2.sol\":2313:2335  topBidder = msg.sender */\n      0x100\n      exp\n      dup2\n      sload\n      dup2\n      0xffffffffffffffffffffffffffffffffffffffff\n      mul\n      not\n      and\n      swap1\n      dup4\n      0xffffffffffffffffffffffffffffffffffffffff\n      and\n      mul\n      or\n      swap1\n      sstore\n      pop\n        /* \"contracts/auction2.sol\":2355:2364  msg.value */\n      callvalue\n        /* \"contracts/auction2.sol\":2346:2352  topBid */\n      0x3\n        /* \"contracts/auction2.sol\":2346:2364  topBid = msg.value */\n      dup2\n      swap1\n      sstore\n      pop\n        /* \"contracts/auction2.sol\":2375:2413  topBidIncreased(msg.sender, msg.value) */\n      0x7635e37094566fa4ea4b08dd77117e7ace1e3e5a6ee614bcd37eb6ad8eccc1d9\n        /* \"contracts/auction2.sol\":2391:2401  msg.sender */\n      caller\n        /* \"contracts/auction2.sol\":2403:2412  msg.value */\n      callvalue\n        /* \"contracts/auction2.sol\":2375:2413  topBidIncreased(msg.sender, msg.value) */\n      mload(0x40)\n      dup1\n      dup4\n      0xffffffffffffffffffffffffffffffffffffffff\n      and\n      0xffffffffffffffffffffffffffffffffffffffff\n      and\n      dup2\n      mstore\n      0x20\n      add\n      dup3\n      dup2\n      mstore\n      0x20\n      add\n      swap3\n      pop\n      pop\n      pop\n      mload(0x40)\n      dup1\n      swap2\n      sub\n      swap1\n      log1\n        /* \"contracts/auction2.sol\":1448:2421  function bid() payable {\r... */\n    tag_25:\n      jump\t// out\n        /* \"contracts/auction2.sol\":3186:4274  function auctionClose() {\r... */\n    tag_15:\n        /* \"contracts/auction2.sol\":3973:3985  auctionClose */\n      sload(0x1)\n        /* \"contracts/auction2.sol\":3966:3969  now */\n      timestamp\n        /* \"contracts/auction2.sol\":3966:3985  now >= auctionClose */\n      lt\n      iszero\n        /* \"contracts/auction2.sol\":3958:3986  require(now >= auctionClose) */\n      iszero\n      iszero\n      tag_30\n      jumpi\n      revert(0x0, 0x0)\n    tag_30:\n        /* \"contracts/auction2.sol\":4033:4048  auctionComplete */\n      0x5\n      0x0\n      swap1\n      sload\n      swap1\n      0x100\n      exp\n      swap1\n      div\n      0xff\n      and\n        /* \"contracts/auction2.sol\":4032:4048  !auctionComplete */\n      iszero\n        /* \"contracts/auction2.sol\":4024:4049  require(!auctionComplete) */\n      iszero\n      iszero\n      tag_31\n      jumpi\n      revert(0x0, 0x0)\n    tag_31:\n        /* \"contracts/auction2.sol\":4144:4148  true */\n      0x1\n        /* \"contracts/auction2.sol\":4126:4141  auctionComplete */\n      0x5\n      0x0\n        /* \"contracts/auction2.sol\":4126:4148  auctionComplete = true */\n      0x100\n      exp\n      dup2\n      sload\n      dup2\n      0xff\n      mul\n      not\n      and\n      swap1\n      dup4\n      iszero\n      iszero\n      mul\n      or\n      swap1\n      sstore\n      pop\n        /* \"contracts/auction2.sol\":4159:4191  auctionResult(topBidder, topBid) */\n      0xc9b64caa2aa57493e3a2b3087a613ad4168386aa000be494a8a41cd06bd3844a\n        /* \"contracts/auction2.sol\":4173:4182  topBidder */\n      0x2\n      0x0\n      swap1\n      sload\n      swap1\n      0x100\n      exp\n      swap1\n      div\n      0xffffffffffffffffffffffffffffffffffffffff\n      and\n        /* \"contracts/auction2.sol\":4184:4190  topBid */\n      sload(0x3)\n        /* \"contracts/auction2.sol\":4159:4191  auctionResult(topBidder, topBid) */\n      mload(0x40)\n      dup1\n      dup4\n      0xffffffffffffffffffffffffffffffffffffffff\n      and\n      0xffffffffffffffffffffffffffffffffffffffff\n      and\n      dup2\n      mstore\n      0x20\n      add\n      dup3\n      dup2\n      mstore\n      0x20\n      add\n      swap3\n      pop\n      pop\n      pop\n      mload(0x40)\n      dup1\n      swap2\n      sub\n      swap1\n      log1\n        /* \"contracts/auction2.sol\":4231:4249  beneficiaryAddress */\n      0x0\n      0x0\n      swap1\n      sload\n      swap1\n      0x100\n      exp\n      swap1\n      div\n      0xffffffffffffffffffffffffffffffffffffffff\n      and\n        /* \"contracts/auction2.sol\":4231:4258  beneficiaryAddress.transfer */\n      0xffffffffffffffffffffffffffffffffffffffff\n      and\n        /* \"contracts/auction2.sol\":4231:4266  beneficiaryAddress.transfer(topBid) */\n      0x8fc\n        /* \"contracts/auction2.sol\":4259:4265  topBid */\n      sload(0x3)\n        /* \"contracts/auction2.sol\":4231:4266  beneficiaryAddress.transfer(topBid) */\n      swap1\n      dup2\n      iszero\n      mul\n      swap1\n      mload(0x40)\n      dup1\n      swap1\n      pop\n      0x0\n      mload(0x40)\n      dup1\n      dup4\n      sub\n      dup2\n      dup6\n      dup9\n      dup9\n      call\n      swap4\n      pop\n      pop\n      pop\n      pop\n      iszero\n      iszero\n      tag_32\n      jumpi\n      invalid\n    tag_32:\n        /* \"contracts/auction2.sol\":3186:4274  function auctionClose() {\r... */\n    tag_29:\n      jump\t// out\n        /* \"contracts/auction2.sol\":2471:3103  function withdraw() returns (bool) {\r... */\n    tag_18:\n        /* \"contracts/auction2.sol\":2500:2504  bool */\n      0x0\n        /* \"contracts/auction2.sol\":2517:2531  uint bidAmount */\n      0x0\n        /* \"contracts/auction2.sol\":2534:2548  returnsPending */\n      0x4\n        /* \"contracts/auction2.sol\":2534:2560  returnsPending[msg.sender] */\n      0x0\n        /* \"contracts/auction2.sol\":2549:2559  msg.sender */\n      caller\n        /* \"contracts/auction2.sol\":2534:2560  returnsPending[msg.sender] */\n      0xffffffffffffffffffffffffffffffffffffffff\n      and\n      0xffffffffffffffffffffffffffffffffffffffff\n      and\n      dup2\n      mstore\n      0x20\n      add\n      swap1\n      dup2\n      mstore\n      0x20\n      add\n      0x0\n      sha3\n      sload\n        /* \"contracts/auction2.sol\":2517:2560  uint bidAmount = returnsPending[msg.sender] */\n      swap1\n      pop\n        /* \"contracts/auction2.sol\":2587:2588  0 */\n      0x0\n        /* \"contracts/auction2.sol\":2575:2584  bidAmount */\n      dup2\n        /* \"contracts/auction2.sol\":2575:2588  bidAmount > 0 */\n      gt\n        /* \"contracts/auction2.sol\":2571:3074  if (bidAmount > 0) {\r... */\n      iszero\n      tag_34\n      jumpi\n        /* \"contracts/auction2.sol\":2822:2823  0 */\n      0x0\n        /* \"contracts/auction2.sol\":2793:2807  returnsPending */\n      0x4\n        /* \"contracts/auction2.sol\":2793:2819  returnsPending[msg.sender] */\n      0x0\n        /* \"contracts/auction2.sol\":2808:2818  msg.sender */\n      caller\n        /* \"contracts/auction2.sol\":2793:2819  returnsPending[msg.sender] */\n      0xffffffffffffffffffffffffffffffffffffffff\n      and\n      0xffffffffffffffffffffffffffffffffffffffff\n      and\n      dup2\n      mstore\n      0x20\n      add\n      swap1\n      dup2\n      mstore\n      0x20\n      add\n      0x0\n      sha3\n        /* \"contracts/auction2.sol\":2793:2823  returnsPending[msg.sender] = 0 */\n      dup2\n      swap1\n      sstore\n      pop\n        /* \"contracts/auction2.sol\":2845:2855  msg.sender */\n      caller\n        /* \"contracts/auction2.sol\":2845:2860  msg.sender.send */\n      0xffffffffffffffffffffffffffffffffffffffff\n      and\n        /* \"contracts/auction2.sol\":2845:2871  msg.sender.send(bidAmount) */\n      0x8fc\n        /* \"contracts/auction2.sol\":2861:2870  bidAmount */\n      dup3\n        /* \"contracts/auction2.sol\":2845:2871  msg.sender.send(bidAmount) */\n      swap1\n      dup2\n      iszero\n      mul\n      swap1\n      mload(0x40)\n      dup1\n      swap1\n      pop\n      0x0\n      mload(0x40)\n      dup1\n      dup4\n      sub\n      dup2\n      dup6\n      dup9\n      dup9\n      call\n      swap4\n      pop\n      pop\n      pop\n      pop\n        /* \"contracts/auction2.sol\":2844:2871  !msg.sender.send(bidAmount) */\n      iszero\n        /* \"contracts/auction2.sol\":2840:3063  if (!msg.sender.send(bidAmount)) {\r... */\n      iszero\n      tag_35\n      jumpi\n        /* \"contracts/auction2.sol\":3007:3016  bidAmount */\n      dup1\n        /* \"contracts/auction2.sol\":2978:2992  returnsPending */\n      0x4\n        /* \"contracts/auction2.sol\":2978:3004  returnsPending[msg.sender] */\n      0x0\n        /* \"contracts/auction2.sol\":2993:3003  msg.sender */\n      caller\n        /* \"contracts/auction2.sol\":2978:3004  returnsPending[msg.sender] */\n      0xffffffffffffffffffffffffffffffffffffffff\n      and\n      0xffffffffffffffffffffffffffffffffffffffff\n      and\n      dup2\n      mstore\n      0x20\n      add\n      swap1\n      dup2\n      mstore\n      0x20\n      add\n      0x0\n      sha3\n        /* \"contracts/auction2.sol\":2978:3016  returnsPending[msg.sender] = bidAmount */\n      dup2\n      swap1\n      sstore\n      pop\n        /* \"contracts/auction2.sol\":3042:3047  false */\n      0x0\n        /* \"contracts/auction2.sol\":3035:3047  return false */\n      swap2\n      pop\n      jump(tag_33)\n        /* \"contracts/auction2.sol\":2840:3063  if (!msg.sender.send(bidAmount)) {\r... */\n    tag_35:\n        /* \"contracts/auction2.sol\":2571:3074  if (bidAmount > 0) {\r... */\n    tag_34:\n        /* \"contracts/auction2.sol\":3091:3095  true */\n      0x1\n        /* \"contracts/auction2.sol\":3084:3095  return true */\n      swap2\n      pop\n        /* \"contracts/auction2.sol\":2471:3103  function withdraw() returns (bool) {\r... */\n    tag_33:\n      pop\n      swap1\n      jump\t// out\n        /* \"contracts/auction2.sol\":367:385  uint public topBid */\n    tag_21:\n      sload(0x3)\n      dup2\n      jump\t// out\n        /* \"contracts/auction2.sol\":225:258  address public beneficiaryAddress */\n    tag_24:\n      0x0\n      0x0\n      swap1\n      sload\n      swap1\n      0x100\n      exp\n      swap1\n      div\n      0xffffffffffffffffffffffffffffffffffffffff\n      and\n      dup2\n      jump\t// out\n}\n",
				"bytecode": {
					"linkReferences": {},
					"object": "6060604052341561000c57fe5b60405160408061068b833981016040528080519060200190919080519060200190919050505b80600060006101000a81548173ffffffffffffffffffffffffffffffffffffffff021916908373ffffffffffffffffffffffffffffffffffffffff1602179055508142016001819055505b50505b6105fc8061008f6000396000f30060606040523615610076576000357c0100000000000000000000000000000000000000000000000000000000900463ffffffff16806301333f06146100785780631998aeef146100ca57806319c2a5b5146100d45780633ccfd60b146100e6578063636bf73014610110578063d9c4870e14610136575bfe5b341561008057fe5b610088610188565b604051808273ffffffffffffffffffffffffffffffffffffffff1673ffffffffffffffffffffffffffffffffffffffff16815260200191505060405180910390f35b6100d26101ae565b005b34156100dc57fe5b6100e461033b565b005b34156100ee57fe5b6100f661047b565b604051808215151515815260200191505060405180910390f35b341561011857fe5b6101206105a4565b6040518082815260200191505060405180910390f35b341561013e57fe5b6101466105aa565b604051808273ffffffffffffffffffffffffffffffffffffffff1673ffffffffffffffffffffffffffffffffffffffff16815260200191505060405180910390f35b600260009054906101000a900473ffffffffffffffffffffffffffffffffffffffff1681565b60015442111515156101c05760006000fd5b600354341115156101d15760006000fd5b6000600260009054906101000a900473ffffffffffffffffffffffffffffffffffffffff1673ffffffffffffffffffffffffffffffffffffffff161415156102855760035460046000600260009054906101000a900473ffffffffffffffffffffffffffffffffffffffff1673ffffffffffffffffffffffffffffffffffffffff1673ffffffffffffffffffffffffffffffffffffffff168152602001908152602001600020600082825401925050819055505b33600260006101000a81548173ffffffffffffffffffffffffffffffffffffffff021916908373ffffffffffffffffffffffffffffffffffffffff160217905550346003819055507f7635e37094566fa4ea4b08dd77117e7ace1e3e5a6ee614bcd37eb6ad8eccc1d93334604051808373ffffffffffffffffffffffffffffffffffffffff1673ffffffffffffffffffffffffffffffffffffffff1681526020018281526020019250505060405180910390a15b565b600154421015151561034d5760006000fd5b600560009054906101000a900460ff1615151561036a5760006000fd5b6001600560006101000a81548160ff0219169083151502179055507fc9b64caa2aa57493e3a2b3087a613ad4168386aa000be494a8a41cd06bd3844a600260009054906101000a900473ffffffffffffffffffffffffffffffffffffffff16600354604051808373ffffffffffffffffffffffffffffffffffffffff1673ffffffffffffffffffffffffffffffffffffffff1681526020018281526020019250505060405180910390a1600060009054906101000a900473ffffffffffffffffffffffffffffffffffffffff1673ffffffffffffffffffffffffffffffffffffffff166108fc6003549081150290604051809050600060405180830381858888f19350505050151561047857fe5b5b565b60006000600460003373ffffffffffffffffffffffffffffffffffffffff1673ffffffffffffffffffffffffffffffffffffffff168152602001908152602001600020549050600081111561059b576000600460003373ffffffffffffffffffffffffffffffffffffffff1673ffffffffffffffffffffffffffffffffffffffff168152602001908152602001600020819055503373ffffffffffffffffffffffffffffffffffffffff166108fc829081150290604051809050600060405180830381858888f19350505050151561059a5780600460003373ffffffffffffffffffffffffffffffffffffffff1673ffffffffffffffffffffffffffffffffffffffff16815260200190815260200160002081905550600091506105a0565b5b600191505b5090565b60035481565b600060009054906101000a900473ffffffffffffffffffffffffffffffffffffffff16815600a165627a7a72305820ac67da215eb9277ead32c6d53e05cc2c28ff2fb1124d2bddecbfafde8f7afd190029",
					"opcodes": "PUSH1 0x60 PUSH1 0x40 MSTORE CALLVALUE ISZERO PUSH2 0xC JUMPI INVALID JUMPDEST PUSH1 0x40 MLOAD PUSH1 0x40 DUP1 PUSH2 0x68B DUP4 CODECOPY DUP2 ADD PUSH1 0x40 MSTORE DUP1 DUP1 MLOAD SWAP1 PUSH1 0x20 ADD SWAP1 SWAP2 SWAP1 DUP1 MLOAD SWAP1 PUSH1 0x20 ADD SWAP1 SWAP2 SWAP1 POP POP JUMPDEST DUP1 PUSH1 0x0 PUSH1 0x0 PUSH2 0x100 EXP DUP2 SLOAD DUP2 PUSH20 0xFFFFFFFFFFFFFFFFFFFFFFFFFFFFFFFFFFFFFFFF MUL NOT AND SWAP1 DUP4 PUSH20 0xFFFFFFFFFFFFFFFFFFFFFFFFFFFFFFFFFFFFFFFF AND MUL OR SWAP1 SSTORE POP DUP2 TIMESTAMP ADD PUSH1 0x1 DUP2 SWAP1 SSTORE POP JUMPDEST POP POP JUMPDEST PUSH2 0x5FC DUP1 PUSH2 0x8F PUSH1 0x0 CODECOPY PUSH1 0x0 RETURN STOP PUSH1 0x60 PUSH1 0x40 MSTORE CALLDATASIZE ISZERO PUSH2 0x76 JUMPI PUSH1 0x0 CALLDATALOAD PUSH29 0x100000000000000000000000000000000000000000000000000000000 SWAP1 DIV PUSH4 0xFFFFFFFF AND DUP1 PUSH4 0x1333F06 EQ PUSH2 0x78 JUMPI DUP1 PUSH4 0x1998AEEF EQ PUSH2 0xCA JUMPI DUP1 PUSH4 0x19C2A5B5 EQ PUSH2 0xD4 JUMPI DUP1 PUSH4 0x3CCFD60B EQ PUSH2 0xE6 JUMPI DUP1 PUSH4 0x636BF730 EQ PUSH2 0x110 JUMPI DUP1 PUSH4 0xD9C4870E EQ PUSH2 0x136 JUMPI JUMPDEST INVALID JUMPDEST CALLVALUE ISZERO PUSH2 0x80 JUMPI INVALID JUMPDEST PUSH2 0x88 PUSH2 0x188 JUMP JUMPDEST PUSH1 0x40 MLOAD DUP1 DUP3 PUSH20 0xFFFFFFFFFFFFFFFFFFFFFFFFFFFFFFFFFFFFFFFF AND PUSH20 0xFFFFFFFFFFFFFFFFFFFFFFFFFFFFFFFFFFFFFFFF AND DUP2 MSTORE PUSH1 0x20 ADD SWAP2 POP POP PUSH1 0x40 MLOAD DUP1 SWAP2 SUB SWAP1 RETURN JUMPDEST PUSH2 0xD2 PUSH2 0x1AE JUMP JUMPDEST STOP JUMPDEST CALLVALUE ISZERO PUSH2 0xDC JUMPI INVALID JUMPDEST PUSH2 0xE4 PUSH2 0x33B JUMP JUMPDEST STOP JUMPDEST CALLVALUE ISZERO PUSH2 0xEE JUMPI INVALID JUMPDEST PUSH2 0xF6 PUSH2 0x47B JUMP JUMPDEST PUSH1 0x40 MLOAD DUP1 DUP3 ISZERO ISZERO ISZERO ISZERO DUP2 MSTORE PUSH1 0x20 ADD SWAP2 POP POP PUSH1 0x40 MLOAD DUP1 SWAP2 SUB SWAP1 RETURN JUMPDEST CALLVALUE ISZERO PUSH2 0x118 JUMPI INVALID JUMPDEST PUSH2 0x120 PUSH2 0x5A4 JUMP JUMPDEST PUSH1 0x40 MLOAD DUP1 DUP3 DUP2 MSTORE PUSH1 0x20 ADD SWAP2 POP POP PUSH1 0x40 MLOAD DUP1 SWAP2 SUB SWAP1 RETURN JUMPDEST CALLVALUE ISZERO PUSH2 0x13E JUMPI INVALID JUMPDEST PUSH2 0x146 PUSH2 0x5AA JUMP JUMPDEST PUSH1 0x40 MLOAD DUP1 DUP3 PUSH20 0xFFFFFFFFFFFFFFFFFFFFFFFFFFFFFFFFFFFFFFFF AND PUSH20 0xFFFFFFFFFFFFFFFFFFFFFFFFFFFFFFFFFFFFFFFF AND DUP2 MSTORE PUSH1 0x20 ADD SWAP2 POP POP PUSH1 0x40 MLOAD DUP1 SWAP2 SUB SWAP1 RETURN JUMPDEST PUSH1 0x2 PUSH1 0x0 SWAP1 SLOAD SWAP1 PUSH2 0x100 EXP SWAP1 DIV PUSH20 0xFFFFFFFFFFFFFFFFFFFFFFFFFFFFFFFFFFFFFFFF AND DUP2 JUMP JUMPDEST PUSH1 0x1 SLOAD TIMESTAMP GT ISZERO ISZERO ISZERO PUSH2 0x1C0 JUMPI PUSH1 0x0 PUSH1 0x0 REVERT JUMPDEST PUSH1 0x3 SLOAD CALLVALUE GT ISZERO ISZERO PUSH2 0x1D1 JUMPI PUSH1 0x0 PUSH1 0x0 REVERT JUMPDEST PUSH1 0x0 PUSH1 0x2 PUSH1 0x0 SWAP1 SLOAD SWAP1 PUSH2 0x100 EXP SWAP1 DIV PUSH20 0xFFFFFFFFFFFFFFFFFFFFFFFFFFFFFFFFFFFFFFFF AND PUSH20 0xFFFFFFFFFFFFFFFFFFFFFFFFFFFFFFFFFFFFFFFF AND EQ ISZERO ISZERO PUSH2 0x285 JUMPI PUSH1 0x3 SLOAD PUSH1 0x4 PUSH1 0x0 PUSH1 0x2 PUSH1 0x0 SWAP1 SLOAD SWAP1 PUSH2 0x100 EXP SWAP1 DIV PUSH20 0xFFFFFFFFFFFFFFFFFFFFFFFFFFFFFFFFFFFFFFFF AND PUSH20 0xFFFFFFFFFFFFFFFFFFFFFFFFFFFFFFFFFFFFFFFF AND PUSH20 0xFFFFFFFFFFFFFFFFFFFFFFFFFFFFFFFFFFFFFFFF AND DUP2 MSTORE PUSH1 0x20 ADD SWAP1 DUP2 MSTORE PUSH1 0x20 ADD PUSH1 0x0 SHA3 PUSH1 0x0 DUP3 DUP3 SLOAD ADD SWAP3 POP POP DUP2 SWAP1 SSTORE POP JUMPDEST CALLER PUSH1 0x2 PUSH1 0x0 PUSH2 0x100 EXP DUP2 SLOAD DUP2 PUSH20 0xFFFFFFFFFFFFFFFFFFFFFFFFFFFFFFFFFFFFFFFF MUL NOT AND SWAP1 DUP4 PUSH20 0xFFFFFFFFFFFFFFFFFFFFFFFFFFFFFFFFFFFFFFFF AND MUL OR SWAP1 SSTORE POP CALLVALUE PUSH1 0x3 DUP2 SWAP1 SSTORE POP PUSH32 0x7635E37094566FA4EA4B08DD77117E7ACE1E3E5A6EE614BCD37EB6AD8ECCC1D9 CALLER CALLVALUE PUSH1 0x40 MLOAD DUP1 DUP4 PUSH20 0xFFFFFFFFFFFFFFFFFFFFFFFFFFFFFFFFFFFFFFFF AND PUSH20 0xFFFFFFFFFFFFFFFFFFFFFFFFFFFFFFFFFFFFFFFF AND DUP2 MSTORE PUSH1 0x20 ADD DUP3 DUP2 MSTORE PUSH1 0x20 ADD SWAP3 POP POP POP PUSH1 0x40 MLOAD DUP1 SWAP2 SUB SWAP1 LOG1 JUMPDEST JUMP JUMPDEST PUSH1 0x1 SLOAD TIMESTAMP LT ISZERO ISZERO ISZERO PUSH2 0x34D JUMPI PUSH1 0x0 PUSH1 0x0 REVERT JUMPDEST PUSH1 0x5 PUSH1 0x0 SWAP1 SLOAD SWAP1 PUSH2 0x100 EXP SWAP1 DIV PUSH1 0xFF AND ISZERO ISZERO ISZERO PUSH2 0x36A JUMPI PUSH1 0x0 PUSH1 0x0 REVERT JUMPDEST PUSH1 0x1 PUSH1 0x5 PUSH1 0x0 PUSH2 0x100 EXP DUP2 SLOAD DUP2 PUSH1 0xFF MUL NOT AND SWAP1 DUP4 ISZERO ISZERO MUL OR SWAP1 SSTORE POP PUSH32 0xC9B64CAA2AA57493E3A2B3087A613AD4168386AA000BE494A8A41CD06BD3844A PUSH1 0x2 PUSH1 0x0 SWAP1 SLOAD SWAP1 PUSH2 0x100 EXP SWAP1 DIV PUSH20 0xFFFFFFFFFFFFFFFFFFFFFFFFFFFFFFFFFFFFFFFF AND PUSH1 0x3 SLOAD PUSH1 0x40 MLOAD DUP1 DUP4 PUSH20 0xFFFFFFFFFFFFFFFFFFFFFFFFFFFFFFFFFFFFFFFF AND PUSH20 0xFFFFFFFFFFFFFFFFFFFFFFFFFFFFFFFFFFFFFFFF AND DUP2 MSTORE PUSH1 0x20 ADD DUP3 DUP2 MSTORE PUSH1 0x20 ADD SWAP3 POP POP POP PUSH1 0x40 MLOAD DUP1 SWAP2 SUB SWAP1 LOG1 PUSH1 0x0 PUSH1 0x0 SWAP1 SLOAD SWAP1 PUSH2 0x100 EXP SWAP1 DIV PUSH20 0xFFFFFFFFFFFFFFFFFFFFFFFFFFFFFFFFFFFFFFFF AND PUSH20 0xFFFFFFFFFFFFFFFFFFFFFFFFFFFFFFFFFFFFFFFF AND PUSH2 0x8FC PUSH1 0x3 SLOAD SWAP1 DUP2 ISZERO MUL SWAP1 PUSH1 0x40 MLOAD DUP1 SWAP1 POP PUSH1 0x0 PUSH1 0x40 MLOAD DUP1 DUP4 SUB DUP2 DUP6 DUP9 DUP9 CALL SWAP4 POP POP POP POP ISZERO ISZERO PUSH2 0x478 JUMPI INVALID JUMPDEST JUMPDEST JUMP JUMPDEST PUSH1 0x0 PUSH1 0x0 PUSH1 0x4 PUSH1 0x0 CALLER PUSH20 0xFFFFFFFFFFFFFFFFFFFFFFFFFFFFFFFFFFFFFFFF AND PUSH20 0xFFFFFFFFFFFFFFFFFFFFFFFFFFFFFFFFFFFFFFFF AND DUP2 MSTORE PUSH1 0x20 ADD SWAP1 DUP2 MSTORE PUSH1 0x20 ADD PUSH1 0x0 SHA3 SLOAD SWAP1 POP PUSH1 0x0 DUP2 GT ISZERO PUSH2 0x59B JUMPI PUSH1 0x0 PUSH1 0x4 PUSH1 0x0 CALLER PUSH20 0xFFFFFFFFFFFFFFFFFFFFFFFFFFFFFFFFFFFFFFFF AND PUSH20 0xFFFFFFFFFFFFFFFFFFFFFFFFFFFFFFFFFFFFFFFF AND DUP2 MSTORE PUSH1 0x20 ADD SWAP1 DUP2 MSTORE PUSH1 0x20 ADD PUSH1 0x0 SHA3 DUP2 SWAP1 SSTORE POP CALLER PUSH20 0xFFFFFFFFFFFFFFFFFFFFFFFFFFFFFFFFFFFFFFFF AND PUSH2 0x8FC DUP3 SWAP1 DUP2 ISZERO MUL SWAP1 PUSH1 0x40 MLOAD DUP1 SWAP1 POP PUSH1 0x0 PUSH1 0x40 MLOAD DUP1 DUP4 SUB DUP2 DUP6 DUP9 DUP9 CALL SWAP4 POP POP POP POP ISZERO ISZERO PUSH2 0x59A JUMPI DUP1 PUSH1 0x4 PUSH1 0x0 CALLER PUSH20 0xFFFFFFFFFFFFFFFFFFFFFFFFFFFFFFFFFFFFFFFF AND PUSH20 0xFFFFFFFFFFFFFFFFFFFFFFFFFFFFFFFFFFFFFFFF AND DUP2 MSTORE PUSH1 0x20 ADD SWAP1 DUP2 MSTORE PUSH1 0x20 ADD PUSH1 0x0 SHA3 DUP2 SWAP1 SSTORE POP PUSH1 0x0 SWAP2 POP PUSH2 0x5A0 JUMP JUMPDEST JUMPDEST PUSH1 0x1 SWAP2 POP JUMPDEST POP SWAP1 JUMP JUMPDEST PUSH1 0x3 SLOAD DUP2 JUMP JUMPDEST PUSH1 0x0 PUSH1 0x0 SWAP1 SLOAD SWAP1 PUSH2 0x100 EXP SWAP1 DIV PUSH20 0xFFFFFFFFFFFFFFFFFFFFFFFFFFFFFFFFFFFFFFFF AND DUP2 JUMP STOP LOG1 PUSH6 0x627A7A723058 SHA3 0xac PUSH8 0xDA215EB9277EAD32 0xc6 0xd5 0x3e SDIV 0xcc 0x2c 0x28 SELFDESTRUCT 0x2f 0xb1 SLT 0x4d 0x2b 0xdd 0xec 0xbf 0xaf 0xde DUP16 PUSH27 0xFD1900290000000000000000000000000000000000000000000000 "
				},
				"gasEstimates": {
					"creation": {
						"codeDepositCost": "306400",
						"executionCost": "40725",
						"totalCost": "347125"
					},
					"external": {
						"auctionClose()": "infinite",
						"beneficiaryAddress()": "541",
						"bid()": "63250",
						"topBid()": "471",
						"topBidder()": "431",
						"withdraw()": "infinite"
					}
				},
				"methodIdentifiers": {
					"auctionClose()": "19c2a5b5",
					"beneficiaryAddress()": "d9c4870e",
					"bid()": "1998aeef",
					"topBid()": "636bf730",
					"topBidder()": "01333f06",
					"withdraw()": "3ccfd60b"
				}
			},
			"userdoc": {
				"methods": {
					"auctionClose()": {
						"notice": "Auction ends and highest bid is sent\r to the beneficiary.\r"
					},
					"bid()": {
						"notice": "You may bid on the auction with the value sent\r along with this transaction.\r The value may only be refunded if the\r auction was not won.\r"
					},
					"withdraw()": {
						"notice": "Withdraw a bid that was overbid.\r"
					}
				}
			}
		}
	}
}