{
	"contracts/auction2.sol": {
		"SimpleAuction": {
			"abi": [
				{
					"constant": true,
					"inputs": [],
					"name": "topBidder",
					"outputs": [
						{
							"name": "",
							"type": "address"
						}
					],
					"payable": false,
					"type": "function",
					"stateMutability": "view"
				},
				{
					"constant": false,
					"inputs": [],
					"name": "bid",
					"outputs": [],
					"payable": true,
					"type": "function",
					"stateMutability": "payable"
				},
				{
					"constant": false,
					"inputs": [],
					"name": "auctionClose",
					"outputs": [],
					"payable": false,
					"type": "function",
					"stateMutability": "nonpayable"
				},
				{
					"constant": false,
					"inputs": [],
					"name": "transferBid",
					"outputs": [],
					"payable": false,
					"type": "function",
					"stateMutability": "nonpayable"
				},
				{
					"constant": false,
					"inputs": [],
					"name": "withdraw",
					"outputs": [
						{
							"name": "",
							"type": "bool"
						}
					],
					"payable": false,
					"type": "function",
					"stateMutability": "nonpayable"
				},
				{
					"constant": true,
					"inputs": [],
					"name": "topBid",
					"outputs": [
						{
							"name": "",
							"type": "uint256"
						}
					],
					"payable": false,
					"type": "function",
					"stateMutability": "view"
				},
				{
					"constant": true,
					"inputs": [],
					"name": "beneficiaryAddress",
					"outputs": [
						{
							"name": "",
							"type": "address"
						}
					],
					"payable": false,
					"type": "function",
					"stateMutability": "view"
				},
				{
					"inputs": [
						{
							"name": "_biddingTime",
							"type": "uint256"
						},
						{
							"name": "_beneficiary",
							"type": "address"
						}
					],
					"payable": false,
					"type": "constructor",
					"stateMutability": "nonpayable"
				},
				{
					"anonymous": false,
					"inputs": [
						{
							"indexed": false,
							"name": "bidder",
							"type": "address"
						},
						{
							"indexed": false,
							"name": "bidAmount",
							"type": "uint256"
						}
					],
					"name": "topBidIncreased",
					"type": "event"
				},
				{
					"anonymous": false,
					"inputs": [
						{
							"indexed": false,
							"name": "winner",
							"type": "address"
						},
						{
							"indexed": false,
							"name": "bidAmount",
							"type": "uint256"
						}
					],
					"name": "auctionResult",
					"type": "event"
				}
			],
			"devdoc": {
				"methods": {}
			},
			"evm": {
				"assembly": "    /* \"contracts/auction2.sol\":36:4385  contract SimpleAuction {\r... */\n  mstore(0x40, 0x60)\n    /* \"contracts/auction2.sol\":1092:1277  function SimpleAuction(\r... */\n  jumpi(tag_1, iszero(callvalue))\n  invalid\ntag_1:\n  mload(0x40)\n  0x40\n  dup1\n  bytecodeSize\n  dup4\n  codecopy\n  dup2\n  add\n  0x40\n  mstore\n  dup1\n  dup1\n  mload\n  swap1\n  0x20\n  add\n  swap1\n  swap2\n  swap1\n  dup1\n  mload\n  swap1\n  0x20\n  add\n  swap1\n  swap2\n  swap1\n  pop\n  pop\ntag_2:\n    /* \"contracts/auction2.sol\":1213:1225  _beneficiary */\n  dup1\n    /* \"contracts/auction2.sol\":1192:1210  beneficiaryAddress */\n  0x0\n  0x0\n    /* \"contracts/auction2.sol\":1192:1225  beneficiaryAddress = _beneficiary */\n  0x100\n  exp\n  dup2\n  sload\n  dup2\n  0xffffffffffffffffffffffffffffffffffffffff\n  mul\n  not\n  and\n  swap1\n  dup4\n  0xffffffffffffffffffffffffffffffffffffffff\n  and\n  mul\n  or\n  swap1\n  sstore\n  pop\n    /* \"contracts/auction2.sol\":1257:1269  _biddingTime */\n  dup2\n    /* \"contracts/auction2.sol\":1251:1254  now */\n  timestamp\n    /* \"contracts/auction2.sol\":1251:1269  now + _biddingTime */\n  add\n    /* \"contracts/auction2.sol\":1236:1248  auctionClose */\n  0x1\n    /* \"contracts/auction2.sol\":1236:1269  auctionClose = now + _biddingTime */\n  dup2\n  swap1\n  sstore\n  pop\n    /* \"contracts/auction2.sol\":1092:1277  function SimpleAuction(\r... */\ntag_3:\n  pop\n  pop\n    /* \"contracts/auction2.sol\":36:4385  contract SimpleAuction {\r... */\ntag_4:\n  dataSize(sub_0)\n  dup1\n  dataOffset(sub_0)\n  0x0\n  codecopy\n  0x0\n  return\nstop\n\nsub_0: assembly {\n        /* \"contracts/auction2.sol\":36:4385  contract SimpleAuction {\r... */\n      mstore(0x40, 0x60)\n      jumpi(tag_1, iszero(calldatasize))\n      calldataload(0x0)\n      0x100000000000000000000000000000000000000000000000000000000\n      swap1\n      div\n      0xffffffff\n      and\n      dup1\n      0x1333f06\n      eq\n      tag_2\n      jumpi\n      dup1\n      0x1998aeef\n      eq\n      tag_3\n      jumpi\n      dup1\n      0x19c2a5b5\n      eq\n      tag_4\n      jumpi\n      dup1\n      0x3c679ac5\n      eq\n      tag_5\n      jumpi\n      dup1\n      0x3ccfd60b\n      eq\n      tag_6\n      jumpi\n      dup1\n      0x636bf730\n      eq\n      tag_7\n      jumpi\n      dup1\n      0xd9c4870e\n      eq\n      tag_8\n      jumpi\n    tag_1:\n      invalid\n        /* \"contracts/auction2.sol\":344:368  address public topBidder */\n    tag_2:\n      jumpi(tag_9, iszero(callvalue))\n      invalid\n    tag_9:\n      tag_10\n      jump(tag_11)\n    tag_10:\n      mload(0x40)\n      dup1\n      dup3\n      0xffffffffffffffffffffffffffffffffffffffff\n      and\n      0xffffffffffffffffffffffffffffffffffffffff\n      and\n      dup2\n      mstore\n      0x20\n      add\n      swap2\n      pop\n      pop\n      mload(0x40)\n      dup1\n      swap2\n      sub\n      swap1\n      return\n        /* \"contracts/auction2.sol\":1456:2429  function bid() payable {\r... */\n    tag_3:\n      tag_12\n      jump(tag_13)\n    tag_12:\n      stop\n        /* \"contracts/auction2.sol\":3194:4284  function auctionClose() {\r... */\n    tag_4:\n      jumpi(tag_14, iszero(callvalue))\n      invalid\n    tag_14:\n      tag_15\n      jump(tag_16)\n    tag_15:\n      stop\n        /* \"contracts/auction2.sol\":4296:4382  function transferBid() external {\r... */\n    tag_5:\n      jumpi(tag_17, iszero(callvalue))\n      invalid\n    tag_17:\n      tag_18\n      jump(tag_19)\n    tag_18:\n      stop\n        /* \"contracts/auction2.sol\":2479:3111  function withdraw() returns (bool) {\r... */\n    tag_6:\n      jumpi(tag_20, iszero(callvalue))\n      invalid\n    tag_20:\n      tag_21\n      jump(tag_22)\n    tag_21:\n      mload(0x40)\n      dup1\n      dup3\n      iszero\n      iszero\n      iszero\n      iszero\n      dup2\n      mstore\n      0x20\n      add\n      swap2\n      pop\n      pop\n      mload(0x40)\n      dup1\n      swap2\n      sub\n      swap1\n      return\n        /* \"contracts/auction2.sol\":375:393  uint public topBid */\n    tag_7:\n      jumpi(tag_23, iszero(callvalue))\n      invalid\n    tag_23:\n      tag_24\n      jump(tag_25)\n    tag_24:\n      mload(0x40)\n      dup1\n      dup3\n      dup2\n      mstore\n      0x20\n      add\n      swap2\n      pop\n      pop\n      mload(0x40)\n      dup1\n      swap2\n      sub\n      swap1\n      return\n        /* \"contracts/auction2.sol\":233:266  address public beneficiaryAddress */\n    tag_8:\n      jumpi(tag_26, iszero(callvalue))\n      invalid\n    tag_26:\n      tag_27\n      jump(tag_28)\n    tag_27:\n      mload(0x40)\n      dup1\n      dup3\n      0xffffffffffffffffffffffffffffffffffffffff\n      and\n      0xffffffffffffffffffffffffffffffffffffffff\n      and\n      dup2\n      mstore\n      0x20\n      add\n      swap2\n      pop\n      pop\n      mload(0x40)\n      dup1\n      swap2\n      sub\n      swap1\n      return\n        /* \"contracts/auction2.sol\":344:368  address public topBidder */\n    tag_11:\n      0x2\n      0x0\n      swap1\n      sload\n      swap1\n      0x100\n      exp\n      swap1\n      div\n      0xffffffffffffffffffffffffffffffffffffffff\n      and\n      dup2\n      jump\t// out\n        /* \"contracts/auction2.sol\":1456:2429  function bid() payable {\r... */\n    tag_13:\n        /* \"contracts/auction2.sol\":1786:1798  auctionClose */\n      sload(0x1)\n        /* \"contracts/auction2.sol\":1779:1782  now */\n      timestamp\n        /* \"contracts/auction2.sol\":1779:1798  now <= auctionClose */\n      gt\n      iszero\n        /* \"contracts/auction2.sol\":1771:1799  require(now <= auctionClose) */\n      iszero\n      iszero\n      tag_30\n      jumpi\n      revert(0x0, 0x0)\n    tag_30:\n        /* \"contracts/auction2.sol\":1907:1913  topBid */\n      sload(0x3)\n        /* \"contracts/auction2.sol\":1895:1904  msg.value */\n      callvalue\n        /* \"contracts/auction2.sol\":1895:1913  msg.value > topBid */\n      gt\n        /* \"contracts/auction2.sol\":1887:1914  require(msg.value > topBid) */\n      iszero\n      iszero\n      tag_31\n      jumpi\n      revert(0x0, 0x0)\n    tag_31:\n        /* \"contracts/auction2.sol\":1944:1945  0 */\n      0x0\n        /* \"contracts/auction2.sol\":1931:1940  topBidder */\n      0x2\n      0x0\n      swap1\n      sload\n      swap1\n      0x100\n      exp\n      swap1\n      div\n      0xffffffffffffffffffffffffffffffffffffffff\n      and\n        /* \"contracts/auction2.sol\":1931:1945  topBidder != 0 */\n      0xffffffffffffffffffffffffffffffffffffffff\n      and\n      eq\n      iszero\n        /* \"contracts/auction2.sol\":1927:2311  if (topBidder != 0) {\r... */\n      iszero\n      tag_32\n      jumpi\n        /* \"contracts/auction2.sol\":2293:2299  topBid */\n      sload(0x3)\n        /* \"contracts/auction2.sol\":2264:2278  returnsPending */\n      0x4\n        /* \"contracts/auction2.sol\":2264:2289  returnsPending[topBidder] */\n      0x0\n        /* \"contracts/auction2.sol\":2279:2288  topBidder */\n      0x2\n      0x0\n      swap1\n      sload\n      swap1\n      0x100\n      exp\n      swap1\n      div\n      0xffffffffffffffffffffffffffffffffffffffff\n      and\n        /* \"contracts/auction2.sol\":2264:2289  returnsPending[topBidder] */\n      0xffffffffffffffffffffffffffffffffffffffff\n      and\n      0xffffffffffffffffffffffffffffffffffffffff\n      and\n      dup2\n      mstore\n      0x20\n      add\n      swap1\n      dup2\n      mstore\n      0x20\n      add\n      0x0\n      sha3\n      0x0\n        /* \"contracts/auction2.sol\":2264:2299  returnsPending[topBidder] += topBid */\n      dup3\n      dup3\n      sload\n      add\n      swap3\n      pop\n      pop\n      dup2\n      swap1\n      sstore\n      pop\n        /* \"contracts/auction2.sol\":1927:2311  if (topBidder != 0) {\r... */\n    tag_32:\n        /* \"contracts/auction2.sol\":2333:2343  msg.sender */\n      caller\n        /* \"contracts/auction2.sol\":2321:2330  topBidder */\n      0x2\n      0x0\n        /* \"contracts/auction2.sol\":2321:2343  topBidder = msg.sender */\n      0x100\n      exp\n      dup2\n      sload\n      dup2\n      0xffffffffffffffffffffffffffffffffffffffff\n      mul\n      not\n      and\n      swap1\n      dup4\n      0xffffffffffffffffffffffffffffffffffffffff\n      and\n      mul\n      or\n      swap1\n      sstore\n      pop\n        /* \"contracts/auction2.sol\":2363:2372  msg.value */\n      callvalue\n        /* \"contracts/auction2.sol\":2354:2360  topBid */\n      0x3\n        /* \"contracts/auction2.sol\":2354:2372  topBid = msg.value */\n      dup2\n      swap1\n      sstore\n      pop\n        /* \"contracts/auction2.sol\":2383:2421  topBidIncreased(msg.sender, msg.value) */\n      0x7635e37094566fa4ea4b08dd77117e7ace1e3e5a6ee614bcd37eb6ad8eccc1d9\n        /* \"contracts/auction2.sol\":2399:2409  msg.sender */\n      caller\n        /* \"contracts/auction2.sol\":2411:2420  msg.value */\n      callvalue\n        /* \"contracts/auction2.sol\":2383:2421  topBidIncreased(msg.sender, msg.value) */\n      mload(0x40)\n      dup1\n      dup4\n      0xffffffffffffffffffffffffffffffffffffffff\n      and\n      0xffffffffffffffffffffffffffffffffffffffff\n      and\n      dup2\n      mstore\n      0x20\n      add\n      dup3\n      dup2\n      mstore\n      0x20\n      add\n      swap3\n      pop\n      pop\n      pop\n      mload(0x40)\n      dup1\n      swap2\n      sub\n      swap1\n      log1\n        /* \"contracts/auction2.sol\":1456:2429  function bid() payable {\r... */\n    tag_29:\n      jump\t// out\n        /* \"contracts/auction2.sol\":3194:4284  function auctionClose() {\r... */\n    tag_16:\n        /* \"contracts/auction2.sol\":3981:3993  auctionClose */\n      sload(0x1)\n        /* \"contracts/auction2.sol\":3974:3977  now */\n      timestamp\n        /* \"contracts/auction2.sol\":3974:3993  now >= auctionClose */\n      lt\n      iszero\n        /* \"contracts/auction2.sol\":3966:3994  require(now >= auctionClose) */\n      iszero\n      iszero\n      tag_34\n      jumpi\n      revert(0x0, 0x0)\n    tag_34:\n        /* \"contracts/auction2.sol\":4041:4056  auctionComplete */\n      0x5\n      0x0\n      swap1\n      sload\n      swap1\n      0x100\n      exp\n      swap1\n      div\n      0xff\n      and\n        /* \"contracts/auction2.sol\":4040:4056  !auctionComplete */\n      iszero\n        /* \"contracts/auction2.sol\":4032:4057  require(!auctionComplete) */\n      iszero\n      iszero\n      tag_35\n      jumpi\n      revert(0x0, 0x0)\n    tag_35:\n        /* \"contracts/auction2.sol\":4152:4156  true */\n      0x1\n        /* \"contracts/auction2.sol\":4134:4149  auctionComplete */\n      0x5\n      0x0\n        /* \"contracts/auction2.sol\":4134:4156  auctionComplete = true */\n      0x100\n      exp\n      dup2\n      sload\n      dup2\n      0xff\n      mul\n      not\n      and\n      swap1\n      dup4\n      iszero\n      iszero\n      mul\n      or\n      swap1\n      sstore\n      pop\n        /* \"contracts/auction2.sol\":4167:4199  auctionResult(topBidder, topBid) */\n      0xc9b64caa2aa57493e3a2b3087a613ad4168386aa000be494a8a41cd06bd3844a\n        /* \"contracts/auction2.sol\":4181:4190  topBidder */\n      0x2\n      0x0\n      swap1\n      sload\n      swap1\n      0x100\n      exp\n      swap1\n      div\n      0xffffffffffffffffffffffffffffffffffffffff\n      and\n        /* \"contracts/auction2.sol\":4192:4198  topBid */\n      sload(0x3)\n        /* \"contracts/auction2.sol\":4167:4199  auctionResult(topBidder, topBid) */\n      mload(0x40)\n      dup1\n      dup4\n      0xffffffffffffffffffffffffffffffffffffffff\n      and\n      0xffffffffffffffffffffffffffffffffffffffff\n      and\n      dup2\n      mstore\n      0x20\n      add\n      dup3\n      dup2\n      mstore\n      0x20\n      add\n      swap3\n      pop\n      pop\n      pop\n      mload(0x40)\n      dup1\n      swap2\n      sub\n      swap1\n      log1\n        /* \"contracts/auction2.sol\":3194:4284  function auctionClose() {\r... */\n    tag_33:\n      jump\t// out\n        /* \"contracts/auction2.sol\":4296:4382  function transferBid() external {\r... */\n    tag_19:\n        /* \"contracts/auction2.sol\":4339:4357  beneficiaryAddress */\n      0x0\n      0x0\n      swap1\n      sload\n      swap1\n      0x100\n      exp\n      swap1\n      div\n      0xffffffffffffffffffffffffffffffffffffffff\n      and\n        /* \"contracts/auction2.sol\":4339:4366  beneficiaryAddress.transfer */\n      0xffffffffffffffffffffffffffffffffffffffff\n      and\n        /* \"contracts/auction2.sol\":4339:4374  beneficiaryAddress.transfer(topBid) */\n      0x8fc\n        /* \"contracts/auction2.sol\":4367:4373  topBid */\n      sload(0x3)\n        /* \"contracts/auction2.sol\":4339:4374  beneficiaryAddress.transfer(topBid) */\n      swap1\n      dup2\n      iszero\n      mul\n      swap1\n      mload(0x40)\n      dup1\n      swap1\n      pop\n      0x0\n      mload(0x40)\n      dup1\n      dup4\n      sub\n      dup2\n      dup6\n      dup9\n      dup9\n      call\n      swap4\n      pop\n      pop\n      pop\n      pop\n      iszero\n      iszero\n      tag_37\n      jumpi\n      invalid\n    tag_37:\n        /* \"contracts/auction2.sol\":4296:4382  function transferBid() external {\r... */\n    tag_36:\n      jump\t// out\n        /* \"contracts/auction2.sol\":2479:3111  function withdraw() returns (bool) {\r... */\n    tag_22:\n        /* \"contracts/auction2.sol\":2508:2512  bool */\n      0x0\n        /* \"contracts/auction2.sol\":2525:2539  uint bidAmount */\n      0x0\n        /* \"contracts/auction2.sol\":2542:2556  returnsPending */\n      0x4\n        /* \"contracts/auction2.sol\":2542:2568  returnsPending[msg.sender] */\n      0x0\n        /* \"contracts/auction2.sol\":2557:2567  msg.sender */\n      caller\n        /* \"contracts/auction2.sol\":2542:2568  returnsPending[msg.sender] */\n      0xffffffffffffffffffffffffffffffffffffffff\n      and\n      0xffffffffffffffffffffffffffffffffffffffff\n      and\n      dup2\n      mstore\n      0x20\n      add\n      swap1\n      dup2\n      mstore\n      0x20\n      add\n      0x0\n      sha3\n      sload\n        /* \"contracts/auction2.sol\":2525:2568  uint bidAmount = returnsPending[msg.sender] */\n      swap1\n      pop\n        /* \"contracts/auction2.sol\":2595:2596  0 */\n      0x0\n        /* \"contracts/auction2.sol\":2583:2592  bidAmount */\n      dup2\n        /* \"contracts/auction2.sol\":2583:2596  bidAmount > 0 */\n      gt\n        /* \"contracts/auction2.sol\":2579:3082  if (bidAmount > 0) {\r... */\n      iszero\n      tag_39\n      jumpi\n        /* \"contracts/auction2.sol\":2830:2831  0 */\n      0x0\n        /* \"contracts/auction2.sol\":2801:2815  returnsPending */\n      0x4\n        /* \"contracts/auction2.sol\":2801:2827  returnsPending[msg.sender] */\n      0x0\n        /* \"contracts/auction2.sol\":2816:2826  msg.sender */\n      caller\n        /* \"contracts/auction2.sol\":2801:2827  returnsPending[msg.sender] */\n      0xffffffffffffffffffffffffffffffffffffffff\n      and\n      0xffffffffffffffffffffffffffffffffffffffff\n      and\n      dup2\n      mstore\n      0x20\n      add\n      swap1\n      dup2\n      mstore\n      0x20\n      add\n      0x0\n      sha3\n        /* \"contracts/auction2.sol\":2801:2831  returnsPending[msg.sender] = 0 */\n      dup2\n      swap1\n      sstore\n      pop\n        /* \"contracts/auction2.sol\":2853:2863  msg.sender */\n      caller\n        /* \"contracts/auction2.sol\":2853:2868  msg.sender.send */\n      0xffffffffffffffffffffffffffffffffffffffff\n      and\n        /* \"contracts/auction2.sol\":2853:2879  msg.sender.send(bidAmount) */\n      0x8fc\n        /* \"contracts/auction2.sol\":2869:2878  bidAmount */\n      dup3\n        /* \"contracts/auction2.sol\":2853:2879  msg.sender.send(bidAmount) */\n      swap1\n      dup2\n      iszero\n      mul\n      swap1\n      mload(0x40)\n      dup1\n      swap1\n      pop\n      0x0\n      mload(0x40)\n      dup1\n      dup4\n      sub\n      dup2\n      dup6\n      dup9\n      dup9\n      call\n      swap4\n      pop\n      pop\n      pop\n      pop\n        /* \"contracts/auction2.sol\":2852:2879  !msg.sender.send(bidAmount) */\n      iszero\n        /* \"contracts/auction2.sol\":2848:3071  if (!msg.sender.send(bidAmount)) {\r... */\n      iszero\n      tag_40\n      jumpi\n        /* \"contracts/auction2.sol\":3015:3024  bidAmount */\n      dup1\n        /* \"contracts/auction2.sol\":2986:3000  returnsPending */\n      0x4\n        /* \"contracts/auction2.sol\":2986:3012  returnsPending[msg.sender] */\n      0x0\n        /* \"contracts/auction2.sol\":3001:3011  msg.sender */\n      caller\n        /* \"contracts/auction2.sol\":2986:3012  returnsPending[msg.sender] */\n      0xffffffffffffffffffffffffffffffffffffffff\n      and\n      0xffffffffffffffffffffffffffffffffffffffff\n      and\n      dup2\n      mstore\n      0x20\n      add\n      swap1\n      dup2\n      mstore\n      0x20\n      add\n      0x0\n      sha3\n        /* \"contracts/auction2.sol\":2986:3024  returnsPending[msg.sender] = bidAmount */\n      dup2\n      swap1\n      sstore\n      pop\n        /* \"contracts/auction2.sol\":3050:3055  false */\n      0x0\n        /* \"contracts/auction2.sol\":3043:3055  return false */\n      swap2\n      pop\n      jump(tag_38)\n        /* \"contracts/auction2.sol\":2848:3071  if (!msg.sender.send(bidAmount)) {\r... */\n    tag_40:\n        /* \"contracts/auction2.sol\":2579:3082  if (bidAmount > 0) {\r... */\n    tag_39:\n        /* \"contracts/auction2.sol\":3099:3103  true */\n      0x1\n        /* \"contracts/auction2.sol\":3092:3103  return true */\n      swap2\n      pop\n        /* \"contracts/auction2.sol\":2479:3111  function withdraw() returns (bool) {\r... */\n    tag_38:\n      pop\n      swap1\n      jump\t// out\n        /* \"contracts/auction2.sol\":375:393  uint public topBid */\n    tag_25:\n      sload(0x3)\n      dup2\n      jump\t// out\n        /* \"contracts/auction2.sol\":233:266  address public beneficiaryAddress */\n    tag_28:\n      0x0\n      0x0\n      swap1\n      sload\n      swap1\n      0x100\n      exp\n      swap1\n      div\n      0xffffffffffffffffffffffffffffffffffffffff\n      and\n      dup2\n      jump\t// out\n}\n",
				"bytecode": {
					"linkReferences": {},
					"object": "6060604052341561000c57fe5b6040516040806106ab833981016040528080519060200190919080519060200190919050505b80600060006101000a81548173ffffffffffffffffffffffffffffffffffffffff021916908373ffffffffffffffffffffffffffffffffffffffff1602179055508142016001819055505b50505b61061c8061008f6000396000f30060606040523615610081576000357c0100000000000000000000000000000000000000000000000000000000900463ffffffff16806301333f06146100835780631998aeef146100d557806319c2a5b5146100df5780633c679ac5146100f15780633ccfd60b14610103578063636bf7301461012d578063d9c4870e14610153575bfe5b341561008b57fe5b6100936101a5565b604051808273ffffffffffffffffffffffffffffffffffffffff1673ffffffffffffffffffffffffffffffffffffffff16815260200191505060405180910390f35b6100dd6101cb565b005b34156100e757fe5b6100ef610358565b005b34156100f957fe5b610101610434565b005b341561010b57fe5b61011361049b565b604051808215151515815260200191505060405180910390f35b341561013557fe5b61013d6105c4565b6040518082815260200191505060405180910390f35b341561015b57fe5b6101636105ca565b604051808273ffffffffffffffffffffffffffffffffffffffff1673ffffffffffffffffffffffffffffffffffffffff16815260200191505060405180910390f35b600260009054906101000a900473ffffffffffffffffffffffffffffffffffffffff1681565b60015442111515156101dd5760006000fd5b600354341115156101ee5760006000fd5b6000600260009054906101000a900473ffffffffffffffffffffffffffffffffffffffff1673ffffffffffffffffffffffffffffffffffffffff161415156102a25760035460046000600260009054906101000a900473ffffffffffffffffffffffffffffffffffffffff1673ffffffffffffffffffffffffffffffffffffffff1673ffffffffffffffffffffffffffffffffffffffff168152602001908152602001600020600082825401925050819055505b33600260006101000a81548173ffffffffffffffffffffffffffffffffffffffff021916908373ffffffffffffffffffffffffffffffffffffffff160217905550346003819055507f7635e37094566fa4ea4b08dd77117e7ace1e3e5a6ee614bcd37eb6ad8eccc1d93334604051808373ffffffffffffffffffffffffffffffffffffffff1673ffffffffffffffffffffffffffffffffffffffff1681526020018281526020019250505060405180910390a15b565b600154421015151561036a5760006000fd5b600560009054906101000a900460ff161515156103875760006000fd5b6001600560006101000a81548160ff0219169083151502179055507fc9b64caa2aa57493e3a2b3087a613ad4168386aa000be494a8a41cd06bd3844a600260009054906101000a900473ffffffffffffffffffffffffffffffffffffffff16600354604051808373ffffffffffffffffffffffffffffffffffffffff1673ffffffffffffffffffffffffffffffffffffffff1681526020018281526020019250505060405180910390a15b565b600060009054906101000a900473ffffffffffffffffffffffffffffffffffffffff1673ffffffffffffffffffffffffffffffffffffffff166108fc6003549081150290604051809050600060405180830381858888f19350505050151561049857fe5b5b565b60006000600460003373ffffffffffffffffffffffffffffffffffffffff1673ffffffffffffffffffffffffffffffffffffffff16815260200190815260200160002054905060008111156105bb576000600460003373ffffffffffffffffffffffffffffffffffffffff1673ffffffffffffffffffffffffffffffffffffffff168152602001908152602001600020819055503373ffffffffffffffffffffffffffffffffffffffff166108fc829081150290604051809050600060405180830381858888f1935050505015156105ba5780600460003373ffffffffffffffffffffffffffffffffffffffff1673ffffffffffffffffffffffffffffffffffffffff16815260200190815260200160002081905550600091506105c0565b5b600191505b5090565b60035481565b600060009054906101000a900473ffffffffffffffffffffffffffffffffffffffff16815600a165627a7a723058201ef09e3d35c44bfd93ffef5d6cf296a42374e3bda97533464afbc1142705132d0029",
					"opcodes": "PUSH1 0x60 PUSH1 0x40 MSTORE CALLVALUE ISZERO PUSH2 0xC JUMPI INVALID JUMPDEST PUSH1 0x40 MLOAD PUSH1 0x40 DUP1 PUSH2 0x6AB DUP4 CODECOPY DUP2 ADD PUSH1 0x40 MSTORE DUP1 DUP1 MLOAD SWAP1 PUSH1 0x20 ADD SWAP1 SWAP2 SWAP1 DUP1 MLOAD SWAP1 PUSH1 0x20 ADD SWAP1 SWAP2 SWAP1 POP POP JUMPDEST DUP1 PUSH1 0x0 PUSH1 0x0 PUSH2 0x100 EXP DUP2 SLOAD DUP2 PUSH20 0xFFFFFFFFFFFFFFFFFFFFFFFFFFFFFFFFFFFFFFFF MUL NOT AND SWAP1 DUP4 PUSH20 0xFFFFFFFFFFFFFFFFFFFFFFFFFFFFFFFFFFFFFFFF AND MUL OR SWAP1 SSTORE POP DUP2 TIMESTAMP ADD PUSH1 0x1 DUP2 SWAP1 SSTORE POP JUMPDEST POP POP JUMPDEST PUSH2 0x61C DUP1 PUSH2 0x8F PUSH1 0x0 CODECOPY PUSH1 0x0 RETURN STOP PUSH1 0x60 PUSH1 0x40 MSTORE CALLDATASIZE ISZERO PUSH2 0x81 JUMPI PUSH1 0x0 CALLDATALOAD PUSH29 0x100000000000000000000000000000000000000000000000000000000 SWAP1 DIV PUSH4 0xFFFFFFFF AND DUP1 PUSH4 0x1333F06 EQ PUSH2 0x83 JUMPI DUP1 PUSH4 0x1998AEEF EQ PUSH2 0xD5 JUMPI DUP1 PUSH4 0x19C2A5B5 EQ PUSH2 0xDF JUMPI DUP1 PUSH4 0x3C679AC5 EQ PUSH2 0xF1 JUMPI DUP1 PUSH4 0x3CCFD60B EQ PUSH2 0x103 JUMPI DUP1 PUSH4 0x636BF730 EQ PUSH2 0x12D JUMPI DUP1 PUSH4 0xD9C4870E EQ PUSH2 0x153 JUMPI JUMPDEST INVALID JUMPDEST CALLVALUE ISZERO PUSH2 0x8B JUMPI INVALID JUMPDEST PUSH2 0x93 PUSH2 0x1A5 JUMP JUMPDEST PUSH1 0x40 MLOAD DUP1 DUP3 PUSH20 0xFFFFFFFFFFFFFFFFFFFFFFFFFFFFFFFFFFFFFFFF AND PUSH20 0xFFFFFFFFFFFFFFFFFFFFFFFFFFFFFFFFFFFFFFFF AND DUP2 MSTORE PUSH1 0x20 ADD SWAP2 POP POP PUSH1 0x40 MLOAD DUP1 SWAP2 SUB SWAP1 RETURN JUMPDEST PUSH2 0xDD PUSH2 0x1CB JUMP JUMPDEST STOP JUMPDEST CALLVALUE ISZERO PUSH2 0xE7 JUMPI INVALID JUMPDEST PUSH2 0xEF PUSH2 0x358 JUMP JUMPDEST STOP JUMPDEST CALLVALUE ISZERO PUSH2 0xF9 JUMPI INVALID JUMPDEST PUSH2 0x101 PUSH2 0x434 JUMP JUMPDEST STOP JUMPDEST CALLVALUE ISZERO PUSH2 0x10B JUMPI INVALID JUMPDEST PUSH2 0x113 PUSH2 0x49B JUMP JUMPDEST PUSH1 0x40 MLOAD DUP1 DUP3 ISZERO ISZERO ISZERO ISZERO DUP2 MSTORE PUSH1 0x20 ADD SWAP2 POP POP PUSH1 0x40 MLOAD DUP1 SWAP2 SUB SWAP1 RETURN JUMPDEST CALLVALUE ISZERO PUSH2 0x135 JUMPI INVALID JUMPDEST PUSH2 0x13D PUSH2 0x5C4 JUMP JUMPDEST PUSH1 0x40 MLOAD DUP1 DUP3 DUP2 MSTORE PUSH1 0x20 ADD SWAP2 POP POP PUSH1 0x40 MLOAD DUP1 SWAP2 SUB SWAP1 RETURN JUMPDEST CALLVALUE ISZERO PUSH2 0x15B JUMPI INVALID JUMPDEST PUSH2 0x163 PUSH2 0x5CA JUMP JUMPDEST PUSH1 0x40 MLOAD DUP1 DUP3 PUSH20 0xFFFFFFFFFFFFFFFFFFFFFFFFFFFFFFFFFFFFFFFF AND PUSH20 0xFFFFFFFFFFFFFFFFFFFFFFFFFFFFFFFFFFFFFFFF AND DUP2 MSTORE PUSH1 0x20 ADD SWAP2 POP POP PUSH1 0x40 MLOAD DUP1 SWAP2 SUB SWAP1 RETURN JUMPDEST PUSH1 0x2 PUSH1 0x0 SWAP1 SLOAD SWAP1 PUSH2 0x100 EXP SWAP1 DIV PUSH20 0xFFFFFFFFFFFFFFFFFFFFFFFFFFFFFFFFFFFFFFFF AND DUP2 JUMP JUMPDEST PUSH1 0x1 SLOAD TIMESTAMP GT ISZERO ISZERO ISZERO PUSH2 0x1DD JUMPI PUSH1 0x0 PUSH1 0x0 REVERT JUMPDEST PUSH1 0x3 SLOAD CALLVALUE GT ISZERO ISZERO PUSH2 0x1EE JUMPI PUSH1 0x0 PUSH1 0x0 REVERT JUMPDEST PUSH1 0x0 PUSH1 0x2 PUSH1 0x0 SWAP1 SLOAD SWAP1 PUSH2 0x100 EXP SWAP1 DIV PUSH20 0xFFFFFFFFFFFFFFFFFFFFFFFFFFFFFFFFFFFFFFFF AND PUSH20 0xFFFFFFFFFFFFFFFFFFFFFFFFFFFFFFFFFFFFFFFF AND EQ ISZERO ISZERO PUSH2 0x2A2 JUMPI PUSH1 0x3 SLOAD PUSH1 0x4 PUSH1 0x0 PUSH1 0x2 PUSH1 0x0 SWAP1 SLOAD SWAP1 PUSH2 0x100 EXP SWAP1 DIV PUSH20 0xFFFFFFFFFFFFFFFFFFFFFFFFFFFFFFFFFFFFFFFF AND PUSH20 0xFFFFFFFFFFFFFFFFFFFFFFFFFFFFFFFFFFFFFFFF AND PUSH20 0xFFFFFFFFFFFFFFFFFFFFFFFFFFFFFFFFFFFFFFFF AND DUP2 MSTORE PUSH1 0x20 ADD SWAP1 DUP2 MSTORE PUSH1 0x20 ADD PUSH1 0x0 SHA3 PUSH1 0x0 DUP3 DUP3 SLOAD ADD SWAP3 POP POP DUP2 SWAP1 SSTORE POP JUMPDEST CALLER PUSH1 0x2 PUSH1 0x0 PUSH2 0x100 EXP DUP2 SLOAD DUP2 PUSH20 0xFFFFFFFFFFFFFFFFFFFFFFFFFFFFFFFFFFFFFFFF MUL NOT AND SWAP1 DUP4 PUSH20 0xFFFFFFFFFFFFFFFFFFFFFFFFFFFFFFFFFFFFFFFF AND MUL OR SWAP1 SSTORE POP CALLVALUE PUSH1 0x3 DUP2 SWAP1 SSTORE POP PUSH32 0x7635E37094566FA4EA4B08DD77117E7ACE1E3E5A6EE614BCD37EB6AD8ECCC1D9 CALLER CALLVALUE PUSH1 0x40 MLOAD DUP1 DUP4 PUSH20 0xFFFFFFFFFFFFFFFFFFFFFFFFFFFFFFFFFFFFFFFF AND PUSH20 0xFFFFFFFFFFFFFFFFFFFFFFFFFFFFFFFFFFFFFFFF AND DUP2 MSTORE PUSH1 0x20 ADD DUP3 DUP2 MSTORE PUSH1 0x20 ADD SWAP3 POP POP POP PUSH1 0x40 MLOAD DUP1 SWAP2 SUB SWAP1 LOG1 JUMPDEST JUMP JUMPDEST PUSH1 0x1 SLOAD TIMESTAMP LT ISZERO ISZERO ISZERO PUSH2 0x36A JUMPI PUSH1 0x0 PUSH1 0x0 REVERT JUMPDEST PUSH1 0x5 PUSH1 0x0 SWAP1 SLOAD SWAP1 PUSH2 0x100 EXP SWAP1 DIV PUSH1 0xFF AND ISZERO ISZERO ISZERO PUSH2 0x387 JUMPI PUSH1 0x0 PUSH1 0x0 REVERT JUMPDEST PUSH1 0x1 PUSH1 0x5 PUSH1 0x0 PUSH2 0x100 EXP DUP2 SLOAD DUP2 PUSH1 0xFF MUL NOT AND SWAP1 DUP4 ISZERO ISZERO MUL OR SWAP1 SSTORE POP PUSH32 0xC9B64CAA2AA57493E3A2B3087A613AD4168386AA000BE494A8A41CD06BD3844A PUSH1 0x2 PUSH1 0x0 SWAP1 SLOAD SWAP1 PUSH2 0x100 EXP SWAP1 DIV PUSH20 0xFFFFFFFFFFFFFFFFFFFFFFFFFFFFFFFFFFFFFFFF AND PUSH1 0x3 SLOAD PUSH1 0x40 MLOAD DUP1 DUP4 PUSH20 0xFFFFFFFFFFFFFFFFFFFFFFFFFFFFFFFFFFFFFFFF AND PUSH20 0xFFFFFFFFFFFFFFFFFFFFFFFFFFFFFFFFFFFFFFFF AND DUP2 MSTORE PUSH1 0x20 ADD DUP3 DUP2 MSTORE PUSH1 0x20 ADD SWAP3 POP POP POP PUSH1 0x40 MLOAD DUP1 SWAP2 SUB SWAP1 LOG1 JUMPDEST JUMP JUMPDEST PUSH1 0x0 PUSH1 0x0 SWAP1 SLOAD SWAP1 PUSH2 0x100 EXP SWAP1 DIV PUSH20 0xFFFFFFFFFFFFFFFFFFFFFFFFFFFFFFFFFFFFFFFF AND PUSH20 0xFFFFFFFFFFFFFFFFFFFFFFFFFFFFFFFFFFFFFFFF AND PUSH2 0x8FC PUSH1 0x3 SLOAD SWAP1 DUP2 ISZERO MUL SWAP1 PUSH1 0x40 MLOAD DUP1 SWAP1 POP PUSH1 0x0 PUSH1 0x40 MLOAD DUP1 DUP4 SUB DUP2 DUP6 DUP9 DUP9 CALL SWAP4 POP POP POP POP ISZERO ISZERO PUSH2 0x498 JUMPI INVALID JUMPDEST JUMPDEST JUMP JUMPDEST PUSH1 0x0 PUSH1 0x0 PUSH1 0x4 PUSH1 0x0 CALLER PUSH20 0xFFFFFFFFFFFFFFFFFFFFFFFFFFFFFFFFFFFFFFFF AND PUSH20 0xFFFFFFFFFFFFFFFFFFFFFFFFFFFFFFFFFFFFFFFF AND DUP2 MSTORE PUSH1 0x20 ADD SWAP1 DUP2 MSTORE PUSH1 0x20 ADD PUSH1 0x0 SHA3 SLOAD SWAP1 POP PUSH1 0x0 DUP2 GT ISZERO PUSH2 0x5BB JUMPI PUSH1 0x0 PUSH1 0x4 PUSH1 0x0 CALLER PUSH20 0xFFFFFFFFFFFFFFFFFFFFFFFFFFFFFFFFFFFFFFFF AND PUSH20 0xFFFFFFFFFFFFFFFFFFFFFFFFFFFFFFFFFFFFFFFF AND DUP2 MSTORE PUSH1 0x20 ADD SWAP1 DUP2 MSTORE PUSH1 0x20 ADD PUSH1 0x0 SHA3 DUP2 SWAP1 SSTORE POP CALLER PUSH20 0xFFFFFFFFFFFFFFFFFFFFFFFFFFFFFFFFFFFFFFFF AND PUSH2 0x8FC DUP3 SWAP1 DUP2 ISZERO MUL SWAP1 PUSH1 0x40 MLOAD DUP1 SWAP1 POP PUSH1 0x0 PUSH1 0x40 MLOAD DUP1 DUP4 SUB DUP2 DUP6 DUP9 DUP9 CALL SWAP4 POP POP POP POP ISZERO ISZERO PUSH2 0x5BA JUMPI DUP1 PUSH1 0x4 PUSH1 0x0 CALLER PUSH20 0xFFFFFFFFFFFFFFFFFFFFFFFFFFFFFFFFFFFFFFFF AND PUSH20 0xFFFFFFFFFFFFFFFFFFFFFFFFFFFFFFFFFFFFFFFF AND DUP2 MSTORE PUSH1 0x20 ADD SWAP1 DUP2 MSTORE PUSH1 0x20 ADD PUSH1 0x0 SHA3 DUP2 SWAP1 SSTORE POP PUSH1 0x0 SWAP2 POP PUSH2 0x5C0 JUMP JUMPDEST JUMPDEST PUSH1 0x1 SWAP2 POP JUMPDEST POP SWAP1 JUMP JUMPDEST PUSH1 0x3 SLOAD DUP2 JUMP JUMPDEST PUSH1 0x0 PUSH1 0x0 SWAP1 SLOAD SWAP1 PUSH2 0x100 EXP SWAP1 DIV PUSH20 0xFFFFFFFFFFFFFFFFFFFFFFFFFFFFFFFFFFFFFFFF AND DUP2 JUMP STOP LOG1 PUSH6 0x627A7A723058 SHA3 0x1e CREATE SWAP15 0x3d CALLDATALOAD 0xc4 0x4b REVERT SWAP4 SELFDESTRUCT 0xef 0x5d PUSH13 0xF296A42374E3BDA97533464AFB 0xc1 EQ 0x27 SDIV SGT 0x2d STOP 0x29 "
				},
				"gasEstimates": {
					"creation": {
						"codeDepositCost": "312800",
						"executionCost": "40731",
						"totalCost": "353531"
					},
					"external": {
						"auctionClose()": "22721",
						"beneficiaryAddress()": "563",
						"bid()": "63250",
						"topBid()": "493",
						"topBidder()": "431",
						"transferBid()": "infinite",
						"withdraw()": "infinite"
					}
				},
				"methodIdentifiers": {
					"auctionClose()": "19c2a5b5",
					"beneficiaryAddress()": "d9c4870e",
					"bid()": "1998aeef",
					"topBid()": "636bf730",
					"topBidder()": "01333f06",
					"transferBid()": "3c679ac5",
					"withdraw()": "3ccfd60b"
				}
			},
			"userdoc": {
				"methods": {
					"auctionClose()": {
						"notice": "Auction ends and highest bid is sent\r to the beneficiary.\r"
					},
					"bid()": {
						"notice": "You may bid on the auction with the value sent\r along with this transaction.\r The value may only be refunded if the\r auction was not won.\r"
					},
					"withdraw()": {
						"notice": "Withdraw a bid that was overbid.\r"
					}
				}
			}
		}
	}
}