{
	"contracts/delivery.sol": {
		"PhysicalDelivery": {
			"abi": [
				{
					"inputs": [],
					"stateMutability": "nonpayable",
					"type": "constructor"
				},
				{
					"anonymous": false,
					"inputs": [
						{
							"indexed": false,
							"internalType": "address",
							"name": "winner",
							"type": "address"
						},
						{
							"indexed": false,
							"internalType": "uint256",
							"name": "bidAmount",
							"type": "uint256"
						}
					],
					"name": "auctionResult",
					"type": "event"
				},
				{
					"anonymous": false,
					"inputs": [
						{
							"indexed": false,
							"internalType": "address",
							"name": "courierEA",
							"type": "address"
						}
					],
					"name": "deliveryTaken",
					"type": "event"
				},
				{
					"anonymous": false,
					"inputs": [
						{
							"indexed": false,
							"internalType": "address",
							"name": "courierEA",
							"type": "address"
						},
						{
							"indexed": false,
							"internalType": "address",
							"name": "buyerEA",
							"type": "address"
						},
						{
							"indexed": false,
							"internalType": "uint256",
							"name": "itemSN",
							"type": "uint256"
						}
					],
					"name": "failedDelivery",
					"type": "event"
				},
				{
					"anonymous": false,
					"inputs": [
						{
							"indexed": false,
							"internalType": "address",
							"name": "buyerEA",
							"type": "address"
						},
						{
							"indexed": false,
							"internalType": "uint256",
							"name": "tokenID",
							"type": "uint256"
						}
					],
					"name": "newDeliveryRequest",
					"type": "event"
				},
				{
					"anonymous": false,
					"inputs": [
						{
							"indexed": false,
							"internalType": "address",
							"name": "courierEA",
							"type": "address"
						},
						{
							"indexed": false,
							"internalType": "uint256",
							"name": "time",
							"type": "uint256"
						}
					],
					"name": "startDelivery",
					"type": "event"
				},
				{
					"anonymous": false,
					"inputs": [
						{
							"indexed": false,
							"internalType": "address",
							"name": "courierEA",
							"type": "address"
						},
						{
							"indexed": false,
							"internalType": "address",
							"name": "buyerEA",
							"type": "address"
						},
						{
							"indexed": false,
							"internalType": "uint256",
							"name": "itemSN",
							"type": "uint256"
						}
					],
					"name": "successfulDelivery",
					"type": "event"
				},
				{
					"anonymous": false,
					"inputs": [
						{
							"indexed": false,
							"internalType": "address",
							"name": "bidder",
							"type": "address"
						},
						{
							"indexed": false,
							"internalType": "uint256",
							"name": "bidAmount",
							"type": "uint256"
						}
					],
					"name": "topBidIncreased",
					"type": "event"
				},
				{
					"inputs": [
						{
							"internalType": "address",
							"name": "",
							"type": "address"
						}
					],
					"name": "Courier",
					"outputs": [
						{
							"internalType": "uint256",
							"name": "itemSN",
							"type": "uint256"
						},
						{
							"internalType": "address payable",
							"name": "buyerEA",
							"type": "address"
						},
						{
							"internalType": "bool",
							"name": "courierPaid",
							"type": "bool"
						},
						{
							"internalType": "bool",
							"name": "buyerPaid",
							"type": "bool"
						},
						{
							"internalType": "bool",
							"name": "busy",
							"type": "bool"
						}
					],
					"stateMutability": "view",
					"type": "function"
				},
				{
					"inputs": [
						{
							"internalType": "uint256",
							"name": "_biddingTime",
							"type": "uint256"
						},
						{
							"internalType": "address",
							"name": "_beneficiary",
							"type": "address"
						}
					],
					"name": "SimpleAuctions",
					"outputs": [],
					"stateMutability": "nonpayable",
					"type": "function"
				},
				{
					"inputs": [
						{
							"internalType": "address",
							"name": "_buyerEA",
							"type": "address"
						},
						{
							"internalType": "uint256",
							"name": "_itemSN",
							"type": "uint256"
						}
					],
					"name": "approveBuyer",
					"outputs": [],
					"stateMutability": "nonpayable",
					"type": "function"
				},
				{
					"inputs": [],
					"name": "auctionClose",
					"outputs": [
						{
							"internalType": "uint256",
							"name": "",
							"type": "uint256"
						}
					],
					"stateMutability": "view",
					"type": "function"
				},
				{
					"inputs": [],
					"name": "auctionClosed",
					"outputs": [],
					"stateMutability": "nonpayable",
					"type": "function"
				},
				{
					"inputs": [],
					"name": "beneficiaryAddress",
					"outputs": [
						{
							"internalType": "address",
							"name": "",
							"type": "address"
						}
					],
					"stateMutability": "view",
					"type": "function"
				},
				{
					"inputs": [],
					"name": "bid",
					"outputs": [],
					"stateMutability": "payable",
					"type": "function"
				},
				{
					"inputs": [
						{
							"internalType": "address payable",
							"name": "courierEA",
							"type": "address"
						},
						{
							"internalType": "bool",
							"name": "approved",
							"type": "bool"
						}
					],
					"name": "buyerApproval",
					"outputs": [],
					"stateMutability": "payable",
					"type": "function"
				},
				{
					"inputs": [
						{
							"internalType": "address",
							"name": "courierEA",
							"type": "address"
						}
					],
					"name": "buyerDeposit",
					"outputs": [],
					"stateMutability": "payable",
					"type": "function"
				},
				{
					"inputs": [
						{
							"internalType": "uint256",
							"name": "_fee",
							"type": "uint256"
						}
					],
					"name": "changeDeposit",
					"outputs": [],
					"stateMutability": "nonpayable",
					"type": "function"
				},
				{
					"inputs": [
						{
							"internalType": "address payable",
							"name": "_buyerEA",
							"type": "address"
						},
						{
							"internalType": "uint256",
							"name": "_itemSN",
							"type": "uint256"
						}
					],
					"name": "courierEstablishDelivery",
					"outputs": [],
					"stateMutability": "payable",
					"type": "function"
				},
				{
					"inputs": [],
					"name": "getBalance",
					"outputs": [
						{
							"internalType": "uint256",
							"name": "",
							"type": "uint256"
						}
					],
					"stateMutability": "view",
					"type": "function"
				},
				{
					"inputs": [],
					"name": "retailStore",
					"outputs": [
						{
							"internalType": "address",
							"name": "",
							"type": "address"
						}
					],
					"stateMutability": "view",
					"type": "function"
				},
				{
					"inputs": [
						{
							"internalType": "address payable",
							"name": "accountEA",
							"type": "address"
						}
					],
					"name": "returnDeposit",
					"outputs": [],
					"stateMutability": "nonpayable",
					"type": "function"
				},
				{
					"inputs": [],
					"name": "topBid",
					"outputs": [
						{
							"internalType": "uint256",
							"name": "",
							"type": "uint256"
						}
					],
					"stateMutability": "view",
					"type": "function"
				},
				{
					"inputs": [],
					"name": "topBidder",
					"outputs": [
						{
							"internalType": "address",
							"name": "",
							"type": "address"
						}
					],
					"stateMutability": "view",
					"type": "function"
				},
				{
					"inputs": [],
					"name": "withdraw",
					"outputs": [
						{
							"internalType": "bool",
							"name": "",
							"type": "bool"
						}
					],
					"stateMutability": "nonpayable",
					"type": "function"
				}
			],
			"devdoc": {
				"kind": "dev",
				"methods": {},
				"version": 1
			},
			"evm": {
				"assembly": "    /* \"contracts/delivery.sol\":91:3434  contract PhysicalDelivery is SimpleAuction {\r... */\n  mstore(0x40, 0x80)\n    /* \"contracts/delivery.sol\":199:206  1 ether */\n  0x0de0b6b3a7640000\n    /* \"contracts/delivery.sol\":176:206  uint secuirtyDeposit = 1 ether */\n  0x06\n  sstore\n    /* \"contracts/delivery.sol\":898:954  constructor(){\r... */\n  callvalue\n  dup1\n  iszero\n  tag_1\n  jumpi\n  0x00\n  dup1\n  revert\ntag_1:\n  pop\n    /* \"contracts/delivery.sol\":936:946  msg.sender */\n  caller\n    /* \"contracts/delivery.sol\":922:933  retailStore */\n  0x05\n  0x01\n    /* \"contracts/delivery.sol\":922:946  retailStore = msg.sender */\n  0x0100\n  exp\n  dup2\n  sload\n  dup2\n  0xffffffffffffffffffffffffffffffffffffffff\n  mul\n  not\n  and\n  swap1\n  dup4\n  0xffffffffffffffffffffffffffffffffffffffff\n  and\n  mul\n  or\n  swap1\n  sstore\n  pop\n    /* \"contracts/delivery.sol\":91:3434  contract PhysicalDelivery is SimpleAuction {\r... */\n  dataSize(sub_0)\n  dup1\n  dataOffset(sub_0)\n  0x00\n  codecopy\n  0x00\n  return\nstop\n\nsub_0: assembly {\n        /* \"contracts/delivery.sol\":91:3434  contract PhysicalDelivery is SimpleAuction {\r... */\n      mstore(0x40, 0x80)\n      jumpi(tag_1, lt(calldatasize, 0x04))\n      shr(0xe0, calldataload(0x00))\n      dup1\n      0x9915f14e\n      gt\n      tag_19\n      jumpi\n      dup1\n      0xc2a2ce06\n      gt\n      tag_20\n      jumpi\n      dup1\n      0xc2a2ce06\n      eq\n      tag_14\n      jumpi\n      dup1\n      0xc31ab39d\n      eq\n      tag_15\n      jumpi\n      dup1\n      0xd9c4870e\n      eq\n      tag_16\n      jumpi\n      dup1\n      0xe3305bd3\n      eq\n      tag_17\n      jumpi\n      dup1\n      0xfe27b1e1\n      eq\n      tag_18\n      jumpi\n      jump(tag_1)\n    tag_20:\n      dup1\n      0x9915f14e\n      eq\n      tag_10\n      jumpi\n      dup1\n      0xaeaaa299\n      eq\n      tag_11\n      jumpi\n      dup1\n      0xb4b48cf1\n      eq\n      tag_12\n      jumpi\n      dup1\n      0xbdef9303\n      eq\n      tag_13\n      jumpi\n      jump(tag_1)\n    tag_19:\n      dup1\n      0x3ccfd60b\n      gt\n      tag_21\n      jumpi\n      dup1\n      0x3ccfd60b\n      eq\n      tag_6\n      jumpi\n      dup1\n      0x636bf730\n      eq\n      tag_7\n      jumpi\n      dup1\n      0x76f585ec\n      eq\n      tag_8\n      jumpi\n      dup1\n      0x7ffdf46b\n      eq\n      tag_9\n      jumpi\n      jump(tag_1)\n    tag_21:\n      dup1\n      0x01333f06\n      eq\n      tag_2\n      jumpi\n      dup1\n      0x12065fe0\n      eq\n      tag_3\n      jumpi\n      dup1\n      0x1998aeef\n      eq\n      tag_4\n      jumpi\n      dup1\n      0x19c2a5b5\n      eq\n      tag_5\n      jumpi\n    tag_1:\n      0x00\n      dup1\n      revert\n        /* \"contracts/auction2.sol\":367:391  address public topBidder */\n    tag_2:\n      callvalue\n      dup1\n      iszero\n      tag_22\n      jumpi\n      0x00\n      dup1\n      revert\n    tag_22:\n      pop\n      tag_23\n      tag_24\n      jump\t// in\n    tag_23:\n      mload(0x40)\n      tag_25\n      swap2\n      swap1\n      tag_26\n      jump\t// in\n    tag_25:\n      mload(0x40)\n      dup1\n      swap2\n      sub\n      swap1\n      return\n        /* \"contracts/delivery.sol\":3332:3427  function getBalance() public view returns(uint) {\r... */\n    tag_3:\n      callvalue\n      dup1\n      iszero\n      tag_27\n      jumpi\n      0x00\n      dup1\n      revert\n    tag_27:\n      pop\n      tag_28\n      tag_29\n      jump\t// in\n    tag_28:\n      mload(0x40)\n      tag_30\n      swap2\n      swap1\n      tag_31\n      jump\t// in\n    tag_30:\n      mload(0x40)\n      dup1\n      swap2\n      sub\n      swap1\n      return\n        /* \"contracts/auction2.sol\":1474:2511  function bid() payable public{\r... */\n    tag_4:\n      tag_32\n      tag_33\n      jump\t// in\n    tag_32:\n      stop\n        /* \"contracts/auction2.sol\":296:320  uint public auctionClose */\n    tag_5:\n      callvalue\n      dup1\n      iszero\n      tag_34\n      jumpi\n      0x00\n      dup1\n      revert\n    tag_34:\n      pop\n      tag_35\n      tag_36\n      jump\t// in\n    tag_35:\n      mload(0x40)\n      tag_37\n      swap2\n      swap1\n      tag_31\n      jump\t// in\n    tag_37:\n      mload(0x40)\n      dup1\n      swap2\n      sub\n      swap1\n      return\n        /* \"contracts/auction2.sol\":2561:3209  function withdraw() public returns (bool) {\r... */\n    tag_6:\n      callvalue\n      dup1\n      iszero\n      tag_38\n      jumpi\n      0x00\n      dup1\n      revert\n    tag_38:\n      pop\n      tag_39\n      tag_40\n      jump\t// in\n    tag_39:\n      mload(0x40)\n      tag_41\n      swap2\n      swap1\n      tag_42\n      jump\t// in\n    tag_41:\n      mload(0x40)\n      dup1\n      swap2\n      sub\n      swap1\n      return\n        /* \"contracts/auction2.sol\":398:416  uint public topBid */\n    tag_7:\n      callvalue\n      dup1\n      iszero\n      tag_43\n      jumpi\n      0x00\n      dup1\n      revert\n    tag_43:\n      pop\n      tag_44\n      tag_45\n      jump\t// in\n    tag_44:\n      mload(0x40)\n      tag_46\n      swap2\n      swap1\n      tag_31\n      jump\t// in\n    tag_46:\n      mload(0x40)\n      dup1\n      swap2\n      sub\n      swap1\n      return\n        /* \"contracts/delivery.sol\":2236:3091  function buyerApproval(address payable courierEA, bool approved) public payable{\r... */\n    tag_8:\n      tag_47\n      0x04\n      dup1\n      calldatasize\n      sub\n      dup2\n      add\n      swap1\n      tag_48\n      swap2\n      swap1\n      tag_49\n      jump\t// in\n    tag_48:\n      tag_50\n      jump\t// in\n    tag_47:\n      stop\n        /* \"contracts/delivery.sol\":1806:2228  function buyerDeposit(address courierEA) public payable{\r... */\n    tag_9:\n      tag_51\n      0x04\n      dup1\n      calldatasize\n      sub\n      dup2\n      add\n      swap1\n      tag_52\n      swap2\n      swap1\n      tag_53\n      jump\t// in\n    tag_52:\n      tag_54\n      jump\t// in\n    tag_51:\n      stop\n        /* \"contracts/delivery.sol\":1305:1798  function courierEstablishDelivery(address payable _buyerEA, uint256 _itemSN) public payable{\r... */\n    tag_10:\n      tag_55\n      0x04\n      dup1\n      calldatasize\n      sub\n      dup2\n      add\n      swap1\n      tag_56\n      swap2\n      swap1\n      tag_57\n      jump\t// in\n    tag_56:\n      tag_58\n      jump\t// in\n    tag_55:\n      stop\n        /* \"contracts/auction2.sol\":3292:4407  function auctionClosed() public {\r... */\n    tag_11:\n      callvalue\n      dup1\n      iszero\n      tag_59\n      jumpi\n      0x00\n      dup1\n      revert\n    tag_59:\n      pop\n      tag_60\n      tag_61\n      jump\t// in\n    tag_60:\n      stop\n        /* \"contracts/auction2.sol\":1115:1295  function SimpleAuctions(uint _biddingTime, address _beneficiary) public {\r... */\n    tag_12:\n      callvalue\n      dup1\n      iszero\n      tag_62\n      jumpi\n      0x00\n      dup1\n      revert\n    tag_62:\n      pop\n      tag_63\n      0x04\n      dup1\n      calldatasize\n      sub\n      dup2\n      add\n      swap1\n      tag_64\n      swap2\n      swap1\n      tag_65\n      jump\t// in\n    tag_64:\n      tag_66\n      jump\t// in\n    tag_63:\n      stop\n        /* \"contracts/delivery.sol\":3099:3222  function returnDeposit(address payable accountEA) external onlyRetail{\r... */\n    tag_13:\n      callvalue\n      dup1\n      iszero\n      tag_67\n      jumpi\n      0x00\n      dup1\n      revert\n    tag_67:\n      pop\n      tag_68\n      0x04\n      dup1\n      calldatasize\n      sub\n      dup2\n      add\n      swap1\n      tag_69\n      swap2\n      swap1\n      tag_70\n      jump\t// in\n    tag_69:\n      tag_71\n      jump\t// in\n    tag_68:\n      stop\n        /* \"contracts/delivery.sol\":3230:3324  function changeDeposit(uint _fee) external onlyRetail{\r... */\n    tag_14:\n      callvalue\n      dup1\n      iszero\n      tag_72\n      jumpi\n      0x00\n      dup1\n      revert\n    tag_72:\n      pop\n      tag_73\n      0x04\n      dup1\n      calldatasize\n      sub\n      dup2\n      add\n      swap1\n      tag_74\n      swap2\n      swap1\n      tag_75\n      jump\t// in\n    tag_74:\n      tag_76\n      jump\t// in\n    tag_73:\n      stop\n        /* \"contracts/delivery.sol\":143:169  address public retailStore */\n    tag_15:\n      callvalue\n      dup1\n      iszero\n      tag_77\n      jumpi\n      0x00\n      dup1\n      revert\n    tag_77:\n      pop\n      tag_78\n      tag_79\n      jump\t// in\n    tag_78:\n      mload(0x40)\n      tag_80\n      swap2\n      swap1\n      tag_26\n      jump\t// in\n    tag_80:\n      mload(0x40)\n      dup1\n      swap2\n      sub\n      swap1\n      return\n        /* \"contracts/auction2.sol\":256:289  address public beneficiaryAddress */\n    tag_16:\n      callvalue\n      dup1\n      iszero\n      tag_81\n      jumpi\n      0x00\n      dup1\n      revert\n    tag_81:\n      pop\n      tag_82\n      tag_83\n      jump\t// in\n    tag_82:\n      mload(0x40)\n      tag_84\n      swap2\n      swap1\n      tag_26\n      jump\t// in\n    tag_84:\n      mload(0x40)\n      dup1\n      swap2\n      sub\n      swap1\n      return\n        /* \"contracts/delivery.sol\":1076:1297  function approveBuyer(address _buyerEA, uint256 _itemSN) external onlyRetail{\r... */\n    tag_17:\n      callvalue\n      dup1\n      iszero\n      tag_85\n      jumpi\n      0x00\n      dup1\n      revert\n    tag_85:\n      pop\n      tag_86\n      0x04\n      dup1\n      calldatasize\n      sub\n      dup2\n      add\n      swap1\n      tag_87\n      swap2\n      swap1\n      tag_88\n      jump\t// in\n    tag_87:\n      tag_89\n      jump\t// in\n    tag_86:\n      stop\n        /* \"contracts/delivery.sol\":350:397  mapping(address => Courier_Type) public Courier */\n    tag_18:\n      callvalue\n      dup1\n      iszero\n      tag_90\n      jumpi\n      0x00\n      dup1\n      revert\n    tag_90:\n      pop\n      tag_91\n      0x04\n      dup1\n      calldatasize\n      sub\n      dup2\n      add\n      swap1\n      tag_92\n      swap2\n      swap1\n      tag_53\n      jump\t// in\n    tag_92:\n      tag_93\n      jump\t// in\n    tag_91:\n      mload(0x40)\n      tag_94\n      swap6\n      swap5\n      swap4\n      swap3\n      swap2\n      swap1\n      tag_95\n      jump\t// in\n    tag_94:\n      mload(0x40)\n      dup1\n      swap2\n      sub\n      swap1\n      return\n        /* \"contracts/auction2.sol\":367:391  address public topBidder */\n    tag_24:\n      0x02\n      0x00\n      swap1\n      sload\n      swap1\n      0x0100\n      exp\n      swap1\n      div\n      0xffffffffffffffffffffffffffffffffffffffff\n      and\n      dup2\n      jump\t// out\n        /* \"contracts/delivery.sol\":3332:3427  function getBalance() public view returns(uint) {\r... */\n    tag_29:\n        /* \"contracts/delivery.sol\":3374:3378  uint */\n      0x00\n        /* \"contracts/delivery.sol\":3398:3419  address(this).balance */\n      selfbalance\n        /* \"contracts/delivery.sol\":3391:3419  return address(this).balance */\n      swap1\n      pop\n        /* \"contracts/delivery.sol\":3332:3427  function getBalance() public view returns(uint) {\r... */\n      swap1\n      jump\t// out\n        /* \"contracts/auction2.sol\":1474:2511  function bid() payable public{\r... */\n    tag_33:\n        /* \"contracts/auction2.sol\":1822:1834  auctionClose */\n      sload(0x01)\n        /* \"contracts/auction2.sol\":1803:1818  block.timestamp */\n      timestamp\n        /* \"contracts/auction2.sol\":1803:1834  block.timestamp <= auctionClose */\n      gt\n      iszero\n        /* \"contracts/auction2.sol\":1795:1835  require(block.timestamp <= auctionClose) */\n      tag_98\n      jumpi\n      0x00\n      dup1\n      revert\n    tag_98:\n        /* \"contracts/auction2.sol\":1943:1949  topBid */\n      sload(0x03)\n        /* \"contracts/auction2.sol\":1931:1940  msg.value */\n      callvalue\n        /* \"contracts/auction2.sol\":1931:1949  msg.value > topBid */\n      gt\n        /* \"contracts/auction2.sol\":1923:1950  require(msg.value > topBid) */\n      tag_99\n      jumpi\n      0x00\n      dup1\n      revert\n    tag_99:\n        /* \"contracts/auction2.sol\":1980:2022  0x0000000000000000000000000000000000000000 */\n      0x00\n        /* \"contracts/auction2.sol\":1967:2022  topBidder != 0x0000000000000000000000000000000000000000 */\n      0xffffffffffffffffffffffffffffffffffffffff\n      and\n        /* \"contracts/auction2.sol\":1967:1976  topBidder */\n      0x02\n      0x00\n      swap1\n      sload\n      swap1\n      0x0100\n      exp\n      swap1\n      div\n      0xffffffffffffffffffffffffffffffffffffffff\n      and\n        /* \"contracts/auction2.sol\":1967:2022  topBidder != 0x0000000000000000000000000000000000000000 */\n      0xffffffffffffffffffffffffffffffffffffffff\n      and\n      eq\n        /* \"contracts/auction2.sol\":1963:2388  if (topBidder != 0x0000000000000000000000000000000000000000) {\r... */\n      tag_100\n      jumpi\n        /* \"contracts/auction2.sol\":2370:2376  topBid */\n      sload(0x03)\n        /* \"contracts/auction2.sol\":2341:2355  returnsPending */\n      0x04\n        /* \"contracts/auction2.sol\":2341:2366  returnsPending[topBidder] */\n      0x00\n        /* \"contracts/auction2.sol\":2356:2365  topBidder */\n      0x02\n      0x00\n      swap1\n      sload\n      swap1\n      0x0100\n      exp\n      swap1\n      div\n      0xffffffffffffffffffffffffffffffffffffffff\n      and\n        /* \"contracts/auction2.sol\":2341:2366  returnsPending[topBidder] */\n      0xffffffffffffffffffffffffffffffffffffffff\n      and\n      0xffffffffffffffffffffffffffffffffffffffff\n      and\n      dup2\n      mstore\n      0x20\n      add\n      swap1\n      dup2\n      mstore\n      0x20\n      add\n      0x00\n      keccak256\n      0x00\n        /* \"contracts/auction2.sol\":2341:2376  returnsPending[topBidder] += topBid */\n      dup3\n      dup3\n      sload\n      tag_101\n      swap2\n      swap1\n      tag_102\n      jump\t// in\n    tag_101:\n      swap3\n      pop\n      pop\n      dup2\n      swap1\n      sstore\n      pop\n        /* \"contracts/auction2.sol\":1963:2388  if (topBidder != 0x0000000000000000000000000000000000000000) {\r... */\n    tag_100:\n        /* \"contracts/auction2.sol\":2410:2420  msg.sender */\n      caller\n        /* \"contracts/auction2.sol\":2398:2407  topBidder */\n      0x02\n      0x00\n        /* \"contracts/auction2.sol\":2398:2420  topBidder = msg.sender */\n      0x0100\n      exp\n      dup2\n      sload\n      dup2\n      0xffffffffffffffffffffffffffffffffffffffff\n      mul\n      not\n      and\n      swap1\n      dup4\n      0xffffffffffffffffffffffffffffffffffffffff\n      and\n      mul\n      or\n      swap1\n      sstore\n      pop\n        /* \"contracts/auction2.sol\":2440:2449  msg.value */\n      callvalue\n        /* \"contracts/auction2.sol\":2431:2437  topBid */\n      0x03\n        /* \"contracts/auction2.sol\":2431:2449  topBid = msg.value */\n      dup2\n      swap1\n      sstore\n      pop\n        /* \"contracts/auction2.sol\":2465:2503  topBidIncreased(msg.sender, msg.value) */\n      0x7635e37094566fa4ea4b08dd77117e7ace1e3e5a6ee614bcd37eb6ad8eccc1d9\n        /* \"contracts/auction2.sol\":2481:2491  msg.sender */\n      caller\n        /* \"contracts/auction2.sol\":2493:2502  msg.value */\n      callvalue\n        /* \"contracts/auction2.sol\":2465:2503  topBidIncreased(msg.sender, msg.value) */\n      mload(0x40)\n      tag_103\n      swap3\n      swap2\n      swap1\n      tag_104\n      jump\t// in\n    tag_103:\n      mload(0x40)\n      dup1\n      swap2\n      sub\n      swap1\n      log1\n        /* \"contracts/auction2.sol\":1474:2511  function bid() payable public{\r... */\n      jump\t// out\n        /* \"contracts/auction2.sol\":296:320  uint public auctionClose */\n    tag_36:\n      sload(0x01)\n      dup2\n      jump\t// out\n        /* \"contracts/auction2.sol\":2561:3209  function withdraw() public returns (bool) {\r... */\n    tag_40:\n        /* \"contracts/auction2.sol\":2597:2601  bool */\n      0x00\n        /* \"contracts/auction2.sol\":2614:2628  uint bidAmount */\n      dup1\n        /* \"contracts/auction2.sol\":2631:2645  returnsPending */\n      0x04\n        /* \"contracts/auction2.sol\":2631:2657  returnsPending[msg.sender] */\n      0x00\n        /* \"contracts/auction2.sol\":2646:2656  msg.sender */\n      caller\n        /* \"contracts/auction2.sol\":2631:2657  returnsPending[msg.sender] */\n      0xffffffffffffffffffffffffffffffffffffffff\n      and\n      0xffffffffffffffffffffffffffffffffffffffff\n      and\n      dup2\n      mstore\n      0x20\n      add\n      swap1\n      dup2\n      mstore\n      0x20\n      add\n      0x00\n      keccak256\n      sload\n        /* \"contracts/auction2.sol\":2614:2657  uint bidAmount = returnsPending[msg.sender] */\n      swap1\n      pop\n        /* \"contracts/auction2.sol\":2684:2685  0 */\n      0x00\n        /* \"contracts/auction2.sol\":2672:2681  bidAmount */\n      dup2\n        /* \"contracts/auction2.sol\":2672:2685  bidAmount > 0 */\n      gt\n        /* \"contracts/auction2.sol\":2668:3180  if (bidAmount > 0) {\r... */\n      iszero\n      tag_106\n      jumpi\n        /* \"contracts/auction2.sol\":2919:2920  0 */\n      0x00\n        /* \"contracts/auction2.sol\":2890:2904  returnsPending */\n      0x04\n        /* \"contracts/auction2.sol\":2890:2916  returnsPending[msg.sender] */\n      0x00\n        /* \"contracts/auction2.sol\":2905:2915  msg.sender */\n      caller\n        /* \"contracts/auction2.sol\":2890:2916  returnsPending[msg.sender] */\n      0xffffffffffffffffffffffffffffffffffffffff\n      and\n      0xffffffffffffffffffffffffffffffffffffffff\n      and\n      dup2\n      mstore\n      0x20\n      add\n      swap1\n      dup2\n      mstore\n      0x20\n      add\n      0x00\n      keccak256\n        /* \"contracts/auction2.sol\":2890:2920  returnsPending[msg.sender] = 0 */\n      dup2\n      swap1\n      sstore\n      pop\n        /* \"contracts/auction2.sol\":2950:2960  msg.sender */\n      caller\n        /* \"contracts/auction2.sol\":2942:2966  payable(msg.sender).send */\n      0xffffffffffffffffffffffffffffffffffffffff\n      and\n        /* \"contracts/auction2.sol\":2942:2977  payable(msg.sender).send(bidAmount) */\n      0x08fc\n        /* \"contracts/auction2.sol\":2967:2976  bidAmount */\n      dup3\n        /* \"contracts/auction2.sol\":2942:2977  payable(msg.sender).send(bidAmount) */\n      swap1\n      dup2\n      iszero\n      mul\n      swap1\n      mload(0x40)\n      0x00\n      mload(0x40)\n      dup1\n      dup4\n      sub\n      dup2\n      dup6\n      dup9\n      dup9\n      call\n      swap4\n      pop\n      pop\n      pop\n      pop\n        /* \"contracts/auction2.sol\":2937:3169  if (!payable(msg.sender).send(bidAmount)) {\r... */\n      tag_108\n      jumpi\n        /* \"contracts/auction2.sol\":3113:3122  bidAmount */\n      dup1\n        /* \"contracts/auction2.sol\":3084:3098  returnsPending */\n      0x04\n        /* \"contracts/auction2.sol\":3084:3110  returnsPending[msg.sender] */\n      0x00\n        /* \"contracts/auction2.sol\":3099:3109  msg.sender */\n      caller\n        /* \"contracts/auction2.sol\":3084:3110  returnsPending[msg.sender] */\n      0xffffffffffffffffffffffffffffffffffffffff\n      and\n      0xffffffffffffffffffffffffffffffffffffffff\n      and\n      dup2\n      mstore\n      0x20\n      add\n      swap1\n      dup2\n      mstore\n      0x20\n      add\n      0x00\n      keccak256\n        /* \"contracts/auction2.sol\":3084:3122  returnsPending[msg.sender] = bidAmount */\n      dup2\n      swap1\n      sstore\n      pop\n        /* \"contracts/auction2.sol\":3148:3153  false */\n      0x00\n        /* \"contracts/auction2.sol\":3141:3153  return false */\n      swap2\n      pop\n      pop\n      jump(tag_105)\n        /* \"contracts/auction2.sol\":2937:3169  if (!payable(msg.sender).send(bidAmount)) {\r... */\n    tag_108:\n        /* \"contracts/auction2.sol\":2668:3180  if (bidAmount > 0) {\r... */\n    tag_106:\n        /* \"contracts/auction2.sol\":3197:3201  true */\n      0x01\n        /* \"contracts/auction2.sol\":3190:3201  return true */\n      swap2\n      pop\n      pop\n        /* \"contracts/auction2.sol\":2561:3209  function withdraw() public returns (bool) {\r... */\n    tag_105:\n      swap1\n      jump\t// out\n        /* \"contracts/auction2.sol\":398:416  uint public topBid */\n    tag_45:\n      sload(0x03)\n      dup2\n      jump\t// out\n        /* \"contracts/delivery.sol\":2236:3091  function buyerApproval(address payable courierEA, bool approved) public payable{\r... */\n    tag_50:\n        /* \"contracts/delivery.sol\":2348:2355  Courier */\n      0x0a\n        /* \"contracts/delivery.sol\":2348:2366  Courier[courierEA] */\n      0x00\n        /* \"contracts/delivery.sol\":2356:2365  courierEA */\n      dup4\n        /* \"contracts/delivery.sol\":2348:2366  Courier[courierEA] */\n      0xffffffffffffffffffffffffffffffffffffffff\n      and\n      0xffffffffffffffffffffffffffffffffffffffff\n      and\n      dup2\n      mstore\n      0x20\n      add\n      swap1\n      dup2\n      mstore\n      0x20\n      add\n      0x00\n      keccak256\n        /* \"contracts/delivery.sol\":2348:2374  Courier[courierEA].buyerEA */\n      0x01\n      add\n      0x00\n      swap1\n      sload\n      swap1\n      0x0100\n      exp\n      swap1\n      div\n      0xffffffffffffffffffffffffffffffffffffffff\n      and\n        /* \"contracts/delivery.sol\":2334:2374  msg.sender == Courier[courierEA].buyerEA */\n      0xffffffffffffffffffffffffffffffffffffffff\n      and\n        /* \"contracts/delivery.sol\":2334:2344  msg.sender */\n      caller\n        /* \"contracts/delivery.sol\":2334:2374  msg.sender == Courier[courierEA].buyerEA */\n      0xffffffffffffffffffffffffffffffffffffffff\n      and\n      eq\n        /* \"contracts/delivery.sol\":2326:2396  require(msg.sender == Courier[courierEA].buyerEA, \"NOT_CORRECT_BUYER\") */\n      tag_110\n      jumpi\n      mload(0x40)\n      0x08c379a000000000000000000000000000000000000000000000000000000000\n      dup2\n      mstore\n      0x04\n      add\n      tag_111\n      swap1\n      tag_112\n      jump\t// in\n    tag_111:\n      mload(0x40)\n      dup1\n      swap2\n      sub\n      swap1\n      revert\n    tag_110:\n        /* \"contracts/delivery.sol\":2410:2418  approved */\n      dup1\n        /* \"contracts/delivery.sol\":2407:3084  if(approved){\r... */\n      iszero\n      tag_113\n      jumpi\n        /* \"contracts/delivery.sol\":2434:2441  Courier */\n      0x0a\n        /* \"contracts/delivery.sol\":2434:2452  Courier[courierEA] */\n      0x00\n        /* \"contracts/delivery.sol\":2442:2451  courierEA */\n      dup4\n        /* \"contracts/delivery.sol\":2434:2452  Courier[courierEA] */\n      0xffffffffffffffffffffffffffffffffffffffff\n      and\n      0xffffffffffffffffffffffffffffffffffffffff\n      and\n      dup2\n      mstore\n      0x20\n      add\n      swap1\n      dup2\n      mstore\n      0x20\n      add\n      0x00\n      keccak256\n        /* \"contracts/delivery.sol\":2434:2460  Courier[courierEA].buyerEA */\n      0x01\n      add\n      0x00\n      swap1\n      sload\n      swap1\n      0x0100\n      exp\n      swap1\n      div\n      0xffffffffffffffffffffffffffffffffffffffff\n      and\n        /* \"contracts/delivery.sol\":2434:2469  Courier[courierEA].buyerEA.transfer */\n      0xffffffffffffffffffffffffffffffffffffffff\n      and\n        /* \"contracts/delivery.sol\":2434:2486  Courier[courierEA].buyerEA.transfer(secuirtyDeposit) */\n      0x08fc\n        /* \"contracts/delivery.sol\":2470:2485  secuirtyDeposit */\n      sload(0x06)\n        /* \"contracts/delivery.sol\":2434:2486  Courier[courierEA].buyerEA.transfer(secuirtyDeposit) */\n      swap1\n      dup2\n      iszero\n      mul\n      swap1\n      mload(0x40)\n      0x00\n      mload(0x40)\n      dup1\n      dup4\n      sub\n      dup2\n      dup6\n      dup9\n      dup9\n      call\n      swap4\n      pop\n      pop\n      pop\n      pop\n      iszero\n      dup1\n      iszero\n      tag_115\n      jumpi\n      returndatasize\n      0x00\n      dup1\n      returndatacopy\n      revert(0x00, returndatasize)\n    tag_115:\n      pop\n        /* \"contracts/delivery.sol\":2501:2510  courierEA */\n      dup2\n        /* \"contracts/delivery.sol\":2501:2519  courierEA.transfer */\n      0xffffffffffffffffffffffffffffffffffffffff\n      and\n        /* \"contracts/delivery.sol\":2501:2536  courierEA.transfer(secuirtyDeposit) */\n      0x08fc\n        /* \"contracts/delivery.sol\":2520:2535  secuirtyDeposit */\n      sload(0x06)\n        /* \"contracts/delivery.sol\":2501:2536  courierEA.transfer(secuirtyDeposit) */\n      swap1\n      dup2\n      iszero\n      mul\n      swap1\n      mload(0x40)\n      0x00\n      mload(0x40)\n      dup1\n      dup4\n      sub\n      dup2\n      dup6\n      dup9\n      dup9\n      call\n      swap4\n      pop\n      pop\n      pop\n      pop\n      iszero\n      dup1\n      iszero\n      tag_117\n      jumpi\n      returndatasize\n      0x00\n      dup1\n      returndatacopy\n      revert(0x00, returndatasize)\n    tag_117:\n      pop\n        /* \"contracts/delivery.sol\":2556:2624  successfulDelivery(courierEA, msg.sender, Courier[courierEA].itemSN) */\n      0x8897f9ee0b97132743b5136b8bdd3f12b0cd84cc26f24b110982f26574ce947a\n        /* \"contracts/delivery.sol\":2575:2584  courierEA */\n      dup3\n        /* \"contracts/delivery.sol\":2586:2596  msg.sender */\n      caller\n        /* \"contracts/delivery.sol\":2598:2605  Courier */\n      0x0a\n        /* \"contracts/delivery.sol\":2598:2616  Courier[courierEA] */\n      0x00\n        /* \"contracts/delivery.sol\":2606:2615  courierEA */\n      dup7\n        /* \"contracts/delivery.sol\":2598:2616  Courier[courierEA] */\n      0xffffffffffffffffffffffffffffffffffffffff\n      and\n      0xffffffffffffffffffffffffffffffffffffffff\n      and\n      dup2\n      mstore\n      0x20\n      add\n      swap1\n      dup2\n      mstore\n      0x20\n      add\n      0x00\n      keccak256\n        /* \"contracts/delivery.sol\":2598:2623  Courier[courierEA].itemSN */\n      0x00\n      add\n      sload\n        /* \"contracts/delivery.sol\":2556:2624  successfulDelivery(courierEA, msg.sender, Courier[courierEA].itemSN) */\n      mload(0x40)\n      tag_118\n      swap4\n      swap3\n      swap2\n      swap1\n      tag_119\n      jump\t// in\n    tag_118:\n      mload(0x40)\n      dup1\n      swap2\n      sub\n      swap1\n      log1\n        /* \"contracts/delivery.sol\":2646:2653  Courier */\n      0x0a\n        /* \"contracts/delivery.sol\":2646:2664  Courier[courierEA] */\n      0x00\n        /* \"contracts/delivery.sol\":2654:2663  courierEA */\n      dup4\n        /* \"contracts/delivery.sol\":2646:2664  Courier[courierEA] */\n      0xffffffffffffffffffffffffffffffffffffffff\n      and\n      0xffffffffffffffffffffffffffffffffffffffff\n      and\n      dup2\n      mstore\n      0x20\n      add\n      swap1\n      dup2\n      mstore\n      0x20\n      add\n      0x00\n      keccak256\n      0x00\n        /* \"contracts/delivery.sol\":2639:2665  delete(Courier[courierEA]) */\n      dup1\n      dup3\n      add\n      0x00\n      swap1\n      sstore\n      0x01\n      dup3\n      add\n      exp(0x0100, 0x00)\n      dup2\n      sload\n      swap1\n      0xffffffffffffffffffffffffffffffffffffffff\n      mul\n      not\n      and\n      swap1\n      sstore\n      0x01\n      dup3\n      add\n      exp(0x0100, 0x14)\n      dup2\n      sload\n      swap1\n      0xff\n      mul\n      not\n      and\n      swap1\n      sstore\n      0x01\n      dup3\n      add\n      exp(0x0100, 0x15)\n      dup2\n      sload\n      swap1\n      0xff\n      mul\n      not\n      and\n      swap1\n      sstore\n      0x01\n      dup3\n      add\n      exp(0x0100, 0x16)\n      dup2\n      sload\n      swap1\n      0xff\n      mul\n      not\n      and\n      swap1\n      sstore\n      pop\n      pop\n        /* \"contracts/delivery.sol\":2929:2949  super._transferBid() */\n      tag_120\n        /* \"contracts/delivery.sol\":2929:2947  super._transferBid */\n      tag_121\n        /* \"contracts/delivery.sol\":2929:2949  super._transferBid() */\n      jump\t// in\n    tag_120:\n        /* \"contracts/delivery.sol\":2407:3084  if(approved){\r... */\n      jump(tag_122)\n    tag_113:\n        /* \"contracts/delivery.sol\":3008:3072  failedDelivery(courierEA, msg.sender, Courier[courierEA].itemSN) */\n      0xf3c2f9fa19a0ebffe725717eca65593127a0ac4bbc20734940bd1247fb322a16\n        /* \"contracts/delivery.sol\":3023:3032  courierEA */\n      dup3\n        /* \"contracts/delivery.sol\":3034:3044  msg.sender */\n      caller\n        /* \"contracts/delivery.sol\":3046:3053  Courier */\n      0x0a\n        /* \"contracts/delivery.sol\":3046:3064  Courier[courierEA] */\n      0x00\n        /* \"contracts/delivery.sol\":3054:3063  courierEA */\n      dup7\n        /* \"contracts/delivery.sol\":3046:3064  Courier[courierEA] */\n      0xffffffffffffffffffffffffffffffffffffffff\n      and\n      0xffffffffffffffffffffffffffffffffffffffff\n      and\n      dup2\n      mstore\n      0x20\n      add\n      swap1\n      dup2\n      mstore\n      0x20\n      add\n      0x00\n      keccak256\n        /* \"contracts/delivery.sol\":3046:3071  Courier[courierEA].itemSN */\n      0x00\n      add\n      sload\n        /* \"contracts/delivery.sol\":3008:3072  failedDelivery(courierEA, msg.sender, Courier[courierEA].itemSN) */\n      mload(0x40)\n      tag_123\n      swap4\n      swap3\n      swap2\n      swap1\n      tag_119\n      jump\t// in\n    tag_123:\n      mload(0x40)\n      dup1\n      swap2\n      sub\n      swap1\n      log1\n        /* \"contracts/delivery.sol\":2407:3084  if(approved){\r... */\n    tag_122:\n        /* \"contracts/delivery.sol\":2236:3091  function buyerApproval(address payable courierEA, bool approved) public payable{\r... */\n      pop\n      pop\n      jump\t// out\n        /* \"contracts/delivery.sol\":1806:2228  function buyerDeposit(address courierEA) public payable{\r... */\n    tag_54:\n        /* \"contracts/delivery.sol\":1894:1901  Courier */\n      0x0a\n        /* \"contracts/delivery.sol\":1894:1912  Courier[courierEA] */\n      0x00\n        /* \"contracts/delivery.sol\":1902:1911  courierEA */\n      dup3\n        /* \"contracts/delivery.sol\":1894:1912  Courier[courierEA] */\n      0xffffffffffffffffffffffffffffffffffffffff\n      and\n      0xffffffffffffffffffffffffffffffffffffffff\n      and\n      dup2\n      mstore\n      0x20\n      add\n      swap1\n      dup2\n      mstore\n      0x20\n      add\n      0x00\n      keccak256\n        /* \"contracts/delivery.sol\":1894:1920  Courier[courierEA].buyerEA */\n      0x01\n      add\n      0x00\n      swap1\n      sload\n      swap1\n      0x0100\n      exp\n      swap1\n      div\n      0xffffffffffffffffffffffffffffffffffffffff\n      and\n        /* \"contracts/delivery.sol\":1880:1920  msg.sender == Courier[courierEA].buyerEA */\n      0xffffffffffffffffffffffffffffffffffffffff\n      and\n        /* \"contracts/delivery.sol\":1880:1890  msg.sender */\n      caller\n        /* \"contracts/delivery.sol\":1880:1920  msg.sender == Courier[courierEA].buyerEA */\n      0xffffffffffffffffffffffffffffffffffffffff\n      and\n      eq\n        /* \"contracts/delivery.sol\":1872:1942  require(msg.sender == Courier[courierEA].buyerEA, \"NOT_CORRECT_BUYER\") */\n      tag_125\n      jumpi\n      mload(0x40)\n      0x08c379a000000000000000000000000000000000000000000000000000000000\n      dup2\n      mstore\n      0x04\n      add\n      tag_126\n      swap1\n      tag_112\n      jump\t// in\n    tag_126:\n      mload(0x40)\n      dup1\n      swap2\n      sub\n      swap1\n      revert\n    tag_125:\n        /* \"contracts/delivery.sol\":1974:1989  secuirtyDeposit */\n      sload(0x06)\n        /* \"contracts/delivery.sol\":1961:1970  msg.value */\n      callvalue\n        /* \"contracts/delivery.sol\":1961:1989  msg.value == secuirtyDeposit */\n      eq\n        /* \"contracts/delivery.sol\":1953:2010  require(msg.value == secuirtyDeposit, \"NOT_ENOUGH_ETHER\") */\n      tag_127\n      jumpi\n      mload(0x40)\n      0x08c379a000000000000000000000000000000000000000000000000000000000\n      dup2\n      mstore\n      0x04\n      add\n      tag_128\n      swap1\n      tag_129\n      jump\t// in\n    tag_128:\n      mload(0x40)\n      dup1\n      swap2\n      sub\n      swap1\n      revert\n    tag_127:\n        /* \"contracts/delivery.sol\":2029:2036  Courier */\n      0x0a\n        /* \"contracts/delivery.sol\":2029:2047  Courier[courierEA] */\n      0x00\n        /* \"contracts/delivery.sol\":2037:2046  courierEA */\n      dup3\n        /* \"contracts/delivery.sol\":2029:2047  Courier[courierEA] */\n      0xffffffffffffffffffffffffffffffffffffffff\n      and\n      0xffffffffffffffffffffffffffffffffffffffff\n      and\n      dup2\n      mstore\n      0x20\n      add\n      swap1\n      dup2\n      mstore\n      0x20\n      add\n      0x00\n      keccak256\n        /* \"contracts/delivery.sol\":2029:2059  Courier[courierEA].courierPaid */\n      0x01\n      add\n      0x14\n      swap1\n      sload\n      swap1\n      0x0100\n      exp\n      swap1\n      div\n      0xff\n      and\n        /* \"contracts/delivery.sol\":2021:2074  require(Courier[courierEA].courierPaid, \"NO_DEPOSIT\") */\n      tag_130\n      jumpi\n      mload(0x40)\n      0x08c379a000000000000000000000000000000000000000000000000000000000\n      dup2\n      mstore\n      0x04\n      add\n      tag_131\n      swap1\n      tag_132\n      jump\t// in\n    tag_131:\n      mload(0x40)\n      dup1\n      swap2\n      sub\n      swap1\n      revert\n    tag_130:\n        /* \"contracts/delivery.sol\":2116:2120  true */\n      0x01\n        /* \"contracts/delivery.sol\":2085:2092  Courier */\n      0x0a\n        /* \"contracts/delivery.sol\":2085:2103  Courier[courierEA] */\n      0x00\n        /* \"contracts/delivery.sol\":2093:2102  courierEA */\n      dup4\n        /* \"contracts/delivery.sol\":2085:2103  Courier[courierEA] */\n      0xffffffffffffffffffffffffffffffffffffffff\n      and\n      0xffffffffffffffffffffffffffffffffffffffff\n      and\n      dup2\n      mstore\n      0x20\n      add\n      swap1\n      dup2\n      mstore\n      0x20\n      add\n      0x00\n      keccak256\n        /* \"contracts/delivery.sol\":2085:2113  Courier[courierEA].buyerPaid */\n      0x01\n      add\n      0x15\n        /* \"contracts/delivery.sol\":2085:2120  Courier[courierEA].buyerPaid = true */\n      0x0100\n      exp\n      dup2\n      sload\n      dup2\n      0xff\n      mul\n      not\n      and\n      swap1\n      dup4\n      iszero\n      iszero\n      mul\n      or\n      swap1\n      sstore\n      pop\n        /* \"contracts/delivery.sol\":2157:2161  true */\n      0x01\n        /* \"contracts/delivery.sol\":2131:2138  Courier */\n      0x0a\n        /* \"contracts/delivery.sol\":2131:2149  Courier[courierEA] */\n      0x00\n        /* \"contracts/delivery.sol\":2139:2148  courierEA */\n      dup4\n        /* \"contracts/delivery.sol\":2131:2149  Courier[courierEA] */\n      0xffffffffffffffffffffffffffffffffffffffff\n      and\n      0xffffffffffffffffffffffffffffffffffffffff\n      and\n      dup2\n      mstore\n      0x20\n      add\n      swap1\n      dup2\n      mstore\n      0x20\n      add\n      0x00\n      keccak256\n        /* \"contracts/delivery.sol\":2131:2154  Courier[courierEA].busy */\n      0x01\n      add\n      0x16\n        /* \"contracts/delivery.sol\":2131:2161  Courier[courierEA].busy = true */\n      0x0100\n      exp\n      dup2\n      sload\n      dup2\n      0xff\n      mul\n      not\n      and\n      swap1\n      dup4\n      iszero\n      iszero\n      mul\n      or\n      swap1\n      sstore\n      pop\n        /* \"contracts/delivery.sol\":2177:2220  startDelivery(courierEA,   block.timestamp) */\n      0x58e5c8cf0e372bb45b1e9dd58eb576874f2991fac3a526831c2850c73fa9a919\n        /* \"contracts/delivery.sol\":2191:2200  courierEA */\n      dup2\n        /* \"contracts/delivery.sol\":2204:2219  block.timestamp */\n      timestamp\n        /* \"contracts/delivery.sol\":2177:2220  startDelivery(courierEA,   block.timestamp) */\n      mload(0x40)\n      tag_133\n      swap3\n      swap2\n      swap1\n      tag_104\n      jump\t// in\n    tag_133:\n      mload(0x40)\n      dup1\n      swap2\n      sub\n      swap1\n      log1\n        /* \"contracts/delivery.sol\":1806:2228  function buyerDeposit(address courierEA) public payable{\r... */\n      pop\n      jump\t// out\n        /* \"contracts/delivery.sol\":1305:1798  function courierEstablishDelivery(address payable _buyerEA, uint256 _itemSN) public payable{\r... */\n    tag_58:\n        /* \"contracts/delivery.sol\":1428:1443  secuirtyDeposit */\n      sload(0x06)\n        /* \"contracts/delivery.sol\":1415:1424  msg.value */\n      callvalue\n        /* \"contracts/delivery.sol\":1415:1443  msg.value == secuirtyDeposit */\n      eq\n        /* \"contracts/delivery.sol\":1407:1464  require(msg.value == secuirtyDeposit, \"NOT_ENOUGH_ETHER\") */\n      tag_135\n      jumpi\n      mload(0x40)\n      0x08c379a000000000000000000000000000000000000000000000000000000000\n      dup2\n      mstore\n      0x04\n      add\n      tag_136\n      swap1\n      tag_129\n      jump\t// in\n    tag_136:\n      mload(0x40)\n      dup1\n      swap2\n      sub\n      swap1\n      revert\n    tag_135:\n        /* \"contracts/delivery.sol\":1507:1515  _buyerEA */\n      dup2\n        /* \"contracts/delivery.sol\":1483:1515  itemToBuyer[_itemSN] == _buyerEA */\n      0xffffffffffffffffffffffffffffffffffffffff\n      and\n        /* \"contracts/delivery.sol\":1483:1494  itemToBuyer */\n      0x09\n        /* \"contracts/delivery.sol\":1483:1503  itemToBuyer[_itemSN] */\n      0x00\n        /* \"contracts/delivery.sol\":1495:1502  _itemSN */\n      dup4\n        /* \"contracts/delivery.sol\":1483:1503  itemToBuyer[_itemSN] */\n      dup2\n      mstore\n      0x20\n      add\n      swap1\n      dup2\n      mstore\n      0x20\n      add\n      0x00\n      keccak256\n      0x00\n      swap1\n      sload\n      swap1\n      0x0100\n      exp\n      swap1\n      div\n      0xffffffffffffffffffffffffffffffffffffffff\n      and\n        /* \"contracts/delivery.sol\":1483:1515  itemToBuyer[_itemSN] == _buyerEA */\n      0xffffffffffffffffffffffffffffffffffffffff\n      and\n      eq\n        /* \"contracts/delivery.sol\":1475:1536  require(itemToBuyer[_itemSN] == _buyerEA, \"ERROR_BUYER_ITEM\") */\n      tag_137\n      jumpi\n      mload(0x40)\n      0x08c379a000000000000000000000000000000000000000000000000000000000\n      dup2\n      mstore\n      0x04\n      add\n      tag_138\n      swap1\n      tag_139\n      jump\t// in\n    tag_138:\n      mload(0x40)\n      dup1\n      swap2\n      sub\n      swap1\n      revert\n    tag_137:\n        /* \"contracts/delivery.sol\":1556:1563  Courier */\n      0x0a\n        /* \"contracts/delivery.sol\":1556:1575  Courier[msg.sender] */\n      0x00\n        /* \"contracts/delivery.sol\":1564:1574  msg.sender */\n      caller\n        /* \"contracts/delivery.sol\":1556:1575  Courier[msg.sender] */\n      0xffffffffffffffffffffffffffffffffffffffff\n      and\n      0xffffffffffffffffffffffffffffffffffffffff\n      and\n      dup2\n      mstore\n      0x20\n      add\n      swap1\n      dup2\n      mstore\n      0x20\n      add\n      0x00\n      keccak256\n        /* \"contracts/delivery.sol\":1556:1580  Courier[msg.sender].busy */\n      0x01\n      add\n      0x16\n      swap1\n      sload\n      swap1\n      0x0100\n      exp\n      swap1\n      div\n      0xff\n      and\n        /* \"contracts/delivery.sol\":1555:1580  !Courier[msg.sender].busy */\n      iszero\n        /* \"contracts/delivery.sol\":1547:1604  require(!Courier[msg.sender].busy, \"COURIER_HAS_REQUEST\") */\n      tag_140\n      jumpi\n      mload(0x40)\n      0x08c379a000000000000000000000000000000000000000000000000000000000\n      dup2\n      mstore\n      0x04\n      add\n      tag_141\n      swap1\n      tag_142\n      jump\t// in\n    tag_141:\n      mload(0x40)\n      dup1\n      swap2\n      sub\n      swap1\n      revert\n    tag_140:\n        /* \"contracts/delivery.sol\":1644:1651  _itemSN */\n      dup1\n        /* \"contracts/delivery.sol\":1615:1622  Courier */\n      0x0a\n        /* \"contracts/delivery.sol\":1615:1634  Courier[msg.sender] */\n      0x00\n        /* \"contracts/delivery.sol\":1623:1633  msg.sender */\n      caller\n        /* \"contracts/delivery.sol\":1615:1634  Courier[msg.sender] */\n      0xffffffffffffffffffffffffffffffffffffffff\n      and\n      0xffffffffffffffffffffffffffffffffffffffff\n      and\n      dup2\n      mstore\n      0x20\n      add\n      swap1\n      dup2\n      mstore\n      0x20\n      add\n      0x00\n      keccak256\n        /* \"contracts/delivery.sol\":1615:1641  Courier[msg.sender].itemSN */\n      0x00\n      add\n        /* \"contracts/delivery.sol\":1615:1651  Courier[msg.sender].itemSN = _itemSN */\n      dup2\n      swap1\n      sstore\n      pop\n        /* \"contracts/delivery.sol\":1692:1700  _buyerEA */\n      dup2\n        /* \"contracts/delivery.sol\":1662:1669  Courier */\n      0x0a\n        /* \"contracts/delivery.sol\":1662:1681  Courier[msg.sender] */\n      0x00\n        /* \"contracts/delivery.sol\":1670:1680  msg.sender */\n      caller\n        /* \"contracts/delivery.sol\":1662:1681  Courier[msg.sender] */\n      0xffffffffffffffffffffffffffffffffffffffff\n      and\n      0xffffffffffffffffffffffffffffffffffffffff\n      and\n      dup2\n      mstore\n      0x20\n      add\n      swap1\n      dup2\n      mstore\n      0x20\n      add\n      0x00\n      keccak256\n        /* \"contracts/delivery.sol\":1662:1689  Courier[msg.sender].buyerEA */\n      0x01\n      add\n      0x00\n        /* \"contracts/delivery.sol\":1662:1700  Courier[msg.sender].buyerEA = _buyerEA */\n      0x0100\n      exp\n      dup2\n      sload\n      dup2\n      0xffffffffffffffffffffffffffffffffffffffff\n      mul\n      not\n      and\n      swap1\n      dup4\n      0xffffffffffffffffffffffffffffffffffffffff\n      and\n      mul\n      or\n      swap1\n      sstore\n      pop\n        /* \"contracts/delivery.sol\":1745:1749  true */\n      0x01\n        /* \"contracts/delivery.sol\":1711:1718  Courier */\n      0x0a\n        /* \"contracts/delivery.sol\":1711:1730  Courier[msg.sender] */\n      0x00\n        /* \"contracts/delivery.sol\":1719:1729  msg.sender */\n      caller\n        /* \"contracts/delivery.sol\":1711:1730  Courier[msg.sender] */\n      0xffffffffffffffffffffffffffffffffffffffff\n      and\n      0xffffffffffffffffffffffffffffffffffffffff\n      and\n      dup2\n      mstore\n      0x20\n      add\n      swap1\n      dup2\n      mstore\n      0x20\n      add\n      0x00\n      keccak256\n        /* \"contracts/delivery.sol\":1711:1742  Courier[msg.sender].courierPaid */\n      0x01\n      add\n      0x14\n        /* \"contracts/delivery.sol\":1711:1749  Courier[msg.sender].courierPaid = true */\n      0x0100\n      exp\n      dup2\n      sload\n      dup2\n      0xff\n      mul\n      not\n      and\n      swap1\n      dup4\n      iszero\n      iszero\n      mul\n      or\n      swap1\n      sstore\n      pop\n        /* \"contracts/delivery.sol\":1765:1790  deliveryTaken(msg.sender) */\n      0x7b9c25afa0bac55b5d0102b9327c25304e59da6405a1adbbe32d5a4c0f27158d\n        /* \"contracts/delivery.sol\":1779:1789  msg.sender */\n      caller\n        /* \"contracts/delivery.sol\":1765:1790  deliveryTaken(msg.sender) */\n      mload(0x40)\n      tag_143\n      swap2\n      swap1\n      tag_26\n      jump\t// in\n    tag_143:\n      mload(0x40)\n      dup1\n      swap2\n      sub\n      swap1\n      log1\n        /* \"contracts/delivery.sol\":1305:1798  function courierEstablishDelivery(address payable _buyerEA, uint256 _itemSN) public payable{\r... */\n      pop\n      pop\n      jump\t// out\n        /* \"contracts/auction2.sol\":3292:4407  function auctionClosed() public {\r... */\n    tag_61:\n        /* \"contracts/auction2.sol\":4099:4111  auctionClose */\n      sload(0x01)\n        /* \"contracts/auction2.sol\":4080:4095  block.timestamp */\n      timestamp\n        /* \"contracts/auction2.sol\":4080:4111  block.timestamp >= auctionClose */\n      lt\n      iszero\n        /* \"contracts/auction2.sol\":4072:4112  require(block.timestamp >= auctionClose) */\n      tag_145\n      jumpi\n      0x00\n      dup1\n      revert\n    tag_145:\n        /* \"contracts/auction2.sol\":4159:4174  auctionComplete */\n      0x05\n      0x00\n      swap1\n      sload\n      swap1\n      0x0100\n      exp\n      swap1\n      div\n      0xff\n      and\n        /* \"contracts/auction2.sol\":4158:4174  !auctionComplete */\n      iszero\n        /* \"contracts/auction2.sol\":4150:4175  require(!auctionComplete) */\n      tag_146\n      jumpi\n      0x00\n      dup1\n      revert\n    tag_146:\n        /* \"contracts/auction2.sol\":4270:4274  true */\n      0x01\n        /* \"contracts/auction2.sol\":4252:4267  auctionComplete */\n      0x05\n      0x00\n        /* \"contracts/auction2.sol\":4252:4274  auctionComplete = true */\n      0x0100\n      exp\n      dup2\n      sload\n      dup2\n      0xff\n      mul\n      not\n      and\n      swap1\n      dup4\n      iszero\n      iszero\n      mul\n      or\n      swap1\n      sstore\n      pop\n        /* \"contracts/auction2.sol\":4290:4322  auctionResult(topBidder, topBid) */\n      0xc9b64caa2aa57493e3a2b3087a613ad4168386aa000be494a8a41cd06bd3844a\n        /* \"contracts/auction2.sol\":4304:4313  topBidder */\n      0x02\n      0x00\n      swap1\n      sload\n      swap1\n      0x0100\n      exp\n      swap1\n      div\n      0xffffffffffffffffffffffffffffffffffffffff\n      and\n        /* \"contracts/auction2.sol\":4315:4321  topBid */\n      sload(0x03)\n        /* \"contracts/auction2.sol\":4290:4322  auctionResult(topBidder, topBid) */\n      mload(0x40)\n      tag_147\n      swap3\n      swap2\n      swap1\n      tag_104\n      jump\t// in\n    tag_147:\n      mload(0x40)\n      dup1\n      swap2\n      sub\n      swap1\n      log1\n        /* \"contracts/auction2.sol\":3292:4407  function auctionClosed() public {\r... */\n      jump\t// out\n        /* \"contracts/auction2.sol\":1115:1295  function SimpleAuctions(uint _biddingTime, address _beneficiary) public {\r... */\n    tag_66:\n        /* \"contracts/auction2.sol\":1219:1231  _beneficiary */\n      dup1\n        /* \"contracts/auction2.sol\":1198:1216  beneficiaryAddress */\n      0x00\n      dup1\n        /* \"contracts/auction2.sol\":1198:1231  beneficiaryAddress = _beneficiary */\n      0x0100\n      exp\n      dup2\n      sload\n      dup2\n      0xffffffffffffffffffffffffffffffffffffffff\n      mul\n      not\n      and\n      swap1\n      dup4\n      0xffffffffffffffffffffffffffffffffffffffff\n      and\n      mul\n      or\n      swap1\n      sstore\n      pop\n        /* \"contracts/auction2.sol\":1275:1287  _biddingTime */\n      dup2\n        /* \"contracts/auction2.sol\":1257:1272  block.timestamp */\n      timestamp\n        /* \"contracts/auction2.sol\":1257:1287  block.timestamp + _biddingTime */\n      tag_149\n      swap2\n      swap1\n      tag_102\n      jump\t// in\n    tag_149:\n        /* \"contracts/auction2.sol\":1242:1254  auctionClose */\n      0x01\n        /* \"contracts/auction2.sol\":1242:1287  auctionClose = block.timestamp + _biddingTime */\n      dup2\n      swap1\n      sstore\n      pop\n        /* \"contracts/auction2.sol\":1115:1295  function SimpleAuctions(uint _biddingTime, address _beneficiary) public {\r... */\n      pop\n      pop\n      jump\t// out\n        /* \"contracts/delivery.sol\":3099:3222  function returnDeposit(address payable accountEA) external onlyRetail{\r... */\n    tag_71:\n        /* \"contracts/delivery.sol\":1016:1027  retailStore */\n      0x05\n      0x01\n      swap1\n      sload\n      swap1\n      0x0100\n      exp\n      swap1\n      div\n      0xffffffffffffffffffffffffffffffffffffffff\n      and\n        /* \"contracts/delivery.sol\":1002:1027  msg.sender == retailStore */\n      0xffffffffffffffffffffffffffffffffffffffff\n      and\n        /* \"contracts/delivery.sol\":1002:1012  msg.sender */\n      caller\n        /* \"contracts/delivery.sol\":1002:1027  msg.sender == retailStore */\n      0xffffffffffffffffffffffffffffffffffffffff\n      and\n      eq\n        /* \"contracts/delivery.sol\":994:1048  require(msg.sender == retailStore, \"NOT_RETAIL_STORE\") */\n      tag_151\n      jumpi\n      mload(0x40)\n      0x08c379a000000000000000000000000000000000000000000000000000000000\n      dup2\n      mstore\n      0x04\n      add\n      tag_152\n      swap1\n      tag_153\n      jump\t// in\n    tag_152:\n      mload(0x40)\n      dup1\n      swap2\n      sub\n      swap1\n      revert\n    tag_151:\n        /* \"contracts/delivery.sol\":3179:3188  accountEA */\n      dup1\n        /* \"contracts/delivery.sol\":3179:3197  accountEA.transfer */\n      0xffffffffffffffffffffffffffffffffffffffff\n      and\n        /* \"contracts/delivery.sol\":3179:3214  accountEA.transfer(secuirtyDeposit) */\n      0x08fc\n        /* \"contracts/delivery.sol\":3198:3213  secuirtyDeposit */\n      sload(0x06)\n        /* \"contracts/delivery.sol\":3179:3214  accountEA.transfer(secuirtyDeposit) */\n      swap1\n      dup2\n      iszero\n      mul\n      swap1\n      mload(0x40)\n      0x00\n      mload(0x40)\n      dup1\n      dup4\n      sub\n      dup2\n      dup6\n      dup9\n      dup9\n      call\n      swap4\n      pop\n      pop\n      pop\n      pop\n      iszero\n      dup1\n      iszero\n      tag_156\n      jumpi\n      returndatasize\n      0x00\n      dup1\n      returndatacopy\n      revert(0x00, returndatasize)\n    tag_156:\n      pop\n        /* \"contracts/delivery.sol\":3099:3222  function returnDeposit(address payable accountEA) external onlyRetail{\r... */\n      pop\n      jump\t// out\n        /* \"contracts/delivery.sol\":3230:3324  function changeDeposit(uint _fee) external onlyRetail{\r... */\n    tag_76:\n        /* \"contracts/delivery.sol\":1016:1027  retailStore */\n      0x05\n      0x01\n      swap1\n      sload\n      swap1\n      0x0100\n      exp\n      swap1\n      div\n      0xffffffffffffffffffffffffffffffffffffffff\n      and\n        /* \"contracts/delivery.sol\":1002:1027  msg.sender == retailStore */\n      0xffffffffffffffffffffffffffffffffffffffff\n      and\n        /* \"contracts/delivery.sol\":1002:1012  msg.sender */\n      caller\n        /* \"contracts/delivery.sol\":1002:1027  msg.sender == retailStore */\n      0xffffffffffffffffffffffffffffffffffffffff\n      and\n      eq\n        /* \"contracts/delivery.sol\":994:1048  require(msg.sender == retailStore, \"NOT_RETAIL_STORE\") */\n      tag_158\n      jumpi\n      mload(0x40)\n      0x08c379a000000000000000000000000000000000000000000000000000000000\n      dup2\n      mstore\n      0x04\n      add\n      tag_159\n      swap1\n      tag_153\n      jump\t// in\n    tag_159:\n      mload(0x40)\n      dup1\n      swap2\n      sub\n      swap1\n      revert\n    tag_158:\n        /* \"contracts/delivery.sol\":3312:3316  _fee */\n      dup1\n        /* \"contracts/delivery.sol\":3294:3309  secuirtyDeposit */\n      0x06\n        /* \"contracts/delivery.sol\":3294:3316  secuirtyDeposit = _fee */\n      dup2\n      swap1\n      sstore\n      pop\n        /* \"contracts/delivery.sol\":3230:3324  function changeDeposit(uint _fee) external onlyRetail{\r... */\n      pop\n      jump\t// out\n        /* \"contracts/delivery.sol\":143:169  address public retailStore */\n    tag_79:\n      0x05\n      0x01\n      swap1\n      sload\n      swap1\n      0x0100\n      exp\n      swap1\n      div\n      0xffffffffffffffffffffffffffffffffffffffff\n      and\n      dup2\n      jump\t// out\n        /* \"contracts/auction2.sol\":256:289  address public beneficiaryAddress */\n    tag_83:\n      0x00\n      dup1\n      sload\n      swap1\n      0x0100\n      exp\n      swap1\n      div\n      0xffffffffffffffffffffffffffffffffffffffff\n      and\n      dup2\n      jump\t// out\n        /* \"contracts/delivery.sol\":1076:1297  function approveBuyer(address _buyerEA, uint256 _itemSN) external onlyRetail{\r... */\n    tag_89:\n        /* \"contracts/delivery.sol\":1016:1027  retailStore */\n      0x05\n      0x01\n      swap1\n      sload\n      swap1\n      0x0100\n      exp\n      swap1\n      div\n      0xffffffffffffffffffffffffffffffffffffffff\n      and\n        /* \"contracts/delivery.sol\":1002:1027  msg.sender == retailStore */\n      0xffffffffffffffffffffffffffffffffffffffff\n      and\n        /* \"contracts/delivery.sol\":1002:1012  msg.sender */\n      caller\n        /* \"contracts/delivery.sol\":1002:1027  msg.sender == retailStore */\n      0xffffffffffffffffffffffffffffffffffffffff\n      and\n      eq\n        /* \"contracts/delivery.sol\":994:1048  require(msg.sender == retailStore, \"NOT_RETAIL_STORE\") */\n      tag_162\n      jumpi\n      mload(0x40)\n      0x08c379a000000000000000000000000000000000000000000000000000000000\n      dup2\n      mstore\n      0x04\n      add\n      tag_163\n      swap1\n      tag_153\n      jump\t// in\n    tag_163:\n      mload(0x40)\n      dup1\n      swap2\n      sub\n      swap1\n      revert\n    tag_162:\n        /* \"contracts/delivery.sol\":1189:1193  true */\n      0x01\n        /* \"contracts/delivery.sol\":1163:1176  approvedBuyer */\n      0x07\n        /* \"contracts/delivery.sol\":1163:1186  approvedBuyer[_buyerEA] */\n      0x00\n        /* \"contracts/delivery.sol\":1177:1185  _buyerEA */\n      dup5\n        /* \"contracts/delivery.sol\":1163:1186  approvedBuyer[_buyerEA] */\n      0xffffffffffffffffffffffffffffffffffffffff\n      and\n      0xffffffffffffffffffffffffffffffffffffffff\n      and\n      dup2\n      mstore\n      0x20\n      add\n      swap1\n      dup2\n      mstore\n      0x20\n      add\n      0x00\n      keccak256\n      0x00\n        /* \"contracts/delivery.sol\":1163:1193  approvedBuyer[_buyerEA] = true */\n      0x0100\n      exp\n      dup2\n      sload\n      dup2\n      0xff\n      mul\n      not\n      and\n      swap1\n      dup4\n      iszero\n      iszero\n      mul\n      or\n      swap1\n      sstore\n      pop\n        /* \"contracts/delivery.sol\":1227:1235  _buyerEA */\n      dup2\n        /* \"contracts/delivery.sol\":1204:1215  itemToBuyer */\n      0x09\n        /* \"contracts/delivery.sol\":1204:1224  itemToBuyer[_itemSN] */\n      0x00\n        /* \"contracts/delivery.sol\":1216:1223  _itemSN */\n      dup4\n        /* \"contracts/delivery.sol\":1204:1224  itemToBuyer[_itemSN] */\n      dup2\n      mstore\n      0x20\n      add\n      swap1\n      dup2\n      mstore\n      0x20\n      add\n      0x00\n      keccak256\n      0x00\n        /* \"contracts/delivery.sol\":1204:1235  itemToBuyer[_itemSN] = _buyerEA */\n      0x0100\n      exp\n      dup2\n      sload\n      dup2\n      0xffffffffffffffffffffffffffffffffffffffff\n      mul\n      not\n      and\n      swap1\n      dup4\n      0xffffffffffffffffffffffffffffffffffffffff\n      and\n      mul\n      or\n      swap1\n      sstore\n      pop\n        /* \"contracts/delivery.sol\":1251:1289  newDeliveryRequest( _buyerEA, _itemSN) */\n      0x7f425b0e1445bb744dd2714b48e6a4d17fb072590bc65faa8e704ec44d99bb6a\n        /* \"contracts/delivery.sol\":1271:1279  _buyerEA */\n      dup3\n        /* \"contracts/delivery.sol\":1281:1288  _itemSN */\n      dup3\n        /* \"contracts/delivery.sol\":1251:1289  newDeliveryRequest( _buyerEA, _itemSN) */\n      mload(0x40)\n      tag_165\n      swap3\n      swap2\n      swap1\n      tag_104\n      jump\t// in\n    tag_165:\n      mload(0x40)\n      dup1\n      swap2\n      sub\n      swap1\n      log1\n        /* \"contracts/delivery.sol\":1076:1297  function approveBuyer(address _buyerEA, uint256 _itemSN) external onlyRetail{\r... */\n      pop\n      pop\n      jump\t// out\n        /* \"contracts/delivery.sol\":350:397  mapping(address => Courier_Type) public Courier */\n    tag_93:\n      mstore(0x20, 0x0a)\n      dup1\n      0x00\n      mstore\n      keccak256(0x00, 0x40)\n      0x00\n      swap2\n      pop\n      swap1\n      pop\n      dup1\n      0x00\n      add\n      sload\n      swap1\n      dup1\n      0x01\n      add\n      0x00\n      swap1\n      sload\n      swap1\n      0x0100\n      exp\n      swap1\n      div\n      0xffffffffffffffffffffffffffffffffffffffff\n      and\n      swap1\n      dup1\n      0x01\n      add\n      0x14\n      swap1\n      sload\n      swap1\n      0x0100\n      exp\n      swap1\n      div\n      0xff\n      and\n      swap1\n      dup1\n      0x01\n      add\n      0x15\n      swap1\n      sload\n      swap1\n      0x0100\n      exp\n      swap1\n      div\n      0xff\n      and\n      swap1\n      dup1\n      0x01\n      add\n      0x16\n      swap1\n      sload\n      swap1\n      0x0100\n      exp\n      swap1\n      div\n      0xff\n      and\n      swap1\n      pop\n      dup6\n      jump\t// out\n        /* \"contracts/auction2.sol\":4419:4523  function _transferBid() internal virtual {\r... */\n    tag_121:\n        /* \"contracts/auction2.sol\":4479:4497  beneficiaryAddress */\n      0x00\n      dup1\n      sload\n      swap1\n      0x0100\n      exp\n      swap1\n      div\n      0xffffffffffffffffffffffffffffffffffffffff\n      and\n        /* \"contracts/auction2.sol\":4471:4507  payable(beneficiaryAddress).transfer */\n      0xffffffffffffffffffffffffffffffffffffffff\n      and\n        /* \"contracts/auction2.sol\":4471:4515  payable(beneficiaryAddress).transfer(topBid) */\n      0x08fc\n        /* \"contracts/auction2.sol\":4508:4514  topBid */\n      sload(0x03)\n        /* \"contracts/auction2.sol\":4471:4515  payable(beneficiaryAddress).transfer(topBid) */\n      swap1\n      dup2\n      iszero\n      mul\n      swap1\n      mload(0x40)\n      0x00\n      mload(0x40)\n      dup1\n      dup4\n      sub\n      dup2\n      dup6\n      dup9\n      dup9\n      call\n      swap4\n      pop\n      pop\n      pop\n      pop\n      iszero\n      dup1\n      iszero\n      tag_168\n      jumpi\n      returndatasize\n      0x00\n      dup1\n      returndatacopy\n      revert(0x00, returndatasize)\n    tag_168:\n      pop\n        /* \"contracts/auction2.sol\":4419:4523  function _transferBid() internal virtual {\r... */\n      jump\t// out\n        /* \"#utility.yul\":7:146   */\n    tag_170:\n        /* \"#utility.yul\":53:58   */\n      0x00\n        /* \"#utility.yul\":91:97   */\n      dup2\n        /* \"#utility.yul\":78:98   */\n      calldataload\n        /* \"#utility.yul\":69:98   */\n      swap1\n      pop\n        /* \"#utility.yul\":107:140   */\n      tag_172\n        /* \"#utility.yul\":134:139   */\n      dup2\n        /* \"#utility.yul\":107:140   */\n      tag_173\n      jump\t// in\n    tag_172:\n        /* \"#utility.yul\":59:146   */\n      swap3\n      swap2\n      pop\n      pop\n      jump\t// out\n        /* \"#utility.yul\":152:307   */\n    tag_174:\n        /* \"#utility.yul\":206:211   */\n      0x00\n        /* \"#utility.yul\":244:250   */\n      dup2\n        /* \"#utility.yul\":231:251   */\n      calldataload\n        /* \"#utility.yul\":222:251   */\n      swap1\n      pop\n        /* \"#utility.yul\":260:301   */\n      tag_176\n        /* \"#utility.yul\":295:300   */\n      dup2\n        /* \"#utility.yul\":260:301   */\n      tag_177\n      jump\t// in\n    tag_176:\n        /* \"#utility.yul\":212:307   */\n      swap3\n      swap2\n      pop\n      pop\n      jump\t// out\n        /* \"#utility.yul\":313:446   */\n    tag_178:\n        /* \"#utility.yul\":356:361   */\n      0x00\n        /* \"#utility.yul\":394:400   */\n      dup2\n        /* \"#utility.yul\":381:401   */\n      calldataload\n        /* \"#utility.yul\":372:401   */\n      swap1\n      pop\n        /* \"#utility.yul\":410:440   */\n      tag_180\n        /* \"#utility.yul\":434:439   */\n      dup2\n        /* \"#utility.yul\":410:440   */\n      tag_181\n      jump\t// in\n    tag_180:\n        /* \"#utility.yul\":362:446   */\n      swap3\n      swap2\n      pop\n      pop\n      jump\t// out\n        /* \"#utility.yul\":452:591   */\n    tag_182:\n        /* \"#utility.yul\":498:503   */\n      0x00\n        /* \"#utility.yul\":536:542   */\n      dup2\n        /* \"#utility.yul\":523:543   */\n      calldataload\n        /* \"#utility.yul\":514:543   */\n      swap1\n      pop\n        /* \"#utility.yul\":552:585   */\n      tag_184\n        /* \"#utility.yul\":579:584   */\n      dup2\n        /* \"#utility.yul\":552:585   */\n      tag_185\n      jump\t// in\n    tag_184:\n        /* \"#utility.yul\":504:591   */\n      swap3\n      swap2\n      pop\n      pop\n      jump\t// out\n        /* \"#utility.yul\":597:926   */\n    tag_53:\n        /* \"#utility.yul\":656:662   */\n      0x00\n        /* \"#utility.yul\":705:707   */\n      0x20\n        /* \"#utility.yul\":693:702   */\n      dup3\n        /* \"#utility.yul\":684:691   */\n      dup5\n        /* \"#utility.yul\":680:703   */\n      sub\n        /* \"#utility.yul\":676:708   */\n      slt\n        /* \"#utility.yul\":673:675   */\n      iszero\n      tag_187\n      jumpi\n        /* \"#utility.yul\":711:790   */\n      tag_188\n      tag_189\n      jump\t// in\n    tag_188:\n        /* \"#utility.yul\":673:675   */\n    tag_187:\n        /* \"#utility.yul\":831:832   */\n      0x00\n        /* \"#utility.yul\":856:909   */\n      tag_190\n        /* \"#utility.yul\":901:908   */\n      dup5\n        /* \"#utility.yul\":892:898   */\n      dup3\n        /* \"#utility.yul\":881:890   */\n      dup6\n        /* \"#utility.yul\":877:899   */\n      add\n        /* \"#utility.yul\":856:909   */\n      tag_170\n      jump\t// in\n    tag_190:\n        /* \"#utility.yul\":846:909   */\n      swap2\n      pop\n        /* \"#utility.yul\":802:919   */\n      pop\n        /* \"#utility.yul\":663:926   */\n      swap3\n      swap2\n      pop\n      pop\n      jump\t// out\n        /* \"#utility.yul\":932:1277   */\n    tag_70:\n        /* \"#utility.yul\":999:1005   */\n      0x00\n        /* \"#utility.yul\":1048:1050   */\n      0x20\n        /* \"#utility.yul\":1036:1045   */\n      dup3\n        /* \"#utility.yul\":1027:1034   */\n      dup5\n        /* \"#utility.yul\":1023:1046   */\n      sub\n        /* \"#utility.yul\":1019:1051   */\n      slt\n        /* \"#utility.yul\":1016:1018   */\n      iszero\n      tag_192\n      jumpi\n        /* \"#utility.yul\":1054:1133   */\n      tag_193\n      tag_189\n      jump\t// in\n    tag_193:\n        /* \"#utility.yul\":1016:1018   */\n    tag_192:\n        /* \"#utility.yul\":1174:1175   */\n      0x00\n        /* \"#utility.yul\":1199:1260   */\n      tag_194\n        /* \"#utility.yul\":1252:1259   */\n      dup5\n        /* \"#utility.yul\":1243:1249   */\n      dup3\n        /* \"#utility.yul\":1232:1241   */\n      dup6\n        /* \"#utility.yul\":1228:1250   */\n      add\n        /* \"#utility.yul\":1199:1260   */\n      tag_174\n      jump\t// in\n    tag_194:\n        /* \"#utility.yul\":1189:1260   */\n      swap2\n      pop\n        /* \"#utility.yul\":1145:1270   */\n      pop\n        /* \"#utility.yul\":1006:1277   */\n      swap3\n      swap2\n      pop\n      pop\n      jump\t// out\n        /* \"#utility.yul\":1283:1767   */\n    tag_49:\n        /* \"#utility.yul\":1356:1362   */\n      0x00\n        /* \"#utility.yul\":1364:1370   */\n      dup1\n        /* \"#utility.yul\":1413:1415   */\n      0x40\n        /* \"#utility.yul\":1401:1410   */\n      dup4\n        /* \"#utility.yul\":1392:1399   */\n      dup6\n        /* \"#utility.yul\":1388:1411   */\n      sub\n        /* \"#utility.yul\":1384:1416   */\n      slt\n        /* \"#utility.yul\":1381:1383   */\n      iszero\n      tag_196\n      jumpi\n        /* \"#utility.yul\":1419:1498   */\n      tag_197\n      tag_189\n      jump\t// in\n    tag_197:\n        /* \"#utility.yul\":1381:1383   */\n    tag_196:\n        /* \"#utility.yul\":1539:1540   */\n      0x00\n        /* \"#utility.yul\":1564:1625   */\n      tag_198\n        /* \"#utility.yul\":1617:1624   */\n      dup6\n        /* \"#utility.yul\":1608:1614   */\n      dup3\n        /* \"#utility.yul\":1597:1606   */\n      dup7\n        /* \"#utility.yul\":1593:1615   */\n      add\n        /* \"#utility.yul\":1564:1625   */\n      tag_174\n      jump\t// in\n    tag_198:\n        /* \"#utility.yul\":1554:1625   */\n      swap3\n      pop\n        /* \"#utility.yul\":1510:1635   */\n      pop\n        /* \"#utility.yul\":1674:1676   */\n      0x20\n        /* \"#utility.yul\":1700:1750   */\n      tag_199\n        /* \"#utility.yul\":1742:1749   */\n      dup6\n        /* \"#utility.yul\":1733:1739   */\n      dup3\n        /* \"#utility.yul\":1722:1731   */\n      dup7\n        /* \"#utility.yul\":1718:1740   */\n      add\n        /* \"#utility.yul\":1700:1750   */\n      tag_178\n      jump\t// in\n    tag_199:\n        /* \"#utility.yul\":1690:1750   */\n      swap2\n      pop\n        /* \"#utility.yul\":1645:1760   */\n      pop\n        /* \"#utility.yul\":1371:1767   */\n      swap3\n      pop\n      swap3\n      swap1\n      pop\n      jump\t// out\n        /* \"#utility.yul\":1773:2263   */\n    tag_57:\n        /* \"#utility.yul\":1849:1855   */\n      0x00\n        /* \"#utility.yul\":1857:1863   */\n      dup1\n        /* \"#utility.yul\":1906:1908   */\n      0x40\n        /* \"#utility.yul\":1894:1903   */\n      dup4\n        /* \"#utility.yul\":1885:1892   */\n      dup6\n        /* \"#utility.yul\":1881:1904   */\n      sub\n        /* \"#utility.yul\":1877:1909   */\n      slt\n        /* \"#utility.yul\":1874:1876   */\n      iszero\n      tag_201\n      jumpi\n        /* \"#utility.yul\":1912:1991   */\n      tag_202\n      tag_189\n      jump\t// in\n    tag_202:\n        /* \"#utility.yul\":1874:1876   */\n    tag_201:\n        /* \"#utility.yul\":2032:2033   */\n      0x00\n        /* \"#utility.yul\":2057:2118   */\n      tag_203\n        /* \"#utility.yul\":2110:2117   */\n      dup6\n        /* \"#utility.yul\":2101:2107   */\n      dup3\n        /* \"#utility.yul\":2090:2099   */\n      dup7\n        /* \"#utility.yul\":2086:2108   */\n      add\n        /* \"#utility.yul\":2057:2118   */\n      tag_174\n      jump\t// in\n    tag_203:\n        /* \"#utility.yul\":2047:2118   */\n      swap3\n      pop\n        /* \"#utility.yul\":2003:2128   */\n      pop\n        /* \"#utility.yul\":2167:2169   */\n      0x20\n        /* \"#utility.yul\":2193:2246   */\n      tag_204\n        /* \"#utility.yul\":2238:2245   */\n      dup6\n        /* \"#utility.yul\":2229:2235   */\n      dup3\n        /* \"#utility.yul\":2218:2227   */\n      dup7\n        /* \"#utility.yul\":2214:2236   */\n      add\n        /* \"#utility.yul\":2193:2246   */\n      tag_182\n      jump\t// in\n    tag_204:\n        /* \"#utility.yul\":2183:2246   */\n      swap2\n      pop\n        /* \"#utility.yul\":2138:2256   */\n      pop\n        /* \"#utility.yul\":1864:2263   */\n      swap3\n      pop\n      swap3\n      swap1\n      pop\n      jump\t// out\n        /* \"#utility.yul\":2269:2743   */\n    tag_88:\n        /* \"#utility.yul\":2337:2343   */\n      0x00\n        /* \"#utility.yul\":2345:2351   */\n      dup1\n        /* \"#utility.yul\":2394:2396   */\n      0x40\n        /* \"#utility.yul\":2382:2391   */\n      dup4\n        /* \"#utility.yul\":2373:2380   */\n      dup6\n        /* \"#utility.yul\":2369:2392   */\n      sub\n        /* \"#utility.yul\":2365:2397   */\n      slt\n        /* \"#utility.yul\":2362:2364   */\n      iszero\n      tag_206\n      jumpi\n        /* \"#utility.yul\":2400:2479   */\n      tag_207\n      tag_189\n      jump\t// in\n    tag_207:\n        /* \"#utility.yul\":2362:2364   */\n    tag_206:\n        /* \"#utility.yul\":2520:2521   */\n      0x00\n        /* \"#utility.yul\":2545:2598   */\n      tag_208\n        /* \"#utility.yul\":2590:2597   */\n      dup6\n        /* \"#utility.yul\":2581:2587   */\n      dup3\n        /* \"#utility.yul\":2570:2579   */\n      dup7\n        /* \"#utility.yul\":2566:2588   */\n      add\n        /* \"#utility.yul\":2545:2598   */\n      tag_170\n      jump\t// in\n    tag_208:\n        /* \"#utility.yul\":2535:2598   */\n      swap3\n      pop\n        /* \"#utility.yul\":2491:2608   */\n      pop\n        /* \"#utility.yul\":2647:2649   */\n      0x20\n        /* \"#utility.yul\":2673:2726   */\n      tag_209\n        /* \"#utility.yul\":2718:2725   */\n      dup6\n        /* \"#utility.yul\":2709:2715   */\n      dup3\n        /* \"#utility.yul\":2698:2707   */\n      dup7\n        /* \"#utility.yul\":2694:2716   */\n      add\n        /* \"#utility.yul\":2673:2726   */\n      tag_182\n      jump\t// in\n    tag_209:\n        /* \"#utility.yul\":2663:2726   */\n      swap2\n      pop\n        /* \"#utility.yul\":2618:2736   */\n      pop\n        /* \"#utility.yul\":2352:2743   */\n      swap3\n      pop\n      swap3\n      swap1\n      pop\n      jump\t// out\n        /* \"#utility.yul\":2749:3078   */\n    tag_75:\n        /* \"#utility.yul\":2808:2814   */\n      0x00\n        /* \"#utility.yul\":2857:2859   */\n      0x20\n        /* \"#utility.yul\":2845:2854   */\n      dup3\n        /* \"#utility.yul\":2836:2843   */\n      dup5\n        /* \"#utility.yul\":2832:2855   */\n      sub\n        /* \"#utility.yul\":2828:2860   */\n      slt\n        /* \"#utility.yul\":2825:2827   */\n      iszero\n      tag_211\n      jumpi\n        /* \"#utility.yul\":2863:2942   */\n      tag_212\n      tag_189\n      jump\t// in\n    tag_212:\n        /* \"#utility.yul\":2825:2827   */\n    tag_211:\n        /* \"#utility.yul\":2983:2984   */\n      0x00\n        /* \"#utility.yul\":3008:3061   */\n      tag_213\n        /* \"#utility.yul\":3053:3060   */\n      dup5\n        /* \"#utility.yul\":3044:3050   */\n      dup3\n        /* \"#utility.yul\":3033:3042   */\n      dup6\n        /* \"#utility.yul\":3029:3051   */\n      add\n        /* \"#utility.yul\":3008:3061   */\n      tag_182\n      jump\t// in\n    tag_213:\n        /* \"#utility.yul\":2998:3061   */\n      swap2\n      pop\n        /* \"#utility.yul\":2954:3071   */\n      pop\n        /* \"#utility.yul\":2815:3078   */\n      swap3\n      swap2\n      pop\n      pop\n      jump\t// out\n        /* \"#utility.yul\":3084:3558   */\n    tag_65:\n        /* \"#utility.yul\":3152:3158   */\n      0x00\n        /* \"#utility.yul\":3160:3166   */\n      dup1\n        /* \"#utility.yul\":3209:3211   */\n      0x40\n        /* \"#utility.yul\":3197:3206   */\n      dup4\n        /* \"#utility.yul\":3188:3195   */\n      dup6\n        /* \"#utility.yul\":3184:3207   */\n      sub\n        /* \"#utility.yul\":3180:3212   */\n      slt\n        /* \"#utility.yul\":3177:3179   */\n      iszero\n      tag_215\n      jumpi\n        /* \"#utility.yul\":3215:3294   */\n      tag_216\n      tag_189\n      jump\t// in\n    tag_216:\n        /* \"#utility.yul\":3177:3179   */\n    tag_215:\n        /* \"#utility.yul\":3335:3336   */\n      0x00\n        /* \"#utility.yul\":3360:3413   */\n      tag_217\n        /* \"#utility.yul\":3405:3412   */\n      dup6\n        /* \"#utility.yul\":3396:3402   */\n      dup3\n        /* \"#utility.yul\":3385:3394   */\n      dup7\n        /* \"#utility.yul\":3381:3403   */\n      add\n        /* \"#utility.yul\":3360:3413   */\n      tag_182\n      jump\t// in\n    tag_217:\n        /* \"#utility.yul\":3350:3413   */\n      swap3\n      pop\n        /* \"#utility.yul\":3306:3423   */\n      pop\n        /* \"#utility.yul\":3462:3464   */\n      0x20\n        /* \"#utility.yul\":3488:3541   */\n      tag_218\n        /* \"#utility.yul\":3533:3540   */\n      dup6\n        /* \"#utility.yul\":3524:3530   */\n      dup3\n        /* \"#utility.yul\":3513:3522   */\n      dup7\n        /* \"#utility.yul\":3509:3531   */\n      add\n        /* \"#utility.yul\":3488:3541   */\n      tag_170\n      jump\t// in\n    tag_218:\n        /* \"#utility.yul\":3478:3541   */\n      swap2\n      pop\n        /* \"#utility.yul\":3433:3551   */\n      pop\n        /* \"#utility.yul\":3167:3558   */\n      swap3\n      pop\n      swap3\n      swap1\n      pop\n      jump\t// out\n        /* \"#utility.yul\":3564:3711   */\n    tag_219:\n        /* \"#utility.yul\":3659:3704   */\n      tag_221\n        /* \"#utility.yul\":3698:3703   */\n      dup2\n        /* \"#utility.yul\":3659:3704   */\n      tag_222\n      jump\t// in\n    tag_221:\n        /* \"#utility.yul\":3654:3657   */\n      dup3\n        /* \"#utility.yul\":3647:3705   */\n      mstore\n        /* \"#utility.yul\":3637:3711   */\n      pop\n      pop\n      jump\t// out\n        /* \"#utility.yul\":3717:3859   */\n    tag_223:\n        /* \"#utility.yul\":3820:3852   */\n      tag_225\n        /* \"#utility.yul\":3846:3851   */\n      dup2\n        /* \"#utility.yul\":3820:3852   */\n      tag_226\n      jump\t// in\n    tag_225:\n        /* \"#utility.yul\":3815:3818   */\n      dup3\n        /* \"#utility.yul\":3808:3853   */\n      mstore\n        /* \"#utility.yul\":3798:3859   */\n      pop\n      pop\n      jump\t// out\n        /* \"#utility.yul\":3865:3983   */\n    tag_227:\n        /* \"#utility.yul\":3952:3976   */\n      tag_229\n        /* \"#utility.yul\":3970:3975   */\n      dup2\n        /* \"#utility.yul\":3952:3976   */\n      tag_230\n      jump\t// in\n    tag_229:\n        /* \"#utility.yul\":3947:3950   */\n      dup3\n        /* \"#utility.yul\":3940:3977   */\n      mstore\n        /* \"#utility.yul\":3930:3983   */\n      pop\n      pop\n      jump\t// out\n        /* \"#utility.yul\":3989:4098   */\n    tag_231:\n        /* \"#utility.yul\":4070:4091   */\n      tag_233\n        /* \"#utility.yul\":4085:4090   */\n      dup2\n        /* \"#utility.yul\":4070:4091   */\n      tag_234\n      jump\t// in\n    tag_233:\n        /* \"#utility.yul\":4065:4068   */\n      dup3\n        /* \"#utility.yul\":4058:4092   */\n      mstore\n        /* \"#utility.yul\":4048:4098   */\n      pop\n      pop\n      jump\t// out\n        /* \"#utility.yul\":4104:4470   */\n    tag_235:\n        /* \"#utility.yul\":4246:4249   */\n      0x00\n        /* \"#utility.yul\":4267:4334   */\n      tag_237\n        /* \"#utility.yul\":4331:4333   */\n      0x10\n        /* \"#utility.yul\":4326:4329   */\n      dup4\n        /* \"#utility.yul\":4267:4334   */\n      tag_238\n      jump\t// in\n    tag_237:\n        /* \"#utility.yul\":4260:4334   */\n      swap2\n      pop\n        /* \"#utility.yul\":4343:4436   */\n      tag_239\n        /* \"#utility.yul\":4432:4435   */\n      dup3\n        /* \"#utility.yul\":4343:4436   */\n      tag_240\n      jump\t// in\n    tag_239:\n        /* \"#utility.yul\":4461:4463   */\n      0x20\n        /* \"#utility.yul\":4456:4459   */\n      dup3\n        /* \"#utility.yul\":4452:4464   */\n      add\n        /* \"#utility.yul\":4445:4464   */\n      swap1\n      pop\n        /* \"#utility.yul\":4250:4470   */\n      swap2\n      swap1\n      pop\n      jump\t// out\n        /* \"#utility.yul\":4476:4842   */\n    tag_241:\n        /* \"#utility.yul\":4618:4621   */\n      0x00\n        /* \"#utility.yul\":4639:4706   */\n      tag_243\n        /* \"#utility.yul\":4703:4705   */\n      0x10\n        /* \"#utility.yul\":4698:4701   */\n      dup4\n        /* \"#utility.yul\":4639:4706   */\n      tag_238\n      jump\t// in\n    tag_243:\n        /* \"#utility.yul\":4632:4706   */\n      swap2\n      pop\n        /* \"#utility.yul\":4715:4808   */\n      tag_244\n        /* \"#utility.yul\":4804:4807   */\n      dup3\n        /* \"#utility.yul\":4715:4808   */\n      tag_245\n      jump\t// in\n    tag_244:\n        /* \"#utility.yul\":4833:4835   */\n      0x20\n        /* \"#utility.yul\":4828:4831   */\n      dup3\n        /* \"#utility.yul\":4824:4836   */\n      add\n        /* \"#utility.yul\":4817:4836   */\n      swap1\n      pop\n        /* \"#utility.yul\":4622:4842   */\n      swap2\n      swap1\n      pop\n      jump\t// out\n        /* \"#utility.yul\":4848:5214   */\n    tag_246:\n        /* \"#utility.yul\":4990:4993   */\n      0x00\n        /* \"#utility.yul\":5011:5078   */\n      tag_248\n        /* \"#utility.yul\":5075:5077   */\n      0x0a\n        /* \"#utility.yul\":5070:5073   */\n      dup4\n        /* \"#utility.yul\":5011:5078   */\n      tag_238\n      jump\t// in\n    tag_248:\n        /* \"#utility.yul\":5004:5078   */\n      swap2\n      pop\n        /* \"#utility.yul\":5087:5180   */\n      tag_249\n        /* \"#utility.yul\":5176:5179   */\n      dup3\n        /* \"#utility.yul\":5087:5180   */\n      tag_250\n      jump\t// in\n    tag_249:\n        /* \"#utility.yul\":5205:5207   */\n      0x20\n        /* \"#utility.yul\":5200:5203   */\n      dup3\n        /* \"#utility.yul\":5196:5208   */\n      add\n        /* \"#utility.yul\":5189:5208   */\n      swap1\n      pop\n        /* \"#utility.yul\":4994:5214   */\n      swap2\n      swap1\n      pop\n      jump\t// out\n        /* \"#utility.yul\":5220:5586   */\n    tag_251:\n        /* \"#utility.yul\":5362:5365   */\n      0x00\n        /* \"#utility.yul\":5383:5450   */\n      tag_253\n        /* \"#utility.yul\":5447:5449   */\n      0x10\n        /* \"#utility.yul\":5442:5445   */\n      dup4\n        /* \"#utility.yul\":5383:5450   */\n      tag_238\n      jump\t// in\n    tag_253:\n        /* \"#utility.yul\":5376:5450   */\n      swap2\n      pop\n        /* \"#utility.yul\":5459:5552   */\n      tag_254\n        /* \"#utility.yul\":5548:5551   */\n      dup3\n        /* \"#utility.yul\":5459:5552   */\n      tag_255\n      jump\t// in\n    tag_254:\n        /* \"#utility.yul\":5577:5579   */\n      0x20\n        /* \"#utility.yul\":5572:5575   */\n      dup3\n        /* \"#utility.yul\":5568:5580   */\n      add\n        /* \"#utility.yul\":5561:5580   */\n      swap1\n      pop\n        /* \"#utility.yul\":5366:5586   */\n      swap2\n      swap1\n      pop\n      jump\t// out\n        /* \"#utility.yul\":5592:5958   */\n    tag_256:\n        /* \"#utility.yul\":5734:5737   */\n      0x00\n        /* \"#utility.yul\":5755:5822   */\n      tag_258\n        /* \"#utility.yul\":5819:5821   */\n      0x11\n        /* \"#utility.yul\":5814:5817   */\n      dup4\n        /* \"#utility.yul\":5755:5822   */\n      tag_238\n      jump\t// in\n    tag_258:\n        /* \"#utility.yul\":5748:5822   */\n      swap2\n      pop\n        /* \"#utility.yul\":5831:5924   */\n      tag_259\n        /* \"#utility.yul\":5920:5923   */\n      dup3\n        /* \"#utility.yul\":5831:5924   */\n      tag_260\n      jump\t// in\n    tag_259:\n        /* \"#utility.yul\":5949:5951   */\n      0x20\n        /* \"#utility.yul\":5944:5947   */\n      dup3\n        /* \"#utility.yul\":5940:5952   */\n      add\n        /* \"#utility.yul\":5933:5952   */\n      swap1\n      pop\n        /* \"#utility.yul\":5738:5958   */\n      swap2\n      swap1\n      pop\n      jump\t// out\n        /* \"#utility.yul\":5964:6330   */\n    tag_261:\n        /* \"#utility.yul\":6106:6109   */\n      0x00\n        /* \"#utility.yul\":6127:6194   */\n      tag_263\n        /* \"#utility.yul\":6191:6193   */\n      0x13\n        /* \"#utility.yul\":6186:6189   */\n      dup4\n        /* \"#utility.yul\":6127:6194   */\n      tag_238\n      jump\t// in\n    tag_263:\n        /* \"#utility.yul\":6120:6194   */\n      swap2\n      pop\n        /* \"#utility.yul\":6203:6296   */\n      tag_264\n        /* \"#utility.yul\":6292:6295   */\n      dup3\n        /* \"#utility.yul\":6203:6296   */\n      tag_265\n      jump\t// in\n    tag_264:\n        /* \"#utility.yul\":6321:6323   */\n      0x20\n        /* \"#utility.yul\":6316:6319   */\n      dup3\n        /* \"#utility.yul\":6312:6324   */\n      add\n        /* \"#utility.yul\":6305:6324   */\n      swap1\n      pop\n        /* \"#utility.yul\":6110:6330   */\n      swap2\n      swap1\n      pop\n      jump\t// out\n        /* \"#utility.yul\":6336:6454   */\n    tag_266:\n        /* \"#utility.yul\":6423:6447   */\n      tag_268\n        /* \"#utility.yul\":6441:6446   */\n      dup2\n        /* \"#utility.yul\":6423:6447   */\n      tag_269\n      jump\t// in\n    tag_268:\n        /* \"#utility.yul\":6418:6421   */\n      dup3\n        /* \"#utility.yul\":6411:6448   */\n      mstore\n        /* \"#utility.yul\":6401:6454   */\n      pop\n      pop\n      jump\t// out\n        /* \"#utility.yul\":6460:6682   */\n    tag_26:\n        /* \"#utility.yul\":6553:6557   */\n      0x00\n        /* \"#utility.yul\":6591:6593   */\n      0x20\n        /* \"#utility.yul\":6580:6589   */\n      dup3\n        /* \"#utility.yul\":6576:6594   */\n      add\n        /* \"#utility.yul\":6568:6594   */\n      swap1\n      pop\n        /* \"#utility.yul\":6604:6675   */\n      tag_271\n        /* \"#utility.yul\":6672:6673   */\n      0x00\n        /* \"#utility.yul\":6661:6670   */\n      dup4\n        /* \"#utility.yul\":6657:6674   */\n      add\n        /* \"#utility.yul\":6648:6654   */\n      dup5\n        /* \"#utility.yul\":6604:6675   */\n      tag_227\n      jump\t// in\n    tag_271:\n        /* \"#utility.yul\":6558:6682   */\n      swap3\n      swap2\n      pop\n      pop\n      jump\t// out\n        /* \"#utility.yul\":6688:7146   */\n    tag_119:\n        /* \"#utility.yul\":6845:6849   */\n      0x00\n        /* \"#utility.yul\":6883:6885   */\n      0x60\n        /* \"#utility.yul\":6872:6881   */\n      dup3\n        /* \"#utility.yul\":6868:6886   */\n      add\n        /* \"#utility.yul\":6860:6886   */\n      swap1\n      pop\n        /* \"#utility.yul\":6896:6975   */\n      tag_273\n        /* \"#utility.yul\":6972:6973   */\n      0x00\n        /* \"#utility.yul\":6961:6970   */\n      dup4\n        /* \"#utility.yul\":6957:6974   */\n      add\n        /* \"#utility.yul\":6948:6954   */\n      dup7\n        /* \"#utility.yul\":6896:6975   */\n      tag_219\n      jump\t// in\n    tag_273:\n        /* \"#utility.yul\":6985:7057   */\n      tag_274\n        /* \"#utility.yul\":7053:7055   */\n      0x20\n        /* \"#utility.yul\":7042:7051   */\n      dup4\n        /* \"#utility.yul\":7038:7056   */\n      add\n        /* \"#utility.yul\":7029:7035   */\n      dup6\n        /* \"#utility.yul\":6985:7057   */\n      tag_227\n      jump\t// in\n    tag_274:\n        /* \"#utility.yul\":7067:7139   */\n      tag_275\n        /* \"#utility.yul\":7135:7137   */\n      0x40\n        /* \"#utility.yul\":7124:7133   */\n      dup4\n        /* \"#utility.yul\":7120:7138   */\n      add\n        /* \"#utility.yul\":7111:7117   */\n      dup5\n        /* \"#utility.yul\":7067:7139   */\n      tag_266\n      jump\t// in\n    tag_275:\n        /* \"#utility.yul\":6850:7146   */\n      swap5\n      swap4\n      pop\n      pop\n      pop\n      pop\n      jump\t// out\n        /* \"#utility.yul\":7152:7484   */\n    tag_104:\n        /* \"#utility.yul\":7273:7277   */\n      0x00\n        /* \"#utility.yul\":7311:7313   */\n      0x40\n        /* \"#utility.yul\":7300:7309   */\n      dup3\n        /* \"#utility.yul\":7296:7314   */\n      add\n        /* \"#utility.yul\":7288:7314   */\n      swap1\n      pop\n        /* \"#utility.yul\":7324:7395   */\n      tag_277\n        /* \"#utility.yul\":7392:7393   */\n      0x00\n        /* \"#utility.yul\":7381:7390   */\n      dup4\n        /* \"#utility.yul\":7377:7394   */\n      add\n        /* \"#utility.yul\":7368:7374   */\n      dup6\n        /* \"#utility.yul\":7324:7395   */\n      tag_227\n      jump\t// in\n    tag_277:\n        /* \"#utility.yul\":7405:7477   */\n      tag_278\n        /* \"#utility.yul\":7473:7475   */\n      0x20\n        /* \"#utility.yul\":7462:7471   */\n      dup4\n        /* \"#utility.yul\":7458:7476   */\n      add\n        /* \"#utility.yul\":7449:7455   */\n      dup5\n        /* \"#utility.yul\":7405:7477   */\n      tag_266\n      jump\t// in\n    tag_278:\n        /* \"#utility.yul\":7278:7484   */\n      swap4\n      swap3\n      pop\n      pop\n      pop\n      jump\t// out\n        /* \"#utility.yul\":7490:7700   */\n    tag_42:\n        /* \"#utility.yul\":7577:7581   */\n      0x00\n        /* \"#utility.yul\":7615:7617   */\n      0x20\n        /* \"#utility.yul\":7604:7613   */\n      dup3\n        /* \"#utility.yul\":7600:7618   */\n      add\n        /* \"#utility.yul\":7592:7618   */\n      swap1\n      pop\n        /* \"#utility.yul\":7628:7693   */\n      tag_280\n        /* \"#utility.yul\":7690:7691   */\n      0x00\n        /* \"#utility.yul\":7679:7688   */\n      dup4\n        /* \"#utility.yul\":7675:7692   */\n      add\n        /* \"#utility.yul\":7666:7672   */\n      dup5\n        /* \"#utility.yul\":7628:7693   */\n      tag_231\n      jump\t// in\n    tag_280:\n        /* \"#utility.yul\":7582:7700   */\n      swap3\n      swap2\n      pop\n      pop\n      jump\t// out\n        /* \"#utility.yul\":7706:8125   */\n    tag_129:\n        /* \"#utility.yul\":7872:7876   */\n      0x00\n        /* \"#utility.yul\":7910:7912   */\n      0x20\n        /* \"#utility.yul\":7899:7908   */\n      dup3\n        /* \"#utility.yul\":7895:7913   */\n      add\n        /* \"#utility.yul\":7887:7913   */\n      swap1\n      pop\n        /* \"#utility.yul\":7959:7968   */\n      dup2\n        /* \"#utility.yul\":7953:7957   */\n      dup2\n        /* \"#utility.yul\":7949:7969   */\n      sub\n        /* \"#utility.yul\":7945:7946   */\n      0x00\n        /* \"#utility.yul\":7934:7943   */\n      dup4\n        /* \"#utility.yul\":7930:7947   */\n      add\n        /* \"#utility.yul\":7923:7970   */\n      mstore\n        /* \"#utility.yul\":7987:8118   */\n      tag_282\n        /* \"#utility.yul\":8113:8117   */\n      dup2\n        /* \"#utility.yul\":7987:8118   */\n      tag_235\n      jump\t// in\n    tag_282:\n        /* \"#utility.yul\":7979:8118   */\n      swap1\n      pop\n        /* \"#utility.yul\":7877:8125   */\n      swap2\n      swap1\n      pop\n      jump\t// out\n        /* \"#utility.yul\":8131:8550   */\n    tag_139:\n        /* \"#utility.yul\":8297:8301   */\n      0x00\n        /* \"#utility.yul\":8335:8337   */\n      0x20\n        /* \"#utility.yul\":8324:8333   */\n      dup3\n        /* \"#utility.yul\":8320:8338   */\n      add\n        /* \"#utility.yul\":8312:8338   */\n      swap1\n      pop\n        /* \"#utility.yul\":8384:8393   */\n      dup2\n        /* \"#utility.yul\":8378:8382   */\n      dup2\n        /* \"#utility.yul\":8374:8394   */\n      sub\n        /* \"#utility.yul\":8370:8371   */\n      0x00\n        /* \"#utility.yul\":8359:8368   */\n      dup4\n        /* \"#utility.yul\":8355:8372   */\n      add\n        /* \"#utility.yul\":8348:8395   */\n      mstore\n        /* \"#utility.yul\":8412:8543   */\n      tag_284\n        /* \"#utility.yul\":8538:8542   */\n      dup2\n        /* \"#utility.yul\":8412:8543   */\n      tag_241\n      jump\t// in\n    tag_284:\n        /* \"#utility.yul\":8404:8543   */\n      swap1\n      pop\n        /* \"#utility.yul\":8302:8550   */\n      swap2\n      swap1\n      pop\n      jump\t// out\n        /* \"#utility.yul\":8556:8975   */\n    tag_132:\n        /* \"#utility.yul\":8722:8726   */\n      0x00\n        /* \"#utility.yul\":8760:8762   */\n      0x20\n        /* \"#utility.yul\":8749:8758   */\n      dup3\n        /* \"#utility.yul\":8745:8763   */\n      add\n        /* \"#utility.yul\":8737:8763   */\n      swap1\n      pop\n        /* \"#utility.yul\":8809:8818   */\n      dup2\n        /* \"#utility.yul\":8803:8807   */\n      dup2\n        /* \"#utility.yul\":8799:8819   */\n      sub\n        /* \"#utility.yul\":8795:8796   */\n      0x00\n        /* \"#utility.yul\":8784:8793   */\n      dup4\n        /* \"#utility.yul\":8780:8797   */\n      add\n        /* \"#utility.yul\":8773:8820   */\n      mstore\n        /* \"#utility.yul\":8837:8968   */\n      tag_286\n        /* \"#utility.yul\":8963:8967   */\n      dup2\n        /* \"#utility.yul\":8837:8968   */\n      tag_246\n      jump\t// in\n    tag_286:\n        /* \"#utility.yul\":8829:8968   */\n      swap1\n      pop\n        /* \"#utility.yul\":8727:8975   */\n      swap2\n      swap1\n      pop\n      jump\t// out\n        /* \"#utility.yul\":8981:9400   */\n    tag_153:\n        /* \"#utility.yul\":9147:9151   */\n      0x00\n        /* \"#utility.yul\":9185:9187   */\n      0x20\n        /* \"#utility.yul\":9174:9183   */\n      dup3\n        /* \"#utility.yul\":9170:9188   */\n      add\n        /* \"#utility.yul\":9162:9188   */\n      swap1\n      pop\n        /* \"#utility.yul\":9234:9243   */\n      dup2\n        /* \"#utility.yul\":9228:9232   */\n      dup2\n        /* \"#utility.yul\":9224:9244   */\n      sub\n        /* \"#utility.yul\":9220:9221   */\n      0x00\n        /* \"#utility.yul\":9209:9218   */\n      dup4\n        /* \"#utility.yul\":9205:9222   */\n      add\n        /* \"#utility.yul\":9198:9245   */\n      mstore\n        /* \"#utility.yul\":9262:9393   */\n      tag_288\n        /* \"#utility.yul\":9388:9392   */\n      dup2\n        /* \"#utility.yul\":9262:9393   */\n      tag_251\n      jump\t// in\n    tag_288:\n        /* \"#utility.yul\":9254:9393   */\n      swap1\n      pop\n        /* \"#utility.yul\":9152:9400   */\n      swap2\n      swap1\n      pop\n      jump\t// out\n        /* \"#utility.yul\":9406:9825   */\n    tag_112:\n        /* \"#utility.yul\":9572:9576   */\n      0x00\n        /* \"#utility.yul\":9610:9612   */\n      0x20\n        /* \"#utility.yul\":9599:9608   */\n      dup3\n        /* \"#utility.yul\":9595:9613   */\n      add\n        /* \"#utility.yul\":9587:9613   */\n      swap1\n      pop\n        /* \"#utility.yul\":9659:9668   */\n      dup2\n        /* \"#utility.yul\":9653:9657   */\n      dup2\n        /* \"#utility.yul\":9649:9669   */\n      sub\n        /* \"#utility.yul\":9645:9646   */\n      0x00\n        /* \"#utility.yul\":9634:9643   */\n      dup4\n        /* \"#utility.yul\":9630:9647   */\n      add\n        /* \"#utility.yul\":9623:9670   */\n      mstore\n        /* \"#utility.yul\":9687:9818   */\n      tag_290\n        /* \"#utility.yul\":9813:9817   */\n      dup2\n        /* \"#utility.yul\":9687:9818   */\n      tag_256\n      jump\t// in\n    tag_290:\n        /* \"#utility.yul\":9679:9818   */\n      swap1\n      pop\n        /* \"#utility.yul\":9577:9825   */\n      swap2\n      swap1\n      pop\n      jump\t// out\n        /* \"#utility.yul\":9831:10250   */\n    tag_142:\n        /* \"#utility.yul\":9997:10001   */\n      0x00\n        /* \"#utility.yul\":10035:10037   */\n      0x20\n        /* \"#utility.yul\":10024:10033   */\n      dup3\n        /* \"#utility.yul\":10020:10038   */\n      add\n        /* \"#utility.yul\":10012:10038   */\n      swap1\n      pop\n        /* \"#utility.yul\":10084:10093   */\n      dup2\n        /* \"#utility.yul\":10078:10082   */\n      dup2\n        /* \"#utility.yul\":10074:10094   */\n      sub\n        /* \"#utility.yul\":10070:10071   */\n      0x00\n        /* \"#utility.yul\":10059:10068   */\n      dup4\n        /* \"#utility.yul\":10055:10072   */\n      add\n        /* \"#utility.yul\":10048:10095   */\n      mstore\n        /* \"#utility.yul\":10112:10243   */\n      tag_292\n        /* \"#utility.yul\":10238:10242   */\n      dup2\n        /* \"#utility.yul\":10112:10243   */\n      tag_261\n      jump\t// in\n    tag_292:\n        /* \"#utility.yul\":10104:10243   */\n      swap1\n      pop\n        /* \"#utility.yul\":10002:10250   */\n      swap2\n      swap1\n      pop\n      jump\t// out\n        /* \"#utility.yul\":10256:10478   */\n    tag_31:\n        /* \"#utility.yul\":10349:10353   */\n      0x00\n        /* \"#utility.yul\":10387:10389   */\n      0x20\n        /* \"#utility.yul\":10376:10385   */\n      dup3\n        /* \"#utility.yul\":10372:10390   */\n      add\n        /* \"#utility.yul\":10364:10390   */\n      swap1\n      pop\n        /* \"#utility.yul\":10400:10471   */\n      tag_294\n        /* \"#utility.yul\":10468:10469   */\n      0x00\n        /* \"#utility.yul\":10457:10466   */\n      dup4\n        /* \"#utility.yul\":10453:10470   */\n      add\n        /* \"#utility.yul\":10444:10450   */\n      dup5\n        /* \"#utility.yul\":10400:10471   */\n      tag_266\n      jump\t// in\n    tag_294:\n        /* \"#utility.yul\":10354:10478   */\n      swap3\n      swap2\n      pop\n      pop\n      jump\t// out\n        /* \"#utility.yul\":10484:11144   */\n    tag_95:\n        /* \"#utility.yul\":10687:10691   */\n      0x00\n        /* \"#utility.yul\":10725:10728   */\n      0xa0\n        /* \"#utility.yul\":10714:10723   */\n      dup3\n        /* \"#utility.yul\":10710:10729   */\n      add\n        /* \"#utility.yul\":10702:10729   */\n      swap1\n      pop\n        /* \"#utility.yul\":10739:10810   */\n      tag_296\n        /* \"#utility.yul\":10807:10808   */\n      0x00\n        /* \"#utility.yul\":10796:10805   */\n      dup4\n        /* \"#utility.yul\":10792:10809   */\n      add\n        /* \"#utility.yul\":10783:10789   */\n      dup9\n        /* \"#utility.yul\":10739:10810   */\n      tag_266\n      jump\t// in\n    tag_296:\n        /* \"#utility.yul\":10820:10908   */\n      tag_297\n        /* \"#utility.yul\":10904:10906   */\n      0x20\n        /* \"#utility.yul\":10893:10902   */\n      dup4\n        /* \"#utility.yul\":10889:10907   */\n      add\n        /* \"#utility.yul\":10880:10886   */\n      dup8\n        /* \"#utility.yul\":10820:10908   */\n      tag_223\n      jump\t// in\n    tag_297:\n        /* \"#utility.yul\":10918:10984   */\n      tag_298\n        /* \"#utility.yul\":10980:10982   */\n      0x40\n        /* \"#utility.yul\":10969:10978   */\n      dup4\n        /* \"#utility.yul\":10965:10983   */\n      add\n        /* \"#utility.yul\":10956:10962   */\n      dup7\n        /* \"#utility.yul\":10918:10984   */\n      tag_231\n      jump\t// in\n    tag_298:\n        /* \"#utility.yul\":10994:11060   */\n      tag_299\n        /* \"#utility.yul\":11056:11058   */\n      0x60\n        /* \"#utility.yul\":11045:11054   */\n      dup4\n        /* \"#utility.yul\":11041:11059   */\n      add\n        /* \"#utility.yul\":11032:11038   */\n      dup6\n        /* \"#utility.yul\":10994:11060   */\n      tag_231\n      jump\t// in\n    tag_299:\n        /* \"#utility.yul\":11070:11137   */\n      tag_300\n        /* \"#utility.yul\":11132:11135   */\n      0x80\n        /* \"#utility.yul\":11121:11130   */\n      dup4\n        /* \"#utility.yul\":11117:11136   */\n      add\n        /* \"#utility.yul\":11108:11114   */\n      dup5\n        /* \"#utility.yul\":11070:11137   */\n      tag_231\n      jump\t// in\n    tag_300:\n        /* \"#utility.yul\":10692:11144   */\n      swap7\n      swap6\n      pop\n      pop\n      pop\n      pop\n      pop\n      pop\n      jump\t// out\n        /* \"#utility.yul\":11231:11400   */\n    tag_238:\n        /* \"#utility.yul\":11315:11326   */\n      0x00\n        /* \"#utility.yul\":11349:11355   */\n      dup3\n        /* \"#utility.yul\":11344:11347   */\n      dup3\n        /* \"#utility.yul\":11337:11356   */\n      mstore\n        /* \"#utility.yul\":11389:11393   */\n      0x20\n        /* \"#utility.yul\":11384:11387   */\n      dup3\n        /* \"#utility.yul\":11380:11394   */\n      add\n        /* \"#utility.yul\":11365:11394   */\n      swap1\n      pop\n        /* \"#utility.yul\":11327:11400   */\n      swap3\n      swap2\n      pop\n      pop\n      jump\t// out\n        /* \"#utility.yul\":11406:11711   */\n    tag_102:\n        /* \"#utility.yul\":11446:11449   */\n      0x00\n        /* \"#utility.yul\":11465:11485   */\n      tag_305\n        /* \"#utility.yul\":11483:11484   */\n      dup3\n        /* \"#utility.yul\":11465:11485   */\n      tag_269\n      jump\t// in\n    tag_305:\n        /* \"#utility.yul\":11460:11485   */\n      swap2\n      pop\n        /* \"#utility.yul\":11499:11519   */\n      tag_306\n        /* \"#utility.yul\":11517:11518   */\n      dup4\n        /* \"#utility.yul\":11499:11519   */\n      tag_269\n      jump\t// in\n    tag_306:\n        /* \"#utility.yul\":11494:11519   */\n      swap3\n      pop\n        /* \"#utility.yul\":11653:11654   */\n      dup3\n        /* \"#utility.yul\":11585:11651   */\n      0xffffffffffffffffffffffffffffffffffffffffffffffffffffffffffffffff\n        /* \"#utility.yul\":11581:11655   */\n      sub\n        /* \"#utility.yul\":11578:11579   */\n      dup3\n        /* \"#utility.yul\":11575:11656   */\n      gt\n        /* \"#utility.yul\":11572:11574   */\n      iszero\n      tag_307\n      jumpi\n        /* \"#utility.yul\":11659:11677   */\n      tag_308\n      tag_309\n      jump\t// in\n    tag_308:\n        /* \"#utility.yul\":11572:11574   */\n    tag_307:\n        /* \"#utility.yul\":11703:11704   */\n      dup3\n        /* \"#utility.yul\":11700:11701   */\n      dup3\n        /* \"#utility.yul\":11696:11705   */\n      add\n        /* \"#utility.yul\":11689:11705   */\n      swap1\n      pop\n        /* \"#utility.yul\":11450:11711   */\n      swap3\n      swap2\n      pop\n      pop\n      jump\t// out\n        /* \"#utility.yul\":11717:11813   */\n    tag_230:\n        /* \"#utility.yul\":11754:11761   */\n      0x00\n        /* \"#utility.yul\":11783:11807   */\n      tag_311\n        /* \"#utility.yul\":11801:11806   */\n      dup3\n        /* \"#utility.yul\":11783:11807   */\n      tag_312\n      jump\t// in\n    tag_311:\n        /* \"#utility.yul\":11772:11807   */\n      swap1\n      pop\n        /* \"#utility.yul\":11762:11813   */\n      swap2\n      swap1\n      pop\n      jump\t// out\n        /* \"#utility.yul\":11819:11923   */\n    tag_226:\n        /* \"#utility.yul\":11864:11871   */\n      0x00\n        /* \"#utility.yul\":11893:11917   */\n      tag_314\n        /* \"#utility.yul\":11911:11916   */\n      dup3\n        /* \"#utility.yul\":11893:11917   */\n      tag_312\n      jump\t// in\n    tag_314:\n        /* \"#utility.yul\":11882:11917   */\n      swap1\n      pop\n        /* \"#utility.yul\":11872:11923   */\n      swap2\n      swap1\n      pop\n      jump\t// out\n        /* \"#utility.yul\":11929:12019   */\n    tag_234:\n        /* \"#utility.yul\":11963:11970   */\n      0x00\n        /* \"#utility.yul\":12006:12011   */\n      dup2\n        /* \"#utility.yul\":11999:12012   */\n      iszero\n        /* \"#utility.yul\":11992:12013   */\n      iszero\n        /* \"#utility.yul\":11981:12013   */\n      swap1\n      pop\n        /* \"#utility.yul\":11971:12019   */\n      swap2\n      swap1\n      pop\n      jump\t// out\n        /* \"#utility.yul\":12025:12151   */\n    tag_312:\n        /* \"#utility.yul\":12062:12069   */\n      0x00\n        /* \"#utility.yul\":12102:12144   */\n      0xffffffffffffffffffffffffffffffffffffffff\n        /* \"#utility.yul\":12095:12100   */\n      dup3\n        /* \"#utility.yul\":12091:12145   */\n      and\n        /* \"#utility.yul\":12080:12145   */\n      swap1\n      pop\n        /* \"#utility.yul\":12070:12151   */\n      swap2\n      swap1\n      pop\n      jump\t// out\n        /* \"#utility.yul\":12157:12234   */\n    tag_269:\n        /* \"#utility.yul\":12194:12201   */\n      0x00\n        /* \"#utility.yul\":12223:12228   */\n      dup2\n        /* \"#utility.yul\":12212:12228   */\n      swap1\n      pop\n        /* \"#utility.yul\":12202:12234   */\n      swap2\n      swap1\n      pop\n      jump\t// out\n        /* \"#utility.yul\":12240:12374   */\n    tag_222:\n        /* \"#utility.yul\":12298:12307   */\n      0x00\n        /* \"#utility.yul\":12331:12368   */\n      tag_319\n        /* \"#utility.yul\":12362:12367   */\n      dup3\n        /* \"#utility.yul\":12331:12368   */\n      tag_320\n      jump\t// in\n    tag_319:\n        /* \"#utility.yul\":12318:12368   */\n      swap1\n      pop\n        /* \"#utility.yul\":12308:12374   */\n      swap2\n      swap1\n      pop\n      jump\t// out\n        /* \"#utility.yul\":12380:12506   */\n    tag_320:\n        /* \"#utility.yul\":12430:12439   */\n      0x00\n        /* \"#utility.yul\":12463:12500   */\n      tag_322\n        /* \"#utility.yul\":12494:12499   */\n      dup3\n        /* \"#utility.yul\":12463:12500   */\n      tag_323\n      jump\t// in\n    tag_322:\n        /* \"#utility.yul\":12450:12500   */\n      swap1\n      pop\n        /* \"#utility.yul\":12440:12506   */\n      swap2\n      swap1\n      pop\n      jump\t// out\n        /* \"#utility.yul\":12512:12625   */\n    tag_323:\n        /* \"#utility.yul\":12562:12571   */\n      0x00\n        /* \"#utility.yul\":12595:12619   */\n      tag_325\n        /* \"#utility.yul\":12613:12618   */\n      dup3\n        /* \"#utility.yul\":12595:12619   */\n      tag_312\n      jump\t// in\n    tag_325:\n        /* \"#utility.yul\":12582:12619   */\n      swap1\n      pop\n        /* \"#utility.yul\":12572:12625   */\n      swap2\n      swap1\n      pop\n      jump\t// out\n        /* \"#utility.yul\":12631:12811   */\n    tag_309:\n        /* \"#utility.yul\":12679:12756   */\n      0x4e487b7100000000000000000000000000000000000000000000000000000000\n        /* \"#utility.yul\":12676:12677   */\n      0x00\n        /* \"#utility.yul\":12669:12757   */\n      mstore\n        /* \"#utility.yul\":12776:12780   */\n      0x11\n        /* \"#utility.yul\":12773:12774   */\n      0x04\n        /* \"#utility.yul\":12766:12781   */\n      mstore\n        /* \"#utility.yul\":12800:12804   */\n      0x24\n        /* \"#utility.yul\":12797:12798   */\n      0x00\n        /* \"#utility.yul\":12790:12805   */\n      revert\n        /* \"#utility.yul\":12940:13057   */\n    tag_189:\n        /* \"#utility.yul\":13049:13050   */\n      0x00\n        /* \"#utility.yul\":13046:13047   */\n      dup1\n        /* \"#utility.yul\":13039:13051   */\n      revert\n        /* \"#utility.yul\":13063:13229   */\n    tag_240:\n        /* \"#utility.yul\":13203:13221   */\n      0x4e4f545f454e4f5547485f455448455200000000000000000000000000000000\n        /* \"#utility.yul\":13199:13200   */\n      0x00\n        /* \"#utility.yul\":13191:13197   */\n      dup3\n        /* \"#utility.yul\":13187:13201   */\n      add\n        /* \"#utility.yul\":13180:13222   */\n      mstore\n        /* \"#utility.yul\":13169:13229   */\n      pop\n      jump\t// out\n        /* \"#utility.yul\":13235:13401   */\n    tag_245:\n        /* \"#utility.yul\":13375:13393   */\n      0x4552524f525f42555945525f4954454d00000000000000000000000000000000\n        /* \"#utility.yul\":13371:13372   */\n      0x00\n        /* \"#utility.yul\":13363:13369   */\n      dup3\n        /* \"#utility.yul\":13359:13373   */\n      add\n        /* \"#utility.yul\":13352:13394   */\n      mstore\n        /* \"#utility.yul\":13341:13401   */\n      pop\n      jump\t// out\n        /* \"#utility.yul\":13407:13567   */\n    tag_250:\n        /* \"#utility.yul\":13547:13559   */\n      0x4e4f5f4445504f53495400000000000000000000000000000000000000000000\n        /* \"#utility.yul\":13543:13544   */\n      0x00\n        /* \"#utility.yul\":13535:13541   */\n      dup3\n        /* \"#utility.yul\":13531:13545   */\n      add\n        /* \"#utility.yul\":13524:13560   */\n      mstore\n        /* \"#utility.yul\":13513:13567   */\n      pop\n      jump\t// out\n        /* \"#utility.yul\":13573:13739   */\n    tag_255:\n        /* \"#utility.yul\":13713:13731   */\n      0x4e4f545f52455441494c5f53544f524500000000000000000000000000000000\n        /* \"#utility.yul\":13709:13710   */\n      0x00\n        /* \"#utility.yul\":13701:13707   */\n      dup3\n        /* \"#utility.yul\":13697:13711   */\n      add\n        /* \"#utility.yul\":13690:13732   */\n      mstore\n        /* \"#utility.yul\":13679:13739   */\n      pop\n      jump\t// out\n        /* \"#utility.yul\":13745:13912   */\n    tag_260:\n        /* \"#utility.yul\":13885:13904   */\n      0x4e4f545f434f52524543545f4255594552000000000000000000000000000000\n        /* \"#utility.yul\":13881:13882   */\n      0x00\n        /* \"#utility.yul\":13873:13879   */\n      dup3\n        /* \"#utility.yul\":13869:13883   */\n      add\n        /* \"#utility.yul\":13862:13905   */\n      mstore\n        /* \"#utility.yul\":13851:13912   */\n      pop\n      jump\t// out\n        /* \"#utility.yul\":13918:14087   */\n    tag_265:\n        /* \"#utility.yul\":14058:14079   */\n      0x434f55524945525f4841535f5245515545535400000000000000000000000000\n        /* \"#utility.yul\":14054:14055   */\n      0x00\n        /* \"#utility.yul\":14046:14052   */\n      dup3\n        /* \"#utility.yul\":14042:14056   */\n      add\n        /* \"#utility.yul\":14035:14080   */\n      mstore\n        /* \"#utility.yul\":14024:14087   */\n      pop\n      jump\t// out\n        /* \"#utility.yul\":14093:14215   */\n    tag_173:\n        /* \"#utility.yul\":14166:14190   */\n      tag_337\n        /* \"#utility.yul\":14184:14189   */\n      dup2\n        /* \"#utility.yul\":14166:14190   */\n      tag_230\n      jump\t// in\n    tag_337:\n        /* \"#utility.yul\":14159:14164   */\n      dup2\n        /* \"#utility.yul\":14156:14191   */\n      eq\n        /* \"#utility.yul\":14146:14148   */\n      tag_338\n      jumpi\n        /* \"#utility.yul\":14205:14206   */\n      0x00\n        /* \"#utility.yul\":14202:14203   */\n      dup1\n        /* \"#utility.yul\":14195:14207   */\n      revert\n        /* \"#utility.yul\":14146:14148   */\n    tag_338:\n        /* \"#utility.yul\":14136:14215   */\n      pop\n      jump\t// out\n        /* \"#utility.yul\":14221:14359   */\n    tag_177:\n        /* \"#utility.yul\":14302:14334   */\n      tag_340\n        /* \"#utility.yul\":14328:14333   */\n      dup2\n        /* \"#utility.yul\":14302:14334   */\n      tag_226\n      jump\t// in\n    tag_340:\n        /* \"#utility.yul\":14295:14300   */\n      dup2\n        /* \"#utility.yul\":14292:14335   */\n      eq\n        /* \"#utility.yul\":14282:14284   */\n      tag_341\n      jumpi\n        /* \"#utility.yul\":14349:14350   */\n      0x00\n        /* \"#utility.yul\":14346:14347   */\n      dup1\n        /* \"#utility.yul\":14339:14351   */\n      revert\n        /* \"#utility.yul\":14282:14284   */\n    tag_341:\n        /* \"#utility.yul\":14272:14359   */\n      pop\n      jump\t// out\n        /* \"#utility.yul\":14365:14481   */\n    tag_181:\n        /* \"#utility.yul\":14435:14456   */\n      tag_343\n        /* \"#utility.yul\":14450:14455   */\n      dup2\n        /* \"#utility.yul\":14435:14456   */\n      tag_234\n      jump\t// in\n    tag_343:\n        /* \"#utility.yul\":14428:14433   */\n      dup2\n        /* \"#utility.yul\":14425:14457   */\n      eq\n        /* \"#utility.yul\":14415:14417   */\n      tag_344\n      jumpi\n        /* \"#utility.yul\":14471:14472   */\n      0x00\n        /* \"#utility.yul\":14468:14469   */\n      dup1\n        /* \"#utility.yul\":14461:14473   */\n      revert\n        /* \"#utility.yul\":14415:14417   */\n    tag_344:\n        /* \"#utility.yul\":14405:14481   */\n      pop\n      jump\t// out\n        /* \"#utility.yul\":14487:14609   */\n    tag_185:\n        /* \"#utility.yul\":14560:14584   */\n      tag_346\n        /* \"#utility.yul\":14578:14583   */\n      dup2\n        /* \"#utility.yul\":14560:14584   */\n      tag_269\n      jump\t// in\n    tag_346:\n        /* \"#utility.yul\":14553:14558   */\n      dup2\n        /* \"#utility.yul\":14550:14585   */\n      eq\n        /* \"#utility.yul\":14540:14542   */\n      tag_347\n      jumpi\n        /* \"#utility.yul\":14599:14600   */\n      0x00\n        /* \"#utility.yul\":14596:14597   */\n      dup1\n        /* \"#utility.yul\":14589:14601   */\n      revert\n        /* \"#utility.yul\":14540:14542   */\n    tag_347:\n        /* \"#utility.yul\":14530:14609   */\n      pop\n      jump\t// out\n\n    auxdata: 0xa264697066735822122057e8297284ee6d5415f31f1276f6ded0f31f0b3ab2c1e05d88720e4713f6f9f164736f6c63430008060033\n}\n",
				"bytecode": {
					"linkReferences": {},
					"object": "6080604052670de0b6b3a764000060065534801561001c57600080fd5b5033600560016101000a81548173ffffffffffffffffffffffffffffffffffffffff021916908373ffffffffffffffffffffffffffffffffffffffff160217905550611bcb8061006d6000396000f3fe6080604052600436106100fe5760003560e01c80639915f14e11610095578063c2a2ce0611610064578063c2a2ce06146102a1578063c31ab39d146102ca578063d9c4870e146102f5578063e3305bd314610320578063fe27b1e114610349576100fe565b80639915f14e1461021c578063aeaaa29914610238578063b4b48cf11461024f578063bdef930314610278576100fe565b80633ccfd60b116100d15780633ccfd60b1461018e578063636bf730146101b957806376f585ec146101e45780637ffdf46b14610200576100fe565b806301333f061461010357806312065fe01461012e5780631998aeef1461015957806319c2a5b514610163575b600080fd5b34801561010f57600080fd5b5061011861038a565b6040516101259190611754565b60405180910390f35b34801561013a57600080fd5b506101436103b0565b60405161015091906118aa565b60405180910390f35b6101616103b8565b005b34801561016f57600080fd5b50610178610529565b60405161018591906118aa565b60405180910390f35b34801561019a57600080fd5b506101a361052f565b6040516101b091906117cf565b60405180910390f35b3480156101c557600080fd5b506101ce610653565b6040516101db91906118aa565b60405180910390f35b6101fe60048036038101906101f9919061150a565b610659565b005b61021a600480360381019061021591906114b0565b6109dc565b005b6102366004803603810190610231919061154a565b610c71565b005b34801561024457600080fd5b5061024d610f44565b005b34801561025b57600080fd5b50610276600480360381019061027191906115f7565b610fe7565b005b34801561028457600080fd5b5061029f600480360381019061029a91906114dd565b61103d565b005b3480156102ad57600080fd5b506102c860048036038101906102c391906115ca565b611119565b005b3480156102d657600080fd5b506102df6111b3565b6040516102ec9190611754565b60405180910390f35b34801561030157600080fd5b5061030a6111d9565b6040516103179190611754565b60405180910390f35b34801561032c57600080fd5b506103476004803603810190610342919061158a565b6111fd565b005b34801561035557600080fd5b50610370600480360381019061036b91906114b0565b611374565b6040516103819594939291906118c5565b60405180910390f35b600260009054906101000a900473ffffffffffffffffffffffffffffffffffffffff1681565b600047905090565b6001544211156103c757600080fd5b60035434116103d557600080fd5b600073ffffffffffffffffffffffffffffffffffffffff16600260009054906101000a900473ffffffffffffffffffffffffffffffffffffffff1673ffffffffffffffffffffffffffffffffffffffff16146104a65760035460046000600260009054906101000a900473ffffffffffffffffffffffffffffffffffffffff1673ffffffffffffffffffffffffffffffffffffffff1673ffffffffffffffffffffffffffffffffffffffff168152602001908152602001600020600082825461049e9190611929565b925050819055505b33600260006101000a81548173ffffffffffffffffffffffffffffffffffffffff021916908373ffffffffffffffffffffffffffffffffffffffff160217905550346003819055507f7635e37094566fa4ea4b08dd77117e7ace1e3e5a6ee614bcd37eb6ad8eccc1d9333460405161051f9291906117a6565b60405180910390a1565b60015481565b600080600460003373ffffffffffffffffffffffffffffffffffffffff1673ffffffffffffffffffffffffffffffffffffffff168152602001908152602001600020549050600081111561064a576000600460003373ffffffffffffffffffffffffffffffffffffffff1673ffffffffffffffffffffffffffffffffffffffff168152602001908152602001600020819055503373ffffffffffffffffffffffffffffffffffffffff166108fc829081150290604051600060405180830381858888f193505050506106495780600460003373ffffffffffffffffffffffffffffffffffffffff1673ffffffffffffffffffffffffffffffffffffffff168152602001908152602001600020819055506000915050610650565b5b60019150505b90565b60035481565b600a60008373ffffffffffffffffffffffffffffffffffffffff1673ffffffffffffffffffffffffffffffffffffffff16815260200190815260200160002060010160009054906101000a900473ffffffffffffffffffffffffffffffffffffffff1673ffffffffffffffffffffffffffffffffffffffff163373ffffffffffffffffffffffffffffffffffffffff1614610729576040517f08c379a00000000000000000000000000000000000000000000000000000000081526004016107209061186a565b60405180910390fd5b801561095a57600a60008373ffffffffffffffffffffffffffffffffffffffff1673ffffffffffffffffffffffffffffffffffffffff16815260200190815260200160002060010160009054906101000a900473ffffffffffffffffffffffffffffffffffffffff1673ffffffffffffffffffffffffffffffffffffffff166108fc6006549081150290604051600060405180830381858888f193505050501580156107d9573d6000803e3d6000fd5b508173ffffffffffffffffffffffffffffffffffffffff166108fc6006549081150290604051600060405180830381858888f19350505050158015610822573d6000803e3d6000fd5b507f8897f9ee0b97132743b5136b8bdd3f12b0cd84cc26f24b110982f26574ce947a8233600a60008673ffffffffffffffffffffffffffffffffffffffff1673ffffffffffffffffffffffffffffffffffffffff168152602001908152602001600020600001546040516108989392919061176f565b60405180910390a1600a60008373ffffffffffffffffffffffffffffffffffffffff1673ffffffffffffffffffffffffffffffffffffffff1681526020019081526020016000206000808201600090556001820160006101000a81549073ffffffffffffffffffffffffffffffffffffffff02191690556001820160146101000a81549060ff02191690556001820160156101000a81549060ff02191690556001820160166101000a81549060ff021916905550506109556113f1565b6109d8565b7ff3c2f9fa19a0ebffe725717eca65593127a0ac4bbc20734940bd1247fb322a168233600a60008673ffffffffffffffffffffffffffffffffffffffff1673ffffffffffffffffffffffffffffffffffffffff168152602001908152602001600020600001546040516109cf9392919061176f565b60405180910390a15b5050565b600a60008273ffffffffffffffffffffffffffffffffffffffff1673ffffffffffffffffffffffffffffffffffffffff16815260200190815260200160002060010160009054906101000a900473ffffffffffffffffffffffffffffffffffffffff1673ffffffffffffffffffffffffffffffffffffffff163373ffffffffffffffffffffffffffffffffffffffff1614610aac576040517f08c379a0000000000000000000000000000000000000000000000000000000008152600401610aa39061186a565b60405180910390fd5b6006543414610af0576040517f08c379a0000000000000000000000000000000000000000000000000000000008152600401610ae7906117ea565b60405180910390fd5b600a60008273ffffffffffffffffffffffffffffffffffffffff1673ffffffffffffffffffffffffffffffffffffffff16815260200190815260200160002060010160149054906101000a900460ff16610b7f576040517f08c379a0000000000000000000000000000000000000000000000000000000008152600401610b769061182a565b60405180910390fd5b6001600a60008373ffffffffffffffffffffffffffffffffffffffff1673ffffffffffffffffffffffffffffffffffffffff16815260200190815260200160002060010160156101000a81548160ff0219169083151502179055506001600a60008373ffffffffffffffffffffffffffffffffffffffff1673ffffffffffffffffffffffffffffffffffffffff16815260200190815260200160002060010160166101000a81548160ff0219169083151502179055507f58e5c8cf0e372bb45b1e9dd58eb576874f2991fac3a526831c2850c73fa9a9198142604051610c669291906117a6565b60405180910390a150565b6006543414610cb5576040517f08c379a0000000000000000000000000000000000000000000000000000000008152600401610cac906117ea565b60405180910390fd5b8173ffffffffffffffffffffffffffffffffffffffff166009600083815260200190815260200160002060009054906101000a900473ffffffffffffffffffffffffffffffffffffffff1673ffffffffffffffffffffffffffffffffffffffff1614610d56576040517f08c379a0000000000000000000000000000000000000000000000000000000008152600401610d4d9061180a565b60405180910390fd5b600a60003373ffffffffffffffffffffffffffffffffffffffff1673ffffffffffffffffffffffffffffffffffffffff16815260200190815260200160002060010160169054906101000a900460ff1615610de6576040517f08c379a0000000000000000000000000000000000000000000000000000000008152600401610ddd9061188a565b60405180910390fd5b80600a60003373ffffffffffffffffffffffffffffffffffffffff1673ffffffffffffffffffffffffffffffffffffffff1681526020019081526020016000206000018190555081600a60003373ffffffffffffffffffffffffffffffffffffffff1673ffffffffffffffffffffffffffffffffffffffff16815260200190815260200160002060010160006101000a81548173ffffffffffffffffffffffffffffffffffffffff021916908373ffffffffffffffffffffffffffffffffffffffff1602179055506001600a60003373ffffffffffffffffffffffffffffffffffffffff1673ffffffffffffffffffffffffffffffffffffffff16815260200190815260200160002060010160146101000a81548160ff0219169083151502179055507f7b9c25afa0bac55b5d0102b9327c25304e59da6405a1adbbe32d5a4c0f27158d33604051610f389190611754565b60405180910390a15050565b600154421015610f5357600080fd5b600560009054906101000a900460ff1615610f6d57600080fd5b6001600560006101000a81548160ff0219169083151502179055507fc9b64caa2aa57493e3a2b3087a613ad4168386aa000be494a8a41cd06bd3844a600260009054906101000a900473ffffffffffffffffffffffffffffffffffffffff16600354604051610fdd9291906117a6565b60405180910390a1565b806000806101000a81548173ffffffffffffffffffffffffffffffffffffffff021916908373ffffffffffffffffffffffffffffffffffffffff16021790555081426110339190611929565b6001819055505050565b600560019054906101000a900473ffffffffffffffffffffffffffffffffffffffff1673ffffffffffffffffffffffffffffffffffffffff163373ffffffffffffffffffffffffffffffffffffffff16146110cd576040517f08c379a00000000000000000000000000000000000000000000000000000000081526004016110c49061184a565b60405180910390fd5b8073ffffffffffffffffffffffffffffffffffffffff166108fc6006549081150290604051600060405180830381858888f19350505050158015611115573d6000803e3d6000fd5b5050565b600560019054906101000a900473ffffffffffffffffffffffffffffffffffffffff1673ffffffffffffffffffffffffffffffffffffffff163373ffffffffffffffffffffffffffffffffffffffff16146111a9576040517f08c379a00000000000000000000000000000000000000000000000000000000081526004016111a09061184a565b60405180910390fd5b8060068190555050565b600560019054906101000a900473ffffffffffffffffffffffffffffffffffffffff1681565b60008054906101000a900473ffffffffffffffffffffffffffffffffffffffff1681565b600560019054906101000a900473ffffffffffffffffffffffffffffffffffffffff1673ffffffffffffffffffffffffffffffffffffffff163373ffffffffffffffffffffffffffffffffffffffff161461128d576040517f08c379a00000000000000000000000000000000000000000000000000000000081526004016112849061184a565b60405180910390fd5b6001600760008473ffffffffffffffffffffffffffffffffffffffff1673ffffffffffffffffffffffffffffffffffffffff16815260200190815260200160002060006101000a81548160ff021916908315150217905550816009600083815260200190815260200160002060006101000a81548173ffffffffffffffffffffffffffffffffffffffff021916908373ffffffffffffffffffffffffffffffffffffffff1602179055507f7f425b0e1445bb744dd2714b48e6a4d17fb072590bc65faa8e704ec44d99bb6a82826040516113689291906117a6565b60405180910390a15050565b600a6020528060005260406000206000915090508060000154908060010160009054906101000a900473ffffffffffffffffffffffffffffffffffffffff16908060010160149054906101000a900460ff16908060010160159054906101000a900460ff16908060010160169054906101000a900460ff16905085565b60008054906101000a900473ffffffffffffffffffffffffffffffffffffffff1673ffffffffffffffffffffffffffffffffffffffff166108fc6003549081150290604051600060405180830381858888f19350505050158015611459573d6000803e3d6000fd5b50565b60008135905061146b81611b39565b92915050565b60008135905061148081611b50565b92915050565b60008135905061149581611b67565b92915050565b6000813590506114aa81611b7e565b92915050565b6000602082840312156114c6576114c5611a3e565b5b60006114d48482850161145c565b91505092915050565b6000602082840312156114f3576114f2611a3e565b5b600061150184828501611471565b91505092915050565b6000806040838503121561152157611520611a3e565b5b600061152f85828601611471565b925050602061154085828601611486565b9150509250929050565b6000806040838503121561156157611560611a3e565b5b600061156f85828601611471565b92505060206115808582860161149b565b9150509250929050565b600080604083850312156115a1576115a0611a3e565b5b60006115af8582860161145c565b92505060206115c08582860161149b565b9150509250929050565b6000602082840312156115e0576115df611a3e565b5b60006115ee8482850161149b565b91505092915050565b6000806040838503121561160e5761160d611a3e565b5b600061161c8582860161149b565b925050602061162d8582860161145c565b9150509250929050565b611640816119d9565b82525050565b61164f81611991565b82525050565b61165e8161197f565b82525050565b61166d816119a3565b82525050565b6000611680601083611918565b915061168b82611a43565b602082019050919050565b60006116a3601083611918565b91506116ae82611a6c565b602082019050919050565b60006116c6600a83611918565b91506116d182611a95565b602082019050919050565b60006116e9601083611918565b91506116f482611abe565b602082019050919050565b600061170c601183611918565b915061171782611ae7565b602082019050919050565b600061172f601383611918565b915061173a82611b10565b602082019050919050565b61174e816119cf565b82525050565b60006020820190506117696000830184611655565b92915050565b60006060820190506117846000830186611637565b6117916020830185611655565b61179e6040830184611745565b949350505050565b60006040820190506117bb6000830185611655565b6117c86020830184611745565b9392505050565b60006020820190506117e46000830184611664565b92915050565b6000602082019050818103600083015261180381611673565b9050919050565b6000602082019050818103600083015261182381611696565b9050919050565b60006020820190508181036000830152611843816116b9565b9050919050565b60006020820190508181036000830152611863816116dc565b9050919050565b60006020820190508181036000830152611883816116ff565b9050919050565b600060208201905081810360008301526118a381611722565b9050919050565b60006020820190506118bf6000830184611745565b92915050565b600060a0820190506118da6000830188611745565b6118e76020830187611646565b6118f46040830186611664565b6119016060830185611664565b61190e6080830184611664565b9695505050505050565b600082825260208201905092915050565b6000611934826119cf565b915061193f836119cf565b9250827fffffffffffffffffffffffffffffffffffffffffffffffffffffffffffffffff0382111561197457611973611a0f565b5b828201905092915050565b600061198a826119af565b9050919050565b600061199c826119af565b9050919050565b60008115159050919050565b600073ffffffffffffffffffffffffffffffffffffffff82169050919050565b6000819050919050565b60006119e4826119eb565b9050919050565b60006119f6826119fd565b9050919050565b6000611a08826119af565b9050919050565b7f4e487b7100000000000000000000000000000000000000000000000000000000600052601160045260246000fd5b600080fd5b7f4e4f545f454e4f5547485f455448455200000000000000000000000000000000600082015250565b7f4552524f525f42555945525f4954454d00000000000000000000000000000000600082015250565b7f4e4f5f4445504f53495400000000000000000000000000000000000000000000600082015250565b7f4e4f545f52455441494c5f53544f524500000000000000000000000000000000600082015250565b7f4e4f545f434f52524543545f4255594552000000000000000000000000000000600082015250565b7f434f55524945525f4841535f5245515545535400000000000000000000000000600082015250565b611b428161197f565b8114611b4d57600080fd5b50565b611b5981611991565b8114611b6457600080fd5b50565b611b70816119a3565b8114611b7b57600080fd5b50565b611b87816119cf565b8114611b9257600080fd5b5056fea264697066735822122057e8297284ee6d5415f31f1276f6ded0f31f0b3ab2c1e05d88720e4713f6f9f164736f6c63430008060033",
					"opcodes": "PUSH1 0x80 PUSH1 0x40 MSTORE PUSH8 0xDE0B6B3A7640000 PUSH1 0x6 SSTORE CALLVALUE DUP1 ISZERO PUSH2 0x1C JUMPI PUSH1 0x0 DUP1 REVERT JUMPDEST POP CALLER PUSH1 0x5 PUSH1 0x1 PUSH2 0x100 EXP DUP2 SLOAD DUP2 PUSH20 0xFFFFFFFFFFFFFFFFFFFFFFFFFFFFFFFFFFFFFFFF MUL NOT AND SWAP1 DUP4 PUSH20 0xFFFFFFFFFFFFFFFFFFFFFFFFFFFFFFFFFFFFFFFF AND MUL OR SWAP1 SSTORE POP PUSH2 0x1BCB DUP1 PUSH2 0x6D PUSH1 0x0 CODECOPY PUSH1 0x0 RETURN INVALID PUSH1 0x80 PUSH1 0x40 MSTORE PUSH1 0x4 CALLDATASIZE LT PUSH2 0xFE JUMPI PUSH1 0x0 CALLDATALOAD PUSH1 0xE0 SHR DUP1 PUSH4 0x9915F14E GT PUSH2 0x95 JUMPI DUP1 PUSH4 0xC2A2CE06 GT PUSH2 0x64 JUMPI DUP1 PUSH4 0xC2A2CE06 EQ PUSH2 0x2A1 JUMPI DUP1 PUSH4 0xC31AB39D EQ PUSH2 0x2CA JUMPI DUP1 PUSH4 0xD9C4870E EQ PUSH2 0x2F5 JUMPI DUP1 PUSH4 0xE3305BD3 EQ PUSH2 0x320 JUMPI DUP1 PUSH4 0xFE27B1E1 EQ PUSH2 0x349 JUMPI PUSH2 0xFE JUMP JUMPDEST DUP1 PUSH4 0x9915F14E EQ PUSH2 0x21C JUMPI DUP1 PUSH4 0xAEAAA299 EQ PUSH2 0x238 JUMPI DUP1 PUSH4 0xB4B48CF1 EQ PUSH2 0x24F JUMPI DUP1 PUSH4 0xBDEF9303 EQ PUSH2 0x278 JUMPI PUSH2 0xFE JUMP JUMPDEST DUP1 PUSH4 0x3CCFD60B GT PUSH2 0xD1 JUMPI DUP1 PUSH4 0x3CCFD60B EQ PUSH2 0x18E JUMPI DUP1 PUSH4 0x636BF730 EQ PUSH2 0x1B9 JUMPI DUP1 PUSH4 0x76F585EC EQ PUSH2 0x1E4 JUMPI DUP1 PUSH4 0x7FFDF46B EQ PUSH2 0x200 JUMPI PUSH2 0xFE JUMP JUMPDEST DUP1 PUSH4 0x1333F06 EQ PUSH2 0x103 JUMPI DUP1 PUSH4 0x12065FE0 EQ PUSH2 0x12E JUMPI DUP1 PUSH4 0x1998AEEF EQ PUSH2 0x159 JUMPI DUP1 PUSH4 0x19C2A5B5 EQ PUSH2 0x163 JUMPI JUMPDEST PUSH1 0x0 DUP1 REVERT JUMPDEST CALLVALUE DUP1 ISZERO PUSH2 0x10F JUMPI PUSH1 0x0 DUP1 REVERT JUMPDEST POP PUSH2 0x118 PUSH2 0x38A JUMP JUMPDEST PUSH1 0x40 MLOAD PUSH2 0x125 SWAP2 SWAP1 PUSH2 0x1754 JUMP JUMPDEST PUSH1 0x40 MLOAD DUP1 SWAP2 SUB SWAP1 RETURN JUMPDEST CALLVALUE DUP1 ISZERO PUSH2 0x13A JUMPI PUSH1 0x0 DUP1 REVERT JUMPDEST POP PUSH2 0x143 PUSH2 0x3B0 JUMP JUMPDEST PUSH1 0x40 MLOAD PUSH2 0x150 SWAP2 SWAP1 PUSH2 0x18AA JUMP JUMPDEST PUSH1 0x40 MLOAD DUP1 SWAP2 SUB SWAP1 RETURN JUMPDEST PUSH2 0x161 PUSH2 0x3B8 JUMP JUMPDEST STOP JUMPDEST CALLVALUE DUP1 ISZERO PUSH2 0x16F JUMPI PUSH1 0x0 DUP1 REVERT JUMPDEST POP PUSH2 0x178 PUSH2 0x529 JUMP JUMPDEST PUSH1 0x40 MLOAD PUSH2 0x185 SWAP2 SWAP1 PUSH2 0x18AA JUMP JUMPDEST PUSH1 0x40 MLOAD DUP1 SWAP2 SUB SWAP1 RETURN JUMPDEST CALLVALUE DUP1 ISZERO PUSH2 0x19A JUMPI PUSH1 0x0 DUP1 REVERT JUMPDEST POP PUSH2 0x1A3 PUSH2 0x52F JUMP JUMPDEST PUSH1 0x40 MLOAD PUSH2 0x1B0 SWAP2 SWAP1 PUSH2 0x17CF JUMP JUMPDEST PUSH1 0x40 MLOAD DUP1 SWAP2 SUB SWAP1 RETURN JUMPDEST CALLVALUE DUP1 ISZERO PUSH2 0x1C5 JUMPI PUSH1 0x0 DUP1 REVERT JUMPDEST POP PUSH2 0x1CE PUSH2 0x653 JUMP JUMPDEST PUSH1 0x40 MLOAD PUSH2 0x1DB SWAP2 SWAP1 PUSH2 0x18AA JUMP JUMPDEST PUSH1 0x40 MLOAD DUP1 SWAP2 SUB SWAP1 RETURN JUMPDEST PUSH2 0x1FE PUSH1 0x4 DUP1 CALLDATASIZE SUB DUP2 ADD SWAP1 PUSH2 0x1F9 SWAP2 SWAP1 PUSH2 0x150A JUMP JUMPDEST PUSH2 0x659 JUMP JUMPDEST STOP JUMPDEST PUSH2 0x21A PUSH1 0x4 DUP1 CALLDATASIZE SUB DUP2 ADD SWAP1 PUSH2 0x215 SWAP2 SWAP1 PUSH2 0x14B0 JUMP JUMPDEST PUSH2 0x9DC JUMP JUMPDEST STOP JUMPDEST PUSH2 0x236 PUSH1 0x4 DUP1 CALLDATASIZE SUB DUP2 ADD SWAP1 PUSH2 0x231 SWAP2 SWAP1 PUSH2 0x154A JUMP JUMPDEST PUSH2 0xC71 JUMP JUMPDEST STOP JUMPDEST CALLVALUE DUP1 ISZERO PUSH2 0x244 JUMPI PUSH1 0x0 DUP1 REVERT JUMPDEST POP PUSH2 0x24D PUSH2 0xF44 JUMP JUMPDEST STOP JUMPDEST CALLVALUE DUP1 ISZERO PUSH2 0x25B JUMPI PUSH1 0x0 DUP1 REVERT JUMPDEST POP PUSH2 0x276 PUSH1 0x4 DUP1 CALLDATASIZE SUB DUP2 ADD SWAP1 PUSH2 0x271 SWAP2 SWAP1 PUSH2 0x15F7 JUMP JUMPDEST PUSH2 0xFE7 JUMP JUMPDEST STOP JUMPDEST CALLVALUE DUP1 ISZERO PUSH2 0x284 JUMPI PUSH1 0x0 DUP1 REVERT JUMPDEST POP PUSH2 0x29F PUSH1 0x4 DUP1 CALLDATASIZE SUB DUP2 ADD SWAP1 PUSH2 0x29A SWAP2 SWAP1 PUSH2 0x14DD JUMP JUMPDEST PUSH2 0x103D JUMP JUMPDEST STOP JUMPDEST CALLVALUE DUP1 ISZERO PUSH2 0x2AD JUMPI PUSH1 0x0 DUP1 REVERT JUMPDEST POP PUSH2 0x2C8 PUSH1 0x4 DUP1 CALLDATASIZE SUB DUP2 ADD SWAP1 PUSH2 0x2C3 SWAP2 SWAP1 PUSH2 0x15CA JUMP JUMPDEST PUSH2 0x1119 JUMP JUMPDEST STOP JUMPDEST CALLVALUE DUP1 ISZERO PUSH2 0x2D6 JUMPI PUSH1 0x0 DUP1 REVERT JUMPDEST POP PUSH2 0x2DF PUSH2 0x11B3 JUMP JUMPDEST PUSH1 0x40 MLOAD PUSH2 0x2EC SWAP2 SWAP1 PUSH2 0x1754 JUMP JUMPDEST PUSH1 0x40 MLOAD DUP1 SWAP2 SUB SWAP1 RETURN JUMPDEST CALLVALUE DUP1 ISZERO PUSH2 0x301 JUMPI PUSH1 0x0 DUP1 REVERT JUMPDEST POP PUSH2 0x30A PUSH2 0x11D9 JUMP JUMPDEST PUSH1 0x40 MLOAD PUSH2 0x317 SWAP2 SWAP1 PUSH2 0x1754 JUMP JUMPDEST PUSH1 0x40 MLOAD DUP1 SWAP2 SUB SWAP1 RETURN JUMPDEST CALLVALUE DUP1 ISZERO PUSH2 0x32C JUMPI PUSH1 0x0 DUP1 REVERT JUMPDEST POP PUSH2 0x347 PUSH1 0x4 DUP1 CALLDATASIZE SUB DUP2 ADD SWAP1 PUSH2 0x342 SWAP2 SWAP1 PUSH2 0x158A JUMP JUMPDEST PUSH2 0x11FD JUMP JUMPDEST STOP JUMPDEST CALLVALUE DUP1 ISZERO PUSH2 0x355 JUMPI PUSH1 0x0 DUP1 REVERT JUMPDEST POP PUSH2 0x370 PUSH1 0x4 DUP1 CALLDATASIZE SUB DUP2 ADD SWAP1 PUSH2 0x36B SWAP2 SWAP1 PUSH2 0x14B0 JUMP JUMPDEST PUSH2 0x1374 JUMP JUMPDEST PUSH1 0x40 MLOAD PUSH2 0x381 SWAP6 SWAP5 SWAP4 SWAP3 SWAP2 SWAP1 PUSH2 0x18C5 JUMP JUMPDEST PUSH1 0x40 MLOAD DUP1 SWAP2 SUB SWAP1 RETURN JUMPDEST PUSH1 0x2 PUSH1 0x0 SWAP1 SLOAD SWAP1 PUSH2 0x100 EXP SWAP1 DIV PUSH20 0xFFFFFFFFFFFFFFFFFFFFFFFFFFFFFFFFFFFFFFFF AND DUP2 JUMP JUMPDEST PUSH1 0x0 SELFBALANCE SWAP1 POP SWAP1 JUMP JUMPDEST PUSH1 0x1 SLOAD TIMESTAMP GT ISZERO PUSH2 0x3C7 JUMPI PUSH1 0x0 DUP1 REVERT JUMPDEST PUSH1 0x3 SLOAD CALLVALUE GT PUSH2 0x3D5 JUMPI PUSH1 0x0 DUP1 REVERT JUMPDEST PUSH1 0x0 PUSH20 0xFFFFFFFFFFFFFFFFFFFFFFFFFFFFFFFFFFFFFFFF AND PUSH1 0x2 PUSH1 0x0 SWAP1 SLOAD SWAP1 PUSH2 0x100 EXP SWAP1 DIV PUSH20 0xFFFFFFFFFFFFFFFFFFFFFFFFFFFFFFFFFFFFFFFF AND PUSH20 0xFFFFFFFFFFFFFFFFFFFFFFFFFFFFFFFFFFFFFFFF AND EQ PUSH2 0x4A6 JUMPI PUSH1 0x3 SLOAD PUSH1 0x4 PUSH1 0x0 PUSH1 0x2 PUSH1 0x0 SWAP1 SLOAD SWAP1 PUSH2 0x100 EXP SWAP1 DIV PUSH20 0xFFFFFFFFFFFFFFFFFFFFFFFFFFFFFFFFFFFFFFFF AND PUSH20 0xFFFFFFFFFFFFFFFFFFFFFFFFFFFFFFFFFFFFFFFF AND PUSH20 0xFFFFFFFFFFFFFFFFFFFFFFFFFFFFFFFFFFFFFFFF AND DUP2 MSTORE PUSH1 0x20 ADD SWAP1 DUP2 MSTORE PUSH1 0x20 ADD PUSH1 0x0 KECCAK256 PUSH1 0x0 DUP3 DUP3 SLOAD PUSH2 0x49E SWAP2 SWAP1 PUSH2 0x1929 JUMP JUMPDEST SWAP3 POP POP DUP2 SWAP1 SSTORE POP JUMPDEST CALLER PUSH1 0x2 PUSH1 0x0 PUSH2 0x100 EXP DUP2 SLOAD DUP2 PUSH20 0xFFFFFFFFFFFFFFFFFFFFFFFFFFFFFFFFFFFFFFFF MUL NOT AND SWAP1 DUP4 PUSH20 0xFFFFFFFFFFFFFFFFFFFFFFFFFFFFFFFFFFFFFFFF AND MUL OR SWAP1 SSTORE POP CALLVALUE PUSH1 0x3 DUP2 SWAP1 SSTORE POP PUSH32 0x7635E37094566FA4EA4B08DD77117E7ACE1E3E5A6EE614BCD37EB6AD8ECCC1D9 CALLER CALLVALUE PUSH1 0x40 MLOAD PUSH2 0x51F SWAP3 SWAP2 SWAP1 PUSH2 0x17A6 JUMP JUMPDEST PUSH1 0x40 MLOAD DUP1 SWAP2 SUB SWAP1 LOG1 JUMP JUMPDEST PUSH1 0x1 SLOAD DUP2 JUMP JUMPDEST PUSH1 0x0 DUP1 PUSH1 0x4 PUSH1 0x0 CALLER PUSH20 0xFFFFFFFFFFFFFFFFFFFFFFFFFFFFFFFFFFFFFFFF AND PUSH20 0xFFFFFFFFFFFFFFFFFFFFFFFFFFFFFFFFFFFFFFFF AND DUP2 MSTORE PUSH1 0x20 ADD SWAP1 DUP2 MSTORE PUSH1 0x20 ADD PUSH1 0x0 KECCAK256 SLOAD SWAP1 POP PUSH1 0x0 DUP2 GT ISZERO PUSH2 0x64A JUMPI PUSH1 0x0 PUSH1 0x4 PUSH1 0x0 CALLER PUSH20 0xFFFFFFFFFFFFFFFFFFFFFFFFFFFFFFFFFFFFFFFF AND PUSH20 0xFFFFFFFFFFFFFFFFFFFFFFFFFFFFFFFFFFFFFFFF AND DUP2 MSTORE PUSH1 0x20 ADD SWAP1 DUP2 MSTORE PUSH1 0x20 ADD PUSH1 0x0 KECCAK256 DUP2 SWAP1 SSTORE POP CALLER PUSH20 0xFFFFFFFFFFFFFFFFFFFFFFFFFFFFFFFFFFFFFFFF AND PUSH2 0x8FC DUP3 SWAP1 DUP2 ISZERO MUL SWAP1 PUSH1 0x40 MLOAD PUSH1 0x0 PUSH1 0x40 MLOAD DUP1 DUP4 SUB DUP2 DUP6 DUP9 DUP9 CALL SWAP4 POP POP POP POP PUSH2 0x649 JUMPI DUP1 PUSH1 0x4 PUSH1 0x0 CALLER PUSH20 0xFFFFFFFFFFFFFFFFFFFFFFFFFFFFFFFFFFFFFFFF AND PUSH20 0xFFFFFFFFFFFFFFFFFFFFFFFFFFFFFFFFFFFFFFFF AND DUP2 MSTORE PUSH1 0x20 ADD SWAP1 DUP2 MSTORE PUSH1 0x20 ADD PUSH1 0x0 KECCAK256 DUP2 SWAP1 SSTORE POP PUSH1 0x0 SWAP2 POP POP PUSH2 0x650 JUMP JUMPDEST JUMPDEST PUSH1 0x1 SWAP2 POP POP JUMPDEST SWAP1 JUMP JUMPDEST PUSH1 0x3 SLOAD DUP2 JUMP JUMPDEST PUSH1 0xA PUSH1 0x0 DUP4 PUSH20 0xFFFFFFFFFFFFFFFFFFFFFFFFFFFFFFFFFFFFFFFF AND PUSH20 0xFFFFFFFFFFFFFFFFFFFFFFFFFFFFFFFFFFFFFFFF AND DUP2 MSTORE PUSH1 0x20 ADD SWAP1 DUP2 MSTORE PUSH1 0x20 ADD PUSH1 0x0 KECCAK256 PUSH1 0x1 ADD PUSH1 0x0 SWAP1 SLOAD SWAP1 PUSH2 0x100 EXP SWAP1 DIV PUSH20 0xFFFFFFFFFFFFFFFFFFFFFFFFFFFFFFFFFFFFFFFF AND PUSH20 0xFFFFFFFFFFFFFFFFFFFFFFFFFFFFFFFFFFFFFFFF AND CALLER PUSH20 0xFFFFFFFFFFFFFFFFFFFFFFFFFFFFFFFFFFFFFFFF AND EQ PUSH2 0x729 JUMPI PUSH1 0x40 MLOAD PUSH32 0x8C379A000000000000000000000000000000000000000000000000000000000 DUP2 MSTORE PUSH1 0x4 ADD PUSH2 0x720 SWAP1 PUSH2 0x186A JUMP JUMPDEST PUSH1 0x40 MLOAD DUP1 SWAP2 SUB SWAP1 REVERT JUMPDEST DUP1 ISZERO PUSH2 0x95A JUMPI PUSH1 0xA PUSH1 0x0 DUP4 PUSH20 0xFFFFFFFFFFFFFFFFFFFFFFFFFFFFFFFFFFFFFFFF AND PUSH20 0xFFFFFFFFFFFFFFFFFFFFFFFFFFFFFFFFFFFFFFFF AND DUP2 MSTORE PUSH1 0x20 ADD SWAP1 DUP2 MSTORE PUSH1 0x20 ADD PUSH1 0x0 KECCAK256 PUSH1 0x1 ADD PUSH1 0x0 SWAP1 SLOAD SWAP1 PUSH2 0x100 EXP SWAP1 DIV PUSH20 0xFFFFFFFFFFFFFFFFFFFFFFFFFFFFFFFFFFFFFFFF AND PUSH20 0xFFFFFFFFFFFFFFFFFFFFFFFFFFFFFFFFFFFFFFFF AND PUSH2 0x8FC PUSH1 0x6 SLOAD SWAP1 DUP2 ISZERO MUL SWAP1 PUSH1 0x40 MLOAD PUSH1 0x0 PUSH1 0x40 MLOAD DUP1 DUP4 SUB DUP2 DUP6 DUP9 DUP9 CALL SWAP4 POP POP POP POP ISZERO DUP1 ISZERO PUSH2 0x7D9 JUMPI RETURNDATASIZE PUSH1 0x0 DUP1 RETURNDATACOPY RETURNDATASIZE PUSH1 0x0 REVERT JUMPDEST POP DUP2 PUSH20 0xFFFFFFFFFFFFFFFFFFFFFFFFFFFFFFFFFFFFFFFF AND PUSH2 0x8FC PUSH1 0x6 SLOAD SWAP1 DUP2 ISZERO MUL SWAP1 PUSH1 0x40 MLOAD PUSH1 0x0 PUSH1 0x40 MLOAD DUP1 DUP4 SUB DUP2 DUP6 DUP9 DUP9 CALL SWAP4 POP POP POP POP ISZERO DUP1 ISZERO PUSH2 0x822 JUMPI RETURNDATASIZE PUSH1 0x0 DUP1 RETURNDATACOPY RETURNDATASIZE PUSH1 0x0 REVERT JUMPDEST POP PUSH32 0x8897F9EE0B97132743B5136B8BDD3F12B0CD84CC26F24B110982F26574CE947A DUP3 CALLER PUSH1 0xA PUSH1 0x0 DUP7 PUSH20 0xFFFFFFFFFFFFFFFFFFFFFFFFFFFFFFFFFFFFFFFF AND PUSH20 0xFFFFFFFFFFFFFFFFFFFFFFFFFFFFFFFFFFFFFFFF AND DUP2 MSTORE PUSH1 0x20 ADD SWAP1 DUP2 MSTORE PUSH1 0x20 ADD PUSH1 0x0 KECCAK256 PUSH1 0x0 ADD SLOAD PUSH1 0x40 MLOAD PUSH2 0x898 SWAP4 SWAP3 SWAP2 SWAP1 PUSH2 0x176F JUMP JUMPDEST PUSH1 0x40 MLOAD DUP1 SWAP2 SUB SWAP1 LOG1 PUSH1 0xA PUSH1 0x0 DUP4 PUSH20 0xFFFFFFFFFFFFFFFFFFFFFFFFFFFFFFFFFFFFFFFF AND PUSH20 0xFFFFFFFFFFFFFFFFFFFFFFFFFFFFFFFFFFFFFFFF AND DUP2 MSTORE PUSH1 0x20 ADD SWAP1 DUP2 MSTORE PUSH1 0x20 ADD PUSH1 0x0 KECCAK256 PUSH1 0x0 DUP1 DUP3 ADD PUSH1 0x0 SWAP1 SSTORE PUSH1 0x1 DUP3 ADD PUSH1 0x0 PUSH2 0x100 EXP DUP2 SLOAD SWAP1 PUSH20 0xFFFFFFFFFFFFFFFFFFFFFFFFFFFFFFFFFFFFFFFF MUL NOT AND SWAP1 SSTORE PUSH1 0x1 DUP3 ADD PUSH1 0x14 PUSH2 0x100 EXP DUP2 SLOAD SWAP1 PUSH1 0xFF MUL NOT AND SWAP1 SSTORE PUSH1 0x1 DUP3 ADD PUSH1 0x15 PUSH2 0x100 EXP DUP2 SLOAD SWAP1 PUSH1 0xFF MUL NOT AND SWAP1 SSTORE PUSH1 0x1 DUP3 ADD PUSH1 0x16 PUSH2 0x100 EXP DUP2 SLOAD SWAP1 PUSH1 0xFF MUL NOT AND SWAP1 SSTORE POP POP PUSH2 0x955 PUSH2 0x13F1 JUMP JUMPDEST PUSH2 0x9D8 JUMP JUMPDEST PUSH32 0xF3C2F9FA19A0EBFFE725717ECA65593127A0AC4BBC20734940BD1247FB322A16 DUP3 CALLER PUSH1 0xA PUSH1 0x0 DUP7 PUSH20 0xFFFFFFFFFFFFFFFFFFFFFFFFFFFFFFFFFFFFFFFF AND PUSH20 0xFFFFFFFFFFFFFFFFFFFFFFFFFFFFFFFFFFFFFFFF AND DUP2 MSTORE PUSH1 0x20 ADD SWAP1 DUP2 MSTORE PUSH1 0x20 ADD PUSH1 0x0 KECCAK256 PUSH1 0x0 ADD SLOAD PUSH1 0x40 MLOAD PUSH2 0x9CF SWAP4 SWAP3 SWAP2 SWAP1 PUSH2 0x176F JUMP JUMPDEST PUSH1 0x40 MLOAD DUP1 SWAP2 SUB SWAP1 LOG1 JUMPDEST POP POP JUMP JUMPDEST PUSH1 0xA PUSH1 0x0 DUP3 PUSH20 0xFFFFFFFFFFFFFFFFFFFFFFFFFFFFFFFFFFFFFFFF AND PUSH20 0xFFFFFFFFFFFFFFFFFFFFFFFFFFFFFFFFFFFFFFFF AND DUP2 MSTORE PUSH1 0x20 ADD SWAP1 DUP2 MSTORE PUSH1 0x20 ADD PUSH1 0x0 KECCAK256 PUSH1 0x1 ADD PUSH1 0x0 SWAP1 SLOAD SWAP1 PUSH2 0x100 EXP SWAP1 DIV PUSH20 0xFFFFFFFFFFFFFFFFFFFFFFFFFFFFFFFFFFFFFFFF AND PUSH20 0xFFFFFFFFFFFFFFFFFFFFFFFFFFFFFFFFFFFFFFFF AND CALLER PUSH20 0xFFFFFFFFFFFFFFFFFFFFFFFFFFFFFFFFFFFFFFFF AND EQ PUSH2 0xAAC JUMPI PUSH1 0x40 MLOAD PUSH32 0x8C379A000000000000000000000000000000000000000000000000000000000 DUP2 MSTORE PUSH1 0x4 ADD PUSH2 0xAA3 SWAP1 PUSH2 0x186A JUMP JUMPDEST PUSH1 0x40 MLOAD DUP1 SWAP2 SUB SWAP1 REVERT JUMPDEST PUSH1 0x6 SLOAD CALLVALUE EQ PUSH2 0xAF0 JUMPI PUSH1 0x40 MLOAD PUSH32 0x8C379A000000000000000000000000000000000000000000000000000000000 DUP2 MSTORE PUSH1 0x4 ADD PUSH2 0xAE7 SWAP1 PUSH2 0x17EA JUMP JUMPDEST PUSH1 0x40 MLOAD DUP1 SWAP2 SUB SWAP1 REVERT JUMPDEST PUSH1 0xA PUSH1 0x0 DUP3 PUSH20 0xFFFFFFFFFFFFFFFFFFFFFFFFFFFFFFFFFFFFFFFF AND PUSH20 0xFFFFFFFFFFFFFFFFFFFFFFFFFFFFFFFFFFFFFFFF AND DUP2 MSTORE PUSH1 0x20 ADD SWAP1 DUP2 MSTORE PUSH1 0x20 ADD PUSH1 0x0 KECCAK256 PUSH1 0x1 ADD PUSH1 0x14 SWAP1 SLOAD SWAP1 PUSH2 0x100 EXP SWAP1 DIV PUSH1 0xFF AND PUSH2 0xB7F JUMPI PUSH1 0x40 MLOAD PUSH32 0x8C379A000000000000000000000000000000000000000000000000000000000 DUP2 MSTORE PUSH1 0x4 ADD PUSH2 0xB76 SWAP1 PUSH2 0x182A JUMP JUMPDEST PUSH1 0x40 MLOAD DUP1 SWAP2 SUB SWAP1 REVERT JUMPDEST PUSH1 0x1 PUSH1 0xA PUSH1 0x0 DUP4 PUSH20 0xFFFFFFFFFFFFFFFFFFFFFFFFFFFFFFFFFFFFFFFF AND PUSH20 0xFFFFFFFFFFFFFFFFFFFFFFFFFFFFFFFFFFFFFFFF AND DUP2 MSTORE PUSH1 0x20 ADD SWAP1 DUP2 MSTORE PUSH1 0x20 ADD PUSH1 0x0 KECCAK256 PUSH1 0x1 ADD PUSH1 0x15 PUSH2 0x100 EXP DUP2 SLOAD DUP2 PUSH1 0xFF MUL NOT AND SWAP1 DUP4 ISZERO ISZERO MUL OR SWAP1 SSTORE POP PUSH1 0x1 PUSH1 0xA PUSH1 0x0 DUP4 PUSH20 0xFFFFFFFFFFFFFFFFFFFFFFFFFFFFFFFFFFFFFFFF AND PUSH20 0xFFFFFFFFFFFFFFFFFFFFFFFFFFFFFFFFFFFFFFFF AND DUP2 MSTORE PUSH1 0x20 ADD SWAP1 DUP2 MSTORE PUSH1 0x20 ADD PUSH1 0x0 KECCAK256 PUSH1 0x1 ADD PUSH1 0x16 PUSH2 0x100 EXP DUP2 SLOAD DUP2 PUSH1 0xFF MUL NOT AND SWAP1 DUP4 ISZERO ISZERO MUL OR SWAP1 SSTORE POP PUSH32 0x58E5C8CF0E372BB45B1E9DD58EB576874F2991FAC3A526831C2850C73FA9A919 DUP2 TIMESTAMP PUSH1 0x40 MLOAD PUSH2 0xC66 SWAP3 SWAP2 SWAP1 PUSH2 0x17A6 JUMP JUMPDEST PUSH1 0x40 MLOAD DUP1 SWAP2 SUB SWAP1 LOG1 POP JUMP JUMPDEST PUSH1 0x6 SLOAD CALLVALUE EQ PUSH2 0xCB5 JUMPI PUSH1 0x40 MLOAD PUSH32 0x8C379A000000000000000000000000000000000000000000000000000000000 DUP2 MSTORE PUSH1 0x4 ADD PUSH2 0xCAC SWAP1 PUSH2 0x17EA JUMP JUMPDEST PUSH1 0x40 MLOAD DUP1 SWAP2 SUB SWAP1 REVERT JUMPDEST DUP2 PUSH20 0xFFFFFFFFFFFFFFFFFFFFFFFFFFFFFFFFFFFFFFFF AND PUSH1 0x9 PUSH1 0x0 DUP4 DUP2 MSTORE PUSH1 0x20 ADD SWAP1 DUP2 MSTORE PUSH1 0x20 ADD PUSH1 0x0 KECCAK256 PUSH1 0x0 SWAP1 SLOAD SWAP1 PUSH2 0x100 EXP SWAP1 DIV PUSH20 0xFFFFFFFFFFFFFFFFFFFFFFFFFFFFFFFFFFFFFFFF AND PUSH20 0xFFFFFFFFFFFFFFFFFFFFFFFFFFFFFFFFFFFFFFFF AND EQ PUSH2 0xD56 JUMPI PUSH1 0x40 MLOAD PUSH32 0x8C379A000000000000000000000000000000000000000000000000000000000 DUP2 MSTORE PUSH1 0x4 ADD PUSH2 0xD4D SWAP1 PUSH2 0x180A JUMP JUMPDEST PUSH1 0x40 MLOAD DUP1 SWAP2 SUB SWAP1 REVERT JUMPDEST PUSH1 0xA PUSH1 0x0 CALLER PUSH20 0xFFFFFFFFFFFFFFFFFFFFFFFFFFFFFFFFFFFFFFFF AND PUSH20 0xFFFFFFFFFFFFFFFFFFFFFFFFFFFFFFFFFFFFFFFF AND DUP2 MSTORE PUSH1 0x20 ADD SWAP1 DUP2 MSTORE PUSH1 0x20 ADD PUSH1 0x0 KECCAK256 PUSH1 0x1 ADD PUSH1 0x16 SWAP1 SLOAD SWAP1 PUSH2 0x100 EXP SWAP1 DIV PUSH1 0xFF AND ISZERO PUSH2 0xDE6 JUMPI PUSH1 0x40 MLOAD PUSH32 0x8C379A000000000000000000000000000000000000000000000000000000000 DUP2 MSTORE PUSH1 0x4 ADD PUSH2 0xDDD SWAP1 PUSH2 0x188A JUMP JUMPDEST PUSH1 0x40 MLOAD DUP1 SWAP2 SUB SWAP1 REVERT JUMPDEST DUP1 PUSH1 0xA PUSH1 0x0 CALLER PUSH20 0xFFFFFFFFFFFFFFFFFFFFFFFFFFFFFFFFFFFFFFFF AND PUSH20 0xFFFFFFFFFFFFFFFFFFFFFFFFFFFFFFFFFFFFFFFF AND DUP2 MSTORE PUSH1 0x20 ADD SWAP1 DUP2 MSTORE PUSH1 0x20 ADD PUSH1 0x0 KECCAK256 PUSH1 0x0 ADD DUP2 SWAP1 SSTORE POP DUP2 PUSH1 0xA PUSH1 0x0 CALLER PUSH20 0xFFFFFFFFFFFFFFFFFFFFFFFFFFFFFFFFFFFFFFFF AND PUSH20 0xFFFFFFFFFFFFFFFFFFFFFFFFFFFFFFFFFFFFFFFF AND DUP2 MSTORE PUSH1 0x20 ADD SWAP1 DUP2 MSTORE PUSH1 0x20 ADD PUSH1 0x0 KECCAK256 PUSH1 0x1 ADD PUSH1 0x0 PUSH2 0x100 EXP DUP2 SLOAD DUP2 PUSH20 0xFFFFFFFFFFFFFFFFFFFFFFFFFFFFFFFFFFFFFFFF MUL NOT AND SWAP1 DUP4 PUSH20 0xFFFFFFFFFFFFFFFFFFFFFFFFFFFFFFFFFFFFFFFF AND MUL OR SWAP1 SSTORE POP PUSH1 0x1 PUSH1 0xA PUSH1 0x0 CALLER PUSH20 0xFFFFFFFFFFFFFFFFFFFFFFFFFFFFFFFFFFFFFFFF AND PUSH20 0xFFFFFFFFFFFFFFFFFFFFFFFFFFFFFFFFFFFFFFFF AND DUP2 MSTORE PUSH1 0x20 ADD SWAP1 DUP2 MSTORE PUSH1 0x20 ADD PUSH1 0x0 KECCAK256 PUSH1 0x1 ADD PUSH1 0x14 PUSH2 0x100 EXP DUP2 SLOAD DUP2 PUSH1 0xFF MUL NOT AND SWAP1 DUP4 ISZERO ISZERO MUL OR SWAP1 SSTORE POP PUSH32 0x7B9C25AFA0BAC55B5D0102B9327C25304E59DA6405A1ADBBE32D5A4C0F27158D CALLER PUSH1 0x40 MLOAD PUSH2 0xF38 SWAP2 SWAP1 PUSH2 0x1754 JUMP JUMPDEST PUSH1 0x40 MLOAD DUP1 SWAP2 SUB SWAP1 LOG1 POP POP JUMP JUMPDEST PUSH1 0x1 SLOAD TIMESTAMP LT ISZERO PUSH2 0xF53 JUMPI PUSH1 0x0 DUP1 REVERT JUMPDEST PUSH1 0x5 PUSH1 0x0 SWAP1 SLOAD SWAP1 PUSH2 0x100 EXP SWAP1 DIV PUSH1 0xFF AND ISZERO PUSH2 0xF6D JUMPI PUSH1 0x0 DUP1 REVERT JUMPDEST PUSH1 0x1 PUSH1 0x5 PUSH1 0x0 PUSH2 0x100 EXP DUP2 SLOAD DUP2 PUSH1 0xFF MUL NOT AND SWAP1 DUP4 ISZERO ISZERO MUL OR SWAP1 SSTORE POP PUSH32 0xC9B64CAA2AA57493E3A2B3087A613AD4168386AA000BE494A8A41CD06BD3844A PUSH1 0x2 PUSH1 0x0 SWAP1 SLOAD SWAP1 PUSH2 0x100 EXP SWAP1 DIV PUSH20 0xFFFFFFFFFFFFFFFFFFFFFFFFFFFFFFFFFFFFFFFF AND PUSH1 0x3 SLOAD PUSH1 0x40 MLOAD PUSH2 0xFDD SWAP3 SWAP2 SWAP1 PUSH2 0x17A6 JUMP JUMPDEST PUSH1 0x40 MLOAD DUP1 SWAP2 SUB SWAP1 LOG1 JUMP JUMPDEST DUP1 PUSH1 0x0 DUP1 PUSH2 0x100 EXP DUP2 SLOAD DUP2 PUSH20 0xFFFFFFFFFFFFFFFFFFFFFFFFFFFFFFFFFFFFFFFF MUL NOT AND SWAP1 DUP4 PUSH20 0xFFFFFFFFFFFFFFFFFFFFFFFFFFFFFFFFFFFFFFFF AND MUL OR SWAP1 SSTORE POP DUP2 TIMESTAMP PUSH2 0x1033 SWAP2 SWAP1 PUSH2 0x1929 JUMP JUMPDEST PUSH1 0x1 DUP2 SWAP1 SSTORE POP POP POP JUMP JUMPDEST PUSH1 0x5 PUSH1 0x1 SWAP1 SLOAD SWAP1 PUSH2 0x100 EXP SWAP1 DIV PUSH20 0xFFFFFFFFFFFFFFFFFFFFFFFFFFFFFFFFFFFFFFFF AND PUSH20 0xFFFFFFFFFFFFFFFFFFFFFFFFFFFFFFFFFFFFFFFF AND CALLER PUSH20 0xFFFFFFFFFFFFFFFFFFFFFFFFFFFFFFFFFFFFFFFF AND EQ PUSH2 0x10CD JUMPI PUSH1 0x40 MLOAD PUSH32 0x8C379A000000000000000000000000000000000000000000000000000000000 DUP2 MSTORE PUSH1 0x4 ADD PUSH2 0x10C4 SWAP1 PUSH2 0x184A JUMP JUMPDEST PUSH1 0x40 MLOAD DUP1 SWAP2 SUB SWAP1 REVERT JUMPDEST DUP1 PUSH20 0xFFFFFFFFFFFFFFFFFFFFFFFFFFFFFFFFFFFFFFFF AND PUSH2 0x8FC PUSH1 0x6 SLOAD SWAP1 DUP2 ISZERO MUL SWAP1 PUSH1 0x40 MLOAD PUSH1 0x0 PUSH1 0x40 MLOAD DUP1 DUP4 SUB DUP2 DUP6 DUP9 DUP9 CALL SWAP4 POP POP POP POP ISZERO DUP1 ISZERO PUSH2 0x1115 JUMPI RETURNDATASIZE PUSH1 0x0 DUP1 RETURNDATACOPY RETURNDATASIZE PUSH1 0x0 REVERT JUMPDEST POP POP JUMP JUMPDEST PUSH1 0x5 PUSH1 0x1 SWAP1 SLOAD SWAP1 PUSH2 0x100 EXP SWAP1 DIV PUSH20 0xFFFFFFFFFFFFFFFFFFFFFFFFFFFFFFFFFFFFFFFF AND PUSH20 0xFFFFFFFFFFFFFFFFFFFFFFFFFFFFFFFFFFFFFFFF AND CALLER PUSH20 0xFFFFFFFFFFFFFFFFFFFFFFFFFFFFFFFFFFFFFFFF AND EQ PUSH2 0x11A9 JUMPI PUSH1 0x40 MLOAD PUSH32 0x8C379A000000000000000000000000000000000000000000000000000000000 DUP2 MSTORE PUSH1 0x4 ADD PUSH2 0x11A0 SWAP1 PUSH2 0x184A JUMP JUMPDEST PUSH1 0x40 MLOAD DUP1 SWAP2 SUB SWAP1 REVERT JUMPDEST DUP1 PUSH1 0x6 DUP2 SWAP1 SSTORE POP POP JUMP JUMPDEST PUSH1 0x5 PUSH1 0x1 SWAP1 SLOAD SWAP1 PUSH2 0x100 EXP SWAP1 DIV PUSH20 0xFFFFFFFFFFFFFFFFFFFFFFFFFFFFFFFFFFFFFFFF AND DUP2 JUMP JUMPDEST PUSH1 0x0 DUP1 SLOAD SWAP1 PUSH2 0x100 EXP SWAP1 DIV PUSH20 0xFFFFFFFFFFFFFFFFFFFFFFFFFFFFFFFFFFFFFFFF AND DUP2 JUMP JUMPDEST PUSH1 0x5 PUSH1 0x1 SWAP1 SLOAD SWAP1 PUSH2 0x100 EXP SWAP1 DIV PUSH20 0xFFFFFFFFFFFFFFFFFFFFFFFFFFFFFFFFFFFFFFFF AND PUSH20 0xFFFFFFFFFFFFFFFFFFFFFFFFFFFFFFFFFFFFFFFF AND CALLER PUSH20 0xFFFFFFFFFFFFFFFFFFFFFFFFFFFFFFFFFFFFFFFF AND EQ PUSH2 0x128D JUMPI PUSH1 0x40 MLOAD PUSH32 0x8C379A000000000000000000000000000000000000000000000000000000000 DUP2 MSTORE PUSH1 0x4 ADD PUSH2 0x1284 SWAP1 PUSH2 0x184A JUMP JUMPDEST PUSH1 0x40 MLOAD DUP1 SWAP2 SUB SWAP1 REVERT JUMPDEST PUSH1 0x1 PUSH1 0x7 PUSH1 0x0 DUP5 PUSH20 0xFFFFFFFFFFFFFFFFFFFFFFFFFFFFFFFFFFFFFFFF AND PUSH20 0xFFFFFFFFFFFFFFFFFFFFFFFFFFFFFFFFFFFFFFFF AND DUP2 MSTORE PUSH1 0x20 ADD SWAP1 DUP2 MSTORE PUSH1 0x20 ADD PUSH1 0x0 KECCAK256 PUSH1 0x0 PUSH2 0x100 EXP DUP2 SLOAD DUP2 PUSH1 0xFF MUL NOT AND SWAP1 DUP4 ISZERO ISZERO MUL OR SWAP1 SSTORE POP DUP2 PUSH1 0x9 PUSH1 0x0 DUP4 DUP2 MSTORE PUSH1 0x20 ADD SWAP1 DUP2 MSTORE PUSH1 0x20 ADD PUSH1 0x0 KECCAK256 PUSH1 0x0 PUSH2 0x100 EXP DUP2 SLOAD DUP2 PUSH20 0xFFFFFFFFFFFFFFFFFFFFFFFFFFFFFFFFFFFFFFFF MUL NOT AND SWAP1 DUP4 PUSH20 0xFFFFFFFFFFFFFFFFFFFFFFFFFFFFFFFFFFFFFFFF AND MUL OR SWAP1 SSTORE POP PUSH32 0x7F425B0E1445BB744DD2714B48E6A4D17FB072590BC65FAA8E704EC44D99BB6A DUP3 DUP3 PUSH1 0x40 MLOAD PUSH2 0x1368 SWAP3 SWAP2 SWAP1 PUSH2 0x17A6 JUMP JUMPDEST PUSH1 0x40 MLOAD DUP1 SWAP2 SUB SWAP1 LOG1 POP POP JUMP JUMPDEST PUSH1 0xA PUSH1 0x20 MSTORE DUP1 PUSH1 0x0 MSTORE PUSH1 0x40 PUSH1 0x0 KECCAK256 PUSH1 0x0 SWAP2 POP SWAP1 POP DUP1 PUSH1 0x0 ADD SLOAD SWAP1 DUP1 PUSH1 0x1 ADD PUSH1 0x0 SWAP1 SLOAD SWAP1 PUSH2 0x100 EXP SWAP1 DIV PUSH20 0xFFFFFFFFFFFFFFFFFFFFFFFFFFFFFFFFFFFFFFFF AND SWAP1 DUP1 PUSH1 0x1 ADD PUSH1 0x14 SWAP1 SLOAD SWAP1 PUSH2 0x100 EXP SWAP1 DIV PUSH1 0xFF AND SWAP1 DUP1 PUSH1 0x1 ADD PUSH1 0x15 SWAP1 SLOAD SWAP1 PUSH2 0x100 EXP SWAP1 DIV PUSH1 0xFF AND SWAP1 DUP1 PUSH1 0x1 ADD PUSH1 0x16 SWAP1 SLOAD SWAP1 PUSH2 0x100 EXP SWAP1 DIV PUSH1 0xFF AND SWAP1 POP DUP6 JUMP JUMPDEST PUSH1 0x0 DUP1 SLOAD SWAP1 PUSH2 0x100 EXP SWAP1 DIV PUSH20 0xFFFFFFFFFFFFFFFFFFFFFFFFFFFFFFFFFFFFFFFF AND PUSH20 0xFFFFFFFFFFFFFFFFFFFFFFFFFFFFFFFFFFFFFFFF AND PUSH2 0x8FC PUSH1 0x3 SLOAD SWAP1 DUP2 ISZERO MUL SWAP1 PUSH1 0x40 MLOAD PUSH1 0x0 PUSH1 0x40 MLOAD DUP1 DUP4 SUB DUP2 DUP6 DUP9 DUP9 CALL SWAP4 POP POP POP POP ISZERO DUP1 ISZERO PUSH2 0x1459 JUMPI RETURNDATASIZE PUSH1 0x0 DUP1 RETURNDATACOPY RETURNDATASIZE PUSH1 0x0 REVERT JUMPDEST POP JUMP JUMPDEST PUSH1 0x0 DUP2 CALLDATALOAD SWAP1 POP PUSH2 0x146B DUP2 PUSH2 0x1B39 JUMP JUMPDEST SWAP3 SWAP2 POP POP JUMP JUMPDEST PUSH1 0x0 DUP2 CALLDATALOAD SWAP1 POP PUSH2 0x1480 DUP2 PUSH2 0x1B50 JUMP JUMPDEST SWAP3 SWAP2 POP POP JUMP JUMPDEST PUSH1 0x0 DUP2 CALLDATALOAD SWAP1 POP PUSH2 0x1495 DUP2 PUSH2 0x1B67 JUMP JUMPDEST SWAP3 SWAP2 POP POP JUMP JUMPDEST PUSH1 0x0 DUP2 CALLDATALOAD SWAP1 POP PUSH2 0x14AA DUP2 PUSH2 0x1B7E JUMP JUMPDEST SWAP3 SWAP2 POP POP JUMP JUMPDEST PUSH1 0x0 PUSH1 0x20 DUP3 DUP5 SUB SLT ISZERO PUSH2 0x14C6 JUMPI PUSH2 0x14C5 PUSH2 0x1A3E JUMP JUMPDEST JUMPDEST PUSH1 0x0 PUSH2 0x14D4 DUP5 DUP3 DUP6 ADD PUSH2 0x145C JUMP JUMPDEST SWAP2 POP POP SWAP3 SWAP2 POP POP JUMP JUMPDEST PUSH1 0x0 PUSH1 0x20 DUP3 DUP5 SUB SLT ISZERO PUSH2 0x14F3 JUMPI PUSH2 0x14F2 PUSH2 0x1A3E JUMP JUMPDEST JUMPDEST PUSH1 0x0 PUSH2 0x1501 DUP5 DUP3 DUP6 ADD PUSH2 0x1471 JUMP JUMPDEST SWAP2 POP POP SWAP3 SWAP2 POP POP JUMP JUMPDEST PUSH1 0x0 DUP1 PUSH1 0x40 DUP4 DUP6 SUB SLT ISZERO PUSH2 0x1521 JUMPI PUSH2 0x1520 PUSH2 0x1A3E JUMP JUMPDEST JUMPDEST PUSH1 0x0 PUSH2 0x152F DUP6 DUP3 DUP7 ADD PUSH2 0x1471 JUMP JUMPDEST SWAP3 POP POP PUSH1 0x20 PUSH2 0x1540 DUP6 DUP3 DUP7 ADD PUSH2 0x1486 JUMP JUMPDEST SWAP2 POP POP SWAP3 POP SWAP3 SWAP1 POP JUMP JUMPDEST PUSH1 0x0 DUP1 PUSH1 0x40 DUP4 DUP6 SUB SLT ISZERO PUSH2 0x1561 JUMPI PUSH2 0x1560 PUSH2 0x1A3E JUMP JUMPDEST JUMPDEST PUSH1 0x0 PUSH2 0x156F DUP6 DUP3 DUP7 ADD PUSH2 0x1471 JUMP JUMPDEST SWAP3 POP POP PUSH1 0x20 PUSH2 0x1580 DUP6 DUP3 DUP7 ADD PUSH2 0x149B JUMP JUMPDEST SWAP2 POP POP SWAP3 POP SWAP3 SWAP1 POP JUMP JUMPDEST PUSH1 0x0 DUP1 PUSH1 0x40 DUP4 DUP6 SUB SLT ISZERO PUSH2 0x15A1 JUMPI PUSH2 0x15A0 PUSH2 0x1A3E JUMP JUMPDEST JUMPDEST PUSH1 0x0 PUSH2 0x15AF DUP6 DUP3 DUP7 ADD PUSH2 0x145C JUMP JUMPDEST SWAP3 POP POP PUSH1 0x20 PUSH2 0x15C0 DUP6 DUP3 DUP7 ADD PUSH2 0x149B JUMP JUMPDEST SWAP2 POP POP SWAP3 POP SWAP3 SWAP1 POP JUMP JUMPDEST PUSH1 0x0 PUSH1 0x20 DUP3 DUP5 SUB SLT ISZERO PUSH2 0x15E0 JUMPI PUSH2 0x15DF PUSH2 0x1A3E JUMP JUMPDEST JUMPDEST PUSH1 0x0 PUSH2 0x15EE DUP5 DUP3 DUP6 ADD PUSH2 0x149B JUMP JUMPDEST SWAP2 POP POP SWAP3 SWAP2 POP POP JUMP JUMPDEST PUSH1 0x0 DUP1 PUSH1 0x40 DUP4 DUP6 SUB SLT ISZERO PUSH2 0x160E JUMPI PUSH2 0x160D PUSH2 0x1A3E JUMP JUMPDEST JUMPDEST PUSH1 0x0 PUSH2 0x161C DUP6 DUP3 DUP7 ADD PUSH2 0x149B JUMP JUMPDEST SWAP3 POP POP PUSH1 0x20 PUSH2 0x162D DUP6 DUP3 DUP7 ADD PUSH2 0x145C JUMP JUMPDEST SWAP2 POP POP SWAP3 POP SWAP3 SWAP1 POP JUMP JUMPDEST PUSH2 0x1640 DUP2 PUSH2 0x19D9 JUMP JUMPDEST DUP3 MSTORE POP POP JUMP JUMPDEST PUSH2 0x164F DUP2 PUSH2 0x1991 JUMP JUMPDEST DUP3 MSTORE POP POP JUMP JUMPDEST PUSH2 0x165E DUP2 PUSH2 0x197F JUMP JUMPDEST DUP3 MSTORE POP POP JUMP JUMPDEST PUSH2 0x166D DUP2 PUSH2 0x19A3 JUMP JUMPDEST DUP3 MSTORE POP POP JUMP JUMPDEST PUSH1 0x0 PUSH2 0x1680 PUSH1 0x10 DUP4 PUSH2 0x1918 JUMP JUMPDEST SWAP2 POP PUSH2 0x168B DUP3 PUSH2 0x1A43 JUMP JUMPDEST PUSH1 0x20 DUP3 ADD SWAP1 POP SWAP2 SWAP1 POP JUMP JUMPDEST PUSH1 0x0 PUSH2 0x16A3 PUSH1 0x10 DUP4 PUSH2 0x1918 JUMP JUMPDEST SWAP2 POP PUSH2 0x16AE DUP3 PUSH2 0x1A6C JUMP JUMPDEST PUSH1 0x20 DUP3 ADD SWAP1 POP SWAP2 SWAP1 POP JUMP JUMPDEST PUSH1 0x0 PUSH2 0x16C6 PUSH1 0xA DUP4 PUSH2 0x1918 JUMP JUMPDEST SWAP2 POP PUSH2 0x16D1 DUP3 PUSH2 0x1A95 JUMP JUMPDEST PUSH1 0x20 DUP3 ADD SWAP1 POP SWAP2 SWAP1 POP JUMP JUMPDEST PUSH1 0x0 PUSH2 0x16E9 PUSH1 0x10 DUP4 PUSH2 0x1918 JUMP JUMPDEST SWAP2 POP PUSH2 0x16F4 DUP3 PUSH2 0x1ABE JUMP JUMPDEST PUSH1 0x20 DUP3 ADD SWAP1 POP SWAP2 SWAP1 POP JUMP JUMPDEST PUSH1 0x0 PUSH2 0x170C PUSH1 0x11 DUP4 PUSH2 0x1918 JUMP JUMPDEST SWAP2 POP PUSH2 0x1717 DUP3 PUSH2 0x1AE7 JUMP JUMPDEST PUSH1 0x20 DUP3 ADD SWAP1 POP SWAP2 SWAP1 POP JUMP JUMPDEST PUSH1 0x0 PUSH2 0x172F PUSH1 0x13 DUP4 PUSH2 0x1918 JUMP JUMPDEST SWAP2 POP PUSH2 0x173A DUP3 PUSH2 0x1B10 JUMP JUMPDEST PUSH1 0x20 DUP3 ADD SWAP1 POP SWAP2 SWAP1 POP JUMP JUMPDEST PUSH2 0x174E DUP2 PUSH2 0x19CF JUMP JUMPDEST DUP3 MSTORE POP POP JUMP JUMPDEST PUSH1 0x0 PUSH1 0x20 DUP3 ADD SWAP1 POP PUSH2 0x1769 PUSH1 0x0 DUP4 ADD DUP5 PUSH2 0x1655 JUMP JUMPDEST SWAP3 SWAP2 POP POP JUMP JUMPDEST PUSH1 0x0 PUSH1 0x60 DUP3 ADD SWAP1 POP PUSH2 0x1784 PUSH1 0x0 DUP4 ADD DUP7 PUSH2 0x1637 JUMP JUMPDEST PUSH2 0x1791 PUSH1 0x20 DUP4 ADD DUP6 PUSH2 0x1655 JUMP JUMPDEST PUSH2 0x179E PUSH1 0x40 DUP4 ADD DUP5 PUSH2 0x1745 JUMP JUMPDEST SWAP5 SWAP4 POP POP POP POP JUMP JUMPDEST PUSH1 0x0 PUSH1 0x40 DUP3 ADD SWAP1 POP PUSH2 0x17BB PUSH1 0x0 DUP4 ADD DUP6 PUSH2 0x1655 JUMP JUMPDEST PUSH2 0x17C8 PUSH1 0x20 DUP4 ADD DUP5 PUSH2 0x1745 JUMP JUMPDEST SWAP4 SWAP3 POP POP POP JUMP JUMPDEST PUSH1 0x0 PUSH1 0x20 DUP3 ADD SWAP1 POP PUSH2 0x17E4 PUSH1 0x0 DUP4 ADD DUP5 PUSH2 0x1664 JUMP JUMPDEST SWAP3 SWAP2 POP POP JUMP JUMPDEST PUSH1 0x0 PUSH1 0x20 DUP3 ADD SWAP1 POP DUP2 DUP2 SUB PUSH1 0x0 DUP4 ADD MSTORE PUSH2 0x1803 DUP2 PUSH2 0x1673 JUMP JUMPDEST SWAP1 POP SWAP2 SWAP1 POP JUMP JUMPDEST PUSH1 0x0 PUSH1 0x20 DUP3 ADD SWAP1 POP DUP2 DUP2 SUB PUSH1 0x0 DUP4 ADD MSTORE PUSH2 0x1823 DUP2 PUSH2 0x1696 JUMP JUMPDEST SWAP1 POP SWAP2 SWAP1 POP JUMP JUMPDEST PUSH1 0x0 PUSH1 0x20 DUP3 ADD SWAP1 POP DUP2 DUP2 SUB PUSH1 0x0 DUP4 ADD MSTORE PUSH2 0x1843 DUP2 PUSH2 0x16B9 JUMP JUMPDEST SWAP1 POP SWAP2 SWAP1 POP JUMP JUMPDEST PUSH1 0x0 PUSH1 0x20 DUP3 ADD SWAP1 POP DUP2 DUP2 SUB PUSH1 0x0 DUP4 ADD MSTORE PUSH2 0x1863 DUP2 PUSH2 0x16DC JUMP JUMPDEST SWAP1 POP SWAP2 SWAP1 POP JUMP JUMPDEST PUSH1 0x0 PUSH1 0x20 DUP3 ADD SWAP1 POP DUP2 DUP2 SUB PUSH1 0x0 DUP4 ADD MSTORE PUSH2 0x1883 DUP2 PUSH2 0x16FF JUMP JUMPDEST SWAP1 POP SWAP2 SWAP1 POP JUMP JUMPDEST PUSH1 0x0 PUSH1 0x20 DUP3 ADD SWAP1 POP DUP2 DUP2 SUB PUSH1 0x0 DUP4 ADD MSTORE PUSH2 0x18A3 DUP2 PUSH2 0x1722 JUMP JUMPDEST SWAP1 POP SWAP2 SWAP1 POP JUMP JUMPDEST PUSH1 0x0 PUSH1 0x20 DUP3 ADD SWAP1 POP PUSH2 0x18BF PUSH1 0x0 DUP4 ADD DUP5 PUSH2 0x1745 JUMP JUMPDEST SWAP3 SWAP2 POP POP JUMP JUMPDEST PUSH1 0x0 PUSH1 0xA0 DUP3 ADD SWAP1 POP PUSH2 0x18DA PUSH1 0x0 DUP4 ADD DUP9 PUSH2 0x1745 JUMP JUMPDEST PUSH2 0x18E7 PUSH1 0x20 DUP4 ADD DUP8 PUSH2 0x1646 JUMP JUMPDEST PUSH2 0x18F4 PUSH1 0x40 DUP4 ADD DUP7 PUSH2 0x1664 JUMP JUMPDEST PUSH2 0x1901 PUSH1 0x60 DUP4 ADD DUP6 PUSH2 0x1664 JUMP JUMPDEST PUSH2 0x190E PUSH1 0x80 DUP4 ADD DUP5 PUSH2 0x1664 JUMP JUMPDEST SWAP7 SWAP6 POP POP POP POP POP POP JUMP JUMPDEST PUSH1 0x0 DUP3 DUP3 MSTORE PUSH1 0x20 DUP3 ADD SWAP1 POP SWAP3 SWAP2 POP POP JUMP JUMPDEST PUSH1 0x0 PUSH2 0x1934 DUP3 PUSH2 0x19CF JUMP JUMPDEST SWAP2 POP PUSH2 0x193F DUP4 PUSH2 0x19CF JUMP JUMPDEST SWAP3 POP DUP3 PUSH32 0xFFFFFFFFFFFFFFFFFFFFFFFFFFFFFFFFFFFFFFFFFFFFFFFFFFFFFFFFFFFFFFFF SUB DUP3 GT ISZERO PUSH2 0x1974 JUMPI PUSH2 0x1973 PUSH2 0x1A0F JUMP JUMPDEST JUMPDEST DUP3 DUP3 ADD SWAP1 POP SWAP3 SWAP2 POP POP JUMP JUMPDEST PUSH1 0x0 PUSH2 0x198A DUP3 PUSH2 0x19AF JUMP JUMPDEST SWAP1 POP SWAP2 SWAP1 POP JUMP JUMPDEST PUSH1 0x0 PUSH2 0x199C DUP3 PUSH2 0x19AF JUMP JUMPDEST SWAP1 POP SWAP2 SWAP1 POP JUMP JUMPDEST PUSH1 0x0 DUP2 ISZERO ISZERO SWAP1 POP SWAP2 SWAP1 POP JUMP JUMPDEST PUSH1 0x0 PUSH20 0xFFFFFFFFFFFFFFFFFFFFFFFFFFFFFFFFFFFFFFFF DUP3 AND SWAP1 POP SWAP2 SWAP1 POP JUMP JUMPDEST PUSH1 0x0 DUP2 SWAP1 POP SWAP2 SWAP1 POP JUMP JUMPDEST PUSH1 0x0 PUSH2 0x19E4 DUP3 PUSH2 0x19EB JUMP JUMPDEST SWAP1 POP SWAP2 SWAP1 POP JUMP JUMPDEST PUSH1 0x0 PUSH2 0x19F6 DUP3 PUSH2 0x19FD JUMP JUMPDEST SWAP1 POP SWAP2 SWAP1 POP JUMP JUMPDEST PUSH1 0x0 PUSH2 0x1A08 DUP3 PUSH2 0x19AF JUMP JUMPDEST SWAP1 POP SWAP2 SWAP1 POP JUMP JUMPDEST PUSH32 0x4E487B7100000000000000000000000000000000000000000000000000000000 PUSH1 0x0 MSTORE PUSH1 0x11 PUSH1 0x4 MSTORE PUSH1 0x24 PUSH1 0x0 REVERT JUMPDEST PUSH1 0x0 DUP1 REVERT JUMPDEST PUSH32 0x4E4F545F454E4F5547485F455448455200000000000000000000000000000000 PUSH1 0x0 DUP3 ADD MSTORE POP JUMP JUMPDEST PUSH32 0x4552524F525F42555945525F4954454D00000000000000000000000000000000 PUSH1 0x0 DUP3 ADD MSTORE POP JUMP JUMPDEST PUSH32 0x4E4F5F4445504F53495400000000000000000000000000000000000000000000 PUSH1 0x0 DUP3 ADD MSTORE POP JUMP JUMPDEST PUSH32 0x4E4F545F52455441494C5F53544F524500000000000000000000000000000000 PUSH1 0x0 DUP3 ADD MSTORE POP JUMP JUMPDEST PUSH32 0x4E4F545F434F52524543545F4255594552000000000000000000000000000000 PUSH1 0x0 DUP3 ADD MSTORE POP JUMP JUMPDEST PUSH32 0x434F55524945525F4841535F5245515545535400000000000000000000000000 PUSH1 0x0 DUP3 ADD MSTORE POP JUMP JUMPDEST PUSH2 0x1B42 DUP2 PUSH2 0x197F JUMP JUMPDEST DUP2 EQ PUSH2 0x1B4D JUMPI PUSH1 0x0 DUP1 REVERT JUMPDEST POP JUMP JUMPDEST PUSH2 0x1B59 DUP2 PUSH2 0x1991 JUMP JUMPDEST DUP2 EQ PUSH2 0x1B64 JUMPI PUSH1 0x0 DUP1 REVERT JUMPDEST POP JUMP JUMPDEST PUSH2 0x1B70 DUP2 PUSH2 0x19A3 JUMP JUMPDEST DUP2 EQ PUSH2 0x1B7B JUMPI PUSH1 0x0 DUP1 REVERT JUMPDEST POP JUMP JUMPDEST PUSH2 0x1B87 DUP2 PUSH2 0x19CF JUMP JUMPDEST DUP2 EQ PUSH2 0x1B92 JUMPI PUSH1 0x0 DUP1 REVERT JUMPDEST POP JUMP INVALID LOG2 PUSH5 0x6970667358 0x22 SLT KECCAK256 JUMPI 0xE8 0x29 PUSH19 0x84EE6D5415F31F1276F6DED0F31F0B3AB2C1E0 0x5D DUP9 PUSH19 0xE4713F6F9F164736F6C634300080600330000 "
				},
				"gasEstimates": {
					"creation": {
						"codeDepositCost": "1423000",
						"executionCost": "47908",
						"totalCost": "1470908"
					},
					"external": {
						"Courier(address)": "infinite",
						"SimpleAuctions(uint256,address)": "infinite",
						"approveBuyer(address,uint256)": "infinite",
						"auctionClose()": "2519",
						"auctionClosed()": "34572",
						"beneficiaryAddress()": "2577",
						"bid()": "infinite",
						"buyerApproval(address,bool)": "infinite",
						"buyerDeposit(address)": "infinite",
						"changeDeposit(uint256)": "24762",
						"courierEstablishDelivery(address,uint256)": "infinite",
						"getBalance()": "385",
						"retailStore()": "2608",
						"returnDeposit(address)": "infinite",
						"topBid()": "2474",
						"topBidder()": "2538",
						"withdraw()": "infinite"
					}
				},
				"methodIdentifiers": {
					"Courier(address)": "fe27b1e1",
					"SimpleAuctions(uint256,address)": "b4b48cf1",
					"approveBuyer(address,uint256)": "e3305bd3",
					"auctionClose()": "19c2a5b5",
					"auctionClosed()": "aeaaa299",
					"beneficiaryAddress()": "d9c4870e",
					"bid()": "1998aeef",
					"buyerApproval(address,bool)": "76f585ec",
					"buyerDeposit(address)": "7ffdf46b",
					"changeDeposit(uint256)": "c2a2ce06",
					"courierEstablishDelivery(address,uint256)": "9915f14e",
					"getBalance()": "12065fe0",
					"retailStore()": "c31ab39d",
					"returnDeposit(address)": "bdef9303",
					"topBid()": "636bf730",
					"topBidder()": "01333f06",
					"withdraw()": "3ccfd60b"
				}
			},
			"userdoc": {
				"kind": "user",
				"methods": {
					"SimpleAuctions(uint256,address)": {
						"notice": "Create an auction with `_biddingTime` seconds for bidding on behalf of the beneficiary address `_beneficiary`."
					},
					"auctionClosed()": {
						"notice": "Auction ends and highest bid is sent to the beneficiary."
					},
					"bid()": {
						"notice": "You may bid on the auction with the value sent along with this transaction. The value may only be refunded if the auction was not won."
					},
					"withdraw()": {
						"notice": "Withdraw a bid that was overbid."
					}
				},
				"version": 1
			}
		}
	}
}