{
	"contracts/auction2.sol": {
		"SimpleAuction": {
			"abi": [
				{
					"anonymous": false,
					"inputs": [
						{
							"indexed": false,
							"internalType": "address",
							"name": "winner",
							"type": "address"
						},
						{
							"indexed": false,
							"internalType": "uint256",
							"name": "bidAmount",
							"type": "uint256"
						}
					],
					"name": "auctionResult",
					"type": "event"
				},
				{
					"anonymous": false,
					"inputs": [
						{
							"indexed": false,
							"internalType": "address",
							"name": "bidder",
							"type": "address"
						},
						{
							"indexed": false,
							"internalType": "uint256",
							"name": "bidAmount",
							"type": "uint256"
						}
					],
					"name": "topBidIncreased",
					"type": "event"
				},
				{
					"inputs": [
						{
							"internalType": "uint256",
							"name": "_biddingTime",
							"type": "uint256"
						},
						{
							"internalType": "address",
							"name": "_beneficiary",
							"type": "address"
						}
					],
					"name": "SimpleAuctions",
					"outputs": [],
					"stateMutability": "nonpayable",
					"type": "function"
				},
				{
					"inputs": [],
					"name": "auctionClose",
					"outputs": [
						{
							"internalType": "uint256",
							"name": "",
							"type": "uint256"
						}
					],
					"stateMutability": "view",
					"type": "function"
				},
				{
					"inputs": [],
					"name": "auctionClosed",
					"outputs": [],
					"stateMutability": "nonpayable",
					"type": "function"
				},
				{
					"inputs": [],
					"name": "beneficiaryAddress",
					"outputs": [
						{
							"internalType": "address",
							"name": "",
							"type": "address"
						}
					],
					"stateMutability": "view",
					"type": "function"
				},
				{
					"inputs": [],
					"name": "bid",
					"outputs": [],
					"stateMutability": "payable",
					"type": "function"
				},
				{
					"inputs": [],
					"name": "topBid",
					"outputs": [
						{
							"internalType": "uint256",
							"name": "",
							"type": "uint256"
						}
					],
					"stateMutability": "view",
					"type": "function"
				},
				{
					"inputs": [],
					"name": "topBidder",
					"outputs": [
						{
							"internalType": "address",
							"name": "",
							"type": "address"
						}
					],
					"stateMutability": "view",
					"type": "function"
				},
				{
					"inputs": [],
					"name": "withdraw",
					"outputs": [
						{
							"internalType": "bool",
							"name": "",
							"type": "bool"
						}
					],
					"stateMutability": "nonpayable",
					"type": "function"
				}
			],
			"devdoc": {
				"kind": "dev",
				"methods": {},
				"version": 1
			},
			"evm": {
				"assembly": "    /* \"contracts/auction2.sol\":59:4526  contract SimpleAuction {\r... */\n  mstore(0x40, 0x80)\n  callvalue\n  dup1\n  iszero\n  tag_1\n  jumpi\n  0x00\n  dup1\n  revert\ntag_1:\n  pop\n  dataSize(sub_0)\n  dup1\n  dataOffset(sub_0)\n  0x00\n  codecopy\n  0x00\n  return\nstop\n\nsub_0: assembly {\n        /* \"contracts/auction2.sol\":59:4526  contract SimpleAuction {\r... */\n      mstore(0x40, 0x80)\n      jumpi(tag_1, lt(calldatasize, 0x04))\n      shr(0xe0, calldataload(0x00))\n      dup1\n      0x636bf730\n      gt\n      tag_10\n      jumpi\n      dup1\n      0x636bf730\n      eq\n      tag_6\n      jumpi\n      dup1\n      0xaeaaa299\n      eq\n      tag_7\n      jumpi\n      dup1\n      0xb4b48cf1\n      eq\n      tag_8\n      jumpi\n      dup1\n      0xd9c4870e\n      eq\n      tag_9\n      jumpi\n      jump(tag_1)\n    tag_10:\n      dup1\n      0x01333f06\n      eq\n      tag_2\n      jumpi\n      dup1\n      0x1998aeef\n      eq\n      tag_3\n      jumpi\n      dup1\n      0x19c2a5b5\n      eq\n      tag_4\n      jumpi\n      dup1\n      0x3ccfd60b\n      eq\n      tag_5\n      jumpi\n    tag_1:\n      0x00\n      dup1\n      revert\n        /* \"contracts/auction2.sol\":367:391  address public topBidder */\n    tag_2:\n      callvalue\n      dup1\n      iszero\n      tag_11\n      jumpi\n      0x00\n      dup1\n      revert\n    tag_11:\n      pop\n      tag_12\n      tag_13\n      jump\t// in\n    tag_12:\n      mload(0x40)\n      tag_14\n      swap2\n      swap1\n      tag_15\n      jump\t// in\n    tag_14:\n      mload(0x40)\n      dup1\n      swap2\n      sub\n      swap1\n      return\n        /* \"contracts/auction2.sol\":1474:2511  function bid() payable public{\r... */\n    tag_3:\n      tag_16\n      tag_17\n      jump\t// in\n    tag_16:\n      stop\n        /* \"contracts/auction2.sol\":296:320  uint public auctionClose */\n    tag_4:\n      callvalue\n      dup1\n      iszero\n      tag_18\n      jumpi\n      0x00\n      dup1\n      revert\n    tag_18:\n      pop\n      tag_19\n      tag_20\n      jump\t// in\n    tag_19:\n      mload(0x40)\n      tag_21\n      swap2\n      swap1\n      tag_22\n      jump\t// in\n    tag_21:\n      mload(0x40)\n      dup1\n      swap2\n      sub\n      swap1\n      return\n        /* \"contracts/auction2.sol\":2561:3209  function withdraw() public returns (bool) {\r... */\n    tag_5:\n      callvalue\n      dup1\n      iszero\n      tag_23\n      jumpi\n      0x00\n      dup1\n      revert\n    tag_23:\n      pop\n      tag_24\n      tag_25\n      jump\t// in\n    tag_24:\n      mload(0x40)\n      tag_26\n      swap2\n      swap1\n      tag_27\n      jump\t// in\n    tag_26:\n      mload(0x40)\n      dup1\n      swap2\n      sub\n      swap1\n      return\n        /* \"contracts/auction2.sol\":398:416  uint public topBid */\n    tag_6:\n      callvalue\n      dup1\n      iszero\n      tag_28\n      jumpi\n      0x00\n      dup1\n      revert\n    tag_28:\n      pop\n      tag_29\n      tag_30\n      jump\t// in\n    tag_29:\n      mload(0x40)\n      tag_31\n      swap2\n      swap1\n      tag_22\n      jump\t// in\n    tag_31:\n      mload(0x40)\n      dup1\n      swap2\n      sub\n      swap1\n      return\n        /* \"contracts/auction2.sol\":3292:4407  function auctionClosed() public {\r... */\n    tag_7:\n      callvalue\n      dup1\n      iszero\n      tag_32\n      jumpi\n      0x00\n      dup1\n      revert\n    tag_32:\n      pop\n      tag_33\n      tag_34\n      jump\t// in\n    tag_33:\n      stop\n        /* \"contracts/auction2.sol\":1115:1295  function SimpleAuctions(uint _biddingTime, address _beneficiary) public {\r... */\n    tag_8:\n      callvalue\n      dup1\n      iszero\n      tag_35\n      jumpi\n      0x00\n      dup1\n      revert\n    tag_35:\n      pop\n      tag_36\n      0x04\n      dup1\n      calldatasize\n      sub\n      dup2\n      add\n      swap1\n      tag_37\n      swap2\n      swap1\n      tag_38\n      jump\t// in\n    tag_37:\n      tag_39\n      jump\t// in\n    tag_36:\n      stop\n        /* \"contracts/auction2.sol\":256:289  address public beneficiaryAddress */\n    tag_9:\n      callvalue\n      dup1\n      iszero\n      tag_40\n      jumpi\n      0x00\n      dup1\n      revert\n    tag_40:\n      pop\n      tag_41\n      tag_42\n      jump\t// in\n    tag_41:\n      mload(0x40)\n      tag_43\n      swap2\n      swap1\n      tag_15\n      jump\t// in\n    tag_43:\n      mload(0x40)\n      dup1\n      swap2\n      sub\n      swap1\n      return\n        /* \"contracts/auction2.sol\":367:391  address public topBidder */\n    tag_13:\n      0x02\n      0x00\n      swap1\n      sload\n      swap1\n      0x0100\n      exp\n      swap1\n      div\n      0xffffffffffffffffffffffffffffffffffffffff\n      and\n      dup2\n      jump\t// out\n        /* \"contracts/auction2.sol\":1474:2511  function bid() payable public{\r... */\n    tag_17:\n        /* \"contracts/auction2.sol\":1822:1834  auctionClose */\n      sload(0x01)\n        /* \"contracts/auction2.sol\":1803:1818  block.timestamp */\n      timestamp\n        /* \"contracts/auction2.sol\":1803:1834  block.timestamp <= auctionClose */\n      gt\n      iszero\n        /* \"contracts/auction2.sol\":1795:1835  require(block.timestamp <= auctionClose) */\n      tag_45\n      jumpi\n      0x00\n      dup1\n      revert\n    tag_45:\n        /* \"contracts/auction2.sol\":1943:1949  topBid */\n      sload(0x03)\n        /* \"contracts/auction2.sol\":1931:1940  msg.value */\n      callvalue\n        /* \"contracts/auction2.sol\":1931:1949  msg.value > topBid */\n      gt\n        /* \"contracts/auction2.sol\":1923:1950  require(msg.value > topBid) */\n      tag_46\n      jumpi\n      0x00\n      dup1\n      revert\n    tag_46:\n        /* \"contracts/auction2.sol\":1980:2022  0x0000000000000000000000000000000000000000 */\n      0x00\n        /* \"contracts/auction2.sol\":1967:2022  topBidder != 0x0000000000000000000000000000000000000000 */\n      0xffffffffffffffffffffffffffffffffffffffff\n      and\n        /* \"contracts/auction2.sol\":1967:1976  topBidder */\n      0x02\n      0x00\n      swap1\n      sload\n      swap1\n      0x0100\n      exp\n      swap1\n      div\n      0xffffffffffffffffffffffffffffffffffffffff\n      and\n        /* \"contracts/auction2.sol\":1967:2022  topBidder != 0x0000000000000000000000000000000000000000 */\n      0xffffffffffffffffffffffffffffffffffffffff\n      and\n      eq\n        /* \"contracts/auction2.sol\":1963:2388  if (topBidder != 0x0000000000000000000000000000000000000000) {\r... */\n      tag_47\n      jumpi\n        /* \"contracts/auction2.sol\":2370:2376  topBid */\n      sload(0x03)\n        /* \"contracts/auction2.sol\":2341:2355  returnsPending */\n      0x04\n        /* \"contracts/auction2.sol\":2341:2366  returnsPending[topBidder] */\n      0x00\n        /* \"contracts/auction2.sol\":2356:2365  topBidder */\n      0x02\n      0x00\n      swap1\n      sload\n      swap1\n      0x0100\n      exp\n      swap1\n      div\n      0xffffffffffffffffffffffffffffffffffffffff\n      and\n        /* \"contracts/auction2.sol\":2341:2366  returnsPending[topBidder] */\n      0xffffffffffffffffffffffffffffffffffffffff\n      and\n      0xffffffffffffffffffffffffffffffffffffffff\n      and\n      dup2\n      mstore\n      0x20\n      add\n      swap1\n      dup2\n      mstore\n      0x20\n      add\n      0x00\n      keccak256\n      0x00\n        /* \"contracts/auction2.sol\":2341:2376  returnsPending[topBidder] += topBid */\n      dup3\n      dup3\n      sload\n      tag_48\n      swap2\n      swap1\n      tag_49\n      jump\t// in\n    tag_48:\n      swap3\n      pop\n      pop\n      dup2\n      swap1\n      sstore\n      pop\n        /* \"contracts/auction2.sol\":1963:2388  if (topBidder != 0x0000000000000000000000000000000000000000) {\r... */\n    tag_47:\n        /* \"contracts/auction2.sol\":2410:2420  msg.sender */\n      caller\n        /* \"contracts/auction2.sol\":2398:2407  topBidder */\n      0x02\n      0x00\n        /* \"contracts/auction2.sol\":2398:2420  topBidder = msg.sender */\n      0x0100\n      exp\n      dup2\n      sload\n      dup2\n      0xffffffffffffffffffffffffffffffffffffffff\n      mul\n      not\n      and\n      swap1\n      dup4\n      0xffffffffffffffffffffffffffffffffffffffff\n      and\n      mul\n      or\n      swap1\n      sstore\n      pop\n        /* \"contracts/auction2.sol\":2440:2449  msg.value */\n      callvalue\n        /* \"contracts/auction2.sol\":2431:2437  topBid */\n      0x03\n        /* \"contracts/auction2.sol\":2431:2449  topBid = msg.value */\n      dup2\n      swap1\n      sstore\n      pop\n        /* \"contracts/auction2.sol\":2465:2503  topBidIncreased(msg.sender, msg.value) */\n      0x7635e37094566fa4ea4b08dd77117e7ace1e3e5a6ee614bcd37eb6ad8eccc1d9\n        /* \"contracts/auction2.sol\":2481:2491  msg.sender */\n      caller\n        /* \"contracts/auction2.sol\":2493:2502  msg.value */\n      callvalue\n        /* \"contracts/auction2.sol\":2465:2503  topBidIncreased(msg.sender, msg.value) */\n      mload(0x40)\n      tag_50\n      swap3\n      swap2\n      swap1\n      tag_51\n      jump\t// in\n    tag_50:\n      mload(0x40)\n      dup1\n      swap2\n      sub\n      swap1\n      log1\n        /* \"contracts/auction2.sol\":1474:2511  function bid() payable public{\r... */\n      jump\t// out\n        /* \"contracts/auction2.sol\":296:320  uint public auctionClose */\n    tag_20:\n      sload(0x01)\n      dup2\n      jump\t// out\n        /* \"contracts/auction2.sol\":2561:3209  function withdraw() public returns (bool) {\r... */\n    tag_25:\n        /* \"contracts/auction2.sol\":2597:2601  bool */\n      0x00\n        /* \"contracts/auction2.sol\":2614:2628  uint bidAmount */\n      dup1\n        /* \"contracts/auction2.sol\":2631:2645  returnsPending */\n      0x04\n        /* \"contracts/auction2.sol\":2631:2657  returnsPending[msg.sender] */\n      0x00\n        /* \"contracts/auction2.sol\":2646:2656  msg.sender */\n      caller\n        /* \"contracts/auction2.sol\":2631:2657  returnsPending[msg.sender] */\n      0xffffffffffffffffffffffffffffffffffffffff\n      and\n      0xffffffffffffffffffffffffffffffffffffffff\n      and\n      dup2\n      mstore\n      0x20\n      add\n      swap1\n      dup2\n      mstore\n      0x20\n      add\n      0x00\n      keccak256\n      sload\n        /* \"contracts/auction2.sol\":2614:2657  uint bidAmount = returnsPending[msg.sender] */\n      swap1\n      pop\n        /* \"contracts/auction2.sol\":2684:2685  0 */\n      0x00\n        /* \"contracts/auction2.sol\":2672:2681  bidAmount */\n      dup2\n        /* \"contracts/auction2.sol\":2672:2685  bidAmount > 0 */\n      gt\n        /* \"contracts/auction2.sol\":2668:3180  if (bidAmount > 0) {\r... */\n      iszero\n      tag_53\n      jumpi\n        /* \"contracts/auction2.sol\":2919:2920  0 */\n      0x00\n        /* \"contracts/auction2.sol\":2890:2904  returnsPending */\n      0x04\n        /* \"contracts/auction2.sol\":2890:2916  returnsPending[msg.sender] */\n      0x00\n        /* \"contracts/auction2.sol\":2905:2915  msg.sender */\n      caller\n        /* \"contracts/auction2.sol\":2890:2916  returnsPending[msg.sender] */\n      0xffffffffffffffffffffffffffffffffffffffff\n      and\n      0xffffffffffffffffffffffffffffffffffffffff\n      and\n      dup2\n      mstore\n      0x20\n      add\n      swap1\n      dup2\n      mstore\n      0x20\n      add\n      0x00\n      keccak256\n        /* \"contracts/auction2.sol\":2890:2920  returnsPending[msg.sender] = 0 */\n      dup2\n      swap1\n      sstore\n      pop\n        /* \"contracts/auction2.sol\":2950:2960  msg.sender */\n      caller\n        /* \"contracts/auction2.sol\":2942:2966  payable(msg.sender).send */\n      0xffffffffffffffffffffffffffffffffffffffff\n      and\n        /* \"contracts/auction2.sol\":2942:2977  payable(msg.sender).send(bidAmount) */\n      0x08fc\n        /* \"contracts/auction2.sol\":2967:2976  bidAmount */\n      dup3\n        /* \"contracts/auction2.sol\":2942:2977  payable(msg.sender).send(bidAmount) */\n      swap1\n      dup2\n      iszero\n      mul\n      swap1\n      mload(0x40)\n      0x00\n      mload(0x40)\n      dup1\n      dup4\n      sub\n      dup2\n      dup6\n      dup9\n      dup9\n      call\n      swap4\n      pop\n      pop\n      pop\n      pop\n        /* \"contracts/auction2.sol\":2937:3169  if (!payable(msg.sender).send(bidAmount)) {\r... */\n      tag_55\n      jumpi\n        /* \"contracts/auction2.sol\":3113:3122  bidAmount */\n      dup1\n        /* \"contracts/auction2.sol\":3084:3098  returnsPending */\n      0x04\n        /* \"contracts/auction2.sol\":3084:3110  returnsPending[msg.sender] */\n      0x00\n        /* \"contracts/auction2.sol\":3099:3109  msg.sender */\n      caller\n        /* \"contracts/auction2.sol\":3084:3110  returnsPending[msg.sender] */\n      0xffffffffffffffffffffffffffffffffffffffff\n      and\n      0xffffffffffffffffffffffffffffffffffffffff\n      and\n      dup2\n      mstore\n      0x20\n      add\n      swap1\n      dup2\n      mstore\n      0x20\n      add\n      0x00\n      keccak256\n        /* \"contracts/auction2.sol\":3084:3122  returnsPending[msg.sender] = bidAmount */\n      dup2\n      swap1\n      sstore\n      pop\n        /* \"contracts/auction2.sol\":3148:3153  false */\n      0x00\n        /* \"contracts/auction2.sol\":3141:3153  return false */\n      swap2\n      pop\n      pop\n      jump(tag_52)\n        /* \"contracts/auction2.sol\":2937:3169  if (!payable(msg.sender).send(bidAmount)) {\r... */\n    tag_55:\n        /* \"contracts/auction2.sol\":2668:3180  if (bidAmount > 0) {\r... */\n    tag_53:\n        /* \"contracts/auction2.sol\":3197:3201  true */\n      0x01\n        /* \"contracts/auction2.sol\":3190:3201  return true */\n      swap2\n      pop\n      pop\n        /* \"contracts/auction2.sol\":2561:3209  function withdraw() public returns (bool) {\r... */\n    tag_52:\n      swap1\n      jump\t// out\n        /* \"contracts/auction2.sol\":398:416  uint public topBid */\n    tag_30:\n      sload(0x03)\n      dup2\n      jump\t// out\n        /* \"contracts/auction2.sol\":3292:4407  function auctionClosed() public {\r... */\n    tag_34:\n        /* \"contracts/auction2.sol\":4099:4111  auctionClose */\n      sload(0x01)\n        /* \"contracts/auction2.sol\":4080:4095  block.timestamp */\n      timestamp\n        /* \"contracts/auction2.sol\":4080:4111  block.timestamp >= auctionClose */\n      lt\n      iszero\n        /* \"contracts/auction2.sol\":4072:4112  require(block.timestamp >= auctionClose) */\n      tag_57\n      jumpi\n      0x00\n      dup1\n      revert\n    tag_57:\n        /* \"contracts/auction2.sol\":4159:4174  auctionComplete */\n      0x05\n      0x00\n      swap1\n      sload\n      swap1\n      0x0100\n      exp\n      swap1\n      div\n      0xff\n      and\n        /* \"contracts/auction2.sol\":4158:4174  !auctionComplete */\n      iszero\n        /* \"contracts/auction2.sol\":4150:4175  require(!auctionComplete) */\n      tag_58\n      jumpi\n      0x00\n      dup1\n      revert\n    tag_58:\n        /* \"contracts/auction2.sol\":4270:4274  true */\n      0x01\n        /* \"contracts/auction2.sol\":4252:4267  auctionComplete */\n      0x05\n      0x00\n        /* \"contracts/auction2.sol\":4252:4274  auctionComplete = true */\n      0x0100\n      exp\n      dup2\n      sload\n      dup2\n      0xff\n      mul\n      not\n      and\n      swap1\n      dup4\n      iszero\n      iszero\n      mul\n      or\n      swap1\n      sstore\n      pop\n        /* \"contracts/auction2.sol\":4290:4322  auctionResult(topBidder, topBid) */\n      0xc9b64caa2aa57493e3a2b3087a613ad4168386aa000be494a8a41cd06bd3844a\n        /* \"contracts/auction2.sol\":4304:4313  topBidder */\n      0x02\n      0x00\n      swap1\n      sload\n      swap1\n      0x0100\n      exp\n      swap1\n      div\n      0xffffffffffffffffffffffffffffffffffffffff\n      and\n        /* \"contracts/auction2.sol\":4315:4321  topBid */\n      sload(0x03)\n        /* \"contracts/auction2.sol\":4290:4322  auctionResult(topBidder, topBid) */\n      mload(0x40)\n      tag_59\n      swap3\n      swap2\n      swap1\n      tag_51\n      jump\t// in\n    tag_59:\n      mload(0x40)\n      dup1\n      swap2\n      sub\n      swap1\n      log1\n        /* \"contracts/auction2.sol\":3292:4407  function auctionClosed() public {\r... */\n      jump\t// out\n        /* \"contracts/auction2.sol\":1115:1295  function SimpleAuctions(uint _biddingTime, address _beneficiary) public {\r... */\n    tag_39:\n        /* \"contracts/auction2.sol\":1219:1231  _beneficiary */\n      dup1\n        /* \"contracts/auction2.sol\":1198:1216  beneficiaryAddress */\n      0x00\n      dup1\n        /* \"contracts/auction2.sol\":1198:1231  beneficiaryAddress = _beneficiary */\n      0x0100\n      exp\n      dup2\n      sload\n      dup2\n      0xffffffffffffffffffffffffffffffffffffffff\n      mul\n      not\n      and\n      swap1\n      dup4\n      0xffffffffffffffffffffffffffffffffffffffff\n      and\n      mul\n      or\n      swap1\n      sstore\n      pop\n        /* \"contracts/auction2.sol\":1275:1287  _biddingTime */\n      dup2\n        /* \"contracts/auction2.sol\":1257:1272  block.timestamp */\n      timestamp\n        /* \"contracts/auction2.sol\":1257:1287  block.timestamp + _biddingTime */\n      tag_61\n      swap2\n      swap1\n      tag_49\n      jump\t// in\n    tag_61:\n        /* \"contracts/auction2.sol\":1242:1254  auctionClose */\n      0x01\n        /* \"contracts/auction2.sol\":1242:1287  auctionClose = block.timestamp + _biddingTime */\n      dup2\n      swap1\n      sstore\n      pop\n        /* \"contracts/auction2.sol\":1115:1295  function SimpleAuctions(uint _biddingTime, address _beneficiary) public {\r... */\n      pop\n      pop\n      jump\t// out\n        /* \"contracts/auction2.sol\":256:289  address public beneficiaryAddress */\n    tag_42:\n      0x00\n      dup1\n      sload\n      swap1\n      0x0100\n      exp\n      swap1\n      div\n      0xffffffffffffffffffffffffffffffffffffffff\n      and\n      dup2\n      jump\t// out\n        /* \"#utility.yul\":7:146   */\n    tag_63:\n        /* \"#utility.yul\":53:58   */\n      0x00\n        /* \"#utility.yul\":91:97   */\n      dup2\n        /* \"#utility.yul\":78:98   */\n      calldataload\n        /* \"#utility.yul\":69:98   */\n      swap1\n      pop\n        /* \"#utility.yul\":107:140   */\n      tag_65\n        /* \"#utility.yul\":134:139   */\n      dup2\n        /* \"#utility.yul\":107:140   */\n      tag_66\n      jump\t// in\n    tag_65:\n        /* \"#utility.yul\":59:146   */\n      swap3\n      swap2\n      pop\n      pop\n      jump\t// out\n        /* \"#utility.yul\":152:291   */\n    tag_67:\n        /* \"#utility.yul\":198:203   */\n      0x00\n        /* \"#utility.yul\":236:242   */\n      dup2\n        /* \"#utility.yul\":223:243   */\n      calldataload\n        /* \"#utility.yul\":214:243   */\n      swap1\n      pop\n        /* \"#utility.yul\":252:285   */\n      tag_69\n        /* \"#utility.yul\":279:284   */\n      dup2\n        /* \"#utility.yul\":252:285   */\n      tag_70\n      jump\t// in\n    tag_69:\n        /* \"#utility.yul\":204:291   */\n      swap3\n      swap2\n      pop\n      pop\n      jump\t// out\n        /* \"#utility.yul\":297:771   */\n    tag_38:\n        /* \"#utility.yul\":365:371   */\n      0x00\n        /* \"#utility.yul\":373:379   */\n      dup1\n        /* \"#utility.yul\":422:424   */\n      0x40\n        /* \"#utility.yul\":410:419   */\n      dup4\n        /* \"#utility.yul\":401:408   */\n      dup6\n        /* \"#utility.yul\":397:420   */\n      sub\n        /* \"#utility.yul\":393:425   */\n      slt\n        /* \"#utility.yul\":390:392   */\n      iszero\n      tag_72\n      jumpi\n        /* \"#utility.yul\":428:507   */\n      tag_73\n      tag_74\n      jump\t// in\n    tag_73:\n        /* \"#utility.yul\":390:392   */\n    tag_72:\n        /* \"#utility.yul\":548:549   */\n      0x00\n        /* \"#utility.yul\":573:626   */\n      tag_75\n        /* \"#utility.yul\":618:625   */\n      dup6\n        /* \"#utility.yul\":609:615   */\n      dup3\n        /* \"#utility.yul\":598:607   */\n      dup7\n        /* \"#utility.yul\":594:616   */\n      add\n        /* \"#utility.yul\":573:626   */\n      tag_67\n      jump\t// in\n    tag_75:\n        /* \"#utility.yul\":563:626   */\n      swap3\n      pop\n        /* \"#utility.yul\":519:636   */\n      pop\n        /* \"#utility.yul\":675:677   */\n      0x20\n        /* \"#utility.yul\":701:754   */\n      tag_76\n        /* \"#utility.yul\":746:753   */\n      dup6\n        /* \"#utility.yul\":737:743   */\n      dup3\n        /* \"#utility.yul\":726:735   */\n      dup7\n        /* \"#utility.yul\":722:744   */\n      add\n        /* \"#utility.yul\":701:754   */\n      tag_63\n      jump\t// in\n    tag_76:\n        /* \"#utility.yul\":691:754   */\n      swap2\n      pop\n        /* \"#utility.yul\":646:764   */\n      pop\n        /* \"#utility.yul\":380:771   */\n      swap3\n      pop\n      swap3\n      swap1\n      pop\n      jump\t// out\n        /* \"#utility.yul\":777:895   */\n    tag_77:\n        /* \"#utility.yul\":864:888   */\n      tag_79\n        /* \"#utility.yul\":882:887   */\n      dup2\n        /* \"#utility.yul\":864:888   */\n      tag_80\n      jump\t// in\n    tag_79:\n        /* \"#utility.yul\":859:862   */\n      dup3\n        /* \"#utility.yul\":852:889   */\n      mstore\n        /* \"#utility.yul\":842:895   */\n      pop\n      pop\n      jump\t// out\n        /* \"#utility.yul\":901:1010   */\n    tag_81:\n        /* \"#utility.yul\":982:1003   */\n      tag_83\n        /* \"#utility.yul\":997:1002   */\n      dup2\n        /* \"#utility.yul\":982:1003   */\n      tag_84\n      jump\t// in\n    tag_83:\n        /* \"#utility.yul\":977:980   */\n      dup3\n        /* \"#utility.yul\":970:1004   */\n      mstore\n        /* \"#utility.yul\":960:1010   */\n      pop\n      pop\n      jump\t// out\n        /* \"#utility.yul\":1016:1134   */\n    tag_85:\n        /* \"#utility.yul\":1103:1127   */\n      tag_87\n        /* \"#utility.yul\":1121:1126   */\n      dup2\n        /* \"#utility.yul\":1103:1127   */\n      tag_88\n      jump\t// in\n    tag_87:\n        /* \"#utility.yul\":1098:1101   */\n      dup3\n        /* \"#utility.yul\":1091:1128   */\n      mstore\n        /* \"#utility.yul\":1081:1134   */\n      pop\n      pop\n      jump\t// out\n        /* \"#utility.yul\":1140:1362   */\n    tag_15:\n        /* \"#utility.yul\":1233:1237   */\n      0x00\n        /* \"#utility.yul\":1271:1273   */\n      0x20\n        /* \"#utility.yul\":1260:1269   */\n      dup3\n        /* \"#utility.yul\":1256:1274   */\n      add\n        /* \"#utility.yul\":1248:1274   */\n      swap1\n      pop\n        /* \"#utility.yul\":1284:1355   */\n      tag_90\n        /* \"#utility.yul\":1352:1353   */\n      0x00\n        /* \"#utility.yul\":1341:1350   */\n      dup4\n        /* \"#utility.yul\":1337:1354   */\n      add\n        /* \"#utility.yul\":1328:1334   */\n      dup5\n        /* \"#utility.yul\":1284:1355   */\n      tag_77\n      jump\t// in\n    tag_90:\n        /* \"#utility.yul\":1238:1362   */\n      swap3\n      swap2\n      pop\n      pop\n      jump\t// out\n        /* \"#utility.yul\":1368:1700   */\n    tag_51:\n        /* \"#utility.yul\":1489:1493   */\n      0x00\n        /* \"#utility.yul\":1527:1529   */\n      0x40\n        /* \"#utility.yul\":1516:1525   */\n      dup3\n        /* \"#utility.yul\":1512:1530   */\n      add\n        /* \"#utility.yul\":1504:1530   */\n      swap1\n      pop\n        /* \"#utility.yul\":1540:1611   */\n      tag_92\n        /* \"#utility.yul\":1608:1609   */\n      0x00\n        /* \"#utility.yul\":1597:1606   */\n      dup4\n        /* \"#utility.yul\":1593:1610   */\n      add\n        /* \"#utility.yul\":1584:1590   */\n      dup6\n        /* \"#utility.yul\":1540:1611   */\n      tag_77\n      jump\t// in\n    tag_92:\n        /* \"#utility.yul\":1621:1693   */\n      tag_93\n        /* \"#utility.yul\":1689:1691   */\n      0x20\n        /* \"#utility.yul\":1678:1687   */\n      dup4\n        /* \"#utility.yul\":1674:1692   */\n      add\n        /* \"#utility.yul\":1665:1671   */\n      dup5\n        /* \"#utility.yul\":1621:1693   */\n      tag_85\n      jump\t// in\n    tag_93:\n        /* \"#utility.yul\":1494:1700   */\n      swap4\n      swap3\n      pop\n      pop\n      pop\n      jump\t// out\n        /* \"#utility.yul\":1706:1916   */\n    tag_27:\n        /* \"#utility.yul\":1793:1797   */\n      0x00\n        /* \"#utility.yul\":1831:1833   */\n      0x20\n        /* \"#utility.yul\":1820:1829   */\n      dup3\n        /* \"#utility.yul\":1816:1834   */\n      add\n        /* \"#utility.yul\":1808:1834   */\n      swap1\n      pop\n        /* \"#utility.yul\":1844:1909   */\n      tag_95\n        /* \"#utility.yul\":1906:1907   */\n      0x00\n        /* \"#utility.yul\":1895:1904   */\n      dup4\n        /* \"#utility.yul\":1891:1908   */\n      add\n        /* \"#utility.yul\":1882:1888   */\n      dup5\n        /* \"#utility.yul\":1844:1909   */\n      tag_81\n      jump\t// in\n    tag_95:\n        /* \"#utility.yul\":1798:1916   */\n      swap3\n      swap2\n      pop\n      pop\n      jump\t// out\n        /* \"#utility.yul\":1922:2144   */\n    tag_22:\n        /* \"#utility.yul\":2015:2019   */\n      0x00\n        /* \"#utility.yul\":2053:2055   */\n      0x20\n        /* \"#utility.yul\":2042:2051   */\n      dup3\n        /* \"#utility.yul\":2038:2056   */\n      add\n        /* \"#utility.yul\":2030:2056   */\n      swap1\n      pop\n        /* \"#utility.yul\":2066:2137   */\n      tag_97\n        /* \"#utility.yul\":2134:2135   */\n      0x00\n        /* \"#utility.yul\":2123:2132   */\n      dup4\n        /* \"#utility.yul\":2119:2136   */\n      add\n        /* \"#utility.yul\":2110:2116   */\n      dup5\n        /* \"#utility.yul\":2066:2137   */\n      tag_85\n      jump\t// in\n    tag_97:\n        /* \"#utility.yul\":2020:2144   */\n      swap3\n      swap2\n      pop\n      pop\n      jump\t// out\n        /* \"#utility.yul\":2231:2536   */\n    tag_49:\n        /* \"#utility.yul\":2271:2274   */\n      0x00\n        /* \"#utility.yul\":2290:2310   */\n      tag_101\n        /* \"#utility.yul\":2308:2309   */\n      dup3\n        /* \"#utility.yul\":2290:2310   */\n      tag_88\n      jump\t// in\n    tag_101:\n        /* \"#utility.yul\":2285:2310   */\n      swap2\n      pop\n        /* \"#utility.yul\":2324:2344   */\n      tag_102\n        /* \"#utility.yul\":2342:2343   */\n      dup4\n        /* \"#utility.yul\":2324:2344   */\n      tag_88\n      jump\t// in\n    tag_102:\n        /* \"#utility.yul\":2319:2344   */\n      swap3\n      pop\n        /* \"#utility.yul\":2478:2479   */\n      dup3\n        /* \"#utility.yul\":2410:2476   */\n      0xffffffffffffffffffffffffffffffffffffffffffffffffffffffffffffffff\n        /* \"#utility.yul\":2406:2480   */\n      sub\n        /* \"#utility.yul\":2403:2404   */\n      dup3\n        /* \"#utility.yul\":2400:2481   */\n      gt\n        /* \"#utility.yul\":2397:2399   */\n      iszero\n      tag_103\n      jumpi\n        /* \"#utility.yul\":2484:2502   */\n      tag_104\n      tag_105\n      jump\t// in\n    tag_104:\n        /* \"#utility.yul\":2397:2399   */\n    tag_103:\n        /* \"#utility.yul\":2528:2529   */\n      dup3\n        /* \"#utility.yul\":2525:2526   */\n      dup3\n        /* \"#utility.yul\":2521:2530   */\n      add\n        /* \"#utility.yul\":2514:2530   */\n      swap1\n      pop\n        /* \"#utility.yul\":2275:2536   */\n      swap3\n      swap2\n      pop\n      pop\n      jump\t// out\n        /* \"#utility.yul\":2542:2638   */\n    tag_80:\n        /* \"#utility.yul\":2579:2586   */\n      0x00\n        /* \"#utility.yul\":2608:2632   */\n      tag_107\n        /* \"#utility.yul\":2626:2631   */\n      dup3\n        /* \"#utility.yul\":2608:2632   */\n      tag_108\n      jump\t// in\n    tag_107:\n        /* \"#utility.yul\":2597:2632   */\n      swap1\n      pop\n        /* \"#utility.yul\":2587:2638   */\n      swap2\n      swap1\n      pop\n      jump\t// out\n        /* \"#utility.yul\":2644:2734   */\n    tag_84:\n        /* \"#utility.yul\":2678:2685   */\n      0x00\n        /* \"#utility.yul\":2721:2726   */\n      dup2\n        /* \"#utility.yul\":2714:2727   */\n      iszero\n        /* \"#utility.yul\":2707:2728   */\n      iszero\n        /* \"#utility.yul\":2696:2728   */\n      swap1\n      pop\n        /* \"#utility.yul\":2686:2734   */\n      swap2\n      swap1\n      pop\n      jump\t// out\n        /* \"#utility.yul\":2740:2866   */\n    tag_108:\n        /* \"#utility.yul\":2777:2784   */\n      0x00\n        /* \"#utility.yul\":2817:2859   */\n      0xffffffffffffffffffffffffffffffffffffffff\n        /* \"#utility.yul\":2810:2815   */\n      dup3\n        /* \"#utility.yul\":2806:2860   */\n      and\n        /* \"#utility.yul\":2795:2860   */\n      swap1\n      pop\n        /* \"#utility.yul\":2785:2866   */\n      swap2\n      swap1\n      pop\n      jump\t// out\n        /* \"#utility.yul\":2872:2949   */\n    tag_88:\n        /* \"#utility.yul\":2909:2916   */\n      0x00\n        /* \"#utility.yul\":2938:2943   */\n      dup2\n        /* \"#utility.yul\":2927:2943   */\n      swap1\n      pop\n        /* \"#utility.yul\":2917:2949   */\n      swap2\n      swap1\n      pop\n      jump\t// out\n        /* \"#utility.yul\":2955:3135   */\n    tag_105:\n        /* \"#utility.yul\":3003:3080   */\n      0x4e487b7100000000000000000000000000000000000000000000000000000000\n        /* \"#utility.yul\":3000:3001   */\n      0x00\n        /* \"#utility.yul\":2993:3081   */\n      mstore\n        /* \"#utility.yul\":3100:3104   */\n      0x11\n        /* \"#utility.yul\":3097:3098   */\n      0x04\n        /* \"#utility.yul\":3090:3105   */\n      mstore\n        /* \"#utility.yul\":3124:3128   */\n      0x24\n        /* \"#utility.yul\":3121:3122   */\n      0x00\n        /* \"#utility.yul\":3114:3129   */\n      revert\n        /* \"#utility.yul\":3264:3381   */\n    tag_74:\n        /* \"#utility.yul\":3373:3374   */\n      0x00\n        /* \"#utility.yul\":3370:3371   */\n      dup1\n        /* \"#utility.yul\":3363:3375   */\n      revert\n        /* \"#utility.yul\":3387:3509   */\n    tag_66:\n        /* \"#utility.yul\":3460:3484   */\n      tag_117\n        /* \"#utility.yul\":3478:3483   */\n      dup2\n        /* \"#utility.yul\":3460:3484   */\n      tag_80\n      jump\t// in\n    tag_117:\n        /* \"#utility.yul\":3453:3458   */\n      dup2\n        /* \"#utility.yul\":3450:3485   */\n      eq\n        /* \"#utility.yul\":3440:3442   */\n      tag_118\n      jumpi\n        /* \"#utility.yul\":3499:3500   */\n      0x00\n        /* \"#utility.yul\":3496:3497   */\n      dup1\n        /* \"#utility.yul\":3489:3501   */\n      revert\n        /* \"#utility.yul\":3440:3442   */\n    tag_118:\n        /* \"#utility.yul\":3430:3509   */\n      pop\n      jump\t// out\n        /* \"#utility.yul\":3515:3637   */\n    tag_70:\n        /* \"#utility.yul\":3588:3612   */\n      tag_120\n        /* \"#utility.yul\":3606:3611   */\n      dup2\n        /* \"#utility.yul\":3588:3612   */\n      tag_88\n      jump\t// in\n    tag_120:\n        /* \"#utility.yul\":3581:3586   */\n      dup2\n        /* \"#utility.yul\":3578:3613   */\n      eq\n        /* \"#utility.yul\":3568:3570   */\n      tag_121\n      jumpi\n        /* \"#utility.yul\":3627:3628   */\n      0x00\n        /* \"#utility.yul\":3624:3625   */\n      dup1\n        /* \"#utility.yul\":3617:3629   */\n      revert\n        /* \"#utility.yul\":3568:3570   */\n    tag_121:\n        /* \"#utility.yul\":3558:3637   */\n      pop\n      jump\t// out\n\n    auxdata: 0xa26469706673582212201f677d67a6404ca4f5aca046ec5be73b8bbfdd7c72ce5e39302eca574da65e9464736f6c63430008060033\n}\n",
				"bytecode": {
					"linkReferences": {},
					"object": "608060405234801561001057600080fd5b506107cc806100206000396000f3fe60806040526004361061007b5760003560e01c8063636bf7301161004e578063636bf7301461010b578063aeaaa29914610136578063b4b48cf11461014d578063d9c4870e146101765761007b565b806301333f06146100805780631998aeef146100ab57806319c2a5b5146100b55780633ccfd60b146100e0575b600080fd5b34801561008c57600080fd5b506100956101a1565b6040516100a2919061061c565b60405180910390f35b6100b36101c7565b005b3480156100c157600080fd5b506100ca610338565b6040516100d7919061067b565b60405180910390f35b3480156100ec57600080fd5b506100f561033e565b6040516101029190610660565b60405180910390f35b34801561011757600080fd5b50610120610462565b60405161012d919061067b565b60405180910390f35b34801561014257600080fd5b5061014b610468565b005b34801561015957600080fd5b50610174600480360381019061016f91906105af565b61050b565b005b34801561018257600080fd5b5061018b610561565b604051610198919061061c565b60405180910390f35b600260009054906101000a900473ffffffffffffffffffffffffffffffffffffffff1681565b6001544211156101d657600080fd5b60035434116101e457600080fd5b600073ffffffffffffffffffffffffffffffffffffffff16600260009054906101000a900473ffffffffffffffffffffffffffffffffffffffff1673ffffffffffffffffffffffffffffffffffffffff16146102b55760035460046000600260009054906101000a900473ffffffffffffffffffffffffffffffffffffffff1673ffffffffffffffffffffffffffffffffffffffff1673ffffffffffffffffffffffffffffffffffffffff16815260200190815260200160002060008282546102ad9190610696565b925050819055505b33600260006101000a81548173ffffffffffffffffffffffffffffffffffffffff021916908373ffffffffffffffffffffffffffffffffffffffff160217905550346003819055507f7635e37094566fa4ea4b08dd77117e7ace1e3e5a6ee614bcd37eb6ad8eccc1d9333460405161032e929190610637565b60405180910390a1565b60015481565b600080600460003373ffffffffffffffffffffffffffffffffffffffff1673ffffffffffffffffffffffffffffffffffffffff1681526020019081526020016000205490506000811115610459576000600460003373ffffffffffffffffffffffffffffffffffffffff1673ffffffffffffffffffffffffffffffffffffffff168152602001908152602001600020819055503373ffffffffffffffffffffffffffffffffffffffff166108fc829081150290604051600060405180830381858888f193505050506104585780600460003373ffffffffffffffffffffffffffffffffffffffff1673ffffffffffffffffffffffffffffffffffffffff16815260200190815260200160002081905550600091505061045f565b5b60019150505b90565b60035481565b60015442101561047757600080fd5b600560009054906101000a900460ff161561049157600080fd5b6001600560006101000a81548160ff0219169083151502179055507fc9b64caa2aa57493e3a2b3087a613ad4168386aa000be494a8a41cd06bd3844a600260009054906101000a900473ffffffffffffffffffffffffffffffffffffffff16600354604051610501929190610637565b60405180910390a1565b806000806101000a81548173ffffffffffffffffffffffffffffffffffffffff021916908373ffffffffffffffffffffffffffffffffffffffff16021790555081426105579190610696565b6001819055505050565b60008054906101000a900473ffffffffffffffffffffffffffffffffffffffff1681565b60008135905061059481610768565b92915050565b6000813590506105a98161077f565b92915050565b600080604083850312156105c6576105c5610763565b5b60006105d48582860161059a565b92505060206105e585828601610585565b9150509250929050565b6105f8816106ec565b82525050565b610607816106fe565b82525050565b6106168161072a565b82525050565b600060208201905061063160008301846105ef565b92915050565b600060408201905061064c60008301856105ef565b610659602083018461060d565b9392505050565b600060208201905061067560008301846105fe565b92915050565b6000602082019050610690600083018461060d565b92915050565b60006106a18261072a565b91506106ac8361072a565b9250827fffffffffffffffffffffffffffffffffffffffffffffffffffffffffffffffff038211156106e1576106e0610734565b5b828201905092915050565b60006106f78261070a565b9050919050565b60008115159050919050565b600073ffffffffffffffffffffffffffffffffffffffff82169050919050565b6000819050919050565b7f4e487b7100000000000000000000000000000000000000000000000000000000600052601160045260246000fd5b600080fd5b610771816106ec565b811461077c57600080fd5b50565b6107888161072a565b811461079357600080fd5b5056fea26469706673582212201f677d67a6404ca4f5aca046ec5be73b8bbfdd7c72ce5e39302eca574da65e9464736f6c63430008060033",
					"opcodes": "PUSH1 0x80 PUSH1 0x40 MSTORE CALLVALUE DUP1 ISZERO PUSH2 0x10 JUMPI PUSH1 0x0 DUP1 REVERT JUMPDEST POP PUSH2 0x7CC DUP1 PUSH2 0x20 PUSH1 0x0 CODECOPY PUSH1 0x0 RETURN INVALID PUSH1 0x80 PUSH1 0x40 MSTORE PUSH1 0x4 CALLDATASIZE LT PUSH2 0x7B JUMPI PUSH1 0x0 CALLDATALOAD PUSH1 0xE0 SHR DUP1 PUSH4 0x636BF730 GT PUSH2 0x4E JUMPI DUP1 PUSH4 0x636BF730 EQ PUSH2 0x10B JUMPI DUP1 PUSH4 0xAEAAA299 EQ PUSH2 0x136 JUMPI DUP1 PUSH4 0xB4B48CF1 EQ PUSH2 0x14D JUMPI DUP1 PUSH4 0xD9C4870E EQ PUSH2 0x176 JUMPI PUSH2 0x7B JUMP JUMPDEST DUP1 PUSH4 0x1333F06 EQ PUSH2 0x80 JUMPI DUP1 PUSH4 0x1998AEEF EQ PUSH2 0xAB JUMPI DUP1 PUSH4 0x19C2A5B5 EQ PUSH2 0xB5 JUMPI DUP1 PUSH4 0x3CCFD60B EQ PUSH2 0xE0 JUMPI JUMPDEST PUSH1 0x0 DUP1 REVERT JUMPDEST CALLVALUE DUP1 ISZERO PUSH2 0x8C JUMPI PUSH1 0x0 DUP1 REVERT JUMPDEST POP PUSH2 0x95 PUSH2 0x1A1 JUMP JUMPDEST PUSH1 0x40 MLOAD PUSH2 0xA2 SWAP2 SWAP1 PUSH2 0x61C JUMP JUMPDEST PUSH1 0x40 MLOAD DUP1 SWAP2 SUB SWAP1 RETURN JUMPDEST PUSH2 0xB3 PUSH2 0x1C7 JUMP JUMPDEST STOP JUMPDEST CALLVALUE DUP1 ISZERO PUSH2 0xC1 JUMPI PUSH1 0x0 DUP1 REVERT JUMPDEST POP PUSH2 0xCA PUSH2 0x338 JUMP JUMPDEST PUSH1 0x40 MLOAD PUSH2 0xD7 SWAP2 SWAP1 PUSH2 0x67B JUMP JUMPDEST PUSH1 0x40 MLOAD DUP1 SWAP2 SUB SWAP1 RETURN JUMPDEST CALLVALUE DUP1 ISZERO PUSH2 0xEC JUMPI PUSH1 0x0 DUP1 REVERT JUMPDEST POP PUSH2 0xF5 PUSH2 0x33E JUMP JUMPDEST PUSH1 0x40 MLOAD PUSH2 0x102 SWAP2 SWAP1 PUSH2 0x660 JUMP JUMPDEST PUSH1 0x40 MLOAD DUP1 SWAP2 SUB SWAP1 RETURN JUMPDEST CALLVALUE DUP1 ISZERO PUSH2 0x117 JUMPI PUSH1 0x0 DUP1 REVERT JUMPDEST POP PUSH2 0x120 PUSH2 0x462 JUMP JUMPDEST PUSH1 0x40 MLOAD PUSH2 0x12D SWAP2 SWAP1 PUSH2 0x67B JUMP JUMPDEST PUSH1 0x40 MLOAD DUP1 SWAP2 SUB SWAP1 RETURN JUMPDEST CALLVALUE DUP1 ISZERO PUSH2 0x142 JUMPI PUSH1 0x0 DUP1 REVERT JUMPDEST POP PUSH2 0x14B PUSH2 0x468 JUMP JUMPDEST STOP JUMPDEST CALLVALUE DUP1 ISZERO PUSH2 0x159 JUMPI PUSH1 0x0 DUP1 REVERT JUMPDEST POP PUSH2 0x174 PUSH1 0x4 DUP1 CALLDATASIZE SUB DUP2 ADD SWAP1 PUSH2 0x16F SWAP2 SWAP1 PUSH2 0x5AF JUMP JUMPDEST PUSH2 0x50B JUMP JUMPDEST STOP JUMPDEST CALLVALUE DUP1 ISZERO PUSH2 0x182 JUMPI PUSH1 0x0 DUP1 REVERT JUMPDEST POP PUSH2 0x18B PUSH2 0x561 JUMP JUMPDEST PUSH1 0x40 MLOAD PUSH2 0x198 SWAP2 SWAP1 PUSH2 0x61C JUMP JUMPDEST PUSH1 0x40 MLOAD DUP1 SWAP2 SUB SWAP1 RETURN JUMPDEST PUSH1 0x2 PUSH1 0x0 SWAP1 SLOAD SWAP1 PUSH2 0x100 EXP SWAP1 DIV PUSH20 0xFFFFFFFFFFFFFFFFFFFFFFFFFFFFFFFFFFFFFFFF AND DUP2 JUMP JUMPDEST PUSH1 0x1 SLOAD TIMESTAMP GT ISZERO PUSH2 0x1D6 JUMPI PUSH1 0x0 DUP1 REVERT JUMPDEST PUSH1 0x3 SLOAD CALLVALUE GT PUSH2 0x1E4 JUMPI PUSH1 0x0 DUP1 REVERT JUMPDEST PUSH1 0x0 PUSH20 0xFFFFFFFFFFFFFFFFFFFFFFFFFFFFFFFFFFFFFFFF AND PUSH1 0x2 PUSH1 0x0 SWAP1 SLOAD SWAP1 PUSH2 0x100 EXP SWAP1 DIV PUSH20 0xFFFFFFFFFFFFFFFFFFFFFFFFFFFFFFFFFFFFFFFF AND PUSH20 0xFFFFFFFFFFFFFFFFFFFFFFFFFFFFFFFFFFFFFFFF AND EQ PUSH2 0x2B5 JUMPI PUSH1 0x3 SLOAD PUSH1 0x4 PUSH1 0x0 PUSH1 0x2 PUSH1 0x0 SWAP1 SLOAD SWAP1 PUSH2 0x100 EXP SWAP1 DIV PUSH20 0xFFFFFFFFFFFFFFFFFFFFFFFFFFFFFFFFFFFFFFFF AND PUSH20 0xFFFFFFFFFFFFFFFFFFFFFFFFFFFFFFFFFFFFFFFF AND PUSH20 0xFFFFFFFFFFFFFFFFFFFFFFFFFFFFFFFFFFFFFFFF AND DUP2 MSTORE PUSH1 0x20 ADD SWAP1 DUP2 MSTORE PUSH1 0x20 ADD PUSH1 0x0 KECCAK256 PUSH1 0x0 DUP3 DUP3 SLOAD PUSH2 0x2AD SWAP2 SWAP1 PUSH2 0x696 JUMP JUMPDEST SWAP3 POP POP DUP2 SWAP1 SSTORE POP JUMPDEST CALLER PUSH1 0x2 PUSH1 0x0 PUSH2 0x100 EXP DUP2 SLOAD DUP2 PUSH20 0xFFFFFFFFFFFFFFFFFFFFFFFFFFFFFFFFFFFFFFFF MUL NOT AND SWAP1 DUP4 PUSH20 0xFFFFFFFFFFFFFFFFFFFFFFFFFFFFFFFFFFFFFFFF AND MUL OR SWAP1 SSTORE POP CALLVALUE PUSH1 0x3 DUP2 SWAP1 SSTORE POP PUSH32 0x7635E37094566FA4EA4B08DD77117E7ACE1E3E5A6EE614BCD37EB6AD8ECCC1D9 CALLER CALLVALUE PUSH1 0x40 MLOAD PUSH2 0x32E SWAP3 SWAP2 SWAP1 PUSH2 0x637 JUMP JUMPDEST PUSH1 0x40 MLOAD DUP1 SWAP2 SUB SWAP1 LOG1 JUMP JUMPDEST PUSH1 0x1 SLOAD DUP2 JUMP JUMPDEST PUSH1 0x0 DUP1 PUSH1 0x4 PUSH1 0x0 CALLER PUSH20 0xFFFFFFFFFFFFFFFFFFFFFFFFFFFFFFFFFFFFFFFF AND PUSH20 0xFFFFFFFFFFFFFFFFFFFFFFFFFFFFFFFFFFFFFFFF AND DUP2 MSTORE PUSH1 0x20 ADD SWAP1 DUP2 MSTORE PUSH1 0x20 ADD PUSH1 0x0 KECCAK256 SLOAD SWAP1 POP PUSH1 0x0 DUP2 GT ISZERO PUSH2 0x459 JUMPI PUSH1 0x0 PUSH1 0x4 PUSH1 0x0 CALLER PUSH20 0xFFFFFFFFFFFFFFFFFFFFFFFFFFFFFFFFFFFFFFFF AND PUSH20 0xFFFFFFFFFFFFFFFFFFFFFFFFFFFFFFFFFFFFFFFF AND DUP2 MSTORE PUSH1 0x20 ADD SWAP1 DUP2 MSTORE PUSH1 0x20 ADD PUSH1 0x0 KECCAK256 DUP2 SWAP1 SSTORE POP CALLER PUSH20 0xFFFFFFFFFFFFFFFFFFFFFFFFFFFFFFFFFFFFFFFF AND PUSH2 0x8FC DUP3 SWAP1 DUP2 ISZERO MUL SWAP1 PUSH1 0x40 MLOAD PUSH1 0x0 PUSH1 0x40 MLOAD DUP1 DUP4 SUB DUP2 DUP6 DUP9 DUP9 CALL SWAP4 POP POP POP POP PUSH2 0x458 JUMPI DUP1 PUSH1 0x4 PUSH1 0x0 CALLER PUSH20 0xFFFFFFFFFFFFFFFFFFFFFFFFFFFFFFFFFFFFFFFF AND PUSH20 0xFFFFFFFFFFFFFFFFFFFFFFFFFFFFFFFFFFFFFFFF AND DUP2 MSTORE PUSH1 0x20 ADD SWAP1 DUP2 MSTORE PUSH1 0x20 ADD PUSH1 0x0 KECCAK256 DUP2 SWAP1 SSTORE POP PUSH1 0x0 SWAP2 POP POP PUSH2 0x45F JUMP JUMPDEST JUMPDEST PUSH1 0x1 SWAP2 POP POP JUMPDEST SWAP1 JUMP JUMPDEST PUSH1 0x3 SLOAD DUP2 JUMP JUMPDEST PUSH1 0x1 SLOAD TIMESTAMP LT ISZERO PUSH2 0x477 JUMPI PUSH1 0x0 DUP1 REVERT JUMPDEST PUSH1 0x5 PUSH1 0x0 SWAP1 SLOAD SWAP1 PUSH2 0x100 EXP SWAP1 DIV PUSH1 0xFF AND ISZERO PUSH2 0x491 JUMPI PUSH1 0x0 DUP1 REVERT JUMPDEST PUSH1 0x1 PUSH1 0x5 PUSH1 0x0 PUSH2 0x100 EXP DUP2 SLOAD DUP2 PUSH1 0xFF MUL NOT AND SWAP1 DUP4 ISZERO ISZERO MUL OR SWAP1 SSTORE POP PUSH32 0xC9B64CAA2AA57493E3A2B3087A613AD4168386AA000BE494A8A41CD06BD3844A PUSH1 0x2 PUSH1 0x0 SWAP1 SLOAD SWAP1 PUSH2 0x100 EXP SWAP1 DIV PUSH20 0xFFFFFFFFFFFFFFFFFFFFFFFFFFFFFFFFFFFFFFFF AND PUSH1 0x3 SLOAD PUSH1 0x40 MLOAD PUSH2 0x501 SWAP3 SWAP2 SWAP1 PUSH2 0x637 JUMP JUMPDEST PUSH1 0x40 MLOAD DUP1 SWAP2 SUB SWAP1 LOG1 JUMP JUMPDEST DUP1 PUSH1 0x0 DUP1 PUSH2 0x100 EXP DUP2 SLOAD DUP2 PUSH20 0xFFFFFFFFFFFFFFFFFFFFFFFFFFFFFFFFFFFFFFFF MUL NOT AND SWAP1 DUP4 PUSH20 0xFFFFFFFFFFFFFFFFFFFFFFFFFFFFFFFFFFFFFFFF AND MUL OR SWAP1 SSTORE POP DUP2 TIMESTAMP PUSH2 0x557 SWAP2 SWAP1 PUSH2 0x696 JUMP JUMPDEST PUSH1 0x1 DUP2 SWAP1 SSTORE POP POP POP JUMP JUMPDEST PUSH1 0x0 DUP1 SLOAD SWAP1 PUSH2 0x100 EXP SWAP1 DIV PUSH20 0xFFFFFFFFFFFFFFFFFFFFFFFFFFFFFFFFFFFFFFFF AND DUP2 JUMP JUMPDEST PUSH1 0x0 DUP2 CALLDATALOAD SWAP1 POP PUSH2 0x594 DUP2 PUSH2 0x768 JUMP JUMPDEST SWAP3 SWAP2 POP POP JUMP JUMPDEST PUSH1 0x0 DUP2 CALLDATALOAD SWAP1 POP PUSH2 0x5A9 DUP2 PUSH2 0x77F JUMP JUMPDEST SWAP3 SWAP2 POP POP JUMP JUMPDEST PUSH1 0x0 DUP1 PUSH1 0x40 DUP4 DUP6 SUB SLT ISZERO PUSH2 0x5C6 JUMPI PUSH2 0x5C5 PUSH2 0x763 JUMP JUMPDEST JUMPDEST PUSH1 0x0 PUSH2 0x5D4 DUP6 DUP3 DUP7 ADD PUSH2 0x59A JUMP JUMPDEST SWAP3 POP POP PUSH1 0x20 PUSH2 0x5E5 DUP6 DUP3 DUP7 ADD PUSH2 0x585 JUMP JUMPDEST SWAP2 POP POP SWAP3 POP SWAP3 SWAP1 POP JUMP JUMPDEST PUSH2 0x5F8 DUP2 PUSH2 0x6EC JUMP JUMPDEST DUP3 MSTORE POP POP JUMP JUMPDEST PUSH2 0x607 DUP2 PUSH2 0x6FE JUMP JUMPDEST DUP3 MSTORE POP POP JUMP JUMPDEST PUSH2 0x616 DUP2 PUSH2 0x72A JUMP JUMPDEST DUP3 MSTORE POP POP JUMP JUMPDEST PUSH1 0x0 PUSH1 0x20 DUP3 ADD SWAP1 POP PUSH2 0x631 PUSH1 0x0 DUP4 ADD DUP5 PUSH2 0x5EF JUMP JUMPDEST SWAP3 SWAP2 POP POP JUMP JUMPDEST PUSH1 0x0 PUSH1 0x40 DUP3 ADD SWAP1 POP PUSH2 0x64C PUSH1 0x0 DUP4 ADD DUP6 PUSH2 0x5EF JUMP JUMPDEST PUSH2 0x659 PUSH1 0x20 DUP4 ADD DUP5 PUSH2 0x60D JUMP JUMPDEST SWAP4 SWAP3 POP POP POP JUMP JUMPDEST PUSH1 0x0 PUSH1 0x20 DUP3 ADD SWAP1 POP PUSH2 0x675 PUSH1 0x0 DUP4 ADD DUP5 PUSH2 0x5FE JUMP JUMPDEST SWAP3 SWAP2 POP POP JUMP JUMPDEST PUSH1 0x0 PUSH1 0x20 DUP3 ADD SWAP1 POP PUSH2 0x690 PUSH1 0x0 DUP4 ADD DUP5 PUSH2 0x60D JUMP JUMPDEST SWAP3 SWAP2 POP POP JUMP JUMPDEST PUSH1 0x0 PUSH2 0x6A1 DUP3 PUSH2 0x72A JUMP JUMPDEST SWAP2 POP PUSH2 0x6AC DUP4 PUSH2 0x72A JUMP JUMPDEST SWAP3 POP DUP3 PUSH32 0xFFFFFFFFFFFFFFFFFFFFFFFFFFFFFFFFFFFFFFFFFFFFFFFFFFFFFFFFFFFFFFFF SUB DUP3 GT ISZERO PUSH2 0x6E1 JUMPI PUSH2 0x6E0 PUSH2 0x734 JUMP JUMPDEST JUMPDEST DUP3 DUP3 ADD SWAP1 POP SWAP3 SWAP2 POP POP JUMP JUMPDEST PUSH1 0x0 PUSH2 0x6F7 DUP3 PUSH2 0x70A JUMP JUMPDEST SWAP1 POP SWAP2 SWAP1 POP JUMP JUMPDEST PUSH1 0x0 DUP2 ISZERO ISZERO SWAP1 POP SWAP2 SWAP1 POP JUMP JUMPDEST PUSH1 0x0 PUSH20 0xFFFFFFFFFFFFFFFFFFFFFFFFFFFFFFFFFFFFFFFF DUP3 AND SWAP1 POP SWAP2 SWAP1 POP JUMP JUMPDEST PUSH1 0x0 DUP2 SWAP1 POP SWAP2 SWAP1 POP JUMP JUMPDEST PUSH32 0x4E487B7100000000000000000000000000000000000000000000000000000000 PUSH1 0x0 MSTORE PUSH1 0x11 PUSH1 0x4 MSTORE PUSH1 0x24 PUSH1 0x0 REVERT JUMPDEST PUSH1 0x0 DUP1 REVERT JUMPDEST PUSH2 0x771 DUP2 PUSH2 0x6EC JUMP JUMPDEST DUP2 EQ PUSH2 0x77C JUMPI PUSH1 0x0 DUP1 REVERT JUMPDEST POP JUMP JUMPDEST PUSH2 0x788 DUP2 PUSH2 0x72A JUMP JUMPDEST DUP2 EQ PUSH2 0x793 JUMPI PUSH1 0x0 DUP1 REVERT JUMPDEST POP JUMP INVALID LOG2 PUSH5 0x6970667358 0x22 SLT KECCAK256 0x1F PUSH8 0x7D67A6404CA4F5AC LOG0 CHAINID 0xEC JUMPDEST 0xE7 EXTCODESIZE DUP12 0xBF 0xDD PUSH29 0x72CE5E39302ECA574DA65E9464736F6C63430008060033000000000000 "
				},
				"gasEstimates": {
					"creation": {
						"codeDepositCost": "399200",
						"executionCost": "436",
						"totalCost": "399636"
					},
					"external": {
						"SimpleAuctions(uint256,address)": "infinite",
						"auctionClose()": "2474",
						"auctionClosed()": "34549",
						"beneficiaryAddress()": "2577",
						"bid()": "infinite",
						"topBid()": "2429",
						"topBidder()": "2515",
						"withdraw()": "infinite"
					},
					"internal": {
						"_transferBid()": "infinite"
					}
				},
				"methodIdentifiers": {
					"SimpleAuctions(uint256,address)": "b4b48cf1",
					"auctionClose()": "19c2a5b5",
					"auctionClosed()": "aeaaa299",
					"beneficiaryAddress()": "d9c4870e",
					"bid()": "1998aeef",
					"topBid()": "636bf730",
					"topBidder()": "01333f06",
					"withdraw()": "3ccfd60b"
				}
			},
			"userdoc": {
				"kind": "user",
				"methods": {
					"SimpleAuctions(uint256,address)": {
						"notice": "Create an auction with `_biddingTime` seconds for bidding on behalf of the beneficiary address `_beneficiary`."
					},
					"auctionClosed()": {
						"notice": "Auction ends and highest bid is sent to the beneficiary."
					},
					"bid()": {
						"notice": "You may bid on the auction with the value sent along with this transaction. The value may only be refunded if the auction was not won."
					},
					"withdraw()": {
						"notice": "Withdraw a bid that was overbid."
					}
				},
				"version": 1
			}
		}
	}
}