{
	"contracts/artifacts/Auction.sol": {
		"Auction": {
			"abi": [
				{
					"constant": true,
					"inputs": [],
					"name": "endBlock",
					"outputs": [
						{
							"name": "",
							"type": "uint256"
						}
					],
					"payable": false,
					"stateMutability": "view",
					"type": "function"
				},
				{
					"constant": false,
					"inputs": [],
					"name": "withdraw",
					"outputs": [
						{
							"name": "success",
							"type": "bool"
						}
					],
					"payable": false,
					"stateMutability": "nonpayable",
					"type": "function"
				},
				{
					"constant": true,
					"inputs": [],
					"name": "canceled",
					"outputs": [
						{
							"name": "",
							"type": "bool"
						}
					],
					"payable": false,
					"stateMutability": "view",
					"type": "function"
				},
				{
					"constant": true,
					"inputs": [],
					"name": "startBlock",
					"outputs": [
						{
							"name": "",
							"type": "uint256"
						}
					],
					"payable": false,
					"stateMutability": "view",
					"type": "function"
				},
				{
					"constant": true,
					"inputs": [],
					"name": "getHighestBid",
					"outputs": [
						{
							"name": "",
							"type": "uint256"
						}
					],
					"payable": false,
					"stateMutability": "view",
					"type": "function"
				},
				{
					"constant": true,
					"inputs": [],
					"name": "owner",
					"outputs": [
						{
							"name": "",
							"type": "address"
						}
					],
					"payable": false,
					"stateMutability": "view",
					"type": "function"
				},
				{
					"constant": false,
					"inputs": [],
					"name": "cancelAuction",
					"outputs": [
						{
							"name": "success",
							"type": "bool"
						}
					],
					"payable": false,
					"stateMutability": "nonpayable",
					"type": "function"
				},
				{
					"constant": true,
					"inputs": [],
					"name": "highestBidder",
					"outputs": [
						{
							"name": "",
							"type": "address"
						}
					],
					"payable": false,
					"stateMutability": "view",
					"type": "function"
				},
				{
					"constant": true,
					"inputs": [],
					"name": "bidIncrement",
					"outputs": [
						{
							"name": "",
							"type": "uint256"
						}
					],
					"payable": false,
					"stateMutability": "view",
					"type": "function"
				},
				{
					"constant": true,
					"inputs": [],
					"name": "ipfsHash",
					"outputs": [
						{
							"name": "",
							"type": "string"
						}
					],
					"payable": false,
					"stateMutability": "view",
					"type": "function"
				},
				{
					"constant": true,
					"inputs": [
						{
							"name": "",
							"type": "address"
						}
					],
					"name": "fundsByBidder",
					"outputs": [
						{
							"name": "",
							"type": "uint256"
						}
					],
					"payable": false,
					"stateMutability": "view",
					"type": "function"
				},
				{
					"constant": false,
					"inputs": [],
					"name": "placeBid",
					"outputs": [
						{
							"name": "success",
							"type": "bool"
						}
					],
					"payable": true,
					"stateMutability": "payable",
					"type": "function"
				},
				{
					"constant": true,
					"inputs": [],
					"name": "highestBindingBid",
					"outputs": [
						{
							"name": "",
							"type": "uint256"
						}
					],
					"payable": false,
					"stateMutability": "view",
					"type": "function"
				},
				{
					"inputs": [
						{
							"name": "_owner",
							"type": "address"
						},
						{
							"name": "_bidIncrement",
							"type": "uint256"
						},
						{
							"name": "_startBlock",
							"type": "uint256"
						},
						{
							"name": "_endBlock",
							"type": "uint256"
						},
						{
							"name": "_ipfsHash",
							"type": "string"
						}
					],
					"payable": false,
					"stateMutability": "nonpayable",
					"type": "constructor"
				},
				{
					"anonymous": false,
					"inputs": [
						{
							"indexed": false,
							"name": "bidder",
							"type": "address"
						},
						{
							"indexed": false,
							"name": "bid",
							"type": "uint256"
						},
						{
							"indexed": false,
							"name": "highestBidder",
							"type": "address"
						},
						{
							"indexed": false,
							"name": "highestBid",
							"type": "uint256"
						},
						{
							"indexed": false,
							"name": "highestBindingBid",
							"type": "uint256"
						}
					],
					"name": "LogBid",
					"type": "event"
				},
				{
					"anonymous": false,
					"inputs": [
						{
							"indexed": false,
							"name": "withdrawer",
							"type": "address"
						},
						{
							"indexed": false,
							"name": "withdrawalAccount",
							"type": "address"
						},
						{
							"indexed": false,
							"name": "amount",
							"type": "uint256"
						}
					],
					"name": "LogWithdrawal",
					"type": "event"
				},
				{
					"anonymous": false,
					"inputs": [],
					"name": "LogCanceled",
					"type": "event"
				}
			],
			"devdoc": {
				"methods": {}
			},
			"evm": {
				"assembly": "    /* \"contracts/artifacts/Auction.sol\":27:6185  contract Auction {\r... */\n  mstore(0x40, 0x80)\n    /* \"contracts/artifacts/Auction.sol\":632:1035  function Auction(address _owner, uint _bidIncrement, uint _startBlock, uint _endBlock, string _ipfsHash) {\r... */\n  callvalue\n    /* \"--CODEGEN--\":8:17   */\n  dup1\n    /* \"--CODEGEN--\":5:7   */\n  iszero\n  tag_1\n  jumpi\n    /* \"--CODEGEN--\":30:31   */\n  0x0\n    /* \"--CODEGEN--\":27:28   */\n  dup1\n    /* \"--CODEGEN--\":20:32   */\n  revert\n    /* \"--CODEGEN--\":5:7   */\ntag_1:\n    /* \"contracts/artifacts/Auction.sol\":632:1035  function Auction(address _owner, uint _bidIncrement, uint _startBlock, uint _endBlock, string _ipfsHash) {\r... */\n  pop\n  mload(0x40)\n  sub(codesize, bytecodeSize)\n  dup1\n  bytecodeSize\n  dup4\n  codecopy\n  dup2\n  add\n  dup1\n  0x40\n  mstore\n  dup2\n  add\n  swap1\n  dup1\n  dup1\n  mload\n  swap1\n  0x20\n  add\n  swap1\n  swap3\n  swap2\n  swap1\n  dup1\n  mload\n  swap1\n  0x20\n  add\n  swap1\n  swap3\n  swap2\n  swap1\n  dup1\n  mload\n  swap1\n  0x20\n  add\n  swap1\n  swap3\n  swap2\n  swap1\n  dup1\n  mload\n  swap1\n  0x20\n  add\n  swap1\n  swap3\n  swap2\n  swap1\n  dup1\n  mload\n  dup3\n  add\n  swap3\n  swap2\n  swap1\n  pop\n  pop\n  pop\n    /* \"contracts/artifacts/Auction.sol\":767:776  _endBlock */\n  dup2\n    /* \"contracts/artifacts/Auction.sol\":752:763  _startBlock */\n  dup4\n    /* \"contracts/artifacts/Auction.sol\":752:776  _startBlock >= _endBlock */\n  lt\n  iszero\n    /* \"contracts/artifacts/Auction.sol\":748:783  if (_startBlock >= _endBlock) throw */\n  iszero\n  tag_4\n  jumpi\n    /* \"contracts/artifacts/Auction.sol\":778:783  throw */\n  0x0\n  dup1\n  revert\n    /* \"contracts/artifacts/Auction.sol\":748:783  if (_startBlock >= _endBlock) throw */\ntag_4:\n    /* \"contracts/artifacts/Auction.sol\":812:824  block.number */\n  number\n    /* \"contracts/artifacts/Auction.sol\":798:809  _startBlock */\n  dup4\n    /* \"contracts/artifacts/Auction.sol\":798:824  _startBlock < block.number */\n  lt\n    /* \"contracts/artifacts/Auction.sol\":794:831  if (_startBlock < block.number) throw */\n  iszero\n  tag_5\n  jumpi\n    /* \"contracts/artifacts/Auction.sol\":826:831  throw */\n  0x0\n  dup1\n  revert\n    /* \"contracts/artifacts/Auction.sol\":794:831  if (_startBlock < block.number) throw */\ntag_5:\n    /* \"contracts/artifacts/Auction.sol\":856:857  0 */\n  0x0\n    /* \"contracts/artifacts/Auction.sol\":846:852  _owner */\n  dup6\n    /* \"contracts/artifacts/Auction.sol\":846:857  _owner == 0 */\n  0xffffffffffffffffffffffffffffffffffffffff\n  and\n  eq\n    /* \"contracts/artifacts/Auction.sol\":842:864  if (_owner == 0) throw */\n  iszero\n  tag_6\n  jumpi\n    /* \"contracts/artifacts/Auction.sol\":859:864  throw */\n  0x0\n  dup1\n  revert\n    /* \"contracts/artifacts/Auction.sol\":842:864  if (_owner == 0) throw */\ntag_6:\n    /* \"contracts/artifacts/Auction.sol\":885:891  _owner */\n  dup5\n    /* \"contracts/artifacts/Auction.sol\":877:882  owner */\n  0x0\n  dup1\n    /* \"contracts/artifacts/Auction.sol\":877:891  owner = _owner */\n  0x100\n  exp\n  dup2\n  sload\n  dup2\n  0xffffffffffffffffffffffffffffffffffffffff\n  mul\n  not\n  and\n  swap1\n  dup4\n  0xffffffffffffffffffffffffffffffffffffffff\n  and\n  mul\n  or\n  swap1\n  sstore\n  pop\n    /* \"contracts/artifacts/Auction.sol\":917:930  _bidIncrement */\n  dup4\n    /* \"contracts/artifacts/Auction.sol\":902:914  bidIncrement */\n  0x1\n    /* \"contracts/artifacts/Auction.sol\":902:930  bidIncrement = _bidIncrement */\n  dup2\n  swap1\n  sstore\n  pop\n    /* \"contracts/artifacts/Auction.sol\":954:965  _startBlock */\n  dup3\n    /* \"contracts/artifacts/Auction.sol\":941:951  startBlock */\n  0x2\n    /* \"contracts/artifacts/Auction.sol\":941:965  startBlock = _startBlock */\n  dup2\n  swap1\n  sstore\n  pop\n    /* \"contracts/artifacts/Auction.sol\":987:996  _endBlock */\n  dup2\n    /* \"contracts/artifacts/Auction.sol\":976:984  endBlock */\n  0x3\n    /* \"contracts/artifacts/Auction.sol\":976:996  endBlock = _endBlock */\n  dup2\n  swap1\n  sstore\n  pop\n    /* \"contracts/artifacts/Auction.sol\":1018:1027  _ipfsHash */\n  dup1\n    /* \"contracts/artifacts/Auction.sol\":1007:1015  ipfsHash */\n  0x4\n    /* \"contracts/artifacts/Auction.sol\":1007:1027  ipfsHash = _ipfsHash */\n  swap1\n  dup1\n  mload\n  swap1\n  0x20\n  add\n  swap1\n  tag_7\n  swap3\n  swap2\n  swap1\n  jump\t// in(tag_8)\ntag_7:\n  pop\n    /* \"contracts/artifacts/Auction.sol\":632:1035  function Auction(address _owner, uint _bidIncrement, uint _startBlock, uint _endBlock, string _ipfsHash) {\r... */\n  pop\n  pop\n  pop\n  pop\n  pop\n    /* \"contracts/artifacts/Auction.sol\":27:6185  contract Auction {\r... */\n  jump(tag_9)\ntag_8:\n  dup3\n  dup1\n  sload\n  0x1\n  dup2\n  0x1\n  and\n  iszero\n  0x100\n  mul\n  sub\n  and\n  0x2\n  swap1\n  div\n  swap1\n  0x0\n  mstore\n  keccak256(0x0, 0x20)\n  swap1\n  0x1f\n  add\n  0x20\n  swap1\n  div\n  dup2\n  add\n  swap3\n  dup3\n  0x1f\n  lt\n  tag_11\n  jumpi\n  dup1\n  mload\n  not(0xff)\n  and\n  dup4\n  dup1\n  add\n  or\n  dup6\n  sstore\n  jump(tag_10)\ntag_11:\n  dup3\n  dup1\n  add\n  0x1\n  add\n  dup6\n  sstore\n  dup3\n  iszero\n  tag_10\n  jumpi\n  swap2\n  dup3\n  add\ntag_12:\n  dup3\n  dup2\n  gt\n  iszero\n  tag_13\n  jumpi\n  dup3\n  mload\n  dup3\n  sstore\n  swap2\n  0x20\n  add\n  swap2\n  swap1\n  0x1\n  add\n  swap1\n  jump(tag_12)\ntag_13:\ntag_10:\n  pop\n  swap1\n  pop\n  tag_14\n  swap2\n  swap1\n  jump\t// in(tag_15)\ntag_14:\n  pop\n  swap1\n  jump\t// out\ntag_15:\n  tag_16\n  swap2\n  swap1\ntag_17:\n  dup1\n  dup3\n  gt\n  iszero\n  tag_18\n  jumpi\n  0x0\n  dup2\n  0x0\n  swap1\n  sstore\n  pop\n  0x1\n  add\n  jump(tag_17)\ntag_18:\n  pop\n  swap1\n  jump\ntag_16:\n  swap1\n  jump\t// out\ntag_9:\n  dataSize(sub_0)\n  dup1\n  dataOffset(sub_0)\n  0x0\n  codecopy\n  0x0\n  return\nstop\n\nsub_0: assembly {\n        /* \"contracts/artifacts/Auction.sol\":27:6185  contract Auction {\r... */\n      mstore(0x40, 0x80)\n      jumpi(tag_1, lt(calldatasize, 0x4))\n      calldataload(0x0)\n      0x100000000000000000000000000000000000000000000000000000000\n      swap1\n      div\n      0xffffffff\n      and\n      dup1\n      0x83c6323\n      eq\n      tag_2\n      jumpi\n      dup1\n      0x3ccfd60b\n      eq\n      tag_3\n      jumpi\n      dup1\n      0x3f9942ff\n      eq\n      tag_4\n      jumpi\n      dup1\n      0x48cd4cb1\n      eq\n      tag_5\n      jumpi\n      dup1\n      0x4979440a\n      eq\n      tag_6\n      jumpi\n      dup1\n      0x8da5cb5b\n      eq\n      tag_7\n      jumpi\n      dup1\n      0x8fa8b790\n      eq\n      tag_8\n      jumpi\n      dup1\n      0x91f90157\n      eq\n      tag_9\n      jumpi\n      dup1\n      0xb3cc167a\n      eq\n      tag_10\n      jumpi\n      dup1\n      0xc623674f\n      eq\n      tag_11\n      jumpi\n      dup1\n      0xce10cf80\n      eq\n      tag_12\n      jumpi\n      dup1\n      0xecfc7ecc\n      eq\n      tag_13\n      jumpi\n      dup1\n      0xf5b56c56\n      eq\n      tag_14\n      jumpi\n    tag_1:\n      0x0\n      dup1\n      revert\n        /* \"contracts/artifacts/Auction.sol\":153:173  uint public endBlock */\n    tag_2:\n      callvalue\n        /* \"--CODEGEN--\":8:17   */\n      dup1\n        /* \"--CODEGEN--\":5:7   */\n      iszero\n      tag_15\n      jumpi\n        /* \"--CODEGEN--\":30:31   */\n      0x0\n        /* \"--CODEGEN--\":27:28   */\n      dup1\n        /* \"--CODEGEN--\":20:32   */\n      revert\n        /* \"--CODEGEN--\":5:7   */\n    tag_15:\n        /* \"contracts/artifacts/Auction.sol\":153:173  uint public endBlock */\n      pop\n      tag_16\n      jump(tag_17)\n    tag_16:\n      mload(0x40)\n      dup1\n      dup3\n      dup2\n      mstore\n      0x20\n      add\n      swap2\n      pop\n      pop\n      mload(0x40)\n      dup1\n      swap2\n      sub\n      swap1\n      return\n        /* \"contracts/artifacts/Auction.sol\":3710:5610  function withdraw()\r... */\n    tag_3:\n      callvalue\n        /* \"--CODEGEN--\":8:17   */\n      dup1\n        /* \"--CODEGEN--\":5:7   */\n      iszero\n      tag_18\n      jumpi\n        /* \"--CODEGEN--\":30:31   */\n      0x0\n        /* \"--CODEGEN--\":27:28   */\n      dup1\n        /* \"--CODEGEN--\":20:32   */\n      revert\n        /* \"--CODEGEN--\":5:7   */\n    tag_18:\n        /* \"contracts/artifacts/Auction.sol\":3710:5610  function withdraw()\r... */\n      pop\n      tag_19\n      jump(tag_20)\n    tag_19:\n      mload(0x40)\n      dup1\n      dup3\n      iszero\n      iszero\n      iszero\n      iszero\n      dup2\n      mstore\n      0x20\n      add\n      swap2\n      pop\n      pop\n      mload(0x40)\n      dup1\n      swap2\n      sub\n      swap1\n      return\n        /* \"contracts/artifacts/Auction.sol\":225:245  bool public canceled */\n    tag_4:\n      callvalue\n        /* \"--CODEGEN--\":8:17   */\n      dup1\n        /* \"--CODEGEN--\":5:7   */\n      iszero\n      tag_21\n      jumpi\n        /* \"--CODEGEN--\":30:31   */\n      0x0\n        /* \"--CODEGEN--\":27:28   */\n      dup1\n        /* \"--CODEGEN--\":20:32   */\n      revert\n        /* \"--CODEGEN--\":5:7   */\n    tag_21:\n        /* \"contracts/artifacts/Auction.sol\":225:245  bool public canceled */\n      pop\n      tag_22\n      jump(tag_23)\n    tag_22:\n      mload(0x40)\n      dup1\n      dup3\n      iszero\n      iszero\n      iszero\n      iszero\n      dup2\n      mstore\n      0x20\n      add\n      swap2\n      pop\n      pop\n      mload(0x40)\n      dup1\n      swap2\n      sub\n      swap1\n      return\n        /* \"contracts/artifacts/Auction.sol\":124:146  uint public startBlock */\n    tag_5:\n      callvalue\n        /* \"--CODEGEN--\":8:17   */\n      dup1\n        /* \"--CODEGEN--\":5:7   */\n      iszero\n      tag_24\n      jumpi\n        /* \"--CODEGEN--\":30:31   */\n      0x0\n        /* \"--CODEGEN--\":27:28   */\n      dup1\n        /* \"--CODEGEN--\":20:32   */\n      revert\n        /* \"--CODEGEN--\":5:7   */\n    tag_24:\n        /* \"contracts/artifacts/Auction.sol\":124:146  uint public startBlock */\n      pop\n      tag_25\n      jump(tag_26)\n    tag_25:\n      mload(0x40)\n      dup1\n      dup3\n      dup2\n      mstore\n      0x20\n      add\n      swap2\n      pop\n      pop\n      mload(0x40)\n      dup1\n      swap2\n      sub\n      swap1\n      return\n        /* \"contracts/artifacts/Auction.sol\":1043:1169  function getHighestBid()\r... */\n    tag_6:\n      callvalue\n        /* \"--CODEGEN--\":8:17   */\n      dup1\n        /* \"--CODEGEN--\":5:7   */\n      iszero\n      tag_27\n      jumpi\n        /* \"--CODEGEN--\":30:31   */\n      0x0\n        /* \"--CODEGEN--\":27:28   */\n      dup1\n        /* \"--CODEGEN--\":20:32   */\n      revert\n        /* \"--CODEGEN--\":5:7   */\n    tag_27:\n        /* \"contracts/artifacts/Auction.sol\":1043:1169  function getHighestBid()\r... */\n      pop\n      tag_28\n      jump(tag_29)\n    tag_28:\n      mload(0x40)\n      dup1\n      dup3\n      dup2\n      mstore\n      0x20\n      add\n      swap2\n      pop\n      pop\n      mload(0x40)\n      dup1\n      swap2\n      sub\n      swap1\n      return\n        /* \"contracts/artifacts/Auction.sol\":66:86  address public owner */\n    tag_7:\n      callvalue\n        /* \"--CODEGEN--\":8:17   */\n      dup1\n        /* \"--CODEGEN--\":5:7   */\n      iszero\n      tag_30\n      jumpi\n        /* \"--CODEGEN--\":30:31   */\n      0x0\n        /* \"--CODEGEN--\":27:28   */\n      dup1\n        /* \"--CODEGEN--\":20:32   */\n      revert\n        /* \"--CODEGEN--\":5:7   */\n    tag_30:\n        /* \"contracts/artifacts/Auction.sol\":66:86  address public owner */\n      pop\n      tag_31\n      jump(tag_32)\n    tag_31:\n      mload(0x40)\n      dup1\n      dup3\n      0xffffffffffffffffffffffffffffffffffffffff\n      and\n      0xffffffffffffffffffffffffffffffffffffffff\n      and\n      dup2\n      mstore\n      0x20\n      add\n      swap2\n      pop\n      pop\n      mload(0x40)\n      dup1\n      swap2\n      sub\n      swap1\n      return\n        /* \"contracts/artifacts/Auction.sol\":3477:3702  function cancelAuction()\r... */\n    tag_8:\n      callvalue\n        /* \"--CODEGEN--\":8:17   */\n      dup1\n        /* \"--CODEGEN--\":5:7   */\n      iszero\n      tag_33\n      jumpi\n        /* \"--CODEGEN--\":30:31   */\n      0x0\n        /* \"--CODEGEN--\":27:28   */\n      dup1\n        /* \"--CODEGEN--\":20:32   */\n      revert\n        /* \"--CODEGEN--\":5:7   */\n    tag_33:\n        /* \"contracts/artifacts/Auction.sol\":3477:3702  function cancelAuction()\r... */\n      pop\n      tag_34\n      jump(tag_35)\n    tag_34:\n      mload(0x40)\n      dup1\n      dup3\n      iszero\n      iszero\n      iszero\n      iszero\n      dup2\n      mstore\n      0x20\n      add\n      swap2\n      pop\n      pop\n      mload(0x40)\n      dup1\n      swap2\n      sub\n      swap1\n      return\n        /* \"contracts/artifacts/Auction.sol\":288:316  address public highestBidder */\n    tag_9:\n      callvalue\n        /* \"--CODEGEN--\":8:17   */\n      dup1\n        /* \"--CODEGEN--\":5:7   */\n      iszero\n      tag_36\n      jumpi\n        /* \"--CODEGEN--\":30:31   */\n      0x0\n        /* \"--CODEGEN--\":27:28   */\n      dup1\n        /* \"--CODEGEN--\":20:32   */\n      revert\n        /* \"--CODEGEN--\":5:7   */\n    tag_36:\n        /* \"contracts/artifacts/Auction.sol\":288:316  address public highestBidder */\n      pop\n      tag_37\n      jump(tag_38)\n    tag_37:\n      mload(0x40)\n      dup1\n      dup3\n      0xffffffffffffffffffffffffffffffffffffffff\n      and\n      0xffffffffffffffffffffffffffffffffffffffff\n      and\n      dup2\n      mstore\n      0x20\n      add\n      swap2\n      pop\n      pop\n      mload(0x40)\n      dup1\n      swap2\n      sub\n      swap1\n      return\n        /* \"contracts/artifacts/Auction.sol\":93:117  uint public bidIncrement */\n    tag_10:\n      callvalue\n        /* \"--CODEGEN--\":8:17   */\n      dup1\n        /* \"--CODEGEN--\":5:7   */\n      iszero\n      tag_39\n      jumpi\n        /* \"--CODEGEN--\":30:31   */\n      0x0\n        /* \"--CODEGEN--\":27:28   */\n      dup1\n        /* \"--CODEGEN--\":20:32   */\n      revert\n        /* \"--CODEGEN--\":5:7   */\n    tag_39:\n        /* \"contracts/artifacts/Auction.sol\":93:117  uint public bidIncrement */\n      pop\n      tag_40\n      jump(tag_41)\n    tag_40:\n      mload(0x40)\n      dup1\n      dup3\n      dup2\n      mstore\n      0x20\n      add\n      swap2\n      pop\n      pop\n      mload(0x40)\n      dup1\n      swap2\n      sub\n      swap1\n      return\n        /* \"contracts/artifacts/Auction.sol\":180:202  string public ipfsHash */\n    tag_11:\n      callvalue\n        /* \"--CODEGEN--\":8:17   */\n      dup1\n        /* \"--CODEGEN--\":5:7   */\n      iszero\n      tag_42\n      jumpi\n        /* \"--CODEGEN--\":30:31   */\n      0x0\n        /* \"--CODEGEN--\":27:28   */\n      dup1\n        /* \"--CODEGEN--\":20:32   */\n      revert\n        /* \"--CODEGEN--\":5:7   */\n    tag_42:\n        /* \"contracts/artifacts/Auction.sol\":180:202  string public ipfsHash */\n      pop\n      tag_43\n      jump(tag_44)\n    tag_43:\n      mload(0x40)\n      dup1\n      dup1\n      0x20\n      add\n      dup3\n      dup2\n      sub\n      dup3\n      mstore\n      dup4\n      dup2\n      dup2\n      mload\n      dup2\n      mstore\n      0x20\n      add\n      swap2\n      pop\n      dup1\n      mload\n      swap1\n      0x20\n      add\n      swap1\n      dup1\n      dup4\n      dup4\n        /* \"--CODEGEN--\":23:24   */\n      0x0\n        /* \"--CODEGEN--\":8:108   */\n    tag_45:\n        /* \"--CODEGEN--\":33:36   */\n      dup4\n        /* \"--CODEGEN--\":30:31   */\n      dup2\n        /* \"--CODEGEN--\":27:37   */\n      lt\n        /* \"--CODEGEN--\":8:108   */\n      iszero\n      tag_46\n      jumpi\n        /* \"--CODEGEN--\":99:100   */\n      dup1\n        /* \"--CODEGEN--\":94:97   */\n      dup3\n        /* \"--CODEGEN--\":90:101   */\n      add\n        /* \"--CODEGEN--\":84:102   */\n      mload\n        /* \"--CODEGEN--\":80:81   */\n      dup2\n        /* \"--CODEGEN--\":75:78   */\n      dup5\n        /* \"--CODEGEN--\":71:82   */\n      add\n        /* \"--CODEGEN--\":64:103   */\n      mstore\n        /* \"--CODEGEN--\":52:54   */\n      0x20\n        /* \"--CODEGEN--\":49:50   */\n      dup2\n        /* \"--CODEGEN--\":45:55   */\n      add\n        /* \"--CODEGEN--\":40:55   */\n      swap1\n      pop\n        /* \"--CODEGEN--\":8:108   */\n      jump(tag_45)\n    tag_46:\n        /* \"--CODEGEN--\":12:26   */\n      pop\n        /* \"contracts/artifacts/Auction.sol\":180:202  string public ipfsHash */\n      pop\n      pop\n      pop\n      swap1\n      pop\n      swap1\n      dup2\n      add\n      swap1\n      0x1f\n      and\n      dup1\n      iszero\n      tag_48\n      jumpi\n      dup1\n      dup3\n      sub\n      dup1\n      mload\n      0x1\n      dup4\n      0x20\n      sub\n      0x100\n      exp\n      sub\n      not\n      and\n      dup2\n      mstore\n      0x20\n      add\n      swap2\n      pop\n    tag_48:\n      pop\n      swap3\n      pop\n      pop\n      pop\n      mload(0x40)\n      dup1\n      swap2\n      sub\n      swap1\n      return\n        /* \"contracts/artifacts/Auction.sol\":323:371  mapping(address => uint256) public fundsByBidder */\n    tag_12:\n      callvalue\n        /* \"--CODEGEN--\":8:17   */\n      dup1\n        /* \"--CODEGEN--\":5:7   */\n      iszero\n      tag_49\n      jumpi\n        /* \"--CODEGEN--\":30:31   */\n      0x0\n        /* \"--CODEGEN--\":27:28   */\n      dup1\n        /* \"--CODEGEN--\":20:32   */\n      revert\n        /* \"--CODEGEN--\":5:7   */\n    tag_49:\n        /* \"contracts/artifacts/Auction.sol\":323:371  mapping(address => uint256) public fundsByBidder */\n      pop\n      tag_50\n      0x4\n      dup1\n      calldatasize\n      sub\n      dup2\n      add\n      swap1\n      dup1\n      dup1\n      calldataload\n      0xffffffffffffffffffffffffffffffffffffffff\n      and\n      swap1\n      0x20\n      add\n      swap1\n      swap3\n      swap2\n      swap1\n      pop\n      pop\n      pop\n      jump(tag_51)\n    tag_50:\n      mload(0x40)\n      dup1\n      dup3\n      dup2\n      mstore\n      0x20\n      add\n      swap2\n      pop\n      pop\n      mload(0x40)\n      dup1\n      swap2\n      sub\n      swap1\n      return\n        /* \"contracts/artifacts/Auction.sol\":1177:3315  function placeBid()\r... */\n    tag_13:\n      tag_52\n      jump(tag_53)\n    tag_52:\n      mload(0x40)\n      dup1\n      dup3\n      iszero\n      iszero\n      iszero\n      iszero\n      dup2\n      mstore\n      0x20\n      add\n      swap2\n      pop\n      pop\n      mload(0x40)\n      dup1\n      swap2\n      sub\n      swap1\n      return\n        /* \"contracts/artifacts/Auction.sol\":252:281  uint public highestBindingBid */\n    tag_14:\n      callvalue\n        /* \"--CODEGEN--\":8:17   */\n      dup1\n        /* \"--CODEGEN--\":5:7   */\n      iszero\n      tag_54\n      jumpi\n        /* \"--CODEGEN--\":30:31   */\n      0x0\n        /* \"--CODEGEN--\":27:28   */\n      dup1\n        /* \"--CODEGEN--\":20:32   */\n      revert\n        /* \"--CODEGEN--\":5:7   */\n    tag_54:\n        /* \"contracts/artifacts/Auction.sol\":252:281  uint public highestBindingBid */\n      pop\n      tag_55\n      jump(tag_56)\n    tag_55:\n      mload(0x40)\n      dup1\n      dup3\n      dup2\n      mstore\n      0x20\n      add\n      swap2\n      pop\n      pop\n      mload(0x40)\n      dup1\n      swap2\n      sub\n      swap1\n      return\n        /* \"contracts/artifacts/Auction.sol\":153:173  uint public endBlock */\n    tag_17:\n      sload(0x3)\n      dup2\n      jump\t// out\n        /* \"contracts/artifacts/Auction.sol\":3710:5610  function withdraw()\r... */\n    tag_20:\n        /* \"contracts/artifacts/Auction.sol\":3777:3789  bool success */\n      0x0\n        /* \"contracts/artifacts/Auction.sol\":3807:3832  address withdrawalAccount */\n      dup1\n        /* \"contracts/artifacts/Auction.sol\":3843:3864  uint withdrawalAmount */\n      0x0\n        /* \"contracts/artifacts/Auction.sol\":6134:6142  endBlock */\n      sload(0x3)\n        /* \"contracts/artifacts/Auction.sol\":6119:6131  block.number */\n      number\n        /* \"contracts/artifacts/Auction.sol\":6119:6142  block.number < endBlock */\n      lt\n        /* \"contracts/artifacts/Auction.sol\":6119:6155  block.number < endBlock && !canceled */\n      dup1\n      iszero\n      tag_58\n      jumpi\n      pop\n        /* \"contracts/artifacts/Auction.sol\":6147:6155  canceled */\n      0x5\n      0x0\n      swap1\n      sload\n      swap1\n      0x100\n      exp\n      swap1\n      div\n      0xff\n      and\n        /* \"contracts/artifacts/Auction.sol\":6146:6155  !canceled */\n      iszero\n        /* \"contracts/artifacts/Auction.sol\":6119:6155  block.number < endBlock && !canceled */\n    tag_58:\n        /* \"contracts/artifacts/Auction.sol\":6115:6162  if (block.number < endBlock && !canceled) throw */\n      iszero\n      tag_59\n      jumpi\n        /* \"contracts/artifacts/Auction.sol\":6157:6162  throw */\n      0x0\n      dup1\n      revert\n        /* \"contracts/artifacts/Auction.sol\":6115:6162  if (block.number < endBlock && !canceled) throw */\n    tag_59:\n        /* \"contracts/artifacts/Auction.sol\":3881:3889  canceled */\n      0x5\n      0x0\n      swap1\n      sload\n      swap1\n      0x100\n      exp\n      swap1\n      div\n      0xff\n      and\n        /* \"contracts/artifacts/Auction.sol\":3877:5309  if (canceled) {\r... */\n      iszero\n      tag_61\n      jumpi\n        /* \"contracts/artifacts/Auction.sol\":4029:4039  msg.sender */\n      caller\n        /* \"contracts/artifacts/Auction.sol\":4009:4039  withdrawalAccount = msg.sender */\n      swap2\n      pop\n        /* \"contracts/artifacts/Auction.sol\":4073:4086  fundsByBidder */\n      0x8\n        /* \"contracts/artifacts/Auction.sol\":4073:4105  fundsByBidder[withdrawalAccount] */\n      0x0\n        /* \"contracts/artifacts/Auction.sol\":4087:4104  withdrawalAccount */\n      dup4\n        /* \"contracts/artifacts/Auction.sol\":4073:4105  fundsByBidder[withdrawalAccount] */\n      0xffffffffffffffffffffffffffffffffffffffff\n      and\n      0xffffffffffffffffffffffffffffffffffffffff\n      and\n      dup2\n      mstore\n      0x20\n      add\n      swap1\n      dup2\n      mstore\n      0x20\n      add\n      0x0\n      keccak256\n      sload\n        /* \"contracts/artifacts/Auction.sol\":4054:4105  withdrawalAmount = fundsByBidder[withdrawalAccount] */\n      swap1\n      pop\n        /* \"contracts/artifacts/Auction.sol\":3877:5309  if (canceled) {\r... */\n      jump(tag_62)\n    tag_61:\n        /* \"contracts/artifacts/Auction.sol\":4220:4225  owner */\n      0x0\n      dup1\n      swap1\n      sload\n      swap1\n      0x100\n      exp\n      swap1\n      div\n      0xffffffffffffffffffffffffffffffffffffffff\n      and\n        /* \"contracts/artifacts/Auction.sol\":4206:4225  msg.sender == owner */\n      0xffffffffffffffffffffffffffffffffffffffff\n      and\n        /* \"contracts/artifacts/Auction.sol\":4206:4216  msg.sender */\n      caller\n        /* \"contracts/artifacts/Auction.sol\":4206:4225  msg.sender == owner */\n      0xffffffffffffffffffffffffffffffffffffffff\n      and\n      eq\n        /* \"contracts/artifacts/Auction.sol\":4202:5298  if (msg.sender == owner) {\r... */\n      iszero\n      tag_63\n      jumpi\n        /* \"contracts/artifacts/Auction.sol\":4358:4371  highestBidder */\n      0x7\n      0x0\n      swap1\n      sload\n      swap1\n      0x100\n      exp\n      swap1\n      div\n      0xffffffffffffffffffffffffffffffffffffffff\n      and\n        /* \"contracts/artifacts/Auction.sol\":4338:4371  withdrawalAccount = highestBidder */\n      swap2\n      pop\n        /* \"contracts/artifacts/Auction.sol\":4409:4426  highestBindingBid */\n      sload(0x6)\n        /* \"contracts/artifacts/Auction.sol\":4390:4426  withdrawalAmount = highestBindingBid */\n      swap1\n      pop\n        /* \"contracts/artifacts/Auction.sol\":4465:4469  true */\n      0x1\n        /* \"contracts/artifacts/Auction.sol\":4445:4462  ownerHasWithdrawn */\n      0x9\n      0x0\n        /* \"contracts/artifacts/Auction.sol\":4445:4469  ownerHasWithdrawn = true */\n      0x100\n      exp\n      dup2\n      sload\n      dup2\n      0xff\n      mul\n      not\n      and\n      swap1\n      dup4\n      iszero\n      iszero\n      mul\n      or\n      swap1\n      sstore\n      pop\n        /* \"contracts/artifacts/Auction.sol\":4202:5298  if (msg.sender == owner) {\r... */\n      jump(tag_64)\n    tag_63:\n        /* \"contracts/artifacts/Auction.sol\":4511:4524  highestBidder */\n      0x7\n      0x0\n      swap1\n      sload\n      swap1\n      0x100\n      exp\n      swap1\n      div\n      0xffffffffffffffffffffffffffffffffffffffff\n      and\n        /* \"contracts/artifacts/Auction.sol\":4497:4524  msg.sender == highestBidder */\n      0xffffffffffffffffffffffffffffffffffffffff\n      and\n        /* \"contracts/artifacts/Auction.sol\":4497:4507  msg.sender */\n      caller\n        /* \"contracts/artifacts/Auction.sol\":4497:4524  msg.sender == highestBidder */\n      0xffffffffffffffffffffffffffffffffffffffff\n      and\n      eq\n        /* \"contracts/artifacts/Auction.sol\":4493:5298  if (msg.sender == highestBidder) {\r... */\n      iszero\n      tag_65\n      jumpi\n        /* \"contracts/artifacts/Auction.sol\":4726:4739  highestBidder */\n      0x7\n      0x0\n      swap1\n      sload\n      swap1\n      0x100\n      exp\n      swap1\n      div\n      0xffffffffffffffffffffffffffffffffffffffff\n      and\n        /* \"contracts/artifacts/Auction.sol\":4706:4739  withdrawalAccount = highestBidder */\n      swap2\n      pop\n        /* \"contracts/artifacts/Auction.sol\":4762:4779  ownerHasWithdrawn */\n      0x9\n      0x0\n      swap1\n      sload\n      swap1\n      0x100\n      exp\n      swap1\n      div\n      0xff\n      and\n        /* \"contracts/artifacts/Auction.sol\":4758:4987  if (ownerHasWithdrawn) {\r... */\n      iszero\n      tag_66\n      jumpi\n        /* \"contracts/artifacts/Auction.sol\":4823:4836  fundsByBidder */\n      0x8\n        /* \"contracts/artifacts/Auction.sol\":4823:4851  fundsByBidder[highestBidder] */\n      0x0\n        /* \"contracts/artifacts/Auction.sol\":4837:4850  highestBidder */\n      0x7\n      0x0\n      swap1\n      sload\n      swap1\n      0x100\n      exp\n      swap1\n      div\n      0xffffffffffffffffffffffffffffffffffffffff\n      and\n        /* \"contracts/artifacts/Auction.sol\":4823:4851  fundsByBidder[highestBidder] */\n      0xffffffffffffffffffffffffffffffffffffffff\n      and\n      0xffffffffffffffffffffffffffffffffffffffff\n      and\n      dup2\n      mstore\n      0x20\n      add\n      swap1\n      dup2\n      mstore\n      0x20\n      add\n      0x0\n      keccak256\n      sload\n        /* \"contracts/artifacts/Auction.sol\":4804:4851  withdrawalAmount = fundsByBidder[highestBidder] */\n      swap1\n      pop\n        /* \"contracts/artifacts/Auction.sol\":4758:4987  if (ownerHasWithdrawn) {\r... */\n      jump(tag_67)\n    tag_66:\n        /* \"contracts/artifacts/Auction.sol\":4950:4967  highestBindingBid */\n      sload(0x6)\n        /* \"contracts/artifacts/Auction.sol\":4919:4932  fundsByBidder */\n      0x8\n        /* \"contracts/artifacts/Auction.sol\":4919:4947  fundsByBidder[highestBidder] */\n      0x0\n        /* \"contracts/artifacts/Auction.sol\":4933:4946  highestBidder */\n      0x7\n      0x0\n      swap1\n      sload\n      swap1\n      0x100\n      exp\n      swap1\n      div\n      0xffffffffffffffffffffffffffffffffffffffff\n      and\n        /* \"contracts/artifacts/Auction.sol\":4919:4947  fundsByBidder[highestBidder] */\n      0xffffffffffffffffffffffffffffffffffffffff\n      and\n      0xffffffffffffffffffffffffffffffffffffffff\n      and\n      dup2\n      mstore\n      0x20\n      add\n      swap1\n      dup2\n      mstore\n      0x20\n      add\n      0x0\n      keccak256\n      sload\n        /* \"contracts/artifacts/Auction.sol\":4919:4967  fundsByBidder[highestBidder] - highestBindingBid */\n      sub\n        /* \"contracts/artifacts/Auction.sol\":4900:4967  withdrawalAmount = fundsByBidder[highestBidder] - highestBindingBid */\n      swap1\n      pop\n        /* \"contracts/artifacts/Auction.sol\":4758:4987  if (ownerHasWithdrawn) {\r... */\n    tag_67:\n        /* \"contracts/artifacts/Auction.sol\":4493:5298  if (msg.sender == highestBidder) {\r... */\n      jump(tag_68)\n    tag_65:\n        /* \"contracts/artifacts/Auction.sol\":5202:5212  msg.sender */\n      caller\n        /* \"contracts/artifacts/Auction.sol\":5182:5212  withdrawalAccount = msg.sender */\n      swap2\n      pop\n        /* \"contracts/artifacts/Auction.sol\":5250:5263  fundsByBidder */\n      0x8\n        /* \"contracts/artifacts/Auction.sol\":5250:5282  fundsByBidder[withdrawalAccount] */\n      0x0\n        /* \"contracts/artifacts/Auction.sol\":5264:5281  withdrawalAccount */\n      dup4\n        /* \"contracts/artifacts/Auction.sol\":5250:5282  fundsByBidder[withdrawalAccount] */\n      0xffffffffffffffffffffffffffffffffffffffff\n      and\n      0xffffffffffffffffffffffffffffffffffffffff\n      and\n      dup2\n      mstore\n      0x20\n      add\n      swap1\n      dup2\n      mstore\n      0x20\n      add\n      0x0\n      keccak256\n      sload\n        /* \"contracts/artifacts/Auction.sol\":5231:5282  withdrawalAmount = fundsByBidder[withdrawalAccount] */\n      swap1\n      pop\n        /* \"contracts/artifacts/Auction.sol\":4493:5298  if (msg.sender == highestBidder) {\r... */\n    tag_68:\n        /* \"contracts/artifacts/Auction.sol\":4202:5298  if (msg.sender == owner) {\r... */\n    tag_64:\n        /* \"contracts/artifacts/Auction.sol\":3877:5309  if (canceled) {\r... */\n    tag_62:\n        /* \"contracts/artifacts/Auction.sol\":5345:5346  0 */\n      0x0\n        /* \"contracts/artifacts/Auction.sol\":5325:5341  withdrawalAmount */\n      dup2\n        /* \"contracts/artifacts/Auction.sol\":5325:5346  withdrawalAmount == 0 */\n      eq\n        /* \"contracts/artifacts/Auction.sol\":5321:5353  if (withdrawalAmount == 0) throw */\n      iszero\n      tag_69\n      jumpi\n        /* \"contracts/artifacts/Auction.sol\":5348:5353  throw */\n      0x0\n      dup1\n      revert\n        /* \"contracts/artifacts/Auction.sol\":5321:5353  if (withdrawalAmount == 0) throw */\n    tag_69:\n        /* \"contracts/artifacts/Auction.sol\":5402:5418  withdrawalAmount */\n      dup1\n        /* \"contracts/artifacts/Auction.sol\":5366:5379  fundsByBidder */\n      0x8\n        /* \"contracts/artifacts/Auction.sol\":5366:5398  fundsByBidder[withdrawalAccount] */\n      0x0\n        /* \"contracts/artifacts/Auction.sol\":5380:5397  withdrawalAccount */\n      dup5\n        /* \"contracts/artifacts/Auction.sol\":5366:5398  fundsByBidder[withdrawalAccount] */\n      0xffffffffffffffffffffffffffffffffffffffff\n      and\n      0xffffffffffffffffffffffffffffffffffffffff\n      and\n      dup2\n      mstore\n      0x20\n      add\n      swap1\n      dup2\n      mstore\n      0x20\n      add\n      0x0\n      keccak256\n      0x0\n        /* \"contracts/artifacts/Auction.sol\":5366:5418  fundsByBidder[withdrawalAccount] -= withdrawalAmount */\n      dup3\n      dup3\n      sload\n      sub\n      swap3\n      pop\n      pop\n      dup2\n      swap1\n      sstore\n      pop\n        /* \"contracts/artifacts/Auction.sol\":5463:5473  msg.sender */\n      caller\n        /* \"contracts/artifacts/Auction.sol\":5463:5478  msg.sender.send */\n      0xffffffffffffffffffffffffffffffffffffffff\n      and\n        /* \"contracts/artifacts/Auction.sol\":5463:5496  msg.sender.send(withdrawalAmount) */\n      0x8fc\n        /* \"contracts/artifacts/Auction.sol\":5479:5495  withdrawalAmount */\n      dup3\n        /* \"contracts/artifacts/Auction.sol\":5463:5496  msg.sender.send(withdrawalAmount) */\n      swap1\n      dup2\n      iszero\n      mul\n      swap1\n      mload(0x40)\n      0x0\n      mload(0x40)\n      dup1\n      dup4\n      sub\n      dup2\n      dup6\n      dup9\n      dup9\n      call\n      swap4\n      pop\n      pop\n      pop\n      pop\n        /* \"contracts/artifacts/Auction.sol\":5462:5496  !msg.sender.send(withdrawalAmount) */\n      iszero\n        /* \"contracts/artifacts/Auction.sol\":5458:5503  if (!msg.sender.send(withdrawalAmount)) throw */\n      iszero\n      tag_70\n      jumpi\n        /* \"contracts/artifacts/Auction.sol\":5498:5503  throw */\n      0x0\n      dup1\n      revert\n        /* \"contracts/artifacts/Auction.sol\":5458:5503  if (!msg.sender.send(withdrawalAmount)) throw */\n    tag_70:\n        /* \"contracts/artifacts/Auction.sol\":5516:5578  LogWithdrawal(msg.sender, withdrawalAccount, withdrawalAmount) */\n      0xec497a8ae5b1ba29c60470ef651def995fac3deebbdcc56c47a4e5f51a4c2bd\n        /* \"contracts/artifacts/Auction.sol\":5530:5540  msg.sender */\n      caller\n        /* \"contracts/artifacts/Auction.sol\":5542:5559  withdrawalAccount */\n      dup4\n        /* \"contracts/artifacts/Auction.sol\":5561:5577  withdrawalAmount */\n      dup4\n        /* \"contracts/artifacts/Auction.sol\":5516:5578  LogWithdrawal(msg.sender, withdrawalAccount, withdrawalAmount) */\n      mload(0x40)\n      dup1\n      dup5\n      0xffffffffffffffffffffffffffffffffffffffff\n      and\n      0xffffffffffffffffffffffffffffffffffffffff\n      and\n      dup2\n      mstore\n      0x20\n      add\n      dup4\n      0xffffffffffffffffffffffffffffffffffffffff\n      and\n      0xffffffffffffffffffffffffffffffffffffffff\n      and\n      dup2\n      mstore\n      0x20\n      add\n      dup3\n      dup2\n      mstore\n      0x20\n      add\n      swap4\n      pop\n      pop\n      pop\n      pop\n      mload(0x40)\n      dup1\n      swap2\n      sub\n      swap1\n      log1\n        /* \"contracts/artifacts/Auction.sol\":5598:5602  true */\n      0x1\n        /* \"contracts/artifacts/Auction.sol\":5591:5602  return true */\n      swap3\n      pop\n        /* \"contracts/artifacts/Auction.sol\":3710:5610  function withdraw()\r... */\n      pop\n      pop\n      swap1\n      jump\t// out\n        /* \"contracts/artifacts/Auction.sol\":225:245  bool public canceled */\n    tag_23:\n      0x5\n      0x0\n      swap1\n      sload\n      swap1\n      0x100\n      exp\n      swap1\n      div\n      0xff\n      and\n      dup2\n      jump\t// out\n        /* \"contracts/artifacts/Auction.sol\":124:146  uint public startBlock */\n    tag_26:\n      sload(0x2)\n      dup2\n      jump\t// out\n        /* \"contracts/artifacts/Auction.sol\":1043:1169  function getHighestBid()\r... */\n    tag_29:\n        /* \"contracts/artifacts/Auction.sol\":1104:1108  uint */\n      0x0\n        /* \"contracts/artifacts/Auction.sol\":1133:1146  fundsByBidder */\n      0x8\n        /* \"contracts/artifacts/Auction.sol\":1133:1161  fundsByBidder[highestBidder] */\n      0x0\n        /* \"contracts/artifacts/Auction.sol\":1147:1160  highestBidder */\n      0x7\n      0x0\n      swap1\n      sload\n      swap1\n      0x100\n      exp\n      swap1\n      div\n      0xffffffffffffffffffffffffffffffffffffffff\n      and\n        /* \"contracts/artifacts/Auction.sol\":1133:1161  fundsByBidder[highestBidder] */\n      0xffffffffffffffffffffffffffffffffffffffff\n      and\n      0xffffffffffffffffffffffffffffffffffffffff\n      and\n      dup2\n      mstore\n      0x20\n      add\n      swap1\n      dup2\n      mstore\n      0x20\n      add\n      0x0\n      keccak256\n      sload\n        /* \"contracts/artifacts/Auction.sol\":1126:1161  return fundsByBidder[highestBidder] */\n      swap1\n      pop\n        /* \"contracts/artifacts/Auction.sol\":1043:1169  function getHighestBid()\r... */\n      swap1\n      jump\t// out\n        /* \"contracts/artifacts/Auction.sol\":66:86  address public owner */\n    tag_32:\n      0x0\n      dup1\n      swap1\n      sload\n      swap1\n      0x100\n      exp\n      swap1\n      div\n      0xffffffffffffffffffffffffffffffffffffffff\n      and\n      dup2\n      jump\t// out\n        /* \"contracts/artifacts/Auction.sol\":3477:3702  function cancelAuction()\r... */\n    tag_35:\n        /* \"contracts/artifacts/Auction.sol\":3603:3615  bool success */\n      0x0\n        /* \"contracts/artifacts/Auction.sol\":5666:5671  owner */\n      dup1\n      0x0\n      swap1\n      sload\n      swap1\n      0x100\n      exp\n      swap1\n      div\n      0xffffffffffffffffffffffffffffffffffffffff\n      and\n        /* \"contracts/artifacts/Auction.sol\":5652:5671  msg.sender != owner */\n      0xffffffffffffffffffffffffffffffffffffffff\n      and\n        /* \"contracts/artifacts/Auction.sol\":5652:5662  msg.sender */\n      caller\n        /* \"contracts/artifacts/Auction.sol\":5652:5671  msg.sender != owner */\n      0xffffffffffffffffffffffffffffffffffffffff\n      and\n      eq\n      iszero\n        /* \"contracts/artifacts/Auction.sol\":5648:5678  if (msg.sender != owner) throw */\n      iszero\n      tag_73\n      jumpi\n        /* \"contracts/artifacts/Auction.sol\":5673:5678  throw */\n      0x0\n      dup1\n      revert\n        /* \"contracts/artifacts/Auction.sol\":5648:5678  if (msg.sender != owner) throw */\n    tag_73:\n        /* \"contracts/artifacts/Auction.sol\":5949:5957  endBlock */\n      sload(0x3)\n        /* \"contracts/artifacts/Auction.sol\":5934:5946  block.number */\n      number\n        /* \"contracts/artifacts/Auction.sol\":5934:5957  block.number > endBlock */\n      gt\n        /* \"contracts/artifacts/Auction.sol\":5930:5964  if (block.number > endBlock) throw */\n      iszero\n      tag_75\n      jumpi\n        /* \"contracts/artifacts/Auction.sol\":5959:5964  throw */\n      0x0\n      dup1\n      revert\n        /* \"contracts/artifacts/Auction.sol\":5930:5964  if (block.number > endBlock) throw */\n    tag_75:\n        /* \"contracts/artifacts/Auction.sol\":6032:6040  canceled */\n      0x5\n      0x0\n      swap1\n      sload\n      swap1\n      0x100\n      exp\n      swap1\n      div\n      0xff\n      and\n        /* \"contracts/artifacts/Auction.sol\":6028:6047  if (canceled) throw */\n      iszero\n      tag_77\n      jumpi\n        /* \"contracts/artifacts/Auction.sol\":6042:6047  throw */\n      0x0\n      dup1\n      revert\n        /* \"contracts/artifacts/Auction.sol\":6028:6047  if (canceled) throw */\n    tag_77:\n        /* \"contracts/artifacts/Auction.sol\":3644:3648  true */\n      0x1\n        /* \"contracts/artifacts/Auction.sol\":3633:3641  canceled */\n      0x5\n      0x0\n        /* \"contracts/artifacts/Auction.sol\":3633:3648  canceled = true */\n      0x100\n      exp\n      dup2\n      sload\n      dup2\n      0xff\n      mul\n      not\n      and\n      swap1\n      dup4\n      iszero\n      iszero\n      mul\n      or\n      swap1\n      sstore\n      pop\n        /* \"contracts/artifacts/Auction.sol\":3659:3672  LogCanceled() */\n      0x462b6ca7f632601af1295aeb320851f50e8e630a309173f23535845ea4bfb3b9\n      mload(0x40)\n      mload(0x40)\n      dup1\n      swap2\n      sub\n      swap1\n      log1\n        /* \"contracts/artifacts/Auction.sol\":3690:3694  true */\n      0x1\n        /* \"contracts/artifacts/Auction.sol\":3683:3694  return true */\n      swap1\n      pop\n        /* \"contracts/artifacts/Auction.sol\":3477:3702  function cancelAuction()\r... */\n      swap1\n      jump\t// out\n        /* \"contracts/artifacts/Auction.sol\":288:316  address public highestBidder */\n    tag_38:\n      0x7\n      0x0\n      swap1\n      sload\n      swap1\n      0x100\n      exp\n      swap1\n      div\n      0xffffffffffffffffffffffffffffffffffffffff\n      and\n      dup2\n      jump\t// out\n        /* \"contracts/artifacts/Auction.sol\":93:117  uint public bidIncrement */\n    tag_41:\n      sload(0x1)\n      dup2\n      jump\t// out\n        /* \"contracts/artifacts/Auction.sol\":180:202  string public ipfsHash */\n    tag_44:\n      0x4\n      dup1\n      sload\n      0x1\n      dup2\n      0x1\n      and\n      iszero\n      0x100\n      mul\n      sub\n      and\n      0x2\n      swap1\n      div\n      dup1\n      0x1f\n      add\n      0x20\n      dup1\n      swap2\n      div\n      mul\n      0x20\n      add\n      mload(0x40)\n      swap1\n      dup2\n      add\n      0x40\n      mstore\n      dup1\n      swap3\n      swap2\n      swap1\n      dup2\n      dup2\n      mstore\n      0x20\n      add\n      dup3\n      dup1\n      sload\n      0x1\n      dup2\n      0x1\n      and\n      iszero\n      0x100\n      mul\n      sub\n      and\n      0x2\n      swap1\n      div\n      dup1\n      iszero\n      tag_79\n      jumpi\n      dup1\n      0x1f\n      lt\n      tag_80\n      jumpi\n      0x100\n      dup1\n      dup4\n      sload\n      div\n      mul\n      dup4\n      mstore\n      swap2\n      0x20\n      add\n      swap2\n      jump(tag_79)\n    tag_80:\n      dup3\n      add\n      swap2\n      swap1\n      0x0\n      mstore\n      keccak256(0x0, 0x20)\n      swap1\n    tag_81:\n      dup2\n      sload\n      dup2\n      mstore\n      swap1\n      0x1\n      add\n      swap1\n      0x20\n      add\n      dup1\n      dup4\n      gt\n      tag_81\n      jumpi\n      dup3\n      swap1\n      sub\n      0x1f\n      and\n      dup3\n      add\n      swap2\n    tag_79:\n      pop\n      pop\n      pop\n      pop\n      pop\n      dup2\n      jump\t// out\n        /* \"contracts/artifacts/Auction.sol\":323:371  mapping(address => uint256) public fundsByBidder */\n    tag_51:\n      mstore(0x20, 0x8)\n      dup1\n      0x0\n      mstore\n      keccak256(0x0, 0x40)\n      0x0\n      swap2\n      pop\n      swap1\n      pop\n      sload\n      dup2\n      jump\t// out\n        /* \"contracts/artifacts/Auction.sol\":1177:3315  function placeBid()\r... */\n    tag_53:\n        /* \"contracts/artifacts/Auction.sol\":1326:1338  bool success */\n      0x0\n        /* \"contracts/artifacts/Auction.sol\":1596:1607  uint newBid */\n      dup1\n        /* \"contracts/artifacts/Auction.sol\":2034:2049  uint highestBid */\n      0x0\n        /* \"contracts/artifacts/Auction.sol\":5851:5861  startBlock */\n      sload(0x2)\n        /* \"contracts/artifacts/Auction.sol\":5836:5848  block.number */\n      number\n        /* \"contracts/artifacts/Auction.sol\":5836:5861  block.number < startBlock */\n      lt\n        /* \"contracts/artifacts/Auction.sol\":5832:5868  if (block.number < startBlock) throw */\n      iszero\n      tag_83\n      jumpi\n        /* \"contracts/artifacts/Auction.sol\":5863:5868  throw */\n      0x0\n      dup1\n      revert\n        /* \"contracts/artifacts/Auction.sol\":5832:5868  if (block.number < startBlock) throw */\n    tag_83:\n        /* \"contracts/artifacts/Auction.sol\":5949:5957  endBlock */\n      sload(0x3)\n        /* \"contracts/artifacts/Auction.sol\":5934:5946  block.number */\n      number\n        /* \"contracts/artifacts/Auction.sol\":5934:5957  block.number > endBlock */\n      gt\n        /* \"contracts/artifacts/Auction.sol\":5930:5964  if (block.number > endBlock) throw */\n      iszero\n      tag_85\n      jumpi\n        /* \"contracts/artifacts/Auction.sol\":5959:5964  throw */\n      0x0\n      dup1\n      revert\n        /* \"contracts/artifacts/Auction.sol\":5930:5964  if (block.number > endBlock) throw */\n    tag_85:\n        /* \"contracts/artifacts/Auction.sol\":6032:6040  canceled */\n      0x5\n      0x0\n      swap1\n      sload\n      swap1\n      0x100\n      exp\n      swap1\n      div\n      0xff\n      and\n        /* \"contracts/artifacts/Auction.sol\":6028:6047  if (canceled) throw */\n      iszero\n      tag_87\n      jumpi\n        /* \"contracts/artifacts/Auction.sol\":6042:6047  throw */\n      0x0\n      dup1\n      revert\n        /* \"contracts/artifacts/Auction.sol\":6028:6047  if (canceled) throw */\n    tag_87:\n        /* \"contracts/artifacts/Auction.sol\":5757:5762  owner */\n      0x0\n      dup1\n      swap1\n      sload\n      swap1\n      0x100\n      exp\n      swap1\n      div\n      0xffffffffffffffffffffffffffffffffffffffff\n      and\n        /* \"contracts/artifacts/Auction.sol\":5743:5762  msg.sender == owner */\n      0xffffffffffffffffffffffffffffffffffffffff\n      and\n        /* \"contracts/artifacts/Auction.sol\":5743:5753  msg.sender */\n      caller\n        /* \"contracts/artifacts/Auction.sol\":5743:5762  msg.sender == owner */\n      0xffffffffffffffffffffffffffffffffffffffff\n      and\n      eq\n        /* \"contracts/artifacts/Auction.sol\":5739:5769  if (msg.sender == owner) throw */\n      iszero\n      tag_89\n      jumpi\n        /* \"contracts/artifacts/Auction.sol\":5764:5769  throw */\n      0x0\n      dup1\n      revert\n        /* \"contracts/artifacts/Auction.sol\":5739:5769  if (msg.sender == owner) throw */\n    tag_89:\n        /* \"contracts/artifacts/Auction.sol\":1410:1411  0 */\n      0x0\n        /* \"contracts/artifacts/Auction.sol\":1397:1406  msg.value */\n      callvalue\n        /* \"contracts/artifacts/Auction.sol\":1397:1411  msg.value == 0 */\n      eq\n        /* \"contracts/artifacts/Auction.sol\":1393:1421  if (msg.value == 0) revert() */\n      iszero\n      tag_91\n      jumpi\n        /* \"contracts/artifacts/Auction.sol\":1413:1421  revert() */\n      0x0\n      dup1\n      revert\n        /* \"contracts/artifacts/Auction.sol\":1393:1421  if (msg.value == 0) revert() */\n    tag_91:\n        /* \"contracts/artifacts/Auction.sol\":1638:1647  msg.value */\n      callvalue\n        /* \"contracts/artifacts/Auction.sol\":1610:1623  fundsByBidder */\n      0x8\n        /* \"contracts/artifacts/Auction.sol\":1610:1635  fundsByBidder[msg.sender] */\n      0x0\n        /* \"contracts/artifacts/Auction.sol\":1624:1634  msg.sender */\n      caller\n        /* \"contracts/artifacts/Auction.sol\":1610:1635  fundsByBidder[msg.sender] */\n      0xffffffffffffffffffffffffffffffffffffffff\n      and\n      0xffffffffffffffffffffffffffffffffffffffff\n      and\n      dup2\n      mstore\n      0x20\n      add\n      swap1\n      dup2\n      mstore\n      0x20\n      add\n      0x0\n      keccak256\n      sload\n        /* \"contracts/artifacts/Auction.sol\":1610:1647  fundsByBidder[msg.sender] + msg.value */\n      add\n        /* \"contracts/artifacts/Auction.sol\":1596:1647  uint newBid = fundsByBidder[msg.sender] + msg.value */\n      swap2\n      pop\n        /* \"contracts/artifacts/Auction.sol\":1825:1842  highestBindingBid */\n      sload(0x6)\n        /* \"contracts/artifacts/Auction.sol\":1815:1821  newBid */\n      dup3\n        /* \"contracts/artifacts/Auction.sol\":1815:1842  newBid <= highestBindingBid */\n      gt\n      iszero\n        /* \"contracts/artifacts/Auction.sol\":1811:1852  if (newBid <= highestBindingBid) revert() */\n      iszero\n      tag_92\n      jumpi\n        /* \"contracts/artifacts/Auction.sol\":1844:1852  revert() */\n      0x0\n      dup1\n      revert\n        /* \"contracts/artifacts/Auction.sol\":1811:1852  if (newBid <= highestBindingBid) revert() */\n    tag_92:\n        /* \"contracts/artifacts/Auction.sol\":2052:2065  fundsByBidder */\n      0x8\n        /* \"contracts/artifacts/Auction.sol\":2052:2080  fundsByBidder[highestBidder] */\n      0x0\n        /* \"contracts/artifacts/Auction.sol\":2066:2079  highestBidder */\n      0x7\n      0x0\n      swap1\n      sload\n      swap1\n      0x100\n      exp\n      swap1\n      div\n      0xffffffffffffffffffffffffffffffffffffffff\n      and\n        /* \"contracts/artifacts/Auction.sol\":2052:2080  fundsByBidder[highestBidder] */\n      0xffffffffffffffffffffffffffffffffffffffff\n      and\n      0xffffffffffffffffffffffffffffffffffffffff\n      and\n      dup2\n      mstore\n      0x20\n      add\n      swap1\n      dup2\n      mstore\n      0x20\n      add\n      0x0\n      keccak256\n      sload\n        /* \"contracts/artifacts/Auction.sol\":2034:2080  uint highestBid = fundsByBidder[highestBidder] */\n      swap1\n      pop\n        /* \"contracts/artifacts/Auction.sol\":2121:2127  newBid */\n      dup2\n        /* \"contracts/artifacts/Auction.sol\":2093:2106  fundsByBidder */\n      0x8\n        /* \"contracts/artifacts/Auction.sol\":2093:2118  fundsByBidder[msg.sender] */\n      0x0\n        /* \"contracts/artifacts/Auction.sol\":2107:2117  msg.sender */\n      caller\n        /* \"contracts/artifacts/Auction.sol\":2093:2118  fundsByBidder[msg.sender] */\n      0xffffffffffffffffffffffffffffffffffffffff\n      and\n      0xffffffffffffffffffffffffffffffffffffffff\n      and\n      dup2\n      mstore\n      0x20\n      add\n      swap1\n      dup2\n      mstore\n      0x20\n      add\n      0x0\n      keccak256\n        /* \"contracts/artifacts/Auction.sol\":2093:2127  fundsByBidder[msg.sender] = newBid */\n      dup2\n      swap1\n      sstore\n      pop\n        /* \"contracts/artifacts/Auction.sol\":2154:2164  highestBid */\n      dup1\n        /* \"contracts/artifacts/Auction.sol\":2144:2150  newBid */\n      dup3\n        /* \"contracts/artifacts/Auction.sol\":2144:2164  newBid <= highestBid */\n      gt\n      iszero\n        /* \"contracts/artifacts/Auction.sol\":2140:3196  if (newBid <= highestBid) {\r... */\n      iszero\n      tag_93\n      jumpi\n        /* \"contracts/artifacts/Auction.sol\":2536:2574  min(newBid + bidIncrement, highestBid) */\n      tag_94\n        /* \"contracts/artifacts/Auction.sol\":2549:2561  bidIncrement */\n      sload(0x1)\n        /* \"contracts/artifacts/Auction.sol\":2540:2546  newBid */\n      dup4\n        /* \"contracts/artifacts/Auction.sol\":2540:2561  newBid + bidIncrement */\n      add\n        /* \"contracts/artifacts/Auction.sol\":2563:2573  highestBid */\n      dup3\n        /* \"contracts/artifacts/Auction.sol\":2536:2539  min */\n      tag_95\n        /* \"contracts/artifacts/Auction.sol\":2536:2574  min(newBid + bidIncrement, highestBid) */\n      jump\t// in\n    tag_94:\n        /* \"contracts/artifacts/Auction.sol\":2516:2533  highestBindingBid */\n      0x6\n        /* \"contracts/artifacts/Auction.sol\":2516:2574  highestBindingBid = min(newBid + bidIncrement, highestBid) */\n      dup2\n      swap1\n      sstore\n      pop\n        /* \"contracts/artifacts/Auction.sol\":2140:3196  if (newBid <= highestBid) {\r... */\n      jump(tag_96)\n    tag_93:\n        /* \"contracts/artifacts/Auction.sol\":2998:3011  highestBidder */\n      0x7\n      0x0\n      swap1\n      sload\n      swap1\n      0x100\n      exp\n      swap1\n      div\n      0xffffffffffffffffffffffffffffffffffffffff\n      and\n        /* \"contracts/artifacts/Auction.sol\":2984:3011  msg.sender != highestBidder */\n      0xffffffffffffffffffffffffffffffffffffffff\n      and\n        /* \"contracts/artifacts/Auction.sol\":2984:2994  msg.sender */\n      caller\n        /* \"contracts/artifacts/Auction.sol\":2984:3011  msg.sender != highestBidder */\n      0xffffffffffffffffffffffffffffffffffffffff\n      and\n      eq\n      iszero\n        /* \"contracts/artifacts/Auction.sol\":2980:3151  if (msg.sender != highestBidder) {\r... */\n      iszero\n      tag_97\n      jumpi\n        /* \"contracts/artifacts/Auction.sol\":3048:3058  msg.sender */\n      caller\n        /* \"contracts/artifacts/Auction.sol\":3032:3045  highestBidder */\n      0x7\n      0x0\n        /* \"contracts/artifacts/Auction.sol\":3032:3058  highestBidder = msg.sender */\n      0x100\n      exp\n      dup2\n      sload\n      dup2\n      0xffffffffffffffffffffffffffffffffffffffff\n      mul\n      not\n      and\n      swap1\n      dup4\n      0xffffffffffffffffffffffffffffffffffffffff\n      and\n      mul\n      or\n      swap1\n      sstore\n      pop\n        /* \"contracts/artifacts/Auction.sol\":3097:3135  min(newBid, highestBid + bidIncrement) */\n      tag_98\n        /* \"contracts/artifacts/Auction.sol\":3101:3107  newBid */\n      dup3\n        /* \"contracts/artifacts/Auction.sol\":3122:3134  bidIncrement */\n      sload(0x1)\n        /* \"contracts/artifacts/Auction.sol\":3109:3119  highestBid */\n      dup4\n        /* \"contracts/artifacts/Auction.sol\":3109:3134  highestBid + bidIncrement */\n      add\n        /* \"contracts/artifacts/Auction.sol\":3097:3100  min */\n      tag_95\n        /* \"contracts/artifacts/Auction.sol\":3097:3135  min(newBid, highestBid + bidIncrement) */\n      jump\t// in\n    tag_98:\n        /* \"contracts/artifacts/Auction.sol\":3077:3094  highestBindingBid */\n      0x6\n        /* \"contracts/artifacts/Auction.sol\":3077:3135  highestBindingBid = min(newBid, highestBid + bidIncrement) */\n      dup2\n      swap1\n      sstore\n      pop\n        /* \"contracts/artifacts/Auction.sol\":2980:3151  if (msg.sender != highestBidder) {\r... */\n    tag_97:\n        /* \"contracts/artifacts/Auction.sol\":3178:3184  newBid */\n      dup2\n        /* \"contracts/artifacts/Auction.sol\":3165:3184  highestBid = newBid */\n      swap1\n      pop\n        /* \"contracts/artifacts/Auction.sol\":2140:3196  if (newBid <= highestBid) {\r... */\n    tag_96:\n        /* \"contracts/artifacts/Auction.sol\":3213:3285  LogBid(msg.sender, newBid, highestBidder, highestBid, highestBindingBid) */\n      0xf152f4ff5e488c55370a2d53925a55055228ebd8ec95bd0251bbb299e48786b0\n        /* \"contracts/artifacts/Auction.sol\":3220:3230  msg.sender */\n      caller\n        /* \"contracts/artifacts/Auction.sol\":3232:3238  newBid */\n      dup4\n        /* \"contracts/artifacts/Auction.sol\":3240:3253  highestBidder */\n      0x7\n      0x0\n      swap1\n      sload\n      swap1\n      0x100\n      exp\n      swap1\n      div\n      0xffffffffffffffffffffffffffffffffffffffff\n      and\n        /* \"contracts/artifacts/Auction.sol\":3255:3265  highestBid */\n      dup5\n        /* \"contracts/artifacts/Auction.sol\":3267:3284  highestBindingBid */\n      sload(0x6)\n        /* \"contracts/artifacts/Auction.sol\":3213:3285  LogBid(msg.sender, newBid, highestBidder, highestBid, highestBindingBid) */\n      mload(0x40)\n      dup1\n      dup7\n      0xffffffffffffffffffffffffffffffffffffffff\n      and\n      0xffffffffffffffffffffffffffffffffffffffff\n      and\n      dup2\n      mstore\n      0x20\n      add\n      dup6\n      dup2\n      mstore\n      0x20\n      add\n      dup5\n      0xffffffffffffffffffffffffffffffffffffffff\n      and\n      0xffffffffffffffffffffffffffffffffffffffff\n      and\n      dup2\n      mstore\n      0x20\n      add\n      dup4\n      dup2\n      mstore\n      0x20\n      add\n      dup3\n      dup2\n      mstore\n      0x20\n      add\n      swap6\n      pop\n      pop\n      pop\n      pop\n      pop\n      pop\n      mload(0x40)\n      dup1\n      swap2\n      sub\n      swap1\n      log1\n        /* \"contracts/artifacts/Auction.sol\":3303:3307  true */\n      0x1\n        /* \"contracts/artifacts/Auction.sol\":3296:3307  return true */\n      swap3\n      pop\n        /* \"contracts/artifacts/Auction.sol\":1177:3315  function placeBid()\r... */\n      pop\n      pop\n      swap1\n      jump\t// out\n        /* \"contracts/artifacts/Auction.sol\":252:281  uint public highestBindingBid */\n    tag_56:\n      sload(0x6)\n      dup2\n      jump\t// out\n        /* \"contracts/artifacts/Auction.sol\":3323:3469  function min(uint a, uint b)\r... */\n    tag_95:\n        /* \"contracts/artifacts/Auction.sol\":3401:3405  uint */\n      0x0\n        /* \"contracts/artifacts/Auction.sol\":3431:3432  b */\n      dup2\n        /* \"contracts/artifacts/Auction.sol\":3427:3428  a */\n      dup4\n        /* \"contracts/artifacts/Auction.sol\":3427:3432  a < b */\n      lt\n        /* \"contracts/artifacts/Auction.sol\":3423:3442  if (a < b) return a */\n      iszero\n      tag_100\n      jumpi\n        /* \"contracts/artifacts/Auction.sol\":3441:3442  a */\n      dup3\n        /* \"contracts/artifacts/Auction.sol\":3434:3442  return a */\n      swap1\n      pop\n      jump(tag_99)\n        /* \"contracts/artifacts/Auction.sol\":3423:3442  if (a < b) return a */\n    tag_100:\n        /* \"contracts/artifacts/Auction.sol\":3460:3461  b */\n      dup2\n        /* \"contracts/artifacts/Auction.sol\":3453:3461  return b */\n      swap1\n      pop\n        /* \"contracts/artifacts/Auction.sol\":3323:3469  function min(uint a, uint b)\r... */\n    tag_99:\n      swap3\n      swap2\n      pop\n      pop\n      jump\t// out\n\n    auxdata: 0xa165627a7a7230582096fea9f7766fa684a06944079a0475c32f51ae771ba9a58185ea3eb66eb4eb3a0029\n}\n",
				"bytecode": {
					"linkReferences": {},
					"object": "608060405234801561001057600080fd5b5060405162000fca38038062000fca8339810180604052810190808051906020019092919080519060200190929190805190602001909291908051906020019092919080518201929190505050818310151561006b57600080fd5b4383101561007857600080fd5b60008573ffffffffffffffffffffffffffffffffffffffff16141561009c57600080fd5b846000806101000a81548173ffffffffffffffffffffffffffffffffffffffff021916908373ffffffffffffffffffffffffffffffffffffffff1602179055508360018190555082600281905550816003819055508060049080519060200190610107929190610112565b5050505050506101b7565b828054600181600116156101000203166002900490600052602060002090601f016020900481019282601f1061015357805160ff1916838001178555610181565b82800160010185558215610181579182015b82811115610180578251825591602001919060010190610165565b5b50905061018e9190610192565b5090565b6101b491905b808211156101b0576000816000905550600101610198565b5090565b90565b610e0380620001c76000396000f3006080604052600436106100c5576000357c0100000000000000000000000000000000000000000000000000000000900463ffffffff168063083c6323146100ca5780633ccfd60b146100f55780633f9942ff1461012457806348cd4cb1146101535780634979440a1461017e5780638da5cb5b146101a95780638fa8b7901461020057806391f901571461022f578063b3cc167a14610286578063c623674f146102b1578063ce10cf8014610341578063ecfc7ecc14610398578063f5b56c56146103ba575b600080fd5b3480156100d657600080fd5b506100df6103e5565b6040518082815260200191505060405180910390f35b34801561010157600080fd5b5061010a6103eb565b604051808215151515815260200191505060405180910390f35b34801561013057600080fd5b50610139610808565b604051808215151515815260200191505060405180910390f35b34801561015f57600080fd5b5061016861081b565b6040518082815260200191505060405180910390f35b34801561018a57600080fd5b50610193610821565b6040518082815260200191505060405180910390f35b3480156101b557600080fd5b506101be61088a565b604051808273ffffffffffffffffffffffffffffffffffffffff1673ffffffffffffffffffffffffffffffffffffffff16815260200191505060405180910390f35b34801561020c57600080fd5b506102156108af565b604051808215151515815260200191505060405180910390f35b34801561023b57600080fd5b50610244610983565b604051808273ffffffffffffffffffffffffffffffffffffffff1673ffffffffffffffffffffffffffffffffffffffff16815260200191505060405180910390f35b34801561029257600080fd5b5061029b6109a9565b6040518082815260200191505060405180910390f35b3480156102bd57600080fd5b506102c66109af565b6040518080602001828103825283818151815260200191508051906020019080838360005b838110156103065780820151818401526020810190506102eb565b50505050905090810190601f1680156103335780820380516001836020036101000a031916815260200191505b509250505060405180910390f35b34801561034d57600080fd5b50610382600480360381019080803573ffffffffffffffffffffffffffffffffffffffff169060200190929190505050610a4d565b6040518082815260200191505060405180910390f35b6103a0610a65565b604051808215151515815260200191505060405180910390f35b3480156103c657600080fd5b506103cf610db5565b6040518082815260200191505060405180910390f35b60035481565b60008060006003544310801561040e5750600560009054906101000a900460ff16155b1561041857600080fd5b600560009054906101000a900460ff161561047757339150600860008373ffffffffffffffffffffffffffffffffffffffff1673ffffffffffffffffffffffffffffffffffffffff1681526020019081526020016000205490506106c5565b6000809054906101000a900473ffffffffffffffffffffffffffffffffffffffff1673ffffffffffffffffffffffffffffffffffffffff163373ffffffffffffffffffffffffffffffffffffffff16141561051657600760009054906101000a900473ffffffffffffffffffffffffffffffffffffffff16915060065490506001600960006101000a81548160ff0219169083151502179055506106c4565b600760009054906101000a900473ffffffffffffffffffffffffffffffffffffffff1673ffffffffffffffffffffffffffffffffffffffff163373ffffffffffffffffffffffffffffffffffffffff16141561067d57600760009054906101000a900473ffffffffffffffffffffffffffffffffffffffff169150600960009054906101000a900460ff161561060f5760086000600760009054906101000a900473ffffffffffffffffffffffffffffffffffffffff1673ffffffffffffffffffffffffffffffffffffffff1673ffffffffffffffffffffffffffffffffffffffff168152602001908152602001600020549050610678565b60065460086000600760009054906101000a900473ffffffffffffffffffffffffffffffffffffffff1673ffffffffffffffffffffffffffffffffffffffff1673ffffffffffffffffffffffffffffffffffffffff168152602001908152602001600020540390505b6106c3565b339150600860008373ffffffffffffffffffffffffffffffffffffffff1673ffffffffffffffffffffffffffffffffffffffff1681526020019081526020016000205490505b5b5b60008114156106d357600080fd5b80600860008473ffffffffffffffffffffffffffffffffffffffff1673ffffffffffffffffffffffffffffffffffffffff168152602001908152602001600020600082825403925050819055503373ffffffffffffffffffffffffffffffffffffffff166108fc829081150290604051600060405180830381858888f19350505050151561076057600080fd5b7f0ec497a8ae5b1ba29c60470ef651def995fac3deebbdcc56c47a4e5f51a4c2bd338383604051808473ffffffffffffffffffffffffffffffffffffffff1673ffffffffffffffffffffffffffffffffffffffff1681526020018373ffffffffffffffffffffffffffffffffffffffff1673ffffffffffffffffffffffffffffffffffffffff168152602001828152602001935050505060405180910390a160019250505090565b600560009054906101000a900460ff1681565b60025481565b600060086000600760009054906101000a900473ffffffffffffffffffffffffffffffffffffffff1673ffffffffffffffffffffffffffffffffffffffff1673ffffffffffffffffffffffffffffffffffffffff16815260200190815260200160002054905090565b6000809054906101000a900473ffffffffffffffffffffffffffffffffffffffff1681565b60008060009054906101000a900473ffffffffffffffffffffffffffffffffffffffff1673ffffffffffffffffffffffffffffffffffffffff163373ffffffffffffffffffffffffffffffffffffffff1614151561090c57600080fd5b60035443111561091b57600080fd5b600560009054906101000a900460ff161561093557600080fd5b6001600560006101000a81548160ff0219169083151502179055507f462b6ca7f632601af1295aeb320851f50e8e630a309173f23535845ea4bfb3b960405160405180910390a16001905090565b600760009054906101000a900473ffffffffffffffffffffffffffffffffffffffff1681565b60015481565b60048054600181600116156101000203166002900480601f016020809104026020016040519081016040528092919081815260200182805460018160011615610100020316600290048015610a455780601f10610a1a57610100808354040283529160200191610a45565b820191906000526020600020905b815481529060010190602001808311610a2857829003601f168201915b505050505081565b60086020528060005260406000206000915090505481565b6000806000600254431015610a7957600080fd5b600354431115610a8857600080fd5b600560009054906101000a900460ff1615610aa257600080fd5b6000809054906101000a900473ffffffffffffffffffffffffffffffffffffffff1673ffffffffffffffffffffffffffffffffffffffff163373ffffffffffffffffffffffffffffffffffffffff161415610afc57600080fd5b6000341415610b0a57600080fd5b34600860003373ffffffffffffffffffffffffffffffffffffffff1673ffffffffffffffffffffffffffffffffffffffff1681526020019081526020016000205401915060065482111515610b5e57600080fd5b60086000600760009054906101000a900473ffffffffffffffffffffffffffffffffffffffff1673ffffffffffffffffffffffffffffffffffffffff1673ffffffffffffffffffffffffffffffffffffffff16815260200190815260200160002054905081600860003373ffffffffffffffffffffffffffffffffffffffff1673ffffffffffffffffffffffffffffffffffffffff168152602001908152602001600020819055508082111515610c2857610c1d600154830182610dbb565b600681905550610cd9565b600760009054906101000a900473ffffffffffffffffffffffffffffffffffffffff1673ffffffffffffffffffffffffffffffffffffffff163373ffffffffffffffffffffffffffffffffffffffff16141515610cd55733600760006101000a81548173ffffffffffffffffffffffffffffffffffffffff021916908373ffffffffffffffffffffffffffffffffffffffff160217905550610cce826001548301610dbb565b6006819055505b8190505b7ff152f4ff5e488c55370a2d53925a55055228ebd8ec95bd0251bbb299e48786b03383600760009054906101000a900473ffffffffffffffffffffffffffffffffffffffff1684600654604051808673ffffffffffffffffffffffffffffffffffffffff1673ffffffffffffffffffffffffffffffffffffffff1681526020018581526020018473ffffffffffffffffffffffffffffffffffffffff1673ffffffffffffffffffffffffffffffffffffffff1681526020018381526020018281526020019550505050505060405180910390a160019250505090565b60065481565b600081831015610dcd57829050610dd1565b8190505b929150505600a165627a7a7230582096fea9f7766fa684a06944079a0475c32f51ae771ba9a58185ea3eb66eb4eb3a0029",
					"opcodes": "PUSH1 0x80 PUSH1 0x40 MSTORE CALLVALUE DUP1 ISZERO PUSH2 0x10 JUMPI PUSH1 0x0 DUP1 REVERT JUMPDEST POP PUSH1 0x40 MLOAD PUSH3 0xFCA CODESIZE SUB DUP1 PUSH3 0xFCA DUP4 CODECOPY DUP2 ADD DUP1 PUSH1 0x40 MSTORE DUP2 ADD SWAP1 DUP1 DUP1 MLOAD SWAP1 PUSH1 0x20 ADD SWAP1 SWAP3 SWAP2 SWAP1 DUP1 MLOAD SWAP1 PUSH1 0x20 ADD SWAP1 SWAP3 SWAP2 SWAP1 DUP1 MLOAD SWAP1 PUSH1 0x20 ADD SWAP1 SWAP3 SWAP2 SWAP1 DUP1 MLOAD SWAP1 PUSH1 0x20 ADD SWAP1 SWAP3 SWAP2 SWAP1 DUP1 MLOAD DUP3 ADD SWAP3 SWAP2 SWAP1 POP POP POP DUP2 DUP4 LT ISZERO ISZERO PUSH2 0x6B JUMPI PUSH1 0x0 DUP1 REVERT JUMPDEST NUMBER DUP4 LT ISZERO PUSH2 0x78 JUMPI PUSH1 0x0 DUP1 REVERT JUMPDEST PUSH1 0x0 DUP6 PUSH20 0xFFFFFFFFFFFFFFFFFFFFFFFFFFFFFFFFFFFFFFFF AND EQ ISZERO PUSH2 0x9C JUMPI PUSH1 0x0 DUP1 REVERT JUMPDEST DUP5 PUSH1 0x0 DUP1 PUSH2 0x100 EXP DUP2 SLOAD DUP2 PUSH20 0xFFFFFFFFFFFFFFFFFFFFFFFFFFFFFFFFFFFFFFFF MUL NOT AND SWAP1 DUP4 PUSH20 0xFFFFFFFFFFFFFFFFFFFFFFFFFFFFFFFFFFFFFFFF AND MUL OR SWAP1 SSTORE POP DUP4 PUSH1 0x1 DUP2 SWAP1 SSTORE POP DUP3 PUSH1 0x2 DUP2 SWAP1 SSTORE POP DUP2 PUSH1 0x3 DUP2 SWAP1 SSTORE POP DUP1 PUSH1 0x4 SWAP1 DUP1 MLOAD SWAP1 PUSH1 0x20 ADD SWAP1 PUSH2 0x107 SWAP3 SWAP2 SWAP1 PUSH2 0x112 JUMP JUMPDEST POP POP POP POP POP POP PUSH2 0x1B7 JUMP JUMPDEST DUP3 DUP1 SLOAD PUSH1 0x1 DUP2 PUSH1 0x1 AND ISZERO PUSH2 0x100 MUL SUB AND PUSH1 0x2 SWAP1 DIV SWAP1 PUSH1 0x0 MSTORE PUSH1 0x20 PUSH1 0x0 KECCAK256 SWAP1 PUSH1 0x1F ADD PUSH1 0x20 SWAP1 DIV DUP2 ADD SWAP3 DUP3 PUSH1 0x1F LT PUSH2 0x153 JUMPI DUP1 MLOAD PUSH1 0xFF NOT AND DUP4 DUP1 ADD OR DUP6 SSTORE PUSH2 0x181 JUMP JUMPDEST DUP3 DUP1 ADD PUSH1 0x1 ADD DUP6 SSTORE DUP3 ISZERO PUSH2 0x181 JUMPI SWAP2 DUP3 ADD JUMPDEST DUP3 DUP2 GT ISZERO PUSH2 0x180 JUMPI DUP3 MLOAD DUP3 SSTORE SWAP2 PUSH1 0x20 ADD SWAP2 SWAP1 PUSH1 0x1 ADD SWAP1 PUSH2 0x165 JUMP JUMPDEST JUMPDEST POP SWAP1 POP PUSH2 0x18E SWAP2 SWAP1 PUSH2 0x192 JUMP JUMPDEST POP SWAP1 JUMP JUMPDEST PUSH2 0x1B4 SWAP2 SWAP1 JUMPDEST DUP1 DUP3 GT ISZERO PUSH2 0x1B0 JUMPI PUSH1 0x0 DUP2 PUSH1 0x0 SWAP1 SSTORE POP PUSH1 0x1 ADD PUSH2 0x198 JUMP JUMPDEST POP SWAP1 JUMP JUMPDEST SWAP1 JUMP JUMPDEST PUSH2 0xE03 DUP1 PUSH3 0x1C7 PUSH1 0x0 CODECOPY PUSH1 0x0 RETURN STOP PUSH1 0x80 PUSH1 0x40 MSTORE PUSH1 0x4 CALLDATASIZE LT PUSH2 0xC5 JUMPI PUSH1 0x0 CALLDATALOAD PUSH29 0x100000000000000000000000000000000000000000000000000000000 SWAP1 DIV PUSH4 0xFFFFFFFF AND DUP1 PUSH4 0x83C6323 EQ PUSH2 0xCA JUMPI DUP1 PUSH4 0x3CCFD60B EQ PUSH2 0xF5 JUMPI DUP1 PUSH4 0x3F9942FF EQ PUSH2 0x124 JUMPI DUP1 PUSH4 0x48CD4CB1 EQ PUSH2 0x153 JUMPI DUP1 PUSH4 0x4979440A EQ PUSH2 0x17E JUMPI DUP1 PUSH4 0x8DA5CB5B EQ PUSH2 0x1A9 JUMPI DUP1 PUSH4 0x8FA8B790 EQ PUSH2 0x200 JUMPI DUP1 PUSH4 0x91F90157 EQ PUSH2 0x22F JUMPI DUP1 PUSH4 0xB3CC167A EQ PUSH2 0x286 JUMPI DUP1 PUSH4 0xC623674F EQ PUSH2 0x2B1 JUMPI DUP1 PUSH4 0xCE10CF80 EQ PUSH2 0x341 JUMPI DUP1 PUSH4 0xECFC7ECC EQ PUSH2 0x398 JUMPI DUP1 PUSH4 0xF5B56C56 EQ PUSH2 0x3BA JUMPI JUMPDEST PUSH1 0x0 DUP1 REVERT JUMPDEST CALLVALUE DUP1 ISZERO PUSH2 0xD6 JUMPI PUSH1 0x0 DUP1 REVERT JUMPDEST POP PUSH2 0xDF PUSH2 0x3E5 JUMP JUMPDEST PUSH1 0x40 MLOAD DUP1 DUP3 DUP2 MSTORE PUSH1 0x20 ADD SWAP2 POP POP PUSH1 0x40 MLOAD DUP1 SWAP2 SUB SWAP1 RETURN JUMPDEST CALLVALUE DUP1 ISZERO PUSH2 0x101 JUMPI PUSH1 0x0 DUP1 REVERT JUMPDEST POP PUSH2 0x10A PUSH2 0x3EB JUMP JUMPDEST PUSH1 0x40 MLOAD DUP1 DUP3 ISZERO ISZERO ISZERO ISZERO DUP2 MSTORE PUSH1 0x20 ADD SWAP2 POP POP PUSH1 0x40 MLOAD DUP1 SWAP2 SUB SWAP1 RETURN JUMPDEST CALLVALUE DUP1 ISZERO PUSH2 0x130 JUMPI PUSH1 0x0 DUP1 REVERT JUMPDEST POP PUSH2 0x139 PUSH2 0x808 JUMP JUMPDEST PUSH1 0x40 MLOAD DUP1 DUP3 ISZERO ISZERO ISZERO ISZERO DUP2 MSTORE PUSH1 0x20 ADD SWAP2 POP POP PUSH1 0x40 MLOAD DUP1 SWAP2 SUB SWAP1 RETURN JUMPDEST CALLVALUE DUP1 ISZERO PUSH2 0x15F JUMPI PUSH1 0x0 DUP1 REVERT JUMPDEST POP PUSH2 0x168 PUSH2 0x81B JUMP JUMPDEST PUSH1 0x40 MLOAD DUP1 DUP3 DUP2 MSTORE PUSH1 0x20 ADD SWAP2 POP POP PUSH1 0x40 MLOAD DUP1 SWAP2 SUB SWAP1 RETURN JUMPDEST CALLVALUE DUP1 ISZERO PUSH2 0x18A JUMPI PUSH1 0x0 DUP1 REVERT JUMPDEST POP PUSH2 0x193 PUSH2 0x821 JUMP JUMPDEST PUSH1 0x40 MLOAD DUP1 DUP3 DUP2 MSTORE PUSH1 0x20 ADD SWAP2 POP POP PUSH1 0x40 MLOAD DUP1 SWAP2 SUB SWAP1 RETURN JUMPDEST CALLVALUE DUP1 ISZERO PUSH2 0x1B5 JUMPI PUSH1 0x0 DUP1 REVERT JUMPDEST POP PUSH2 0x1BE PUSH2 0x88A JUMP JUMPDEST PUSH1 0x40 MLOAD DUP1 DUP3 PUSH20 0xFFFFFFFFFFFFFFFFFFFFFFFFFFFFFFFFFFFFFFFF AND PUSH20 0xFFFFFFFFFFFFFFFFFFFFFFFFFFFFFFFFFFFFFFFF AND DUP2 MSTORE PUSH1 0x20 ADD SWAP2 POP POP PUSH1 0x40 MLOAD DUP1 SWAP2 SUB SWAP1 RETURN JUMPDEST CALLVALUE DUP1 ISZERO PUSH2 0x20C JUMPI PUSH1 0x0 DUP1 REVERT JUMPDEST POP PUSH2 0x215 PUSH2 0x8AF JUMP JUMPDEST PUSH1 0x40 MLOAD DUP1 DUP3 ISZERO ISZERO ISZERO ISZERO DUP2 MSTORE PUSH1 0x20 ADD SWAP2 POP POP PUSH1 0x40 MLOAD DUP1 SWAP2 SUB SWAP1 RETURN JUMPDEST CALLVALUE DUP1 ISZERO PUSH2 0x23B JUMPI PUSH1 0x0 DUP1 REVERT JUMPDEST POP PUSH2 0x244 PUSH2 0x983 JUMP JUMPDEST PUSH1 0x40 MLOAD DUP1 DUP3 PUSH20 0xFFFFFFFFFFFFFFFFFFFFFFFFFFFFFFFFFFFFFFFF AND PUSH20 0xFFFFFFFFFFFFFFFFFFFFFFFFFFFFFFFFFFFFFFFF AND DUP2 MSTORE PUSH1 0x20 ADD SWAP2 POP POP PUSH1 0x40 MLOAD DUP1 SWAP2 SUB SWAP1 RETURN JUMPDEST CALLVALUE DUP1 ISZERO PUSH2 0x292 JUMPI PUSH1 0x0 DUP1 REVERT JUMPDEST POP PUSH2 0x29B PUSH2 0x9A9 JUMP JUMPDEST PUSH1 0x40 MLOAD DUP1 DUP3 DUP2 MSTORE PUSH1 0x20 ADD SWAP2 POP POP PUSH1 0x40 MLOAD DUP1 SWAP2 SUB SWAP1 RETURN JUMPDEST CALLVALUE DUP1 ISZERO PUSH2 0x2BD JUMPI PUSH1 0x0 DUP1 REVERT JUMPDEST POP PUSH2 0x2C6 PUSH2 0x9AF JUMP JUMPDEST PUSH1 0x40 MLOAD DUP1 DUP1 PUSH1 0x20 ADD DUP3 DUP2 SUB DUP3 MSTORE DUP4 DUP2 DUP2 MLOAD DUP2 MSTORE PUSH1 0x20 ADD SWAP2 POP DUP1 MLOAD SWAP1 PUSH1 0x20 ADD SWAP1 DUP1 DUP4 DUP4 PUSH1 0x0 JUMPDEST DUP4 DUP2 LT ISZERO PUSH2 0x306 JUMPI DUP1 DUP3 ADD MLOAD DUP2 DUP5 ADD MSTORE PUSH1 0x20 DUP2 ADD SWAP1 POP PUSH2 0x2EB JUMP JUMPDEST POP POP POP POP SWAP1 POP SWAP1 DUP2 ADD SWAP1 PUSH1 0x1F AND DUP1 ISZERO PUSH2 0x333 JUMPI DUP1 DUP3 SUB DUP1 MLOAD PUSH1 0x1 DUP4 PUSH1 0x20 SUB PUSH2 0x100 EXP SUB NOT AND DUP2 MSTORE PUSH1 0x20 ADD SWAP2 POP JUMPDEST POP SWAP3 POP POP POP PUSH1 0x40 MLOAD DUP1 SWAP2 SUB SWAP1 RETURN JUMPDEST CALLVALUE DUP1 ISZERO PUSH2 0x34D JUMPI PUSH1 0x0 DUP1 REVERT JUMPDEST POP PUSH2 0x382 PUSH1 0x4 DUP1 CALLDATASIZE SUB DUP2 ADD SWAP1 DUP1 DUP1 CALLDATALOAD PUSH20 0xFFFFFFFFFFFFFFFFFFFFFFFFFFFFFFFFFFFFFFFF AND SWAP1 PUSH1 0x20 ADD SWAP1 SWAP3 SWAP2 SWAP1 POP POP POP PUSH2 0xA4D JUMP JUMPDEST PUSH1 0x40 MLOAD DUP1 DUP3 DUP2 MSTORE PUSH1 0x20 ADD SWAP2 POP POP PUSH1 0x40 MLOAD DUP1 SWAP2 SUB SWAP1 RETURN JUMPDEST PUSH2 0x3A0 PUSH2 0xA65 JUMP JUMPDEST PUSH1 0x40 MLOAD DUP1 DUP3 ISZERO ISZERO ISZERO ISZERO DUP2 MSTORE PUSH1 0x20 ADD SWAP2 POP POP PUSH1 0x40 MLOAD DUP1 SWAP2 SUB SWAP1 RETURN JUMPDEST CALLVALUE DUP1 ISZERO PUSH2 0x3C6 JUMPI PUSH1 0x0 DUP1 REVERT JUMPDEST POP PUSH2 0x3CF PUSH2 0xDB5 JUMP JUMPDEST PUSH1 0x40 MLOAD DUP1 DUP3 DUP2 MSTORE PUSH1 0x20 ADD SWAP2 POP POP PUSH1 0x40 MLOAD DUP1 SWAP2 SUB SWAP1 RETURN JUMPDEST PUSH1 0x3 SLOAD DUP2 JUMP JUMPDEST PUSH1 0x0 DUP1 PUSH1 0x0 PUSH1 0x3 SLOAD NUMBER LT DUP1 ISZERO PUSH2 0x40E JUMPI POP PUSH1 0x5 PUSH1 0x0 SWAP1 SLOAD SWAP1 PUSH2 0x100 EXP SWAP1 DIV PUSH1 0xFF AND ISZERO JUMPDEST ISZERO PUSH2 0x418 JUMPI PUSH1 0x0 DUP1 REVERT JUMPDEST PUSH1 0x5 PUSH1 0x0 SWAP1 SLOAD SWAP1 PUSH2 0x100 EXP SWAP1 DIV PUSH1 0xFF AND ISZERO PUSH2 0x477 JUMPI CALLER SWAP2 POP PUSH1 0x8 PUSH1 0x0 DUP4 PUSH20 0xFFFFFFFFFFFFFFFFFFFFFFFFFFFFFFFFFFFFFFFF AND PUSH20 0xFFFFFFFFFFFFFFFFFFFFFFFFFFFFFFFFFFFFFFFF AND DUP2 MSTORE PUSH1 0x20 ADD SWAP1 DUP2 MSTORE PUSH1 0x20 ADD PUSH1 0x0 KECCAK256 SLOAD SWAP1 POP PUSH2 0x6C5 JUMP JUMPDEST PUSH1 0x0 DUP1 SWAP1 SLOAD SWAP1 PUSH2 0x100 EXP SWAP1 DIV PUSH20 0xFFFFFFFFFFFFFFFFFFFFFFFFFFFFFFFFFFFFFFFF AND PUSH20 0xFFFFFFFFFFFFFFFFFFFFFFFFFFFFFFFFFFFFFFFF AND CALLER PUSH20 0xFFFFFFFFFFFFFFFFFFFFFFFFFFFFFFFFFFFFFFFF AND EQ ISZERO PUSH2 0x516 JUMPI PUSH1 0x7 PUSH1 0x0 SWAP1 SLOAD SWAP1 PUSH2 0x100 EXP SWAP1 DIV PUSH20 0xFFFFFFFFFFFFFFFFFFFFFFFFFFFFFFFFFFFFFFFF AND SWAP2 POP PUSH1 0x6 SLOAD SWAP1 POP PUSH1 0x1 PUSH1 0x9 PUSH1 0x0 PUSH2 0x100 EXP DUP2 SLOAD DUP2 PUSH1 0xFF MUL NOT AND SWAP1 DUP4 ISZERO ISZERO MUL OR SWAP1 SSTORE POP PUSH2 0x6C4 JUMP JUMPDEST PUSH1 0x7 PUSH1 0x0 SWAP1 SLOAD SWAP1 PUSH2 0x100 EXP SWAP1 DIV PUSH20 0xFFFFFFFFFFFFFFFFFFFFFFFFFFFFFFFFFFFFFFFF AND PUSH20 0xFFFFFFFFFFFFFFFFFFFFFFFFFFFFFFFFFFFFFFFF AND CALLER PUSH20 0xFFFFFFFFFFFFFFFFFFFFFFFFFFFFFFFFFFFFFFFF AND EQ ISZERO PUSH2 0x67D JUMPI PUSH1 0x7 PUSH1 0x0 SWAP1 SLOAD SWAP1 PUSH2 0x100 EXP SWAP1 DIV PUSH20 0xFFFFFFFFFFFFFFFFFFFFFFFFFFFFFFFFFFFFFFFF AND SWAP2 POP PUSH1 0x9 PUSH1 0x0 SWAP1 SLOAD SWAP1 PUSH2 0x100 EXP SWAP1 DIV PUSH1 0xFF AND ISZERO PUSH2 0x60F JUMPI PUSH1 0x8 PUSH1 0x0 PUSH1 0x7 PUSH1 0x0 SWAP1 SLOAD SWAP1 PUSH2 0x100 EXP SWAP1 DIV PUSH20 0xFFFFFFFFFFFFFFFFFFFFFFFFFFFFFFFFFFFFFFFF AND PUSH20 0xFFFFFFFFFFFFFFFFFFFFFFFFFFFFFFFFFFFFFFFF AND PUSH20 0xFFFFFFFFFFFFFFFFFFFFFFFFFFFFFFFFFFFFFFFF AND DUP2 MSTORE PUSH1 0x20 ADD SWAP1 DUP2 MSTORE PUSH1 0x20 ADD PUSH1 0x0 KECCAK256 SLOAD SWAP1 POP PUSH2 0x678 JUMP JUMPDEST PUSH1 0x6 SLOAD PUSH1 0x8 PUSH1 0x0 PUSH1 0x7 PUSH1 0x0 SWAP1 SLOAD SWAP1 PUSH2 0x100 EXP SWAP1 DIV PUSH20 0xFFFFFFFFFFFFFFFFFFFFFFFFFFFFFFFFFFFFFFFF AND PUSH20 0xFFFFFFFFFFFFFFFFFFFFFFFFFFFFFFFFFFFFFFFF AND PUSH20 0xFFFFFFFFFFFFFFFFFFFFFFFFFFFFFFFFFFFFFFFF AND DUP2 MSTORE PUSH1 0x20 ADD SWAP1 DUP2 MSTORE PUSH1 0x20 ADD PUSH1 0x0 KECCAK256 SLOAD SUB SWAP1 POP JUMPDEST PUSH2 0x6C3 JUMP JUMPDEST CALLER SWAP2 POP PUSH1 0x8 PUSH1 0x0 DUP4 PUSH20 0xFFFFFFFFFFFFFFFFFFFFFFFFFFFFFFFFFFFFFFFF AND PUSH20 0xFFFFFFFFFFFFFFFFFFFFFFFFFFFFFFFFFFFFFFFF AND DUP2 MSTORE PUSH1 0x20 ADD SWAP1 DUP2 MSTORE PUSH1 0x20 ADD PUSH1 0x0 KECCAK256 SLOAD SWAP1 POP JUMPDEST JUMPDEST JUMPDEST PUSH1 0x0 DUP2 EQ ISZERO PUSH2 0x6D3 JUMPI PUSH1 0x0 DUP1 REVERT JUMPDEST DUP1 PUSH1 0x8 PUSH1 0x0 DUP5 PUSH20 0xFFFFFFFFFFFFFFFFFFFFFFFFFFFFFFFFFFFFFFFF AND PUSH20 0xFFFFFFFFFFFFFFFFFFFFFFFFFFFFFFFFFFFFFFFF AND DUP2 MSTORE PUSH1 0x20 ADD SWAP1 DUP2 MSTORE PUSH1 0x20 ADD PUSH1 0x0 KECCAK256 PUSH1 0x0 DUP3 DUP3 SLOAD SUB SWAP3 POP POP DUP2 SWAP1 SSTORE POP CALLER PUSH20 0xFFFFFFFFFFFFFFFFFFFFFFFFFFFFFFFFFFFFFFFF AND PUSH2 0x8FC DUP3 SWAP1 DUP2 ISZERO MUL SWAP1 PUSH1 0x40 MLOAD PUSH1 0x0 PUSH1 0x40 MLOAD DUP1 DUP4 SUB DUP2 DUP6 DUP9 DUP9 CALL SWAP4 POP POP POP POP ISZERO ISZERO PUSH2 0x760 JUMPI PUSH1 0x0 DUP1 REVERT JUMPDEST PUSH32 0xEC497A8AE5B1BA29C60470EF651DEF995FAC3DEEBBDCC56C47A4E5F51A4C2BD CALLER DUP4 DUP4 PUSH1 0x40 MLOAD DUP1 DUP5 PUSH20 0xFFFFFFFFFFFFFFFFFFFFFFFFFFFFFFFFFFFFFFFF AND PUSH20 0xFFFFFFFFFFFFFFFFFFFFFFFFFFFFFFFFFFFFFFFF AND DUP2 MSTORE PUSH1 0x20 ADD DUP4 PUSH20 0xFFFFFFFFFFFFFFFFFFFFFFFFFFFFFFFFFFFFFFFF AND PUSH20 0xFFFFFFFFFFFFFFFFFFFFFFFFFFFFFFFFFFFFFFFF AND DUP2 MSTORE PUSH1 0x20 ADD DUP3 DUP2 MSTORE PUSH1 0x20 ADD SWAP4 POP POP POP POP PUSH1 0x40 MLOAD DUP1 SWAP2 SUB SWAP1 LOG1 PUSH1 0x1 SWAP3 POP POP POP SWAP1 JUMP JUMPDEST PUSH1 0x5 PUSH1 0x0 SWAP1 SLOAD SWAP1 PUSH2 0x100 EXP SWAP1 DIV PUSH1 0xFF AND DUP2 JUMP JUMPDEST PUSH1 0x2 SLOAD DUP2 JUMP JUMPDEST PUSH1 0x0 PUSH1 0x8 PUSH1 0x0 PUSH1 0x7 PUSH1 0x0 SWAP1 SLOAD SWAP1 PUSH2 0x100 EXP SWAP1 DIV PUSH20 0xFFFFFFFFFFFFFFFFFFFFFFFFFFFFFFFFFFFFFFFF AND PUSH20 0xFFFFFFFFFFFFFFFFFFFFFFFFFFFFFFFFFFFFFFFF AND PUSH20 0xFFFFFFFFFFFFFFFFFFFFFFFFFFFFFFFFFFFFFFFF AND DUP2 MSTORE PUSH1 0x20 ADD SWAP1 DUP2 MSTORE PUSH1 0x20 ADD PUSH1 0x0 KECCAK256 SLOAD SWAP1 POP SWAP1 JUMP JUMPDEST PUSH1 0x0 DUP1 SWAP1 SLOAD SWAP1 PUSH2 0x100 EXP SWAP1 DIV PUSH20 0xFFFFFFFFFFFFFFFFFFFFFFFFFFFFFFFFFFFFFFFF AND DUP2 JUMP JUMPDEST PUSH1 0x0 DUP1 PUSH1 0x0 SWAP1 SLOAD SWAP1 PUSH2 0x100 EXP SWAP1 DIV PUSH20 0xFFFFFFFFFFFFFFFFFFFFFFFFFFFFFFFFFFFFFFFF AND PUSH20 0xFFFFFFFFFFFFFFFFFFFFFFFFFFFFFFFFFFFFFFFF AND CALLER PUSH20 0xFFFFFFFFFFFFFFFFFFFFFFFFFFFFFFFFFFFFFFFF AND EQ ISZERO ISZERO PUSH2 0x90C JUMPI PUSH1 0x0 DUP1 REVERT JUMPDEST PUSH1 0x3 SLOAD NUMBER GT ISZERO PUSH2 0x91B JUMPI PUSH1 0x0 DUP1 REVERT JUMPDEST PUSH1 0x5 PUSH1 0x0 SWAP1 SLOAD SWAP1 PUSH2 0x100 EXP SWAP1 DIV PUSH1 0xFF AND ISZERO PUSH2 0x935 JUMPI PUSH1 0x0 DUP1 REVERT JUMPDEST PUSH1 0x1 PUSH1 0x5 PUSH1 0x0 PUSH2 0x100 EXP DUP2 SLOAD DUP2 PUSH1 0xFF MUL NOT AND SWAP1 DUP4 ISZERO ISZERO MUL OR SWAP1 SSTORE POP PUSH32 0x462B6CA7F632601AF1295AEB320851F50E8E630A309173F23535845EA4BFB3B9 PUSH1 0x40 MLOAD PUSH1 0x40 MLOAD DUP1 SWAP2 SUB SWAP1 LOG1 PUSH1 0x1 SWAP1 POP SWAP1 JUMP JUMPDEST PUSH1 0x7 PUSH1 0x0 SWAP1 SLOAD SWAP1 PUSH2 0x100 EXP SWAP1 DIV PUSH20 0xFFFFFFFFFFFFFFFFFFFFFFFFFFFFFFFFFFFFFFFF AND DUP2 JUMP JUMPDEST PUSH1 0x1 SLOAD DUP2 JUMP JUMPDEST PUSH1 0x4 DUP1 SLOAD PUSH1 0x1 DUP2 PUSH1 0x1 AND ISZERO PUSH2 0x100 MUL SUB AND PUSH1 0x2 SWAP1 DIV DUP1 PUSH1 0x1F ADD PUSH1 0x20 DUP1 SWAP2 DIV MUL PUSH1 0x20 ADD PUSH1 0x40 MLOAD SWAP1 DUP2 ADD PUSH1 0x40 MSTORE DUP1 SWAP3 SWAP2 SWAP1 DUP2 DUP2 MSTORE PUSH1 0x20 ADD DUP3 DUP1 SLOAD PUSH1 0x1 DUP2 PUSH1 0x1 AND ISZERO PUSH2 0x100 MUL SUB AND PUSH1 0x2 SWAP1 DIV DUP1 ISZERO PUSH2 0xA45 JUMPI DUP1 PUSH1 0x1F LT PUSH2 0xA1A JUMPI PUSH2 0x100 DUP1 DUP4 SLOAD DIV MUL DUP4 MSTORE SWAP2 PUSH1 0x20 ADD SWAP2 PUSH2 0xA45 JUMP JUMPDEST DUP3 ADD SWAP2 SWAP1 PUSH1 0x0 MSTORE PUSH1 0x20 PUSH1 0x0 KECCAK256 SWAP1 JUMPDEST DUP2 SLOAD DUP2 MSTORE SWAP1 PUSH1 0x1 ADD SWAP1 PUSH1 0x20 ADD DUP1 DUP4 GT PUSH2 0xA28 JUMPI DUP3 SWAP1 SUB PUSH1 0x1F AND DUP3 ADD SWAP2 JUMPDEST POP POP POP POP POP DUP2 JUMP JUMPDEST PUSH1 0x8 PUSH1 0x20 MSTORE DUP1 PUSH1 0x0 MSTORE PUSH1 0x40 PUSH1 0x0 KECCAK256 PUSH1 0x0 SWAP2 POP SWAP1 POP SLOAD DUP2 JUMP JUMPDEST PUSH1 0x0 DUP1 PUSH1 0x0 PUSH1 0x2 SLOAD NUMBER LT ISZERO PUSH2 0xA79 JUMPI PUSH1 0x0 DUP1 REVERT JUMPDEST PUSH1 0x3 SLOAD NUMBER GT ISZERO PUSH2 0xA88 JUMPI PUSH1 0x0 DUP1 REVERT JUMPDEST PUSH1 0x5 PUSH1 0x0 SWAP1 SLOAD SWAP1 PUSH2 0x100 EXP SWAP1 DIV PUSH1 0xFF AND ISZERO PUSH2 0xAA2 JUMPI PUSH1 0x0 DUP1 REVERT JUMPDEST PUSH1 0x0 DUP1 SWAP1 SLOAD SWAP1 PUSH2 0x100 EXP SWAP1 DIV PUSH20 0xFFFFFFFFFFFFFFFFFFFFFFFFFFFFFFFFFFFFFFFF AND PUSH20 0xFFFFFFFFFFFFFFFFFFFFFFFFFFFFFFFFFFFFFFFF AND CALLER PUSH20 0xFFFFFFFFFFFFFFFFFFFFFFFFFFFFFFFFFFFFFFFF AND EQ ISZERO PUSH2 0xAFC JUMPI PUSH1 0x0 DUP1 REVERT JUMPDEST PUSH1 0x0 CALLVALUE EQ ISZERO PUSH2 0xB0A JUMPI PUSH1 0x0 DUP1 REVERT JUMPDEST CALLVALUE PUSH1 0x8 PUSH1 0x0 CALLER PUSH20 0xFFFFFFFFFFFFFFFFFFFFFFFFFFFFFFFFFFFFFFFF AND PUSH20 0xFFFFFFFFFFFFFFFFFFFFFFFFFFFFFFFFFFFFFFFF AND DUP2 MSTORE PUSH1 0x20 ADD SWAP1 DUP2 MSTORE PUSH1 0x20 ADD PUSH1 0x0 KECCAK256 SLOAD ADD SWAP2 POP PUSH1 0x6 SLOAD DUP3 GT ISZERO ISZERO PUSH2 0xB5E JUMPI PUSH1 0x0 DUP1 REVERT JUMPDEST PUSH1 0x8 PUSH1 0x0 PUSH1 0x7 PUSH1 0x0 SWAP1 SLOAD SWAP1 PUSH2 0x100 EXP SWAP1 DIV PUSH20 0xFFFFFFFFFFFFFFFFFFFFFFFFFFFFFFFFFFFFFFFF AND PUSH20 0xFFFFFFFFFFFFFFFFFFFFFFFFFFFFFFFFFFFFFFFF AND PUSH20 0xFFFFFFFFFFFFFFFFFFFFFFFFFFFFFFFFFFFFFFFF AND DUP2 MSTORE PUSH1 0x20 ADD SWAP1 DUP2 MSTORE PUSH1 0x20 ADD PUSH1 0x0 KECCAK256 SLOAD SWAP1 POP DUP2 PUSH1 0x8 PUSH1 0x0 CALLER PUSH20 0xFFFFFFFFFFFFFFFFFFFFFFFFFFFFFFFFFFFFFFFF AND PUSH20 0xFFFFFFFFFFFFFFFFFFFFFFFFFFFFFFFFFFFFFFFF AND DUP2 MSTORE PUSH1 0x20 ADD SWAP1 DUP2 MSTORE PUSH1 0x20 ADD PUSH1 0x0 KECCAK256 DUP2 SWAP1 SSTORE POP DUP1 DUP3 GT ISZERO ISZERO PUSH2 0xC28 JUMPI PUSH2 0xC1D PUSH1 0x1 SLOAD DUP4 ADD DUP3 PUSH2 0xDBB JUMP JUMPDEST PUSH1 0x6 DUP2 SWAP1 SSTORE POP PUSH2 0xCD9 JUMP JUMPDEST PUSH1 0x7 PUSH1 0x0 SWAP1 SLOAD SWAP1 PUSH2 0x100 EXP SWAP1 DIV PUSH20 0xFFFFFFFFFFFFFFFFFFFFFFFFFFFFFFFFFFFFFFFF AND PUSH20 0xFFFFFFFFFFFFFFFFFFFFFFFFFFFFFFFFFFFFFFFF AND CALLER PUSH20 0xFFFFFFFFFFFFFFFFFFFFFFFFFFFFFFFFFFFFFFFF AND EQ ISZERO ISZERO PUSH2 0xCD5 JUMPI CALLER PUSH1 0x7 PUSH1 0x0 PUSH2 0x100 EXP DUP2 SLOAD DUP2 PUSH20 0xFFFFFFFFFFFFFFFFFFFFFFFFFFFFFFFFFFFFFFFF MUL NOT AND SWAP1 DUP4 PUSH20 0xFFFFFFFFFFFFFFFFFFFFFFFFFFFFFFFFFFFFFFFF AND MUL OR SWAP1 SSTORE POP PUSH2 0xCCE DUP3 PUSH1 0x1 SLOAD DUP4 ADD PUSH2 0xDBB JUMP JUMPDEST PUSH1 0x6 DUP2 SWAP1 SSTORE POP JUMPDEST DUP2 SWAP1 POP JUMPDEST PUSH32 0xF152F4FF5E488C55370A2D53925A55055228EBD8EC95BD0251BBB299E48786B0 CALLER DUP4 PUSH1 0x7 PUSH1 0x0 SWAP1 SLOAD SWAP1 PUSH2 0x100 EXP SWAP1 DIV PUSH20 0xFFFFFFFFFFFFFFFFFFFFFFFFFFFFFFFFFFFFFFFF AND DUP5 PUSH1 0x6 SLOAD PUSH1 0x40 MLOAD DUP1 DUP7 PUSH20 0xFFFFFFFFFFFFFFFFFFFFFFFFFFFFFFFFFFFFFFFF AND PUSH20 0xFFFFFFFFFFFFFFFFFFFFFFFFFFFFFFFFFFFFFFFF AND DUP2 MSTORE PUSH1 0x20 ADD DUP6 DUP2 MSTORE PUSH1 0x20 ADD DUP5 PUSH20 0xFFFFFFFFFFFFFFFFFFFFFFFFFFFFFFFFFFFFFFFF AND PUSH20 0xFFFFFFFFFFFFFFFFFFFFFFFFFFFFFFFFFFFFFFFF AND DUP2 MSTORE PUSH1 0x20 ADD DUP4 DUP2 MSTORE PUSH1 0x20 ADD DUP3 DUP2 MSTORE PUSH1 0x20 ADD SWAP6 POP POP POP POP POP POP PUSH1 0x40 MLOAD DUP1 SWAP2 SUB SWAP1 LOG1 PUSH1 0x1 SWAP3 POP POP POP SWAP1 JUMP JUMPDEST PUSH1 0x6 SLOAD DUP2 JUMP JUMPDEST PUSH1 0x0 DUP2 DUP4 LT ISZERO PUSH2 0xDCD JUMPI DUP3 SWAP1 POP PUSH2 0xDD1 JUMP JUMPDEST DUP2 SWAP1 POP JUMPDEST SWAP3 SWAP2 POP POP JUMP STOP LOG1 PUSH6 0x627A7A723058 KECCAK256 SWAP7 INVALID 0xa9 0xf7 PUSH23 0x6FA684A06944079A0475C32F51AE771BA9A58185EA3EB6 PUSH15 0xB4EB3A002900000000000000000000 "
				},
				"gasEstimates": {
					"creation": {
						"codeDepositCost": "717400",
						"executionCost": "infinite",
						"totalCost": "infinite"
					},
					"external": {
						"bidIncrement()": "570",
						"cancelAuction()": "22147",
						"canceled()": "486",
						"endBlock()": "394",
						"fundsByBidder(address)": "752",
						"getHighestBid()": "816",
						"highestBidder()": "596",
						"highestBindingBid()": "658",
						"ipfsHash()": "infinite",
						"owner()": "552",
						"placeBid()": "66135",
						"startBlock()": "460",
						"withdraw()": "infinite"
					},
					"internal": {
						"min(uint256,uint256)": "67"
					}
				},
				"methodIdentifiers": {
					"bidIncrement()": "b3cc167a",
					"cancelAuction()": "8fa8b790",
					"canceled()": "3f9942ff",
					"endBlock()": "083c6323",
					"fundsByBidder(address)": "ce10cf80",
					"getHighestBid()": "4979440a",
					"highestBidder()": "91f90157",
					"highestBindingBid()": "f5b56c56",
					"ipfsHash()": "c623674f",
					"owner()": "8da5cb5b",
					"placeBid()": "ecfc7ecc",
					"startBlock()": "48cd4cb1",
					"withdraw()": "3ccfd60b"
				}
			},
			"userdoc": {
				"methods": {}
			}
		}
	}
}